{
  "contractName": "Event",
  "abi": [
    {
      "inputs": [
        {
          "internalType": "uint256",
          "name": "_numTickets",
          "type": "uint256"
        },
        {
          "internalType": "uint256",
          "name": "_price",
          "type": "uint256"
        },
        {
          "internalType": "bool",
          "name": "_canBeResold",
          "type": "bool"
        }
      ],
      "stateMutability": "nonpayable",
      "type": "constructor"
    },
    {
      "anonymous": false,
      "inputs": [
        {
          "indexed": true,
          "internalType": "address",
          "name": "owner",
          "type": "address"
        },
        {
          "indexed": true,
          "internalType": "address",
          "name": "approved",
          "type": "address"
        },
        {
          "indexed": true,
          "internalType": "uint256",
          "name": "tokenId",
          "type": "uint256"
        }
      ],
      "name": "Approval",
      "type": "event"
    },
    {
      "anonymous": false,
      "inputs": [
        {
          "indexed": true,
          "internalType": "address",
          "name": "owner",
          "type": "address"
        },
        {
          "indexed": true,
          "internalType": "address",
          "name": "operator",
          "type": "address"
        },
        {
          "indexed": false,
          "internalType": "bool",
          "name": "approved",
          "type": "bool"
        }
      ],
      "name": "ApprovalForAll",
      "type": "event"
    },
    {
      "anonymous": false,
      "inputs": [
        {
          "indexed": false,
          "internalType": "address",
          "name": "buyer",
          "type": "address"
        },
        {
          "indexed": false,
          "internalType": "uint256",
          "name": "NFTID",
          "type": "uint256"
        }
      ],
      "name": "CreateNFTTicket",
      "type": "event"
    },
    {
      "anonymous": false,
      "inputs": [
        {
          "indexed": true,
          "internalType": "address",
          "name": "from",
          "type": "address"
        },
        {
          "indexed": true,
          "internalType": "address",
          "name": "to",
          "type": "address"
        },
        {
          "indexed": true,
          "internalType": "uint256",
          "name": "tokenId",
          "type": "uint256"
        }
      ],
      "name": "Transfer",
      "type": "event"
    },
    {
      "inputs": [
        {
          "internalType": "address",
          "name": "to",
          "type": "address"
        },
        {
          "internalType": "uint256",
          "name": "tokenId",
          "type": "uint256"
        }
      ],
      "name": "approve",
      "outputs": [],
      "stateMutability": "nonpayable",
      "type": "function"
    },
    {
      "inputs": [
        {
          "internalType": "address",
          "name": "owner",
          "type": "address"
        }
      ],
      "name": "balanceOf",
      "outputs": [
        {
          "internalType": "uint256",
          "name": "",
          "type": "uint256"
        }
      ],
      "stateMutability": "view",
      "type": "function"
    },
    {
      "inputs": [
        {
          "internalType": "uint256",
          "name": "tokenId",
          "type": "uint256"
        }
      ],
      "name": "getApproved",
      "outputs": [
        {
          "internalType": "address",
          "name": "",
          "type": "address"
        }
      ],
      "stateMutability": "view",
      "type": "function"
    },
    {
      "inputs": [
        {
          "internalType": "address",
          "name": "owner",
          "type": "address"
        },
        {
          "internalType": "address",
          "name": "operator",
          "type": "address"
        }
      ],
      "name": "isApprovedForAll",
      "outputs": [
        {
          "internalType": "bool",
          "name": "",
          "type": "bool"
        }
      ],
      "stateMutability": "view",
      "type": "function"
    },
    {
      "inputs": [],
      "name": "name",
      "outputs": [
        {
          "internalType": "string",
          "name": "",
          "type": "string"
        }
      ],
      "stateMutability": "view",
      "type": "function"
    },
    {
      "inputs": [],
      "name": "owner",
      "outputs": [
        {
          "internalType": "address",
          "name": "",
          "type": "address"
        }
      ],
      "stateMutability": "view",
      "type": "function"
    },
    {
      "inputs": [
        {
          "internalType": "uint256",
          "name": "tokenId",
          "type": "uint256"
        }
      ],
      "name": "ownerOf",
      "outputs": [
        {
          "internalType": "address",
          "name": "",
          "type": "address"
        }
      ],
      "stateMutability": "view",
      "type": "function"
    },
    {
      "inputs": [
        {
          "internalType": "address",
          "name": "from",
          "type": "address"
        },
        {
          "internalType": "address",
          "name": "to",
          "type": "address"
        },
        {
          "internalType": "uint256",
          "name": "tokenId",
          "type": "uint256"
        }
      ],
      "name": "safeTransferFrom",
      "outputs": [],
      "stateMutability": "nonpayable",
      "type": "function"
    },
    {
      "inputs": [
        {
          "internalType": "address",
          "name": "from",
          "type": "address"
        },
        {
          "internalType": "address",
          "name": "to",
          "type": "address"
        },
        {
          "internalType": "uint256",
          "name": "tokenId",
          "type": "uint256"
        },
        {
          "internalType": "bytes",
          "name": "_data",
          "type": "bytes"
        }
      ],
      "name": "safeTransferFrom",
      "outputs": [],
      "stateMutability": "nonpayable",
      "type": "function"
    },
    {
      "inputs": [
        {
          "internalType": "address",
          "name": "operator",
          "type": "address"
        },
        {
          "internalType": "bool",
          "name": "approved",
          "type": "bool"
        }
      ],
      "name": "setApprovalForAll",
      "outputs": [],
      "stateMutability": "nonpayable",
      "type": "function"
    },
    {
      "inputs": [],
      "name": "stage",
      "outputs": [
        {
          "internalType": "enum Event.Stages",
          "name": "",
          "type": "uint8"
        }
      ],
      "stateMutability": "view",
      "type": "function"
    },
    {
      "inputs": [
        {
          "internalType": "bytes4",
          "name": "interfaceId",
          "type": "bytes4"
        }
      ],
      "name": "supportsInterface",
      "outputs": [
        {
          "internalType": "bool",
          "name": "",
          "type": "bool"
        }
      ],
      "stateMutability": "view",
      "type": "function"
    },
    {
      "inputs": [],
      "name": "symbol",
      "outputs": [
        {
          "internalType": "string",
          "name": "",
          "type": "string"
        }
      ],
      "stateMutability": "view",
      "type": "function"
    },
    {
      "inputs": [
        {
          "internalType": "uint256",
          "name": "tokenId",
          "type": "uint256"
        }
      ],
      "name": "tokenURI",
      "outputs": [
        {
          "internalType": "string",
          "name": "",
          "type": "string"
        }
      ],
      "stateMutability": "view",
      "type": "function"
    },
    {
      "inputs": [
        {
          "internalType": "address",
          "name": "from",
          "type": "address"
        },
        {
          "internalType": "address",
          "name": "to",
          "type": "address"
        },
        {
          "internalType": "uint256",
          "name": "tokenId",
          "type": "uint256"
        }
      ],
      "name": "transferFrom",
      "outputs": [],
      "stateMutability": "nonpayable",
      "type": "function"
    },
    {
      "inputs": [],
      "name": "buyTicket",
      "outputs": [],
      "stateMutability": "payable",
      "type": "function"
    },
    {
      "inputs": [
        {
          "internalType": "enum Event.Stages",
          "name": "_stage",
          "type": "uint8"
        }
      ],
      "name": "setStage",
      "outputs": [],
      "stateMutability": "nonpayable",
      "type": "function"
    }
  ],
  "bytecode": "0x60806040526000600660006101000a81548160ff0219169083600581111562000051577f4e487b7100000000000000000000000000000000000000000000000000000000600052602160045260246000fd5b02179055503480156200006357600080fd5b5060405162002eb138038062002eb1833981810160405281019062000089919062000279565b6040518060400160405280600581526020017f4576656e740000000000000000000000000000000000000000000000000000008152506040518060400160405280600681526020017f53796d626f6c000000000000000000000000000000000000000000000000000081525081600090805190602001906200010d9291906200019b565b508060019080519060200190620001269291906200019b565b50505033600a60016101000a81548173ffffffffffffffffffffffffffffffffffffffff021916908373ffffffffffffffffffffffffffffffffffffffff160217905550826008819055508160098190555080600a60006101000a81548160ff0219169083151502179055505050506200037e565b828054620001a990620002e5565b90600052602060002090601f016020900481019282620001cd576000855562000219565b82601f10620001e857805160ff191683800117855562000219565b8280016001018555821562000219579182015b8281111562000218578251825591602001919060010190620001fb565b5b5090506200022891906200022c565b5090565b5b80821115620002475760008160009055506001016200022d565b5090565b6000815190506200025c816200034a565b92915050565b600081519050620002738162000364565b92915050565b6000806000606084860312156200028f57600080fd5b60006200029f8682870162000262565b9350506020620002b28682870162000262565b9250506040620002c5868287016200024b565b9150509250925092565b60008115159050919050565b6000819050919050565b60006002820490506001821680620002fe57607f821691505b602082108114156200031557620003146200031b565b5b50919050565b7f4e487b7100000000000000000000000000000000000000000000000000000000600052602260045260246000fd5b6200035581620002cf565b81146200036157600080fd5b50565b6200036f81620002db565b81146200037b57600080fd5b50565b612b23806200038e6000396000f3fe6080604052600436106100fe5760003560e01c80638da5cb5b11610095578063c040e6b811610064578063c040e6b814610345578063c87b56dd14610370578063ce3cd997146103ad578063e985e9c5146103d6578063edca914c14610413576100fe565b80638da5cb5b1461029d57806395d89b41146102c8578063a22cb465146102f3578063b88d4fde1461031c576100fe565b806323b872dd116100d157806323b872dd146101d157806342842e0e146101fa5780636352211e1461022357806370a0823114610260576100fe565b806301ffc9a71461010357806306fdde0314610140578063081812fc1461016b578063095ea7b3146101a8575b600080fd5b34801561010f57600080fd5b5061012a60048036038101906101259190611cd5565b61041d565b604051610137919061242e565b60405180910390f35b34801561014c57600080fd5b506101556104ff565b6040516101629190612464565b60405180910390f35b34801561017757600080fd5b50610192600480360381019061018d9190611d50565b610591565b60405161019f919061239e565b60405180910390f35b3480156101b457600080fd5b506101cf60048036038101906101ca9190611c99565b610616565b005b3480156101dd57600080fd5b506101f860048036038101906101f39190611b93565b61072e565b005b34801561020657600080fd5b50610221600480360381019061021c9190611b93565b61078e565b005b34801561022f57600080fd5b5061024a60048036038101906102459190611d50565b6107ae565b604051610257919061239e565b60405180910390f35b34801561026c57600080fd5b5061028760048036038101906102829190611b2e565b610860565b6040516102949190612646565b60405180910390f35b3480156102a957600080fd5b506102b2610918565b6040516102bf919061239e565b60405180910390f35b3480156102d457600080fd5b506102dd61093e565b6040516102ea9190612464565b60405180910390f35b3480156102ff57600080fd5b5061031a60048036038101906103159190611c5d565b6109d0565b005b34801561032857600080fd5b50610343600480360381019061033e9190611be2565b610b51565b005b34801561035157600080fd5b5061035a610bb3565b6040516103679190612449565b60405180910390f35b34801561037c57600080fd5b5061039760048036038101906103929190611d50565b610bc6565b6040516103a49190612464565b60405180910390f35b3480156103b957600080fd5b506103d460048036038101906103cf9190611d27565b610c6d565b005b3480156103e257600080fd5b506103fd60048036038101906103f89190611b57565b610cc0565b60405161040a919061242e565b60405180910390f35b61041b610d54565b005b60007f80ac58cd000000000000000000000000000000000000000000000000000000007bffffffffffffffffffffffffffffffffffffffffffffffffffffffff1916827bffffffffffffffffffffffffffffffffffffffffffffffffffffffff191614806104e857507f5b5e139f000000000000000000000000000000000000000000000000000000007bffffffffffffffffffffffffffffffffffffffffffffffffffffffff1916827bffffffffffffffffffffffffffffffffffffffffffffffffffffffff1916145b806104f857506104f782610f98565b5b9050919050565b60606000805461050e906128c5565b80601f016020809104026020016040519081016040528092919081815260200182805461053a906128c5565b80156105875780601f1061055c57610100808354040283529160200191610587565b820191906000526020600020905b81548152906001019060200180831161056a57829003601f168201915b5050505050905090565b600061059c82611002565b6105db576040517f08c379a00000000000000000000000000000000000000000000000000000000081526004016105d2906125a6565b60405180910390fd5b6004600083815260200190815260200160002060009054906101000a900473ffffffffffffffffffffffffffffffffffffffff169050919050565b6000610621826107ae565b90508073ffffffffffffffffffffffffffffffffffffffff168373ffffffffffffffffffffffffffffffffffffffff161415610692576040517f08c379a000000000000000000000000000000000000000000000000000000000815260040161068990612606565b60405180910390fd5b8073ffffffffffffffffffffffffffffffffffffffff166106b161106e565b73ffffffffffffffffffffffffffffffffffffffff1614806106e057506106df816106da61106e565b610cc0565b5b61071f576040517f08c379a000000000000000000000000000000000000000000000000000000000815260040161071690612526565b60405180910390fd5b6107298383611076565b505050565b61073f61073961106e565b8261112f565b61077e576040517f08c379a000000000000000000000000000000000000000000000000000000000815260040161077590612626565b60405180910390fd5b61078983838361120d565b505050565b6107a983838360405180602001604052806000815250610b51565b505050565b6000806002600084815260200190815260200160002060009054906101000a900473ffffffffffffffffffffffffffffffffffffffff169050600073ffffffffffffffffffffffffffffffffffffffff168173ffffffffffffffffffffffffffffffffffffffff161415610857576040517f08c379a000000000000000000000000000000000000000000000000000000000815260040161084e90612566565b60405180910390fd5b80915050919050565b60008073ffffffffffffffffffffffffffffffffffffffff168273ffffffffffffffffffffffffffffffffffffffff1614156108d1576040517f08c379a00000000000000000000000000000000000000000000000000000000081526004016108c890612546565b60405180910390fd5b600360008373ffffffffffffffffffffffffffffffffffffffff1673ffffffffffffffffffffffffffffffffffffffff168152602001908152602001600020549050919050565b600a60019054906101000a900473ffffffffffffffffffffffffffffffffffffffff1681565b60606001805461094d906128c5565b80601f0160208091040260200160405190810160405280929190818152602001828054610979906128c5565b80156109c65780601f1061099b576101008083540402835291602001916109c6565b820191906000526020600020905b8154815290600101906020018083116109a957829003601f168201915b5050505050905090565b6109d861106e565b73ffffffffffffffffffffffffffffffffffffffff168273ffffffffffffffffffffffffffffffffffffffff161415610a46576040517f08c379a0000000000000000000000000000000000000000000000000000000008152600401610a3d906124e6565b60405180910390fd5b8060056000610a5361106e565b73ffffffffffffffffffffffffffffffffffffffff1673ffffffffffffffffffffffffffffffffffffffff16815260200190815260200160002060008473ffffffffffffffffffffffffffffffffffffffff1673ffffffffffffffffffffffffffffffffffffffff16815260200190815260200160002060006101000a81548160ff0219169083151502179055508173ffffffffffffffffffffffffffffffffffffffff16610b0061106e565b73ffffffffffffffffffffffffffffffffffffffff167f17307eab39ab6107e8899845ad3d59bd9653f200f220920489ca2b5937696c3183604051610b45919061242e565b60405180910390a35050565b610b62610b5c61106e565b8361112f565b610ba1576040517f08c379a0000000000000000000000000000000000000000000000000000000008152600401610b9890612626565b60405180910390fd5b610bad84848484611469565b50505050565b600660009054906101000a900460ff1681565b6060610bd182611002565b610c10576040517f08c379a0000000000000000000000000000000000000000000000000000000008152600401610c07906125e6565b60405180910390fd5b6000610c1a6114c5565b90506000815111610c3a5760405180602001604052806000815250610c65565b80610c44846114dc565b604051602001610c5592919061237a565b6040516020818303038152906040525b915050919050565b80600660006101000a81548160ff02191690836005811115610cb8577f4e487b7100000000000000000000000000000000000000000000000000000000600052602160045260246000fd5b021790555050565b6000600560008473ffffffffffffffffffffffffffffffffffffffff1673ffffffffffffffffffffffffffffffffffffffff16815260200190815260200160002060008373ffffffffffffffffffffffffffffffffffffffff1673ffffffffffffffffffffffffffffffffffffffff16815260200190815260200160002060009054906101000a900460ff16905092915050565b6001806005811115610d8f577f4e487b7100000000000000000000000000000000000000000000000000000000600052602160045260246000fd5b600660009054906101000a900460ff166005811115610dd7577f4e487b7100000000000000000000000000000000000000000000000000000000600052602160045260246000fd5b14610de157600080fd5b600060085411610df057600080fd5b34600954811015610e0057600080fd5b610e08611a06565b33816000019073ffffffffffffffffffffffffffffffffffffffff16908173ffffffffffffffffffffffffffffffffffffffff168152505060095481602001818152505060008160400190151590811515815250506000816060019015159081151581525050600781908060018154018082558091505060019003906000526020600020906003020160009091909190915060008201518160000160006101000a81548173ffffffffffffffffffffffffffffffffffffffff021916908373ffffffffffffffffffffffffffffffffffffffff1602179055506020820151816001015560408201518160020160006101000a81548160ff02191690831515021790555060608201518160020160016101000a81548160ff02191690831515021790555050506000600780549050905060086000815480929190610f4a9061289b565b9190505550610f593382611689565b7f93eeda3ba32b6c8680fa8458ef9dd061ee3fcc7d1d9c142f93b1a5e5c1aa418a3382604051610f8a929190612405565b60405180910390a150505050565b60007f01ffc9a7000000000000000000000000000000000000000000000000000000007bffffffffffffffffffffffffffffffffffffffffffffffffffffffff1916827bffffffffffffffffffffffffffffffffffffffffffffffffffffffff1916149050919050565b60008073ffffffffffffffffffffffffffffffffffffffff166002600084815260200190815260200160002060009054906101000a900473ffffffffffffffffffffffffffffffffffffffff1673ffffffffffffffffffffffffffffffffffffffff1614159050919050565b600033905090565b816004600083815260200190815260200160002060006101000a81548173ffffffffffffffffffffffffffffffffffffffff021916908373ffffffffffffffffffffffffffffffffffffffff160217905550808273ffffffffffffffffffffffffffffffffffffffff166110e9836107ae565b73ffffffffffffffffffffffffffffffffffffffff167f8c5be1e5ebec7d5bd14f71427d1e84f3dd0314c0f7b2291e5b200ac8c7c3b92560405160405180910390a45050565b600061113a82611002565b611179576040517f08c379a000000000000000000000000000000000000000000000000000000000815260040161117090612506565b60405180910390fd5b6000611184836107ae565b90508073ffffffffffffffffffffffffffffffffffffffff168473ffffffffffffffffffffffffffffffffffffffff1614806111f357508373ffffffffffffffffffffffffffffffffffffffff166111db84610591565b73ffffffffffffffffffffffffffffffffffffffff16145b8061120457506112038185610cc0565b5b91505092915050565b8273ffffffffffffffffffffffffffffffffffffffff1661122d826107ae565b73ffffffffffffffffffffffffffffffffffffffff1614611283576040517f08c379a000000000000000000000000000000000000000000000000000000000815260040161127a906125c6565b60405180910390fd5b600073ffffffffffffffffffffffffffffffffffffffff168273ffffffffffffffffffffffffffffffffffffffff1614156112f3576040517f08c379a00000000000000000000000000000000000000000000000000000000081526004016112ea906124c6565b60405180910390fd5b6112fe838383611857565b611309600082611076565b6001600360008573ffffffffffffffffffffffffffffffffffffffff1673ffffffffffffffffffffffffffffffffffffffff1681526020019081526020016000206000828254611359919061278c565b925050819055506001600360008473ffffffffffffffffffffffffffffffffffffffff1673ffffffffffffffffffffffffffffffffffffffff16815260200190815260200160002060008282546113b09190612705565b92505081905550816002600083815260200190815260200160002060006101000a81548173ffffffffffffffffffffffffffffffffffffffff021916908373ffffffffffffffffffffffffffffffffffffffff160217905550808273ffffffffffffffffffffffffffffffffffffffff168473ffffffffffffffffffffffffffffffffffffffff167fddf252ad1be2c89b69c2b068fc378daa952ba7f163c4a11628f55a4df523b3ef60405160405180910390a4505050565b61147484848461120d565b6114808484848461185c565b6114bf576040517f08c379a00000000000000000000000000000000000000000000000000000000081526004016114b690612486565b60405180910390fd5b50505050565b606060405180602001604052806000815250905090565b60606000821415611524576040518060400160405280600181526020017f30000000000000000000000000000000000000000000000000000000000000008152509050611684565b600082905060005b6000821461155657808061153f906128f7565b915050600a8261154f919061275b565b915061152c565b60008167ffffffffffffffff811115611598577f4e487b7100000000000000000000000000000000000000000000000000000000600052604160045260246000fd5b6040519080825280601f01601f1916602001820160405280156115ca5781602001600182028036833780820191505090505b5090505b6000851461167d576001826115e3919061278c565b9150600a856115f29190612940565b60306115fe9190612705565b60f81b81838151811061163a577f4e487b7100000000000000000000000000000000000000000000000000000000600052603260045260246000fd5b60200101907effffffffffffffffffffffffffffffffffffffffffffffffffffffffffffff1916908160001a905350600a85611676919061275b565b94506115ce565b8093505050505b919050565b600073ffffffffffffffffffffffffffffffffffffffff168273ffffffffffffffffffffffffffffffffffffffff1614156116f9576040517f08c379a00000000000000000000000000000000000000000000000000000000081526004016116f090612586565b60405180910390fd5b61170281611002565b15611742576040517f08c379a0000000000000000000000000000000000000000000000000000000008152600401611739906124a6565b60405180910390fd5b61174e60008383611857565b6001600360008473ffffffffffffffffffffffffffffffffffffffff1673ffffffffffffffffffffffffffffffffffffffff168152602001908152602001600020600082825461179e9190612705565b92505081905550816002600083815260200190815260200160002060006101000a81548173ffffffffffffffffffffffffffffffffffffffff021916908373ffffffffffffffffffffffffffffffffffffffff160217905550808273ffffffffffffffffffffffffffffffffffffffff16600073ffffffffffffffffffffffffffffffffffffffff167fddf252ad1be2c89b69c2b068fc378daa952ba7f163c4a11628f55a4df523b3ef60405160405180910390a45050565b505050565b600061187d8473ffffffffffffffffffffffffffffffffffffffff166119f3565b156119e6578373ffffffffffffffffffffffffffffffffffffffff1663150b7a026118a661106e565b8786866040518563ffffffff1660e01b81526004016118c894939291906123b9565b602060405180830381600087803b1580156118e257600080fd5b505af192505050801561191357506040513d601f19601f820116820180604052508101906119109190611cfe565b60015b611996573d8060008114611943576040519150601f19603f3d011682016040523d82523d6000602084013e611948565b606091505b5060008151141561198e576040517f08c379a000000000000000000000000000000000000000000000000000000000815260040161198590612486565b60405180910390fd5b805181602001fd5b63150b7a0260e01b7bffffffffffffffffffffffffffffffffffffffffffffffffffffffff1916817bffffffffffffffffffffffffffffffffffffffffffffffffffffffff1916149150506119eb565b600190505b949350505050565b600080823b905060008111915050919050565b6040518060800160405280600073ffffffffffffffffffffffffffffffffffffffff168152602001600081526020016000151581526020016000151581525090565b6000611a5b611a5684612692565b612661565b905082815260208101848484011115611a7357600080fd5b611a7e848285612859565b509392505050565b600081359050611a9581612a81565b92915050565b600081359050611aaa81612a98565b92915050565b600081359050611abf81612aaf565b92915050565b600081519050611ad481612aaf565b92915050565b600082601f830112611aeb57600080fd5b8135611afb848260208601611a48565b91505092915050565b600081359050611b1381612ac6565b92915050565b600081359050611b2881612ad6565b92915050565b600060208284031215611b4057600080fd5b6000611b4e84828501611a86565b91505092915050565b60008060408385031215611b6a57600080fd5b6000611b7885828601611a86565b9250506020611b8985828601611a86565b9150509250929050565b600080600060608486031215611ba857600080fd5b6000611bb686828701611a86565b9350506020611bc786828701611a86565b9250506040611bd886828701611b19565b9150509250925092565b60008060008060808587031215611bf857600080fd5b6000611c0687828801611a86565b9450506020611c1787828801611a86565b9350506040611c2887828801611b19565b925050606085013567ffffffffffffffff811115611c4557600080fd5b611c5187828801611ada565b91505092959194509250565b60008060408385031215611c7057600080fd5b6000611c7e85828601611a86565b9250506020611c8f85828601611a9b565b9150509250929050565b60008060408385031215611cac57600080fd5b6000611cba85828601611a86565b9250506020611ccb85828601611b19565b9150509250929050565b600060208284031215611ce757600080fd5b6000611cf584828501611ab0565b91505092915050565b600060208284031215611d1057600080fd5b6000611d1e84828501611ac5565b91505092915050565b600060208284031215611d3957600080fd5b6000611d4784828501611b04565b91505092915050565b600060208284031215611d6257600080fd5b6000611d7084828501611b19565b91505092915050565b611d82816127c0565b82525050565b611d91816127d2565b82525050565b6000611da2826126c2565b611dac81856126d8565b9350611dbc818560208601612868565b611dc581612a5c565b840191505092915050565b611dd981612847565b82525050565b6000611dea826126cd565b611df481856126e9565b9350611e04818560208601612868565b611e0d81612a5c565b840191505092915050565b6000611e23826126cd565b611e2d81856126fa565b9350611e3d818560208601612868565b80840191505092915050565b6000611e566032836126e9565b91507f4552433732313a207472616e7366657220746f206e6f6e20455243373231526560008301527f63656976657220696d706c656d656e74657200000000000000000000000000006020830152604082019050919050565b6000611ebc601c836126e9565b91507f4552433732313a20746f6b656e20616c7265616479206d696e746564000000006000830152602082019050919050565b6000611efc6024836126e9565b91507f4552433732313a207472616e7366657220746f20746865207a65726f2061646460008301527f72657373000000000000000000000000000000000000000000000000000000006020830152604082019050919050565b6000611f626019836126e9565b91507f4552433732313a20617070726f766520746f2063616c6c6572000000000000006000830152602082019050919050565b6000611fa2602c836126e9565b91507f4552433732313a206f70657261746f7220717565727920666f72206e6f6e657860008301527f697374656e7420746f6b656e00000000000000000000000000000000000000006020830152604082019050919050565b60006120086038836126e9565b91507f4552433732313a20617070726f76652063616c6c6572206973206e6f74206f7760008301527f6e6572206e6f7220617070726f76656420666f7220616c6c00000000000000006020830152604082019050919050565b600061206e602a836126e9565b91507f4552433732313a2062616c616e636520717565727920666f7220746865207a6560008301527f726f2061646472657373000000000000000000000000000000000000000000006020830152604082019050919050565b60006120d46029836126e9565b91507f4552433732313a206f776e657220717565727920666f72206e6f6e657869737460008301527f656e7420746f6b656e00000000000000000000000000000000000000000000006020830152604082019050919050565b600061213a6020836126e9565b91507f4552433732313a206d696e7420746f20746865207a65726f20616464726573736000830152602082019050919050565b600061217a602c836126e9565b91507f4552433732313a20617070726f76656420717565727920666f72206e6f6e657860008301527f697374656e7420746f6b656e00000000000000000000000000000000000000006020830152604082019050919050565b60006121e06029836126e9565b91507f4552433732313a207472616e73666572206f6620746f6b656e2074686174206960008301527f73206e6f74206f776e00000000000000000000000000000000000000000000006020830152604082019050919050565b6000612246602f836126e9565b91507f4552433732314d657461646174613a2055524920717565727920666f72206e6f60008301527f6e6578697374656e7420746f6b656e00000000000000000000000000000000006020830152604082019050919050565b60006122ac6021836126e9565b91507f4552433732313a20617070726f76616c20746f2063757272656e74206f776e6560008301527f72000000000000000000000000000000000000000000000000000000000000006020830152604082019050919050565b60006123126031836126e9565b91507f4552433732313a207472616e736665722063616c6c6572206973206e6f74206f60008301527f776e6572206e6f7220617070726f7665640000000000000000000000000000006020830152604082019050919050565b6123748161283d565b82525050565b60006123868285611e18565b91506123928284611e18565b91508190509392505050565b60006020820190506123b36000830184611d79565b92915050565b60006080820190506123ce6000830187611d79565b6123db6020830186611d79565b6123e8604083018561236b565b81810360608301526123fa8184611d97565b905095945050505050565b600060408201905061241a6000830185611d79565b612427602083018461236b565b9392505050565b60006020820190506124436000830184611d88565b92915050565b600060208201905061245e6000830184611dd0565b92915050565b6000602082019050818103600083015261247e8184611ddf565b905092915050565b6000602082019050818103600083015261249f81611e49565b9050919050565b600060208201905081810360008301526124bf81611eaf565b9050919050565b600060208201905081810360008301526124df81611eef565b9050919050565b600060208201905081810360008301526124ff81611f55565b9050919050565b6000602082019050818103600083015261251f81611f95565b9050919050565b6000602082019050818103600083015261253f81611ffb565b9050919050565b6000602082019050818103600083015261255f81612061565b9050919050565b6000602082019050818103600083015261257f816120c7565b9050919050565b6000602082019050818103600083015261259f8161212d565b9050919050565b600060208201905081810360008301526125bf8161216d565b9050919050565b600060208201905081810360008301526125df816121d3565b9050919050565b600060208201905081810360008301526125ff81612239565b9050919050565b6000602082019050818103600083015261261f8161229f565b9050919050565b6000602082019050818103600083015261263f81612305565b9050919050565b600060208201905061265b600083018461236b565b92915050565b6000604051905081810181811067ffffffffffffffff8211171561268857612687612a2d565b5b8060405250919050565b600067ffffffffffffffff8211156126ad576126ac612a2d565b5b601f19601f8301169050602081019050919050565b600081519050919050565b600081519050919050565b600082825260208201905092915050565b600082825260208201905092915050565b600081905092915050565b60006127108261283d565b915061271b8361283d565b9250827fffffffffffffffffffffffffffffffffffffffffffffffffffffffffffffffff038211156127505761274f612971565b5b828201905092915050565b60006127668261283d565b91506127718361283d565b925082612781576127806129a0565b5b828204905092915050565b60006127978261283d565b91506127a28361283d565b9250828210156127b5576127b4612971565b5b828203905092915050565b60006127cb8261281d565b9050919050565b60008115159050919050565b60007fffffffff0000000000000000000000000000000000000000000000000000000082169050919050565b600081905061281882612a6d565b919050565b600073ffffffffffffffffffffffffffffffffffffffff82169050919050565b6000819050919050565b60006128528261280a565b9050919050565b82818337600083830152505050565b60005b8381101561288657808201518184015260208101905061286b565b83811115612895576000848401525b50505050565b60006128a68261283d565b915060008214156128ba576128b9612971565b5b600182039050919050565b600060028204905060018216806128dd57607f821691505b602082108114156128f1576128f06129fe565b5b50919050565b60006129028261283d565b91507fffffffffffffffffffffffffffffffffffffffffffffffffffffffffffffffff82141561293557612934612971565b5b600182019050919050565b600061294b8261283d565b91506129568361283d565b925082612966576129656129a0565b5b828206905092915050565b7f4e487b7100000000000000000000000000000000000000000000000000000000600052601160045260246000fd5b7f4e487b7100000000000000000000000000000000000000000000000000000000600052601260045260246000fd5b7f4e487b7100000000000000000000000000000000000000000000000000000000600052602160045260246000fd5b7f4e487b7100000000000000000000000000000000000000000000000000000000600052602260045260246000fd5b7f4e487b7100000000000000000000000000000000000000000000000000000000600052604160045260246000fd5b6000601f19601f8301169050919050565b60068110612a7e57612a7d6129cf565b5b50565b612a8a816127c0565b8114612a9557600080fd5b50565b612aa1816127d2565b8114612aac57600080fd5b50565b612ab8816127de565b8114612ac357600080fd5b50565b60068110612ad357600080fd5b50565b612adf8161283d565b8114612aea57600080fd5b5056fea2646970667358221220ee3ab54e2cec0b8e65ab1546abc9af02249071a9267a59441da79c9b882c55a564736f6c63430008000033",
  "immutableReferences": {},
  "source": "// SPDX-License-Identifier: UNLICENSED\npragma solidity 0.8.0;\nimport \"@openzeppelin/contracts/token/ERC721/ERC721.sol\";\n\ncontract Event is ERC721 {\n\n    enum Stages { Prep, Active, Paused, CheckinOpen, Cancelled, Closed }\n    Stages public stage = Stages.Prep;\n    // Ticket struct \n    struct Ticket {\n        address owner;\n        uint price;\n        bool forSale;\n        bool used;\n    }\n    Ticket[] tickets; \n    uint numTicketsLeft;\n    uint price;\n    // For each user, store corresponding ticket struct\n    // mapping(address => Ticket) tickets;\n    bool canBeResold;\n    address public owner;\n\n    // EVENTS\n    event CreateNFTTicket(address buyer, uint NFTID);\n\n    // Creates a new Event Contract\n    constructor(uint _numTickets, uint _price, bool _canBeResold) ERC721(\"Event\", \"Symbol\") {\n        owner = msg.sender;\n        numTicketsLeft = _numTickets;\n        price = _price;\n        canBeResold = _canBeResold;\n    }\n\n    // Customer purchases a ticket from Organizer\n    // Checks: State is Active, has enough money, \n    function buyTicket() public payable requiredStage(Stages.Active) ticketsLeft hasEnoughMoney(msg.value) {\n        // Create Ticket t\n        Ticket memory t;\n        t.owner = msg.sender;\n        t.price = price;\n        t.forSale = false;\n        t.used = false;\n\n        // Store t in tickets array, reduce numTicketsLeft\n        tickets.push(t);\n        uint NFTID = tickets.length;\n        numTicketsLeft--;\n\n        // Mint NFT\n        _mint(msg.sender, NFTID);\n        emit CreateNFTTicket(msg.sender, NFTID);\n    }\n\n    // Set new stage\n    function setStage(Stages _stage) public {\n        stage = _stage;\n    }\n\n\n\n\n    // MODIFIERS\n\n    // Requires stage to be _stage\n    modifier requiredStage(Stages _stage) {\n        require(stage == _stage);\n        _;\n    }\n\n    // Requires there to be more than 0 tickets left\n    modifier ticketsLeft() {\n        require(numTicketsLeft > 0);\n        _;\n    }\n\n    modifier hasEnoughMoney(uint money) {\n        require(money >= price);\n        _;\n    }\n\n}",
  "sourcePath": "/Users/michaelgysel/Desktop/GDrive/Classes/CURRENT - T2 2021/COMP6452/Projects/Project 2/code/src/contracts/Event.sol",
  "compiler": {
    "name": "solc",
    "version": "0.8.0+commit.c7dfd78e.Emscripten.clang"
  },
  "schemaVersion": "3.4.1",
  "updatedAt": "2021-07-10T04:37:39.943Z",
  "devdoc": {
    "kind": "dev",
    "methods": {
      "approve(address,uint256)": {
        "details": "See {IERC721-approve}."
      },
      "balanceOf(address)": {
        "details": "See {IERC721-balanceOf}."
      },
      "getApproved(uint256)": {
        "details": "See {IERC721-getApproved}."
      },
      "isApprovedForAll(address,address)": {
        "details": "See {IERC721-isApprovedForAll}."
      },
      "name()": {
        "details": "See {IERC721Metadata-name}."
      },
      "ownerOf(uint256)": {
        "details": "See {IERC721-ownerOf}."
      },
      "safeTransferFrom(address,address,uint256)": {
        "details": "See {IERC721-safeTransferFrom}."
      },
      "safeTransferFrom(address,address,uint256,bytes)": {
        "details": "See {IERC721-safeTransferFrom}."
      },
      "setApprovalForAll(address,bool)": {
        "details": "See {IERC721-setApprovalForAll}."
      },
      "supportsInterface(bytes4)": {
        "details": "See {IERC165-supportsInterface}."
      },
      "symbol()": {
        "details": "See {IERC721Metadata-symbol}."
      },
      "tokenURI(uint256)": {
        "details": "See {IERC721Metadata-tokenURI}."
      },
      "transferFrom(address,address,uint256)": {
        "details": "See {IERC721-transferFrom}."
      }
    },
    "version": 1
  },
  "userdoc": {
    "kind": "user",
    "methods": {},
    "version": 1
  }
}