{
  "contractName": "Event",
  "abi": [
    {
      "inputs": [
        {
          "internalType": "address",
          "name": "_owner",
          "type": "address"
        },
        {
          "internalType": "uint32",
          "name": "_numTickets",
          "type": "uint32"
        },
        {
          "internalType": "uint32",
          "name": "_price",
          "type": "uint32"
        },
        {
          "internalType": "bool",
          "name": "_canBeResold",
          "type": "bool"
        },
        {
          "internalType": "uint8",
          "name": "_royaltyPercent",
          "type": "uint8"
        },
        {
          "internalType": "string",
          "name": "_eventName",
          "type": "string"
        },
        {
          "internalType": "string",
          "name": "_eventSymbol",
          "type": "string"
        }
      ],
      "stateMutability": "nonpayable",
      "type": "constructor"
    },
    {
      "anonymous": false,
      "inputs": [
        {
          "indexed": true,
          "internalType": "address",
          "name": "owner",
          "type": "address"
        },
        {
          "indexed": true,
          "internalType": "address",
          "name": "approved",
          "type": "address"
        },
        {
          "indexed": true,
          "internalType": "uint256",
          "name": "tokenId",
          "type": "uint256"
        }
      ],
      "name": "Approval",
      "type": "event"
    },
    {
      "anonymous": false,
      "inputs": [
        {
          "indexed": true,
          "internalType": "address",
          "name": "owner",
          "type": "address"
        },
        {
          "indexed": true,
          "internalType": "address",
          "name": "operator",
          "type": "address"
        },
        {
          "indexed": false,
          "internalType": "bool",
          "name": "approved",
          "type": "bool"
        }
      ],
      "name": "ApprovalForAll",
      "type": "event"
    },
    {
      "anonymous": false,
      "inputs": [
        {
          "indexed": false,
          "internalType": "address",
          "name": "buyer",
          "type": "address"
        },
        {
          "indexed": false,
          "internalType": "uint256",
          "name": "ticketID",
          "type": "uint256"
        }
      ],
      "name": "CreateTicket",
      "type": "event"
    },
    {
      "anonymous": false,
      "inputs": [
        {
          "indexed": false,
          "internalType": "address",
          "name": "owner",
          "type": "address"
        },
        {
          "indexed": false,
          "internalType": "uint256",
          "name": "money",
          "type": "uint256"
        }
      ],
      "name": "OwnerWithdrawMoney",
      "type": "event"
    },
    {
      "anonymous": false,
      "inputs": [
        {
          "indexed": false,
          "internalType": "address",
          "name": "seller",
          "type": "address"
        },
        {
          "indexed": false,
          "internalType": "uint256",
          "name": "ticketID",
          "type": "uint256"
        }
      ],
      "name": "TicketForSale",
      "type": "event"
    },
    {
      "anonymous": false,
      "inputs": [
        {
          "indexed": false,
          "internalType": "address",
          "name": "seller",
          "type": "address"
        },
        {
          "indexed": false,
          "internalType": "address",
          "name": "buyer",
          "type": "address"
        },
        {
          "indexed": false,
          "internalType": "uint256",
          "name": "ticketID",
          "type": "uint256"
        }
      ],
      "name": "TicketSold",
      "type": "event"
    },
    {
      "anonymous": false,
      "inputs": [
        {
          "indexed": false,
          "internalType": "string",
          "name": "eventName",
          "type": "string"
        },
        {
          "indexed": false,
          "internalType": "string",
          "name": "sQRCodeKey",
          "type": "string"
        }
      ],
      "name": "TicketUsed",
      "type": "event"
    },
    {
      "anonymous": false,
      "inputs": [
        {
          "indexed": true,
          "internalType": "address",
          "name": "from",
          "type": "address"
        },
        {
          "indexed": true,
          "internalType": "address",
          "name": "to",
          "type": "address"
        },
        {
          "indexed": true,
          "internalType": "uint256",
          "name": "tokenId",
          "type": "uint256"
        }
      ],
      "name": "Transfer",
      "type": "event"
    },
    {
      "anonymous": false,
      "inputs": [
        {
          "indexed": false,
          "internalType": "address",
          "name": "receiver",
          "type": "address"
        },
        {
          "indexed": false,
          "internalType": "uint256",
          "name": "money",
          "type": "uint256"
        }
      ],
      "name": "WithdrawMoney",
      "type": "event"
    },
    {
      "inputs": [
        {
          "internalType": "address",
          "name": "to",
          "type": "address"
        },
        {
          "internalType": "uint256",
          "name": "tokenId",
          "type": "uint256"
        }
      ],
      "name": "approve",
      "outputs": [],
      "stateMutability": "nonpayable",
      "type": "function"
    },
    {
      "inputs": [
        {
          "internalType": "address",
          "name": "owner",
          "type": "address"
        }
      ],
      "name": "balanceOf",
      "outputs": [
        {
          "internalType": "uint256",
          "name": "",
          "type": "uint256"
        }
      ],
      "stateMutability": "view",
      "type": "function"
    },
    {
      "inputs": [
        {
          "internalType": "address",
          "name": "",
          "type": "address"
        }
      ],
      "name": "balances",
      "outputs": [
        {
          "internalType": "uint256",
          "name": "",
          "type": "uint256"
        }
      ],
      "stateMutability": "view",
      "type": "function"
    },
    {
      "inputs": [],
      "name": "canBeResold",
      "outputs": [
        {
          "internalType": "bool",
          "name": "",
          "type": "bool"
        }
      ],
      "stateMutability": "view",
      "type": "function"
    },
    {
      "inputs": [
        {
          "internalType": "uint256",
          "name": "tokenId",
          "type": "uint256"
        }
      ],
      "name": "getApproved",
      "outputs": [
        {
          "internalType": "address",
          "name": "",
          "type": "address"
        }
      ],
      "stateMutability": "view",
      "type": "function"
    },
    {
      "inputs": [
        {
          "internalType": "address",
          "name": "owner",
          "type": "address"
        },
        {
          "internalType": "address",
          "name": "operator",
          "type": "address"
        }
      ],
      "name": "isApprovedForAll",
      "outputs": [
        {
          "internalType": "bool",
          "name": "",
          "type": "bool"
        }
      ],
      "stateMutability": "view",
      "type": "function"
    },
    {
      "inputs": [
        {
          "internalType": "address",
          "name": "",
          "type": "address"
        }
      ],
      "name": "isUserRefunded",
      "outputs": [
        {
          "internalType": "bool",
          "name": "",
          "type": "bool"
        }
      ],
      "stateMutability": "view",
      "type": "function"
    },
    {
      "inputs": [],
      "name": "name",
      "outputs": [
        {
          "internalType": "string",
          "name": "",
          "type": "string"
        }
      ],
      "stateMutability": "view",
      "type": "function"
    },
    {
      "inputs": [
        {
          "internalType": "address",
          "name": "",
          "type": "address"
        }
      ],
      "name": "numTicketsBought",
      "outputs": [
        {
          "internalType": "uint256",
          "name": "",
          "type": "uint256"
        }
      ],
      "stateMutability": "view",
      "type": "function"
    },
    {
      "inputs": [],
      "name": "numTicketsLeft",
      "outputs": [
        {
          "internalType": "uint32",
          "name": "",
          "type": "uint32"
        }
      ],
      "stateMutability": "view",
      "type": "function"
    },
    {
      "inputs": [],
      "name": "owner",
      "outputs": [
        {
          "internalType": "address payable",
          "name": "",
          "type": "address"
        }
      ],
      "stateMutability": "view",
      "type": "function"
    },
    {
      "inputs": [
        {
          "internalType": "uint256",
          "name": "tokenId",
          "type": "uint256"
        }
      ],
      "name": "ownerOf",
      "outputs": [
        {
          "internalType": "address",
          "name": "",
          "type": "address"
        }
      ],
      "stateMutability": "view",
      "type": "function"
    },
    {
      "inputs": [],
      "name": "price",
      "outputs": [
        {
          "internalType": "uint32",
          "name": "",
          "type": "uint32"
        }
      ],
      "stateMutability": "view",
      "type": "function"
    },
    {
      "inputs": [],
      "name": "royaltyPercent",
      "outputs": [
        {
          "internalType": "uint8",
          "name": "",
          "type": "uint8"
        }
      ],
      "stateMutability": "view",
      "type": "function"
    },
    {
      "inputs": [
        {
          "internalType": "address",
          "name": "from",
          "type": "address"
        },
        {
          "internalType": "address",
          "name": "to",
          "type": "address"
        },
        {
          "internalType": "uint256",
          "name": "tokenId",
          "type": "uint256"
        }
      ],
      "name": "safeTransferFrom",
      "outputs": [],
      "stateMutability": "nonpayable",
      "type": "function"
    },
    {
      "inputs": [
        {
          "internalType": "address",
          "name": "from",
          "type": "address"
        },
        {
          "internalType": "address",
          "name": "to",
          "type": "address"
        },
        {
          "internalType": "uint256",
          "name": "tokenId",
          "type": "uint256"
        },
        {
          "internalType": "bytes",
          "name": "_data",
          "type": "bytes"
        }
      ],
      "name": "safeTransferFrom",
      "outputs": [],
      "stateMutability": "nonpayable",
      "type": "function"
    },
    {
      "inputs": [
        {
          "internalType": "address",
          "name": "operator",
          "type": "address"
        },
        {
          "internalType": "bool",
          "name": "approved",
          "type": "bool"
        }
      ],
      "name": "setApprovalForAll",
      "outputs": [],
      "stateMutability": "nonpayable",
      "type": "function"
    },
    {
      "inputs": [],
      "name": "stage",
      "outputs": [
        {
          "internalType": "enum Event.Stages",
          "name": "",
          "type": "uint8"
        }
      ],
      "stateMutability": "view",
      "type": "function"
    },
    {
      "inputs": [
        {
          "internalType": "bytes4",
          "name": "interfaceId",
          "type": "bytes4"
        }
      ],
      "name": "supportsInterface",
      "outputs": [
        {
          "internalType": "bool",
          "name": "",
          "type": "bool"
        }
      ],
      "stateMutability": "view",
      "type": "function"
    },
    {
      "inputs": [],
      "name": "symbol",
      "outputs": [
        {
          "internalType": "string",
          "name": "",
          "type": "string"
        }
      ],
      "stateMutability": "view",
      "type": "function"
    },
    {
      "inputs": [
        {
          "internalType": "uint256",
          "name": "",
          "type": "uint256"
        }
      ],
      "name": "tickets",
      "outputs": [
        {
          "internalType": "uint32",
          "name": "price",
          "type": "uint32"
        },
        {
          "internalType": "uint32",
          "name": "resalePrice",
          "type": "uint32"
        },
        {
          "internalType": "enum Event.TicketStatus",
          "name": "status",
          "type": "uint8"
        }
      ],
      "stateMutability": "view",
      "type": "function"
    },
    {
      "inputs": [
        {
          "internalType": "uint256",
          "name": "tokenId",
          "type": "uint256"
        }
      ],
      "name": "tokenURI",
      "outputs": [
        {
          "internalType": "string",
          "name": "",
          "type": "string"
        }
      ],
      "stateMutability": "view",
      "type": "function"
    },
    {
      "inputs": [
        {
          "internalType": "address",
          "name": "from",
          "type": "address"
        },
        {
          "internalType": "address",
          "name": "to",
          "type": "address"
        },
        {
          "internalType": "uint256",
          "name": "tokenId",
          "type": "uint256"
        }
      ],
      "name": "transferFrom",
      "outputs": [],
      "stateMutability": "nonpayable",
      "type": "function"
    },
    {
      "inputs": [],
      "name": "buyTicket",
      "outputs": [
        {
          "internalType": "uint256",
          "name": "",
          "type": "uint256"
        }
      ],
      "stateMutability": "payable",
      "type": "function"
    },
    {
      "inputs": [
        {
          "internalType": "enum Event.Stages",
          "name": "_stage",
          "type": "uint8"
        }
      ],
      "name": "setStage",
      "outputs": [
        {
          "internalType": "enum Event.Stages",
          "name": "",
          "type": "uint8"
        }
      ],
      "stateMutability": "nonpayable",
      "type": "function"
    },
    {
      "inputs": [
        {
          "internalType": "uint256",
          "name": "ticketID",
          "type": "uint256"
        },
        {
          "internalType": "string",
          "name": "sQRCodeKey",
          "type": "string"
        }
      ],
      "name": "setTicketToUsed",
      "outputs": [
        {
          "internalType": "string",
          "name": "",
          "type": "string"
        }
      ],
      "stateMutability": "nonpayable",
      "type": "function"
    },
    {
      "inputs": [
        {
          "internalType": "uint256",
          "name": "ticketID",
          "type": "uint256"
        }
      ],
      "name": "setTicketForSale",
      "outputs": [],
      "stateMutability": "nonpayable",
      "type": "function"
    },
    {
      "inputs": [
        {
          "internalType": "uint256",
          "name": "ticketID",
          "type": "uint256"
        }
      ],
      "name": "getTicketStatus",
      "outputs": [
        {
          "internalType": "enum Event.TicketStatus",
          "name": "",
          "type": "uint8"
        }
      ],
      "stateMutability": "view",
      "type": "function"
    },
    {
      "inputs": [],
      "name": "ownerWithdraw",
      "outputs": [
        {
          "internalType": "bool",
          "name": "success",
          "type": "bool"
        }
      ],
      "stateMutability": "nonpayable",
      "type": "function"
    },
    {
      "inputs": [],
      "name": "withdraw",
      "outputs": [
        {
          "internalType": "bool",
          "name": "success",
          "type": "bool"
        }
      ],
      "stateMutability": "nonpayable",
      "type": "function"
    }
  ],
  "bytecode": "0x60806040526000600660006101000a81548160ff0219169083600581111562000051577f4e487b7100000000000000000000000000000000000000000000000000000000600052602160045260246000fd5b021790555060006009553480156200006857600080fd5b50604051620054a7380380620054a783398181016040528101906200008e919062000449565b81818160009080519060200190620000a8929190620002cb565b508060019080519060200190620000c1929190620002cb565b50505060008360ff1610158015620000dd575060648360ff1611155b6200011f576040517f08c379a000000000000000000000000000000000000000000000000000000000815260040162000116906200067c565b60405180910390fd5b60008663ffffffff16116200016b576040517f08c379a000000000000000000000000000000000000000000000000000000000815260040162000162906200069e565b60405180910390fd5b60008290506000829050600082511415620001bd576040517f08c379a0000000000000000000000000000000000000000000000000000000008152600401620001b490620006e2565b60405180910390fd5b60008151141562000205576040517f08c379a0000000000000000000000000000000000000000000000000000000008152600401620001fc90620006c0565b60405180910390fd5b886008600a6101000a81548173ffffffffffffffffffffffffffffffffffffffff021916908373ffffffffffffffffffffffffffffffffffffffff16021790555087600860006101000a81548163ffffffff021916908363ffffffff16021790555086600860046101000a81548163ffffffff021916908363ffffffff16021790555085600860096101000a81548160ff021916908315150217905550846008806101000a81548160ff021916908360ff1602179055505050505050505050506200090b565b828054620002d9906200080f565b90600052602060002090601f016020900481019282620002fd576000855562000349565b82601f106200031857805160ff191683800117855562000349565b8280016001018555821562000349579182015b82811115620003485782518255916020019190600101906200032b565b5b5090506200035891906200035c565b5090565b5b80821115620003775760008160009055506001016200035d565b5090565b6000620003926200038c8462000738565b62000704565b905082815260208101848484011115620003ab57600080fd5b620003b8848285620007d9565b509392505050565b600081519050620003d181620008a3565b92915050565b600081519050620003e881620008bd565b92915050565b600082601f8301126200040057600080fd5b8151620004128482602086016200037b565b91505092915050565b6000815190506200042c81620008d7565b92915050565b6000815190506200044381620008f1565b92915050565b600080600080600080600060e0888a0312156200046557600080fd5b6000620004758a828b01620003c0565b9750506020620004888a828b016200041b565b96505060406200049b8a828b016200041b565b9550506060620004ae8a828b01620003d7565b9450506080620004c18a828b0162000432565b93505060a088015167ffffffffffffffff811115620004df57600080fd5b620004ed8a828b01620003ee565b92505060c088015167ffffffffffffffff8111156200050b57600080fd5b620005198a828b01620003ee565b91505092959891949750929550565b600062000537602c836200076b565b91507f526f79616c74792050657263656e74616765206d75737420626520626574776560008301527f656e203020616e642031303000000000000000000000000000000000000000006020830152604082019050919050565b60006200059f602c836200076b565b91507f546865206e756d626572206f66207469636b657473206d75737420626520677260008301527f6561746572207468616e203000000000000000000000000000000000000000006020830152604082019050919050565b600062000607601c836200076b565b91507f4576656e742053796d626f6c2063616e6e6f7420626520656d707479000000006000830152602082019050919050565b600062000649601a836200076b565b91507f4576656e74204e616d652063616e6e6f7420626520656d7074790000000000006000830152602082019050919050565b60006020820190508181036000830152620006978162000528565b9050919050565b60006020820190508181036000830152620006b98162000590565b9050919050565b60006020820190508181036000830152620006db81620005f8565b9050919050565b60006020820190508181036000830152620006fd816200063a565b9050919050565b6000604051905081810181811067ffffffffffffffff821117156200072e576200072d62000874565b5b8060405250919050565b600067ffffffffffffffff82111562000756576200075562000874565b5b601f19601f8301169050602081019050919050565b600082825260208201905092915050565b600062000789826200079c565b9050919050565b60008115159050919050565b600073ffffffffffffffffffffffffffffffffffffffff82169050919050565b600063ffffffff82169050919050565b600060ff82169050919050565b60005b83811015620007f9578082015181840152602081019050620007dc565b8381111562000809576000848401525b50505050565b600060028204905060018216806200082857607f821691505b602082108114156200083f576200083e62000845565b5b50919050565b7f4e487b7100000000000000000000000000000000000000000000000000000000600052602260045260246000fd5b7f4e487b7100000000000000000000000000000000000000000000000000000000600052604160045260246000fd5b620008ae816200077c565b8114620008ba57600080fd5b50565b620008c88162000790565b8114620008d457600080fd5b50565b620008e281620007bc565b8114620008ee57600080fd5b50565b620008fc81620007cc565b81146200090857600080fd5b50565b614b8c806200091b6000396000f3fe6080604052600436106101ea576000357c01000000000000000000000000000000000000000000000000000000009004806376fa620611610114578063b3874c0d116100b2578063ce3cd99711610081578063ce3cd997146106f7578063e985e9c514610734578063edca914c14610771578063fb87774c1461078f576101ea565b8063b3874c0d1461063b578063b88d4fde14610666578063c040e6b81461068f578063c87b56dd146106ba576101ea565b80639f67756d116100ee5780639f67756d14610591578063a035b1fe146105bc578063a22cb465146105e7578063a51bba8c14610610576101ea565b806376fa6206146105125780638da5cb5b1461053b57806395d89b4114610566576101ea565b806323b872dd1161018c5780634311de8f1161015b5780634311de8f1461042e57806350b44712146104595780636352211e1461049857806370a08231146104d5576101ea565b806323b872dd1461037457806327e235e31461039d5780633ccfd60b146103da57806342842e0e14610405576101ea565b8063095ea7b3116101c8578063095ea7b3146102945780631052a921146102bd57806318133d15146102fa57806318b3822f14610337576101ea565b806301ffc9a7146101ef57806306fdde031461022c578063081812fc14610257575b600080fd5b3480156101fb57600080fd5b5061021660048036038101906102119190613552565b6107cc565b60405161022391906141a0565b60405180910390f35b34801561023857600080fd5b506102416108ae565b60405161024e91906141f1565b60405180910390f35b34801561026357600080fd5b5061027e600480360381019061027991906135cd565b610940565b60405161028b91906140f5565b60405180910390f35b3480156102a057600080fd5b506102bb60048036038101906102b69190613516565b6109c5565b005b3480156102c957600080fd5b506102e460048036038101906102df91906133ab565b610add565b6040516102f191906145aa565b60405180910390f35b34801561030657600080fd5b50610321600480360381019061031c91906133ab565b610af5565b60405161032e91906141a0565b60405180910390f35b34801561034357600080fd5b5061035e600480360381019061035991906135f6565b610b15565b60405161036b91906141f1565b60405180910390f35b34801561038057600080fd5b5061039b60048036038101906103969190613410565b610e42565b005b3480156103a957600080fd5b506103c460048036038101906103bf91906133ab565b610ea2565b6040516103d191906145aa565b60405180910390f35b3480156103e657600080fd5b506103ef610eba565b6040516103fc91906141a0565b60405180910390f35b34801561041157600080fd5b5061042c60048036038101906104279190613410565b611235565b005b34801561043a57600080fd5b50610443611255565b60405161045091906141a0565b60405180910390f35b34801561046557600080fd5b50610480600480360381019061047b91906135cd565b611623565b60405161048f939291906145e0565b60405180910390f35b3480156104a457600080fd5b506104bf60048036038101906104ba91906135cd565b611686565b6040516104cc91906140f5565b60405180910390f35b3480156104e157600080fd5b506104fc60048036038101906104f791906133ab565b611738565b60405161050991906145aa565b60405180910390f35b34801561051e57600080fd5b50610539600480360381019061053491906135cd565b6117f0565b005b34801561054757600080fd5b50610550611b06565b60405161055d9190614110565b60405180910390f35b34801561057257600080fd5b5061057b611b2c565b60405161058891906141f1565b60405180910390f35b34801561059d57600080fd5b506105a6611bbe565b6040516105b39190614617565b60405180910390f35b3480156105c857600080fd5b506105d1611bcf565b6040516105de91906145c5565b60405180910390f35b3480156105f357600080fd5b5061060e600480360381019061060991906134da565b611be5565b005b34801561061c57600080fd5b50610625611d66565b60405161063291906145c5565b60405180910390f35b34801561064757600080fd5b50610650611d7c565b60405161065d91906141a0565b60405180910390f35b34801561067257600080fd5b5061068d6004803603810190610688919061345f565b611d8f565b005b34801561069b57600080fd5b506106a4611df1565b6040516106b191906141bb565b60405180910390f35b3480156106c657600080fd5b506106e160048036038101906106dc91906135cd565b611e04565b6040516106ee91906141f1565b60405180910390f35b34801561070357600080fd5b5061071e600480360381019061071991906135a4565b611eab565b60405161072b91906141bb565b60405180910390f35b34801561074057600080fd5b5061075b600480360381019061075691906133d4565b611fa4565b60405161076891906141a0565b60405180910390f35b610779612038565b60405161078691906145aa565b60405180910390f35b34801561079b57600080fd5b506107b660048036038101906107b191906135cd565b61254b565b6040516107c391906141d6565b60405180910390f35b60007f80ac58cd000000000000000000000000000000000000000000000000000000007bffffffffffffffffffffffffffffffffffffffffffffffffffffffff1916827bffffffffffffffffffffffffffffffffffffffffffffffffffffffff1916148061089757507f5b5e139f000000000000000000000000000000000000000000000000000000007bffffffffffffffffffffffffffffffffffffffffffffffffffffffff1916827bffffffffffffffffffffffffffffffffffffffffffffffffffffffff1916145b806108a757506108a6826125a9565b5b9050919050565b6060600080546108bd9061491a565b80601f01602080910402602001604051908101604052809291908181526020018280546108e99061491a565b80156109365780601f1061090b57610100808354040283529160200191610936565b820191906000526020600020905b81548152906001019060200180831161091957829003601f168201915b5050505050905090565b600061094b82612613565b61098a576040517f08c379a00000000000000000000000000000000000000000000000000000000081526004016109819061448a565b60405180910390fd5b6004600083815260200190815260200160002060009054906101000a900473ffffffffffffffffffffffffffffffffffffffff169050919050565b60006109d082611686565b90508073ffffffffffffffffffffffffffffffffffffffff168373ffffffffffffffffffffffffffffffffffffffff161415610a41576040517f08c379a0000000000000000000000000000000000000000000000000000000008152600401610a389061450a565b60405180910390fd5b8073ffffffffffffffffffffffffffffffffffffffff16610a6061267f565b73ffffffffffffffffffffffffffffffffffffffff161480610a8f5750610a8e81610a8961267f565b611fa4565b5b610ace576040517f08c379a0000000000000000000000000000000000000000000000000000000008152600401610ac5906143ea565b60405180910390fd5b610ad88383612687565b505050565b600c6020528060005260406000206000915090505481565b600b6020528060005260406000206000915054906101000a900460ff1681565b60606003806005811115610b52577f4e487b7100000000000000000000000000000000000000000000000000000000600052602160045260246000fd5b600660009054906101000a900460ff166005811115610b9a577f4e487b7100000000000000000000000000000000000000000000000000000000600052602160045260246000fd5b14610bda576040517f08c379a0000000000000000000000000000000000000000000000000000000008152600401610bd1906142ca565b60405180910390fd5b833373ffffffffffffffffffffffffffffffffffffffff16610bfb82611686565b73ffffffffffffffffffffffffffffffffffffffff1614610c51576040517f08c379a0000000000000000000000000000000000000000000000000000000008152600401610c489061458a565b60405180910390fd5b60016003811115610c8b577f4e487b7100000000000000000000000000000000000000000000000000000000600052602160045260246000fd5b60078681548110610cc5577f4e487b7100000000000000000000000000000000000000000000000000000000600052603260045260246000fd5b9060005260206000200160000160089054906101000a900460ff166003811115610d18577f4e487b7100000000000000000000000000000000000000000000000000000000600052602160045260246000fd5b14610d58576040517f08c379a0000000000000000000000000000000000000000000000000000000008152600401610d4f906143ca565b60405180910390fd5b600260078681548110610d94577f4e487b7100000000000000000000000000000000000000000000000000000000600052603260045260246000fd5b9060005260206000200160000160086101000a81548160ff02191690836003811115610de9577f4e487b7100000000000000000000000000000000000000000000000000000000600052602160045260246000fd5b0217905550610df785612740565b7f0ec6ea11439b02352ac1e6ea4869e6c13bdfe61c08d27bc8801f2bbadcdd487b610e206108ae565b85604051610e2f929190614213565b60405180910390a1839250505092915050565b610e53610e4d61267f565b82612851565b610e92576040517f08c379a0000000000000000000000000000000000000000000000000000000008152600401610e899061452a565b60405180910390fd5b610e9d83838361292f565b505050565b600a6020528060005260406000206000915090505481565b600080600a60003373ffffffffffffffffffffffffffffffffffffffff1673ffffffffffffffffffffffffffffffffffffffff1681526020019081526020016000205490506000600a60003373ffffffffffffffffffffffffffffffffffffffff1673ffffffffffffffffffffffffffffffffffffffff1681526020019081526020016000208190555060046005811115610f7e577f4e487b7100000000000000000000000000000000000000000000000000000000600052602160045260246000fd5b600660009054906101000a900460ff166005811115610fc6577f4e487b7100000000000000000000000000000000000000000000000000000000600052602160045260246000fd5b1480611051575060026005811115611007577f4e487b7100000000000000000000000000000000000000000000000000000000600052602160045260246000fd5b600660009054906101000a900460ff16600581111561104f577f4e487b7100000000000000000000000000000000000000000000000000000000600052602160045260246000fd5b145b80156110ad575060001515600b60003373ffffffffffffffffffffffffffffffffffffffff1673ffffffffffffffffffffffffffffffffffffffff16815260200190815260200160002060009054906101000a900460ff161515145b15611131576001600b60003373ffffffffffffffffffffffffffffffffffffffff1673ffffffffffffffffffffffffffffffffffffffff16815260200190815260200160002060006101000a81548160ff021916908315150217905550600860049054906101000a900463ffffffff1663ffffffff168161112e9190614706565b90505b60008111611174576040517f08c379a000000000000000000000000000000000000000000000000000000000815260040161116b9061436a565b60405180910390fd5b600033905060008173ffffffffffffffffffffffffffffffffffffffff166108fc849081150290604051600060405180830381858888f193505050509050806111f2576040517f08c379a00000000000000000000000000000000000000000000000000000000081526004016111e99061444a565b60405180910390fd5b7f9fe2db218b58c00ab3556f2be44b2769b37978368c63313d82d78306568e47763384604051611223929190614177565b60405180910390a16001935050505090565b61125083838360405180602001604052806000815250611d8f565b505050565b60006008600a9054906101000a900473ffffffffffffffffffffffffffffffffffffffff1673ffffffffffffffffffffffffffffffffffffffff163373ffffffffffffffffffffffffffffffffffffffff16146112e7576040517f08c379a00000000000000000000000000000000000000000000000000000000081526004016112de9061426a565b60405180910390fd5b6005806005811115611322577f4e487b7100000000000000000000000000000000000000000000000000000000600052602160045260246000fd5b600660009054906101000a900460ff16600581111561136a577f4e487b7100000000000000000000000000000000000000000000000000000000600052602160045260246000fd5b146113aa576040517f08c379a00000000000000000000000000000000000000000000000000000000081526004016113a1906142ca565b60405180910390fd5b60001515600b60006008600a9054906101000a900473ffffffffffffffffffffffffffffffffffffffff1673ffffffffffffffffffffffffffffffffffffffff1673ffffffffffffffffffffffffffffffffffffffff16815260200190815260200160002060009054906101000a900460ff1615151461145f576040517f08c379a00000000000000000000000000000000000000000000000000000000081526004016114569061434a565b60405180910390fd5b6001600b60006008600a9054906101000a900473ffffffffffffffffffffffffffffffffffffffff1673ffffffffffffffffffffffffffffffffffffffff1673ffffffffffffffffffffffffffffffffffffffff16815260200190815260200160002060006101000a81548160ff02191690831515021790555060006009543073ffffffffffffffffffffffffffffffffffffffff1631611500919061478d565b905060008111611545576040517f08c379a000000000000000000000000000000000000000000000000000000000815260040161153c906144ea565b60405180910390fd5b60006008600a9054906101000a900473ffffffffffffffffffffffffffffffffffffffff1673ffffffffffffffffffffffffffffffffffffffff166108fc839081150290604051600060405180830381858888f193505050509050806115e0576040517f08c379a00000000000000000000000000000000000000000000000000000000081526004016115d79061454a565b60405180910390fd5b7f5f0d69e5c0056ecc650fc0d2d916359037135dac3d5b5446d226dfdbe292482e3383604051611611929190614177565b60405180910390a16001935050505090565b6007818154811061163357600080fd5b906000526020600020016000915090508060000160009054906101000a900463ffffffff16908060000160049054906101000a900463ffffffff16908060000160089054906101000a900460ff16905083565b6000806002600084815260200190815260200160002060009054906101000a900473ffffffffffffffffffffffffffffffffffffffff169050600073ffffffffffffffffffffffffffffffffffffffff168173ffffffffffffffffffffffffffffffffffffffff16141561172f576040517f08c379a00000000000000000000000000000000000000000000000000000000081526004016117269061442a565b60405180910390fd5b80915050919050565b60008073ffffffffffffffffffffffffffffffffffffffff168273ffffffffffffffffffffffffffffffffffffffff1614156117a9576040517f08c379a00000000000000000000000000000000000000000000000000000000081526004016117a09061440a565b60405180910390fd5b600360008373ffffffffffffffffffffffffffffffffffffffff1673ffffffffffffffffffffffffffffffffffffffff168152602001908152602001600020549050919050565b600180600581111561182b577f4e487b7100000000000000000000000000000000000000000000000000000000600052602160045260246000fd5b600660009054906101000a900460ff166005811115611873577f4e487b7100000000000000000000000000000000000000000000000000000000600052602160045260246000fd5b146118b3576040517f08c379a00000000000000000000000000000000000000000000000000000000081526004016118aa906142ca565b60405180910390fd5b813373ffffffffffffffffffffffffffffffffffffffff166118d482611686565b73ffffffffffffffffffffffffffffffffffffffff161461192a576040517f08c379a00000000000000000000000000000000000000000000000000000000081526004016119219061458a565b60405180910390fd5b60026003811115611964577f4e487b7100000000000000000000000000000000000000000000000000000000600052602160045260246000fd5b6007848154811061199e577f4e487b7100000000000000000000000000000000000000000000000000000000600052603260045260246000fd5b9060005260206000200160000160089054906101000a900460ff1660038111156119f1577f4e487b7100000000000000000000000000000000000000000000000000000000600052602160045260246000fd5b1415611a32576040517f08c379a0000000000000000000000000000000000000000000000000000000008152600401611a29906142aa565b60405180910390fd5b600360078481548110611a6e577f4e487b7100000000000000000000000000000000000000000000000000000000600052603260045260246000fd5b9060005260206000200160000160086101000a81548160ff02191690836003811115611ac3577f4e487b7100000000000000000000000000000000000000000000000000000000600052602160045260246000fd5b02179055507fec1a51878793b26371980da80139946e4a398461978717cbe8d07596dd3404b63384604051611af9929190614177565b60405180910390a1505050565b6008600a9054906101000a900473ffffffffffffffffffffffffffffffffffffffff1681565b606060018054611b3b9061491a565b80601f0160208091040260200160405190810160405280929190818152602001828054611b679061491a565b8015611bb45780601f10611b8957610100808354040283529160200191611bb4565b820191906000526020600020905b815481529060010190602001808311611b9757829003601f168201915b5050505050905090565b60088054906101000a900460ff1681565b600860049054906101000a900463ffffffff1681565b611bed61267f565b73ffffffffffffffffffffffffffffffffffffffff168273ffffffffffffffffffffffffffffffffffffffff161415611c5b576040517f08c379a0000000000000000000000000000000000000000000000000000000008152600401611c529061432a565b60405180910390fd5b8060056000611c6861267f565b73ffffffffffffffffffffffffffffffffffffffff1673ffffffffffffffffffffffffffffffffffffffff16815260200190815260200160002060008473ffffffffffffffffffffffffffffffffffffffff1673ffffffffffffffffffffffffffffffffffffffff16815260200190815260200160002060006101000a81548160ff0219169083151502179055508173ffffffffffffffffffffffffffffffffffffffff16611d1561267f565b73ffffffffffffffffffffffffffffffffffffffff167f17307eab39ab6107e8899845ad3d59bd9653f200f220920489ca2b5937696c3183604051611d5a91906141a0565b60405180910390a35050565b600860009054906101000a900463ffffffff1681565b600860099054906101000a900460ff1681565b611da0611d9a61267f565b83612851565b611ddf576040517f08c379a0000000000000000000000000000000000000000000000000000000008152600401611dd69061452a565b60405180910390fd5b611deb84848484612b8b565b50505050565b600660009054906101000a900460ff1681565b6060611e0f82612613565b611e4e576040517f08c379a0000000000000000000000000000000000000000000000000000000008152600401611e45906144ca565b60405180910390fd5b6000611e58612be7565b90506000815111611e785760405180602001604052806000815250611ea3565b80611e8284612bfe565b604051602001611e939291906140d1565b6040516020818303038152906040525b915050919050565b60006008600a9054906101000a900473ffffffffffffffffffffffffffffffffffffffff1673ffffffffffffffffffffffffffffffffffffffff163373ffffffffffffffffffffffffffffffffffffffff1614611f3d576040517f08c379a0000000000000000000000000000000000000000000000000000000008152600401611f349061426a565b60405180910390fd5b81600660006101000a81548160ff02191690836005811115611f88577f4e487b7100000000000000000000000000000000000000000000000000000000600052602160045260246000fd5b0217905550600660009054906101000a900460ff169050919050565b6000600560008473ffffffffffffffffffffffffffffffffffffffff1673ffffffffffffffffffffffffffffffffffffffff16815260200190815260200160002060008373ffffffffffffffffffffffffffffffffffffffff1673ffffffffffffffffffffffffffffffffffffffff16815260200190815260200160002060009054906101000a900460ff16905092915050565b600060016005811115612074577f4e487b7100000000000000000000000000000000000000000000000000000000600052602160045260246000fd5b600660009054906101000a900460ff1660058111156120bc577f4e487b7100000000000000000000000000000000000000000000000000000000600052602160045260246000fd5b14806121475750600360058111156120fd577f4e487b7100000000000000000000000000000000000000000000000000000000600052602160045260246000fd5b600660009054906101000a900460ff166005811115612145577f4e487b7100000000000000000000000000000000000000000000000000000000600052602160045260246000fd5b145b612186576040517f08c379a000000000000000000000000000000000000000000000000000000000815260040161217d9061456a565b60405180910390fd5b6000600860009054906101000a900463ffffffff1663ffffffff16116121e1576040517f08c379a00000000000000000000000000000000000000000000000000000000081526004016121d8906142ea565b60405180910390fd5b34600860049054906101000a900463ffffffff1663ffffffff1681101561223d576040517f08c379a0000000000000000000000000000000000000000000000000000000008152600401612234906143aa565b60405180910390fd5b6122456131f8565b600860049054906101000a900463ffffffff16816000019063ffffffff16908163ffffffff1681525050600860049054906101000a900463ffffffff16816020019063ffffffff16908163ffffffff16815250506001816040019060038111156122d8577f4e487b7100000000000000000000000000000000000000000000000000000000600052602160045260246000fd5b90816003811115612312577f4e487b7100000000000000000000000000000000000000000000000000000000600052602160045260246000fd5b815250506007819080600181540180825580915050600190039060005260206000200160009091909190915060008201518160000160006101000a81548163ffffffff021916908363ffffffff16021790555060208201518160000160046101000a81548163ffffffff021916908363ffffffff16021790555060408201518160000160086101000a81548160ff021916908360038111156123dd577f4e487b7100000000000000000000000000000000000000000000000000000000600052602160045260246000fd5b02179055505050600060016007805490506123f8919061478d565b90506008600081819054906101000a900463ffffffff168092919061241c906148f0565b91906101000a81548163ffffffff021916908363ffffffff160217905550506124453382612dca565b7f45b138e571439656fbf8d1d09364ce6268bcd2bcbefd7d1d01c57ab4f8bbe8fc3382604051612476929190614177565b60405180910390a1600860049054906101000a900463ffffffff1663ffffffff1634111561254257600860049054906101000a900463ffffffff1663ffffffff16346124c2919061478d565b600a60003373ffffffffffffffffffffffffffffffffffffffff1673ffffffffffffffffffffffffffffffffffffffff16815260200190815260200160002081905550600860049054906101000a900463ffffffff1663ffffffff1634612529919061478d565b6009600082825461253a9190614706565b925050819055505b80935050505090565b600060078281548110612587577f4e487b7100000000000000000000000000000000000000000000000000000000600052603260045260246000fd5b9060005260206000200160000160089054906101000a900460ff169050919050565b60007f01ffc9a7000000000000000000000000000000000000000000000000000000007bffffffffffffffffffffffffffffffffffffffffffffffffffffffff1916827bffffffffffffffffffffffffffffffffffffffffffffffffffffffff1916149050919050565b60008073ffffffffffffffffffffffffffffffffffffffff166002600084815260200190815260200160002060009054906101000a900473ffffffffffffffffffffffffffffffffffffffff1673ffffffffffffffffffffffffffffffffffffffff1614159050919050565b600033905090565b816004600083815260200190815260200160002060006101000a81548173ffffffffffffffffffffffffffffffffffffffff021916908373ffffffffffffffffffffffffffffffffffffffff160217905550808273ffffffffffffffffffffffffffffffffffffffff166126fa83611686565b73ffffffffffffffffffffffffffffffffffffffff167f8c5be1e5ebec7d5bd14f71427d1e84f3dd0314c0f7b2291e5b200ac8c7c3b92560405160405180910390a45050565b600061274b82611686565b905061275981600084612de8565b612764600083612687565b6001600360008373ffffffffffffffffffffffffffffffffffffffff1673ffffffffffffffffffffffffffffffffffffffff16815260200190815260200160002060008282546127b4919061478d565b925050819055506002600083815260200190815260200160002060006101000a81549073ffffffffffffffffffffffffffffffffffffffff021916905581600073ffffffffffffffffffffffffffffffffffffffff168273ffffffffffffffffffffffffffffffffffffffff167fddf252ad1be2c89b69c2b068fc378daa952ba7f163c4a11628f55a4df523b3ef60405160405180910390a45050565b600061285c82612613565b61289b576040517f08c379a00000000000000000000000000000000000000000000000000000000081526004016128929061438a565b60405180910390fd5b60006128a683611686565b90508073ffffffffffffffffffffffffffffffffffffffff168473ffffffffffffffffffffffffffffffffffffffff16148061291557508373ffffffffffffffffffffffffffffffffffffffff166128fd84610940565b73ffffffffffffffffffffffffffffffffffffffff16145b8061292657506129258185611fa4565b5b91505092915050565b8273ffffffffffffffffffffffffffffffffffffffff1661294f82611686565b73ffffffffffffffffffffffffffffffffffffffff16146129a5576040517f08c379a000000000000000000000000000000000000000000000000000000000815260040161299c906144aa565b60405180910390fd5b600073ffffffffffffffffffffffffffffffffffffffff168273ffffffffffffffffffffffffffffffffffffffff161415612a15576040517f08c379a0000000000000000000000000000000000000000000000000000000008152600401612a0c9061430a565b60405180910390fd5b612a20838383612de8565b612a2b600082612687565b6001600360008573ffffffffffffffffffffffffffffffffffffffff1673ffffffffffffffffffffffffffffffffffffffff1681526020019081526020016000206000828254612a7b919061478d565b925050819055506001600360008473ffffffffffffffffffffffffffffffffffffffff1673ffffffffffffffffffffffffffffffffffffffff1681526020019081526020016000206000828254612ad29190614706565b92505081905550816002600083815260200190815260200160002060006101000a81548173ffffffffffffffffffffffffffffffffffffffff021916908373ffffffffffffffffffffffffffffffffffffffff160217905550808273ffffffffffffffffffffffffffffffffffffffff168473ffffffffffffffffffffffffffffffffffffffff167fddf252ad1be2c89b69c2b068fc378daa952ba7f163c4a11628f55a4df523b3ef60405160405180910390a4505050565b612b9684848461292f565b612ba284848484612ded565b612be1576040517f08c379a0000000000000000000000000000000000000000000000000000000008152600401612bd89061424a565b60405180910390fd5b50505050565b606060405180602001604052806000815250905090565b60606000821415612c46576040518060400160405280600181526020017f30000000000000000000000000000000000000000000000000000000000000008152509050612dc5565b600082905060005b60008214612c78578080612c619061494c565b915050600a82612c71919061475c565b9150612c4e565b60008167ffffffffffffffff811115612cba577f4e487b7100000000000000000000000000000000000000000000000000000000600052604160045260246000fd5b6040519080825280601f01601f191660200182016040528015612cec5781602001600182028036833780820191505090505b5090505b60008514612dbe57600182612d05919061478d565b9150600a85612d149190614995565b6030612d209190614706565b7f010000000000000000000000000000000000000000000000000000000000000002818381518110612d7b577f4e487b7100000000000000000000000000000000000000000000000000000000600052603260045260246000fd5b60200101907effffffffffffffffffffffffffffffffffffffffffffffffffffffffffffff1916908160001a905350600a85612db7919061475c565b9450612cf0565b8093505050505b919050565b612de4828260405180602001604052806000815250612fbc565b5050565b505050565b6000612e0e8473ffffffffffffffffffffffffffffffffffffffff16613017565b15612faf578373ffffffffffffffffffffffffffffffffffffffff1663150b7a02612e3761267f565b8786866040518563ffffffff167c0100000000000000000000000000000000000000000000000000000000028152600401612e75949392919061412b565b602060405180830381600087803b158015612e8f57600080fd5b505af1925050508015612ec057506040513d601f19601f82011682018060405250810190612ebd919061357b565b60015b612f43573d8060008114612ef0576040519150601f19603f3d011682016040523d82523d6000602084013e612ef5565b606091505b50600081511415612f3b576040517f08c379a0000000000000000000000000000000000000000000000000000000008152600401612f329061424a565b60405180910390fd5b805181602001fd5b63150b7a027c0100000000000000000000000000000000000000000000000000000000027bffffffffffffffffffffffffffffffffffffffffffffffffffffffff1916817bffffffffffffffffffffffffffffffffffffffffffffffffffffffff191614915050612fb4565b600190505b949350505050565b612fc6838361302a565b612fd36000848484612ded565b613012576040517f08c379a00000000000000000000000000000000000000000000000000000000081526004016130099061424a565b60405180910390fd5b505050565b600080823b905060008111915050919050565b600073ffffffffffffffffffffffffffffffffffffffff168273ffffffffffffffffffffffffffffffffffffffff16141561309a576040517f08c379a00000000000000000000000000000000000000000000000000000000081526004016130919061446a565b60405180910390fd5b6130a381612613565b156130e3576040517f08c379a00000000000000000000000000000000000000000000000000000000081526004016130da9061428a565b60405180910390fd5b6130ef60008383612de8565b6001600360008473ffffffffffffffffffffffffffffffffffffffff1673ffffffffffffffffffffffffffffffffffffffff168152602001908152602001600020600082825461313f9190614706565b92505081905550816002600083815260200190815260200160002060006101000a81548173ffffffffffffffffffffffffffffffffffffffff021916908373ffffffffffffffffffffffffffffffffffffffff160217905550808273ffffffffffffffffffffffffffffffffffffffff16600073ffffffffffffffffffffffffffffffffffffffff167fddf252ad1be2c89b69c2b068fc378daa952ba7f163c4a11628f55a4df523b3ef60405160405180910390a45050565b6040518060600160405280600063ffffffff168152602001600063ffffffff16815260200160006003811115613257577f4e487b7100000000000000000000000000000000000000000000000000000000600052602160045260246000fd5b81525090565b600061327061326b84614663565b614632565b90508281526020810184848401111561328857600080fd5b6132938482856148ae565b509392505050565b60006132ae6132a984614693565b614632565b9050828152602081018484840111156132c657600080fd5b6132d18482856148ae565b509392505050565b6000813590506132e881614aea565b92915050565b6000813590506132fd81614b01565b92915050565b60008135905061331281614b18565b92915050565b60008151905061332781614b18565b92915050565b600082601f83011261333e57600080fd5b813561334e84826020860161325d565b91505092915050565b60008135905061336681614b2f565b92915050565b600082601f83011261337d57600080fd5b813561338d84826020860161329b565b91505092915050565b6000813590506133a581614b3f565b92915050565b6000602082840312156133bd57600080fd5b60006133cb848285016132d9565b91505092915050565b600080604083850312156133e757600080fd5b60006133f5858286016132d9565b9250506020613406858286016132d9565b9150509250929050565b60008060006060848603121561342557600080fd5b6000613433868287016132d9565b9350506020613444868287016132d9565b925050604061345586828701613396565b9150509250925092565b6000806000806080858703121561347557600080fd5b6000613483878288016132d9565b9450506020613494878288016132d9565b93505060406134a587828801613396565b925050606085013567ffffffffffffffff8111156134c257600080fd5b6134ce8782880161332d565b91505092959194509250565b600080604083850312156134ed57600080fd5b60006134fb858286016132d9565b925050602061350c858286016132ee565b9150509250929050565b6000806040838503121561352957600080fd5b6000613537858286016132d9565b925050602061354885828601613396565b9150509250929050565b60006020828403121561356457600080fd5b600061357284828501613303565b91505092915050565b60006020828403121561358d57600080fd5b600061359b84828501613318565b91505092915050565b6000602082840312156135b657600080fd5b60006135c484828501613357565b91505092915050565b6000602082840312156135df57600080fd5b60006135ed84828501613396565b91505092915050565b6000806040838503121561360957600080fd5b600061361785828601613396565b925050602083013567ffffffffffffffff81111561363457600080fd5b6136408582860161336c565b9150509250929050565b613653816147d3565b82525050565b613662816147c1565b82525050565b613671816147e5565b82525050565b6000613682826146c3565b61368c81856146d9565b935061369c8185602086016148bd565b6136a581614ab1565b840191505092915050565b6136b98161488a565b82525050565b6136c88161489c565b82525050565b60006136d9826146ce565b6136e381856146ea565b93506136f38185602086016148bd565b6136fc81614ab1565b840191505092915050565b6000613712826146ce565b61371c81856146fb565b935061372c8185602086016148bd565b80840191505092915050565b60006137456032836146ea565b91507f4552433732313a207472616e7366657220746f206e6f6e20455243373231526560008301527f63656976657220696d706c656d656e74657200000000000000000000000000006020830152604082019050919050565b60006137ab6021836146ea565b91507f43616e206f6e6c7920626520657865637574656420627920746865206f776e6560008301527f72000000000000000000000000000000000000000000000000000000000000006020830152604082019050919050565b6000613811601c836146ea565b91507f4552433732313a20746f6b656e20616c7265616479206d696e746564000000006000830152602082019050919050565b6000613851601c836146ea565b91507f5469636b65742068617320616c7265616479206265656e2075736564000000006000830152602082019050919050565b60006138916025836146ea565b91507f43616e6e6f7420657865637574652066756e6374696f6e20617420746869732060008301527f73746167650000000000000000000000000000000000000000000000000000006020830152604082019050919050565b60006138f76018836146ea565b91507f5468657265206172652030207469636b657473206c65667400000000000000006000830152602082019050919050565b60006139376024836146ea565b91507f4552433732313a207472616e7366657220746f20746865207a65726f2061646460008301527f72657373000000000000000000000000000000000000000000000000000000006020830152604082019050919050565b600061399d6019836146ea565b91507f4552433732313a20617070726f766520746f2063616c6c6572000000000000006000830152602082019050919050565b60006139dd6021836146ea565b91507f4f776e65722068617320616c72656164792077697468647261776e206d6f6e6560008301527f79000000000000000000000000000000000000000000000000000000000000006020830152604082019050919050565b6000613a436024836146ea565b91507f5573657220646f6573206e6f742068617665206d6f6e657920746f207769746860008301527f64726177000000000000000000000000000000000000000000000000000000006020830152604082019050919050565b6000613aa9602c836146ea565b91507f4552433732313a206f70657261746f7220717565727920666f72206e6f6e657860008301527f697374656e7420746f6b656e00000000000000000000000000000000000000006020830152604082019050919050565b6000613b0f6025836146ea565b91507f4e6f7420656e6f756768206d6f6e657920746f2070757263686173652061207460008301527f69636b65740000000000000000000000000000000000000000000000000000006020830152604082019050919050565b6000613b756026836146ea565b91507f5468657265206973206e6f2076616c6964207469636b657420666f722074686960008301527f73207573657200000000000000000000000000000000000000000000000000006020830152604082019050919050565b6000613bdb6038836146ea565b91507f4552433732313a20617070726f76652063616c6c6572206973206e6f74206f7760008301527f6e6572206e6f7220617070726f76656420666f7220616c6c00000000000000006020830152604082019050919050565b6000613c41602a836146ea565b91507f4552433732313a2062616c616e636520717565727920666f7220746865207a6560008301527f726f2061646472657373000000000000000000000000000000000000000000006020830152604082019050919050565b6000613ca76029836146ea565b91507f4552433732313a206f776e657220717565727920666f72206e6f6e657869737460008301527f656e7420746f6b656e00000000000000000000000000000000000000000000006020830152604082019050919050565b6000613d0d601c836146ea565b91507f4661696c656420746f2073656e6420657468657220746f2075736572000000006000830152602082019050919050565b6000613d4d6020836146ea565b91507f4552433732313a206d696e7420746f20746865207a65726f20616464726573736000830152602082019050919050565b6000613d8d602c836146ea565b91507f4552433732313a20617070726f76656420717565727920666f72206e6f6e657860008301527f697374656e7420746f6b656e00000000000000000000000000000000000000006020830152604082019050919050565b6000613df36029836146ea565b91507f4552433732313a207472616e73666572206f6620746f6b656e2074686174206960008301527f73206e6f74206f776e00000000000000000000000000000000000000000000006020830152604082019050919050565b6000613e59602f836146ea565b91507f4552433732314d657461646174613a2055524920717565727920666f72206e6f60008301527f6e6578697374656e7420746f6b656e00000000000000000000000000000000006020830152604082019050919050565b6000613ebf6022836146ea565b91507f4e6f206d6f6e657920696e20736d61727420636f6e7472616374206163636f7560008301527f6e740000000000000000000000000000000000000000000000000000000000006020830152604082019050919050565b6000613f256021836146ea565b91507f4552433732313a20617070726f76616c20746f2063757272656e74206f776e6560008301527f72000000000000000000000000000000000000000000000000000000000000006020830152604082019050919050565b6000613f8b6031836146ea565b91507f4552433732313a207472616e736665722063616c6c6572206973206e6f74206f60008301527f776e6572206e6f7220617070726f7665640000000000000000000000000000006020830152604082019050919050565b6000613ff1601d836146ea565b91507f4661696c656420746f2073656e6420657468657220746f206f776e65720000006000830152602082019050919050565b6000614031601d836146ea565b91507f5469636b65747320617265206e6f74206f70656e20666f722073616c650000006000830152602082019050919050565b6000614071601d836146ea565b91507f5573657220646f6573206e6f74206f776e2074686973207469636b65740000006000830152602082019050919050565b6140ad81614863565b82525050565b6140bc8161486d565b82525050565b6140cb8161487d565b82525050565b60006140dd8285613707565b91506140e98284613707565b91508190509392505050565b600060208201905061410a6000830184613659565b92915050565b6000602082019050614125600083018461364a565b92915050565b60006080820190506141406000830187613659565b61414d6020830186613659565b61415a60408301856140a4565b818103606083015261416c8184613677565b905095945050505050565b600060408201905061418c6000830185613659565b61419960208301846140a4565b9392505050565b60006020820190506141b56000830184613668565b92915050565b60006020820190506141d060008301846136b0565b92915050565b60006020820190506141eb60008301846136bf565b92915050565b6000602082019050818103600083015261420b81846136ce565b905092915050565b6000604082019050818103600083015261422d81856136ce565b9050818103602083015261424181846136ce565b90509392505050565b6000602082019050818103600083015261426381613738565b9050919050565b600060208201905081810360008301526142838161379e565b9050919050565b600060208201905081810360008301526142a381613804565b9050919050565b600060208201905081810360008301526142c381613844565b9050919050565b600060208201905081810360008301526142e381613884565b9050919050565b60006020820190508181036000830152614303816138ea565b9050919050565b600060208201905081810360008301526143238161392a565b9050919050565b6000602082019050818103600083015261434381613990565b9050919050565b60006020820190508181036000830152614363816139d0565b9050919050565b6000602082019050818103600083015261438381613a36565b9050919050565b600060208201905081810360008301526143a381613a9c565b9050919050565b600060208201905081810360008301526143c381613b02565b9050919050565b600060208201905081810360008301526143e381613b68565b9050919050565b6000602082019050818103600083015261440381613bce565b9050919050565b6000602082019050818103600083015261442381613c34565b9050919050565b6000602082019050818103600083015261444381613c9a565b9050919050565b6000602082019050818103600083015261446381613d00565b9050919050565b6000602082019050818103600083015261448381613d40565b9050919050565b600060208201905081810360008301526144a381613d80565b9050919050565b600060208201905081810360008301526144c381613de6565b9050919050565b600060208201905081810360008301526144e381613e4c565b9050919050565b6000602082019050818103600083015261450381613eb2565b9050919050565b6000602082019050818103600083015261452381613f18565b9050919050565b6000602082019050818103600083015261454381613f7e565b9050919050565b6000602082019050818103600083015261456381613fe4565b9050919050565b6000602082019050818103600083015261458381614024565b9050919050565b600060208201905081810360008301526145a381614064565b9050919050565b60006020820190506145bf60008301846140a4565b92915050565b60006020820190506145da60008301846140b3565b92915050565b60006060820190506145f560008301866140b3565b61460260208301856140b3565b61460f60408301846136bf565b949350505050565b600060208201905061462c60008301846140c2565b92915050565b6000604051905081810181811067ffffffffffffffff8211171561465957614658614a82565b5b8060405250919050565b600067ffffffffffffffff82111561467e5761467d614a82565b5b601f19601f8301169050602081019050919050565b600067ffffffffffffffff8211156146ae576146ad614a82565b5b601f19601f8301169050602081019050919050565b600081519050919050565b600081519050919050565b600082825260208201905092915050565b600082825260208201905092915050565b600081905092915050565b600061471182614863565b915061471c83614863565b9250827fffffffffffffffffffffffffffffffffffffffffffffffffffffffffffffffff03821115614751576147506149c6565b5b828201905092915050565b600061476782614863565b915061477283614863565b925082614782576147816149f5565b5b828204905092915050565b600061479882614863565b91506147a383614863565b9250828210156147b6576147b56149c6565b5b828203905092915050565b60006147cc82614843565b9050919050565b60006147de82614843565b9050919050565b60008115159050919050565b60007fffffffff0000000000000000000000000000000000000000000000000000000082169050919050565b600081905061482b82614ac2565b919050565b600081905061483e82614ad6565b919050565b600073ffffffffffffffffffffffffffffffffffffffff82169050919050565b6000819050919050565b600063ffffffff82169050919050565b600060ff82169050919050565b60006148958261481d565b9050919050565b60006148a782614830565b9050919050565b82818337600083830152505050565b60005b838110156148db5780820151818401526020810190506148c0565b838111156148ea576000848401525b50505050565b60006148fb8261486d565b9150600082141561490f5761490e6149c6565b5b600182039050919050565b6000600282049050600182168061493257607f821691505b6020821081141561494657614945614a53565b5b50919050565b600061495782614863565b91507fffffffffffffffffffffffffffffffffffffffffffffffffffffffffffffffff82141561498a576149896149c6565b5b600182019050919050565b60006149a082614863565b91506149ab83614863565b9250826149bb576149ba6149f5565b5b828206905092915050565b7f4e487b7100000000000000000000000000000000000000000000000000000000600052601160045260246000fd5b7f4e487b7100000000000000000000000000000000000000000000000000000000600052601260045260246000fd5b7f4e487b7100000000000000000000000000000000000000000000000000000000600052602160045260246000fd5b7f4e487b7100000000000000000000000000000000000000000000000000000000600052602260045260246000fd5b7f4e487b7100000000000000000000000000000000000000000000000000000000600052604160045260246000fd5b6000601f19601f8301169050919050565b60068110614ad357614ad2614a24565b5b50565b60048110614ae757614ae6614a24565b5b50565b614af3816147c1565b8114614afe57600080fd5b50565b614b0a816147e5565b8114614b1557600080fd5b50565b614b21816147f1565b8114614b2c57600080fd5b50565b60068110614b3c57600080fd5b50565b614b4881614863565b8114614b5357600080fd5b5056fea26469706673582212203378ff05891ece12a02950ae530c7756a8afc22e3410d6c2f36a887188815c5764736f6c63430008000033",
  "immutableReferences": {},
  "source": "// SPDX-License-Identifier: UNLICENSED\r\npragma solidity 0.8.0;\r\nimport \"@openzeppelin/contracts/token/ERC721/ERC721.sol\";\r\n \r\n/// @title Factory Contract to create events\r\ncontract EventCreator {\r\n\r\n    // Created events\r\n    Event[] public events;\r\n\r\n    // EVENTS\r\n    event CreateEvent(address _creator, address _event);\r\n\r\n    /**\r\n     * @notice Creates Events\r\n     * @param _numTickets Number of tickets \r\n     * @param _price Price per ticket\r\n     * @param _canBeResold Are tickets allowed to be resold\r\n     * @param _royaltyPercent Royalty percentage accrued by organizers on reselling of ticket\r\n     * @param _eventName Name of the Ticket NFT\r\n     * @param _eventSymbol Symbol for the Ticket NFT Token\r\n     */\r\n    function createEvent(uint32 _numTickets, uint32 _price, bool _canBeResold, uint8 _royaltyPercent,\r\n            string memory _eventName, string memory _eventSymbol) external returns(address newEvent) {\r\n\r\n        // Create a new Event smart contract\r\n        // NOTE: 'new' keyword creates a new SC and returns address\r\n        Event e = new Event(msg.sender, _numTickets, _price, _canBeResold, _royaltyPercent, _eventName, _eventSymbol);\r\n        \r\n        // Store/return event address\r\n        events.push(e);\r\n        address eventAddress = address(e);\r\n        emit CreateEvent(msg.sender, eventAddress);\r\n\r\n        // QUESTION: I cannot return this because async??\r\n        return eventAddress;\r\n    }\r\n\r\n\r\n    /**\r\n     * @notice Retrieve number of events\r\n     */\r\n    function getEventCount() public view returns(uint contractCount) {\r\n        return events.length;\r\n    }\r\n\r\n    // Returns array of all events\r\n    function getEvents() external view returns(Event[] memory _events) {\r\n        _events = new Event[] (events.length);\r\n        for (uint i=0; i<events.length; i++){\r\n            _events[i] = events[i];\r\n        }\r\n\r\n        return _events;\r\n    }  \r\n}\r\n\r\n/// @title Contract to mint tickets of an event\r\ncontract Event is ERC721 {\r\n    /// Control Event Status at a granular level\r\n    enum Stages { Prep, Active, Paused, CheckinOpen, Cancelled, Closed }\r\n    Stages public stage = Stages.Prep;\r\n    \r\n    /// Control Ticket Status at a granular level\r\n    enum TicketStatus { Invalid, Valid, Used, AvailableForSale }\r\n    \r\n    // Ticket struct \r\n    struct Ticket {\r\n        uint32 price;\r\n        uint32 resalePrice;\r\n        TicketStatus status;\r\n    }\r\n    Ticket[] public tickets;\r\n    uint32 public numTicketsLeft;\r\n    uint32 public price;\r\n    \r\n    /// Percent royalty event creator receives from ticket resales\r\n    uint8 public royaltyPercent;\r\n    \r\n    // For each user, store corresponding ticket struct\r\n    //mapping(address => Ticket) public tickets;\r\n    \r\n    bool public canBeResold;\r\n    address payable public owner;\r\n    \r\n    // to store the balances for buyers and organizers\r\n    uint totalBalances = 0;\r\n    mapping(address => uint) public balances;\r\n    mapping(address => bool) public isUserRefunded;\r\n    mapping(address => uint) public numTicketsBought;\r\n\r\n    // EVENTS\r\n    event CreateTicket(address buyer, uint ticketID);\r\n    event WithdrawMoney(address receiver, uint money);\r\n    event OwnerWithdrawMoney(address owner, uint money);\r\n    event TicketForSale(address seller, uint ticketID);\r\n    event TicketSold(address seller, address buyer, uint ticketID);\r\n    event TicketUsed(string eventName, string sQRCodeKey);\r\n\r\n    // Creates a new Event Contract\r\n    constructor(address _owner, uint32 _numTickets, uint32 _price, bool _canBeResold, uint8 _royaltyPercent,\r\n            string memory _eventName, string memory _eventSymbol) ERC721(_eventName, _eventSymbol) {    \r\n        // Check valid constructor arguments\r\n        require(_royaltyPercent >= 0 && _royaltyPercent <= 100, \"Royalty Percentage must be between 0 and 100\");\r\n        // Number of tickets must be greater than 0\r\n        require(_numTickets > 0, \"The number of tickets must be greater than 0\");\r\n        // EventName, EventSymbol cannot be empty string\r\n        bytes memory eventNameBytes = bytes(_eventName);\r\n        bytes memory eventSymbolBytes = bytes(_eventSymbol);\r\n        require(eventNameBytes.length != 0, \"Event Name cannot be empty\");\r\n        require(eventSymbolBytes.length != 0, \"Event Symbol cannot be empty\");\r\n        \r\n        owner = payable(_owner);\r\n        numTicketsLeft = _numTickets;\r\n        price = _price;\r\n        canBeResold = _canBeResold;\r\n        royaltyPercent = _royaltyPercent;\r\n    }\r\n\r\n    /**\r\n     * @notice Buy tickets\r\n     * @dev Checks: State is Active, has enough money\r\n     */\r\n    function buyTicket() public payable buyingTicketOpen ticketsLeft \r\n                                            hasEnoughMoney(msg.value) returns (uint){\r\n        //uint32 ticketID = numTicketsLeft;\r\n\r\n        // Create Ticket t\r\n        Ticket memory t;\r\n        t.price = price;\r\n        t.resalePrice = price;\r\n        t.status = TicketStatus.Valid;\r\n\r\n\r\n        // Store t in tickets array\r\n        tickets.push(t);\r\n        uint ticketID = tickets.length - 1;\r\n        numTicketsLeft--;\r\n\r\n        // Mint NFT\r\n        _safeMint(msg.sender, ticketID);\r\n        emit CreateTicket(msg.sender, ticketID);\r\n\r\n        // If user overpaid, add difference to balances\r\n        if (msg.value > price) {\r\n            balances[msg.sender] = msg.value - price;\r\n            totalBalances += (msg.value - price);\r\n        }\r\n        \r\n        return ticketID;\r\n    }\r\n\r\n    /**\r\n     * @notice Change Status\r\n     * @dev Only owner can change state\r\n     * @param _stage Stages as set in enum Stages\r\n     */\r\n    function setStage(Stages _stage) public onlyOwner returns (Stages) {\r\n        stage = _stage;\r\n        return stage;\r\n    }\r\n    \r\n    /**\r\n     * @notice Mark ticket as used\r\n     * @dev Only a valid buyer can mark ticket as used\r\n     * @param sQRCodeKey QR Code key sent by the app \r\n     */\r\n    function setTicketToUsed(uint ticketID, string memory sQRCodeKey) public requiredStage(Stages.CheckinOpen)\r\n                                                                    ownsTicket(ticketID) returns (string memory){\r\n\t\t// Validate that user has a ticket they own and it is valid\r\n        require(tickets[ticketID].status == TicketStatus.Valid, \"There is no valid ticket for this user\");\r\n    \r\n        \r\n        // Ticket is valid so mark it as used\r\n        tickets[ticketID].status = TicketStatus.Used;\r\n\r\n        // Burn the Token\r\n        _burn(ticketID); \r\n        \r\n        // Raise event which Gate Management system can consume then\r\n        emit TicketUsed(name(), sQRCodeKey);\r\n        \r\n        return sQRCodeKey;\r\n\t}\r\n\r\n    /**\r\n     * @notice Mark ticket as used\r\n     * @dev Only a valid buyer can mark ticket as used\r\n     * @param ticketID ticket ID of ticket\r\n     */\r\n    function setTicketForSale(uint ticketID) public requiredStage(Stages.Active) ownsTicket(ticketID) {\r\n\t\t// Validate that user has a ticket they own and it is valid\r\n        require(tickets[ticketID].status != TicketStatus.Used, \"Ticket has already been used\");\r\n        \r\n        // Ticket is valid so mark it as used\r\n        tickets[ticketID].status = TicketStatus.AvailableForSale;\r\n        \r\n        // Raise event which Gate Management system can consume then\r\n        emit TicketForSale(msg.sender, ticketID);\r\n        \r\n        //return ticketID;\r\n\t}\r\n\r\n     /**\r\n     * @dev get ticket status\r\n     */\r\n    function getTicketStatus(uint ticketID) public view returns (TicketStatus) {\r\n        return tickets[ticketID].status;\r\n    }\r\n\r\n\t\r\n    /**\r\n     * @notice Allows owner to withdraw money\r\n     * @dev once the event is closed, owner can withdraw money from SC account\r\n     */\r\n    function ownerWithdraw() public onlyOwner requiredStage(Stages.Closed) returns (bool success){\r\n        // Make sure owner did not already withdraw\r\n        require(isUserRefunded[owner] == false, \"Owner has already withdrawn money\");\r\n        isUserRefunded[owner] = true;\r\n        \r\n        // Require smart contract balance - amount users overpaid > 0\r\n        // Otherwise, there is no money for owner to refund\r\n        uint sendToOwner = address(this).balance - totalBalances;\r\n        require(sendToOwner > 0, \"No money in smart contract account\");\r\n\r\n        // Transfer money to owner\r\n        bool sent = owner.send(sendToOwner);\r\n        // Failure condition if cannot transfer\r\n        require(sent, \"Failed to send ether to owner\");\r\n\r\n        emit OwnerWithdrawMoney(msg.sender, sendToOwner);\r\n\r\n        return true;\r\n    }\r\n\r\n    // TODO: DOES THIS NEED TO RETURN BOOLEAN? IF IT FAILS THERE WILL BE AN ERROR\r\n    /**\r\n     * @notice User to withdraw money \r\n     * @dev User can withdraw money if event cancelled or overpaid for ticket\r\n     */\r\n    function withdraw() public returns (bool success) {\r\n        // Amount to send to user\r\n        uint sendToUser = balances[msg.sender];\r\n\r\n        // Update balance before sending money\r\n        balances[msg.sender] = 0;\r\n        \r\n        // If event cancelled, send user the amount they overpaid for ticket + ticket price refund\r\n        if ((stage == Stages.Cancelled || stage == Stages.Paused) && isUserRefunded[msg.sender] == false) {\r\n            // Update isUserRefunded before sending money\r\n            isUserRefunded[msg.sender] = true;\r\n            sendToUser += price;\r\n        }\r\n\r\n        // Cannot withdraw if no money to withdraw\r\n        require(sendToUser > 0, \"User does not have money to withdraw\");\r\n\r\n        // Transfer money to user\r\n        address payable receiver = payable(msg.sender);\r\n        bool sent = receiver.send(sendToUser);\r\n        // Failure condition of send will emit this error\r\n        require(sent, \"Failed to send ether to user\");\r\n\r\n        emit WithdrawMoney(msg.sender, sendToUser);\r\n        \r\n        return true;\r\n    }\r\n\r\n    // /**\r\n    //  * @dev approve a buyer to buy ticket of another user\r\n    //  */\r\n    // function approveAsBuyer(address buyer, uint ticketID) public requiredStage(Stages.Active) ownsTicket(ticketID) {\r\n    //     approve(buyer, ticketID);\r\n    // }\r\n\r\n    // /**\r\n    //  * @notice Mark ticket as used\r\n    //  * @dev Only a valid buyer can mark ticket as used\r\n    //  * @param ticketID ticket ID of ticket\r\n    //  */\r\n    // function buyTicketFromUser(uint ticketID) public payable requiredStage(Stages.Active) hasEnoughMoney(msg.value) returns (bool) {\r\n    //     // Check if ticket is available for sale\r\n    //     require(tickets[ticketID].status == TicketStatus.AvailableForSale, \"Ticket not available for sale\");\r\n\r\n    //     //calc amount to pay after royalty\r\n    //     uint ticketPrice = tickets[ticketID].price;\r\n    //     uint royalty = (royaltyPercent/100) * ticketPrice;\r\n    //     uint priceToPay = ticketPrice - royalty;\r\n\r\n    //     //transfer money to seller\r\n    //     address payable seller = payable(ownerOf(ticketID));\r\n    //     seller.transfer(priceToPay);\r\n    //     bool sent = seller.send(price);\r\n\r\n    //     require(sent, \"Failed to send ether to user\");\r\n\r\n    //     emit TicketSold(seller, msg.sender, ticketID);\r\n    //     safeTransferFrom(seller, msg.sender, ticketID);\r\n\r\n    //     return true;\r\n\r\n    // }\r\n\r\n\r\n    // MODIFIERS\r\n\r\n    // Only owner\r\n    modifier onlyOwner() {\r\n        require(msg.sender == owner, \"Can only be executed by the owner\");\r\n        _;\r\n    }\r\n\r\n    // Requires stage to be _stage\r\n    modifier requiredStage(Stages _stage) {\r\n        require(stage == _stage, \"Cannot execute function at this stage\");\r\n        _;\r\n    }\r\n    \r\n    // Check if buying is open\r\n    modifier buyingTicketOpen() {\r\n        require(stage == Stages.Active || stage == Stages.CheckinOpen, \"Tickets are not open for sale\");\r\n        _;\r\n    }\r\n\r\n    // Requires there to be more than 0 tickets left\r\n    modifier ticketsLeft() {\r\n        require(numTicketsLeft > 0, \"There are 0 tickets left\");\r\n        _;\r\n    }\r\n\r\n    modifier hasEnoughMoney(uint money) {\r\n        require(money >= price, \"Not enough money to purchase a ticket\");\r\n        _;\r\n    }\r\n\r\n    // Check if user is ticket owner\r\n    modifier ownsTicket(uint ticketID) {\r\n        require(ownerOf(ticketID) == msg.sender, \"User does not own this ticket\");\r\n        _;\r\n    }\r\n    \r\n}\r\n\r\n",
  "sourcePath": "C:/Users/ManTheMith/Desktop/COMP6452/proj/comp6452-nft/src/contracts/Event.sol",
  "compiler": {
    "name": "solc",
    "version": "0.8.0+commit.c7dfd78e.Emscripten.clang"
  },
  "schemaVersion": "3.4.1",
  "updatedAt": "2021-07-24T11:08:03.787Z",
  "networkType": "ethereum",
  "devdoc": {
    "kind": "dev",
    "methods": {
      "approve(address,uint256)": {
        "details": "See {IERC721-approve}."
      },
      "balanceOf(address)": {
        "details": "See {IERC721-balanceOf}."
      },
      "buyTicket()": {
        "details": "Checks: State is Active, has enough money"
      },
      "getApproved(uint256)": {
        "details": "See {IERC721-getApproved}."
      },
      "getTicketStatus(uint256)": {
        "details": "get ticket status"
      },
      "isApprovedForAll(address,address)": {
        "details": "See {IERC721-isApprovedForAll}."
      },
      "name()": {
        "details": "See {IERC721Metadata-name}."
      },
      "ownerOf(uint256)": {
        "details": "See {IERC721-ownerOf}."
      },
      "ownerWithdraw()": {
        "details": "once the event is closed, owner can withdraw money from SC account"
      },
      "safeTransferFrom(address,address,uint256)": {
        "details": "See {IERC721-safeTransferFrom}."
      },
      "safeTransferFrom(address,address,uint256,bytes)": {
        "details": "See {IERC721-safeTransferFrom}."
      },
      "setApprovalForAll(address,bool)": {
        "details": "See {IERC721-setApprovalForAll}."
      },
      "setStage(uint8)": {
        "details": "Only owner can change state",
        "params": {
          "_stage": "Stages as set in enum Stages"
        }
      },
      "setTicketForSale(uint256)": {
        "details": "Only a valid buyer can mark ticket as used",
        "params": {
          "ticketID": "ticket ID of ticket"
        }
      },
      "setTicketToUsed(uint256,string)": {
        "details": "Only a valid buyer can mark ticket as used",
        "params": {
          "sQRCodeKey": "QR Code key sent by the app "
        }
      },
      "supportsInterface(bytes4)": {
        "details": "See {IERC165-supportsInterface}."
      },
      "symbol()": {
        "details": "See {IERC721Metadata-symbol}."
      },
      "tokenURI(uint256)": {
        "details": "See {IERC721Metadata-tokenURI}."
      },
      "transferFrom(address,address,uint256)": {
        "details": "See {IERC721-transferFrom}."
      },
      "withdraw()": {
        "details": "User can withdraw money if event cancelled or overpaid for ticket"
      }
    },
    "title": "Contract to mint tickets of an event",
    "version": 1
  },
  "userdoc": {
    "kind": "user",
    "methods": {
      "buyTicket()": {
        "notice": "Buy tickets"
      },
      "ownerWithdraw()": {
        "notice": "Allows owner to withdraw money"
      },
      "royaltyPercent()": {
        "notice": "Percent royalty event creator receives from ticket resales"
      },
      "setStage(uint8)": {
        "notice": "Change Status"
      },
      "setTicketForSale(uint256)": {
        "notice": "Mark ticket as used"
      },
      "setTicketToUsed(uint256,string)": {
        "notice": "Mark ticket as used"
      },
      "withdraw()": {
        "notice": "User to withdraw money "
      }
    },
    "version": 1
  }
}