{
  "contractName": "Event",
  "abi": [
    {
      "inputs": [
        {
          "internalType": "address",
          "name": "_owner",
          "type": "address"
        },
        {
          "internalType": "uint32",
          "name": "_numTickets",
          "type": "uint32"
        },
        {
          "internalType": "uint32",
          "name": "_price",
          "type": "uint32"
        },
        {
          "internalType": "bool",
          "name": "_canBeResold",
          "type": "bool"
        },
        {
          "internalType": "uint8",
          "name": "_royaltyPercent",
          "type": "uint8"
        },
        {
          "internalType": "string",
          "name": "_eventName",
          "type": "string"
        },
        {
          "internalType": "string",
          "name": "_eventSymbol",
          "type": "string"
        }
      ],
      "stateMutability": "nonpayable",
      "type": "constructor"
    },
    {
      "anonymous": false,
      "inputs": [
        {
          "indexed": true,
          "internalType": "address",
          "name": "owner",
          "type": "address"
        },
        {
          "indexed": true,
          "internalType": "address",
          "name": "approved",
          "type": "address"
        },
        {
          "indexed": true,
          "internalType": "uint256",
          "name": "tokenId",
          "type": "uint256"
        }
      ],
      "name": "Approval",
      "type": "event"
    },
    {
      "anonymous": false,
      "inputs": [
        {
          "indexed": true,
          "internalType": "address",
          "name": "owner",
          "type": "address"
        },
        {
          "indexed": true,
          "internalType": "address",
          "name": "operator",
          "type": "address"
        },
        {
          "indexed": false,
          "internalType": "bool",
          "name": "approved",
          "type": "bool"
        }
      ],
      "name": "ApprovalForAll",
      "type": "event"
    },
    {
      "anonymous": false,
      "inputs": [
        {
          "indexed": false,
          "internalType": "address",
          "name": "buyer",
          "type": "address"
        },
        {
          "indexed": false,
          "internalType": "uint256",
          "name": "ticketID",
          "type": "uint256"
        }
      ],
      "name": "CreateTicket",
      "type": "event"
    },
    {
      "anonymous": false,
      "inputs": [
        {
          "indexed": false,
          "internalType": "address",
          "name": "owner",
          "type": "address"
        },
        {
          "indexed": false,
          "internalType": "uint256",
          "name": "money",
          "type": "uint256"
        }
      ],
      "name": "OwnerWithdrawMoney",
      "type": "event"
    },
    {
      "anonymous": false,
      "inputs": [
        {
          "indexed": false,
          "internalType": "address",
          "name": "seller",
          "type": "address"
        },
        {
          "indexed": false,
          "internalType": "uint256",
          "name": "ticketID",
          "type": "uint256"
        }
      ],
      "name": "TicketForSale",
      "type": "event"
    },
    {
      "anonymous": false,
      "inputs": [
        {
          "indexed": false,
          "internalType": "address",
          "name": "seller",
          "type": "address"
        },
        {
          "indexed": false,
          "internalType": "address",
          "name": "buyer",
          "type": "address"
        },
        {
          "indexed": false,
          "internalType": "uint256",
          "name": "ticketID",
          "type": "uint256"
        }
      ],
      "name": "TicketSold",
      "type": "event"
    },
    {
      "anonymous": false,
      "inputs": [
        {
          "indexed": false,
          "internalType": "string",
          "name": "eventName",
          "type": "string"
        },
        {
          "indexed": false,
          "internalType": "string",
          "name": "sQRCodeKey",
          "type": "string"
        }
      ],
      "name": "TicketUsed",
      "type": "event"
    },
    {
      "anonymous": false,
      "inputs": [
        {
          "indexed": true,
          "internalType": "address",
          "name": "from",
          "type": "address"
        },
        {
          "indexed": true,
          "internalType": "address",
          "name": "to",
          "type": "address"
        },
        {
          "indexed": true,
          "internalType": "uint256",
          "name": "tokenId",
          "type": "uint256"
        }
      ],
      "name": "Transfer",
      "type": "event"
    },
    {
      "anonymous": false,
      "inputs": [
        {
          "indexed": false,
          "internalType": "address",
          "name": "receiver",
          "type": "address"
        },
        {
          "indexed": false,
          "internalType": "uint256",
          "name": "money",
          "type": "uint256"
        }
      ],
      "name": "WithdrawMoney",
      "type": "event"
    },
    {
      "inputs": [
        {
          "internalType": "address",
          "name": "to",
          "type": "address"
        },
        {
          "internalType": "uint256",
          "name": "tokenId",
          "type": "uint256"
        }
      ],
      "name": "approve",
      "outputs": [],
      "stateMutability": "nonpayable",
      "type": "function"
    },
    {
      "inputs": [
        {
          "internalType": "address",
          "name": "owner",
          "type": "address"
        }
      ],
      "name": "balanceOf",
      "outputs": [
        {
          "internalType": "uint256",
          "name": "",
          "type": "uint256"
        }
      ],
      "stateMutability": "view",
      "type": "function"
    },
    {
      "inputs": [
        {
          "internalType": "address",
          "name": "",
          "type": "address"
        }
      ],
      "name": "balances",
      "outputs": [
        {
          "internalType": "uint256",
          "name": "",
          "type": "uint256"
        }
      ],
      "stateMutability": "view",
      "type": "function"
    },
    {
      "inputs": [],
      "name": "canBeResold",
      "outputs": [
        {
          "internalType": "bool",
          "name": "",
          "type": "bool"
        }
      ],
      "stateMutability": "view",
      "type": "function"
    },
    {
      "inputs": [
        {
          "internalType": "uint256",
          "name": "tokenId",
          "type": "uint256"
        }
      ],
      "name": "getApproved",
      "outputs": [
        {
          "internalType": "address",
          "name": "",
          "type": "address"
        }
      ],
      "stateMutability": "view",
      "type": "function"
    },
    {
      "inputs": [
        {
          "internalType": "address",
          "name": "owner",
          "type": "address"
        },
        {
          "internalType": "address",
          "name": "operator",
          "type": "address"
        }
      ],
      "name": "isApprovedForAll",
      "outputs": [
        {
          "internalType": "bool",
          "name": "",
          "type": "bool"
        }
      ],
      "stateMutability": "view",
      "type": "function"
    },
    {
      "inputs": [
        {
          "internalType": "address",
          "name": "",
          "type": "address"
        }
      ],
      "name": "isUserRefunded",
      "outputs": [
        {
          "internalType": "bool",
          "name": "",
          "type": "bool"
        }
      ],
      "stateMutability": "view",
      "type": "function"
    },
    {
      "inputs": [],
      "name": "name",
      "outputs": [
        {
          "internalType": "string",
          "name": "",
          "type": "string"
        }
      ],
      "stateMutability": "view",
      "type": "function"
    },
    {
      "inputs": [
        {
          "internalType": "address",
          "name": "",
          "type": "address"
        }
      ],
      "name": "numTicketsBought",
      "outputs": [
        {
          "internalType": "uint256",
          "name": "",
          "type": "uint256"
        }
      ],
      "stateMutability": "view",
      "type": "function"
    },
    {
      "inputs": [],
      "name": "numTicketsLeft",
      "outputs": [
        {
          "internalType": "uint32",
          "name": "",
          "type": "uint32"
        }
      ],
      "stateMutability": "view",
      "type": "function"
    },
    {
      "inputs": [],
      "name": "owner",
      "outputs": [
        {
          "internalType": "address payable",
          "name": "",
          "type": "address"
        }
      ],
      "stateMutability": "view",
      "type": "function"
    },
    {
      "inputs": [
        {
          "internalType": "uint256",
          "name": "tokenId",
          "type": "uint256"
        }
      ],
      "name": "ownerOf",
      "outputs": [
        {
          "internalType": "address",
          "name": "",
          "type": "address"
        }
      ],
      "stateMutability": "view",
      "type": "function"
    },
    {
      "inputs": [],
      "name": "price",
      "outputs": [
        {
          "internalType": "uint32",
          "name": "",
          "type": "uint32"
        }
      ],
      "stateMutability": "view",
      "type": "function"
    },
    {
      "inputs": [],
      "name": "royaltyPercent",
      "outputs": [
        {
          "internalType": "uint8",
          "name": "",
          "type": "uint8"
        }
      ],
      "stateMutability": "view",
      "type": "function"
    },
    {
      "inputs": [
        {
          "internalType": "address",
          "name": "from",
          "type": "address"
        },
        {
          "internalType": "address",
          "name": "to",
          "type": "address"
        },
        {
          "internalType": "uint256",
          "name": "tokenId",
          "type": "uint256"
        }
      ],
      "name": "safeTransferFrom",
      "outputs": [],
      "stateMutability": "nonpayable",
      "type": "function"
    },
    {
      "inputs": [
        {
          "internalType": "address",
          "name": "from",
          "type": "address"
        },
        {
          "internalType": "address",
          "name": "to",
          "type": "address"
        },
        {
          "internalType": "uint256",
          "name": "tokenId",
          "type": "uint256"
        },
        {
          "internalType": "bytes",
          "name": "_data",
          "type": "bytes"
        }
      ],
      "name": "safeTransferFrom",
      "outputs": [],
      "stateMutability": "nonpayable",
      "type": "function"
    },
    {
      "inputs": [
        {
          "internalType": "address",
          "name": "operator",
          "type": "address"
        },
        {
          "internalType": "bool",
          "name": "approved",
          "type": "bool"
        }
      ],
      "name": "setApprovalForAll",
      "outputs": [],
      "stateMutability": "nonpayable",
      "type": "function"
    },
    {
      "inputs": [],
      "name": "stage",
      "outputs": [
        {
          "internalType": "enum Event.Stages",
          "name": "",
          "type": "uint8"
        }
      ],
      "stateMutability": "view",
      "type": "function"
    },
    {
      "inputs": [
        {
          "internalType": "bytes4",
          "name": "interfaceId",
          "type": "bytes4"
        }
      ],
      "name": "supportsInterface",
      "outputs": [
        {
          "internalType": "bool",
          "name": "",
          "type": "bool"
        }
      ],
      "stateMutability": "view",
      "type": "function"
    },
    {
      "inputs": [],
      "name": "symbol",
      "outputs": [
        {
          "internalType": "string",
          "name": "",
          "type": "string"
        }
      ],
      "stateMutability": "view",
      "type": "function"
    },
    {
      "inputs": [
        {
          "internalType": "uint256",
          "name": "",
          "type": "uint256"
        }
      ],
      "name": "tickets",
      "outputs": [
        {
          "internalType": "uint32",
          "name": "price",
          "type": "uint32"
        },
        {
          "internalType": "uint32",
          "name": "resalePrice",
          "type": "uint32"
        },
        {
          "internalType": "enum Event.TicketStatus",
          "name": "status",
          "type": "uint8"
        }
      ],
      "stateMutability": "view",
      "type": "function"
    },
    {
      "inputs": [
        {
          "internalType": "uint256",
          "name": "tokenId",
          "type": "uint256"
        }
      ],
      "name": "tokenURI",
      "outputs": [
        {
          "internalType": "string",
          "name": "",
          "type": "string"
        }
      ],
      "stateMutability": "view",
      "type": "function"
    },
    {
      "inputs": [],
      "name": "totalTickets",
      "outputs": [
        {
          "internalType": "uint32",
          "name": "",
          "type": "uint32"
        }
      ],
      "stateMutability": "view",
      "type": "function"
    },
    {
      "inputs": [
        {
          "internalType": "address",
          "name": "from",
          "type": "address"
        },
        {
          "internalType": "address",
          "name": "to",
          "type": "address"
        },
        {
          "internalType": "uint256",
          "name": "tokenId",
          "type": "uint256"
        }
      ],
      "name": "transferFrom",
      "outputs": [],
      "stateMutability": "nonpayable",
      "type": "function"
    },
    {
      "inputs": [],
      "name": "buyTicket",
      "outputs": [
        {
          "internalType": "uint256",
          "name": "",
          "type": "uint256"
        }
      ],
      "stateMutability": "payable",
      "type": "function"
    },
    {
      "inputs": [
        {
          "internalType": "enum Event.Stages",
          "name": "_stage",
          "type": "uint8"
        }
      ],
      "name": "setStage",
      "outputs": [
        {
          "internalType": "enum Event.Stages",
          "name": "",
          "type": "uint8"
        }
      ],
      "stateMutability": "nonpayable",
      "type": "function"
    },
    {
      "inputs": [
        {
          "internalType": "uint256",
          "name": "ticketID",
          "type": "uint256"
        },
        {
          "internalType": "string",
          "name": "sQRCodeKey",
          "type": "string"
        }
      ],
      "name": "setTicketToUsed",
      "outputs": [
        {
          "internalType": "string",
          "name": "",
          "type": "string"
        }
      ],
      "stateMutability": "nonpayable",
      "type": "function"
    },
    {
      "inputs": [
        {
          "internalType": "uint256",
          "name": "ticketID",
          "type": "uint256"
        }
      ],
      "name": "setTicketForSale",
      "outputs": [
        {
          "internalType": "bool",
          "name": "",
          "type": "bool"
        }
      ],
      "stateMutability": "nonpayable",
      "type": "function"
    },
    {
      "inputs": [
        {
          "internalType": "uint256",
          "name": "ticketID",
          "type": "uint256"
        }
      ],
      "name": "getTicketStatus",
      "outputs": [
        {
          "internalType": "enum Event.TicketStatus",
          "name": "",
          "type": "uint8"
        }
      ],
      "stateMutability": "view",
      "type": "function"
    },
    {
      "inputs": [
        {
          "internalType": "uint256",
          "name": "ticketID",
          "type": "uint256"
        }
      ],
      "name": "getTicket",
      "outputs": [
        {
          "internalType": "uint32",
          "name": "price",
          "type": "uint32"
        },
        {
          "internalType": "uint32",
          "name": "resalePrice",
          "type": "uint32"
        },
        {
          "internalType": "enum Event.TicketStatus",
          "name": "status",
          "type": "uint8"
        }
      ],
      "stateMutability": "view",
      "type": "function"
    },
    {
      "inputs": [],
      "name": "getTicketsCreated",
      "outputs": [
        {
          "components": [
            {
              "internalType": "uint32",
              "name": "price",
              "type": "uint32"
            },
            {
              "internalType": "uint32",
              "name": "resalePrice",
              "type": "uint32"
            },
            {
              "internalType": "enum Event.TicketStatus",
              "name": "status",
              "type": "uint8"
            }
          ],
          "internalType": "struct Event.Ticket[]",
          "name": "",
          "type": "tuple[]"
        }
      ],
      "stateMutability": "view",
      "type": "function"
    },
    {
      "inputs": [],
      "name": "ownerWithdraw",
      "outputs": [
        {
          "internalType": "bool",
          "name": "success",
          "type": "bool"
        }
      ],
      "stateMutability": "nonpayable",
      "type": "function"
    },
    {
      "inputs": [],
      "name": "withdraw",
      "outputs": [
        {
          "internalType": "bool",
          "name": "success",
          "type": "bool"
        }
      ],
      "stateMutability": "nonpayable",
      "type": "function"
    },
    {
      "inputs": [
        {
          "internalType": "address",
          "name": "buyer",
          "type": "address"
        },
        {
          "internalType": "uint256",
          "name": "ticketID",
          "type": "uint256"
        }
      ],
      "name": "approveAsBuyer",
      "outputs": [],
      "stateMutability": "nonpayable",
      "type": "function"
    },
    {
      "inputs": [
        {
          "internalType": "uint256",
          "name": "ticketID",
          "type": "uint256"
        }
      ],
      "name": "buyTicketFromUser",
      "outputs": [
        {
          "internalType": "bool",
          "name": "",
          "type": "bool"
        }
      ],
      "stateMutability": "payable",
      "type": "function"
    }
  ],
  "bytecode": "0x60806040526000600660006101000a81548160ff0219169083600581111562000051577f4e487b7100000000000000000000000000000000000000000000000000000000600052602160045260246000fd5b02179055506000600a553480156200006857600080fd5b5060405162005f7738038062005f7783398181016040528101906200008e91906200046a565b81818160009080519060200190620000a8929190620002ec565b508060019080519060200190620000c1929190620002ec565b50505060008360ff1610158015620000dd575060648360ff1611155b6200011f576040517f08c379a000000000000000000000000000000000000000000000000000000000815260040162000116906200069d565b60405180910390fd5b60008663ffffffff16116200016b576040517f08c379a00000000000000000000000000000000000000000000000000000000081526004016200016290620006bf565b60405180910390fd5b60008290506000829050600082511415620001bd576040517f08c379a0000000000000000000000000000000000000000000000000000000008152600401620001b49062000703565b60405180910390fd5b60008151141562000205576040517f08c379a0000000000000000000000000000000000000000000000000000000008152600401620001fc90620006e1565b60405180910390fd5b88600960006101000a81548173ffffffffffffffffffffffffffffffffffffffff021916908373ffffffffffffffffffffffffffffffffffffffff16021790555087600860046101000a81548163ffffffff021916908363ffffffff16021790555087600860006101000a81548163ffffffff021916908363ffffffff160217905550866008806101000a81548163ffffffff021916908363ffffffff160217905550856008600d6101000a81548160ff021916908315150217905550846008600c6101000a81548160ff021916908360ff1602179055505050505050505050506200092c565b828054620002fa9062000830565b90600052602060002090601f0160209004810192826200031e57600085556200036a565b82601f106200033957805160ff19168380011785556200036a565b828001600101855582156200036a579182015b82811115620003695782518255916020019190600101906200034c565b5b5090506200037991906200037d565b5090565b5b80821115620003985760008160009055506001016200037e565b5090565b6000620003b3620003ad8462000759565b62000725565b905082815260208101848484011115620003cc57600080fd5b620003d9848285620007fa565b509392505050565b600081519050620003f281620008c4565b92915050565b6000815190506200040981620008de565b92915050565b600082601f8301126200042157600080fd5b8151620004338482602086016200039c565b91505092915050565b6000815190506200044d81620008f8565b92915050565b600081519050620004648162000912565b92915050565b600080600080600080600060e0888a0312156200048657600080fd5b6000620004968a828b01620003e1565b9750506020620004a98a828b016200043c565b9650506040620004bc8a828b016200043c565b9550506060620004cf8a828b01620003f8565b9450506080620004e28a828b0162000453565b93505060a088015167ffffffffffffffff8111156200050057600080fd5b6200050e8a828b016200040f565b92505060c088015167ffffffffffffffff8111156200052c57600080fd5b6200053a8a828b016200040f565b91505092959891949750929550565b600062000558602c836200078c565b91507f526f79616c74792050657263656e74616765206d75737420626520626574776560008301527f656e203020616e642031303000000000000000000000000000000000000000006020830152604082019050919050565b6000620005c0602c836200078c565b91507f546865206e756d626572206f66207469636b657473206d75737420626520677260008301527f6561746572207468616e203000000000000000000000000000000000000000006020830152604082019050919050565b600062000628601c836200078c565b91507f4576656e742053796d626f6c2063616e6e6f7420626520656d707479000000006000830152602082019050919050565b60006200066a601a836200078c565b91507f4576656e74204e616d652063616e6e6f7420626520656d7074790000000000006000830152602082019050919050565b60006020820190508181036000830152620006b88162000549565b9050919050565b60006020820190508181036000830152620006da81620005b1565b9050919050565b60006020820190508181036000830152620006fc8162000619565b9050919050565b600060208201905081810360008301526200071e816200065b565b9050919050565b6000604051905081810181811067ffffffffffffffff821117156200074f576200074e62000895565b5b8060405250919050565b600067ffffffffffffffff82111562000777576200077662000895565b5b601f19601f8301169050602081019050919050565b600082825260208201905092915050565b6000620007aa82620007bd565b9050919050565b60008115159050919050565b600073ffffffffffffffffffffffffffffffffffffffff82169050919050565b600063ffffffff82169050919050565b600060ff82169050919050565b60005b838110156200081a578082015181840152602081019050620007fd565b838111156200082a576000848401525b50505050565b600060028204905060018216806200084957607f821691505b6020821081141562000860576200085f62000866565b5b50919050565b7f4e487b7100000000000000000000000000000000000000000000000000000000600052602260045260246000fd5b7f4e487b7100000000000000000000000000000000000000000000000000000000600052604160045260246000fd5b620008cf816200079d565b8114620008db57600080fd5b50565b620008e981620007b1565b8114620008f557600080fd5b50565b6200090381620007dd565b81146200090f57600080fd5b50565b6200091d81620007ed565b81146200092957600080fd5b50565b61563b806200093c6000396000f3fe608060405260043610610221576000357c0100000000000000000000000000000000000000000000000000000000900480637dc379fa11610135578063b3874c0d116100bd578063ce3cd9971161008c578063ce3cd99714610805578063dd11247e14610842578063e985e9c51461086d578063edca914c146108aa578063fb87774c146108c857610221565b8063b3874c0d14610749578063b88d4fde14610774578063c040e6b81461079d578063c87b56dd146107c857610221565b80639aecd64a116101045780639aecd64a146106765780639f67756d1461069f578063a035b1fe146106ca578063a22cb465146106f5578063a51bba8c1461071e57610221565b80637dc379fa146105b65780638da5cb5b146105f557806393bbd9df1461062057806395d89b411461064b57610221565b806327e235e3116101b85780634311de8f116101875780634311de8f1461049557806350b44712146104c05780636352211e146104ff57806370a082311461053c57806376fa62061461057957610221565b806327e235e3146103d45780632f31707c146104115780633ccfd60b1461044157806342842e0e1461046c57610221565b80631052a921116101f45780631052a921146102f457806318133d151461033157806318b3822f1461036e57806323b872dd146103ab57610221565b806301ffc9a71461022657806306fdde0314610263578063081812fc1461028e578063095ea7b3146102cb575b600080fd5b34801561023257600080fd5b5061024d60048036038101906102489190613d69565b610905565b60405161025a9190614b35565b60405180910390f35b34801561026f57600080fd5b506102786109e7565b6040516102859190614b86565b60405180910390f35b34801561029a57600080fd5b506102b560048036038101906102b09190613de4565b610a79565b6040516102c29190614a31565b60405180910390f35b3480156102d757600080fd5b506102f260048036038101906102ed9190613d2d565b610afe565b005b34801561030057600080fd5b5061031b60048036038101906103169190613bc2565b610c16565b6040516103289190614f5f565b60405180910390f35b34801561033d57600080fd5b5061035860048036038101906103539190613bc2565b610c2e565b6040516103659190614b35565b60405180910390f35b34801561037a57600080fd5b5061039560048036038101906103909190613e0d565b610c4e565b6040516103a29190614b86565b60405180910390f35b3480156103b757600080fd5b506103d260048036038101906103cd9190613c27565b610f7b565b005b3480156103e057600080fd5b506103fb60048036038101906103f69190613bc2565b610fdb565b6040516104089190614f5f565b60405180910390f35b61042b60048036038101906104269190613de4565b610ff3565b6040516104389190614b35565b60405180910390f35b34801561044d57600080fd5b506104566113aa565b6040516104639190614b35565b60405180910390f35b34801561047857600080fd5b50610493600480360381019061048e9190613c27565b611723565b005b3480156104a157600080fd5b506104aa611743565b6040516104b79190614b35565b60405180910390f35b3480156104cc57600080fd5b506104e760048036038101906104e29190613de4565b611b11565b6040516104f693929190614f95565b60405180910390f35b34801561050b57600080fd5b5061052660048036038101906105219190613de4565b611b74565b6040516105339190614a31565b60405180910390f35b34801561054857600080fd5b50610563600480360381019061055e9190613bc2565b611c26565b6040516105709190614f5f565b60405180910390f35b34801561058557600080fd5b506105a0600480360381019061059b9190613de4565b611cde565b6040516105ad9190614b35565b60405180910390f35b3480156105c257600080fd5b506105dd60048036038101906105d89190613de4565b611ffc565b6040516105ec93929190614f95565b60405180910390f35b34801561060157600080fd5b5061060a612113565b6040516106179190614a4c565b60405180910390f35b34801561062c57600080fd5b50610635612139565b6040516106429190614b13565b60405180910390f35b34801561065757600080fd5b50610660612267565b60405161066d9190614b86565b60405180910390f35b34801561068257600080fd5b5061069d60048036038101906106989190613d2d565b6122f9565b005b3480156106ab57600080fd5b506106b46123cb565b6040516106c19190614fcc565b60405180910390f35b3480156106d657600080fd5b506106df6123de565b6040516106ec9190614f7a565b60405180910390f35b34801561070157600080fd5b5061071c60048036038101906107179190613cf1565b6123f2565b005b34801561072a57600080fd5b50610733612573565b6040516107409190614f7a565b60405180910390f35b34801561075557600080fd5b5061075e612589565b60405161076b9190614b35565b60405180910390f35b34801561078057600080fd5b5061079b60048036038101906107969190613c76565b61259c565b005b3480156107a957600080fd5b506107b26125fe565b6040516107bf9190614b50565b60405180910390f35b3480156107d457600080fd5b506107ef60048036038101906107ea9190613de4565b612611565b6040516107fc9190614b86565b60405180910390f35b34801561081157600080fd5b5061082c60048036038101906108279190613dbb565b6126b8565b6040516108399190614b50565b60405180910390f35b34801561084e57600080fd5b506108576127b1565b6040516108649190614f7a565b60405180910390f35b34801561087957600080fd5b50610894600480360381019061088f9190613beb565b6127c7565b6040516108a19190614b35565b60405180910390f35b6108b261285b565b6040516108bf9190614f5f565b60405180910390f35b3480156108d457600080fd5b506108ef60048036038101906108ea9190613de4565b612d62565b6040516108fc9190614b6b565b60405180910390f35b60007f80ac58cd000000000000000000000000000000000000000000000000000000007bffffffffffffffffffffffffffffffffffffffffffffffffffffffff1916827bffffffffffffffffffffffffffffffffffffffffffffffffffffffff191614806109d057507f5b5e139f000000000000000000000000000000000000000000000000000000007bffffffffffffffffffffffffffffffffffffffffffffffffffffffff1916827bffffffffffffffffffffffffffffffffffffffffffffffffffffffff1916145b806109e057506109df82612dc0565b5b9050919050565b6060600080546109f6906153c9565b80601f0160208091040260200160405190810160405280929190818152602001828054610a22906153c9565b8015610a6f5780601f10610a4457610100808354040283529160200191610a6f565b820191906000526020600020905b815481529060010190602001808311610a5257829003601f168201915b5050505050905090565b6000610a8482612e2a565b610ac3576040517f08c379a0000000000000000000000000000000000000000000000000000000008152600401610aba90614e3f565b60405180910390fd5b6004600083815260200190815260200160002060009054906101000a900473ffffffffffffffffffffffffffffffffffffffff169050919050565b6000610b0982611b74565b90508073ffffffffffffffffffffffffffffffffffffffff168373ffffffffffffffffffffffffffffffffffffffff161415610b7a576040517f08c379a0000000000000000000000000000000000000000000000000000000008152600401610b7190614ebf565b60405180910390fd5b8073ffffffffffffffffffffffffffffffffffffffff16610b99612e96565b73ffffffffffffffffffffffffffffffffffffffff161480610bc85750610bc781610bc2612e96565b6127c7565b5b610c07576040517f08c379a0000000000000000000000000000000000000000000000000000000008152600401610bfe90614d9f565b60405180910390fd5b610c118383612e9e565b505050565b600d6020528060005260406000206000915090505481565b600c6020528060005260406000206000915054906101000a900460ff1681565b60606003806005811115610c8b577f4e487b7100000000000000000000000000000000000000000000000000000000600052602160045260246000fd5b600660009054906101000a900460ff166005811115610cd3577f4e487b7100000000000000000000000000000000000000000000000000000000600052602160045260246000fd5b14610d13576040517f08c379a0000000000000000000000000000000000000000000000000000000008152600401610d0a90614c5f565b60405180910390fd5b833373ffffffffffffffffffffffffffffffffffffffff16610d3482611b74565b73ffffffffffffffffffffffffffffffffffffffff1614610d8a576040517f08c379a0000000000000000000000000000000000000000000000000000000008152600401610d8190614f3f565b60405180910390fd5b60016003811115610dc4577f4e487b7100000000000000000000000000000000000000000000000000000000600052602160045260246000fd5b60078681548110610dfe577f4e487b7100000000000000000000000000000000000000000000000000000000600052603260045260246000fd5b9060005260206000200160000160089054906101000a900460ff166003811115610e51577f4e487b7100000000000000000000000000000000000000000000000000000000600052602160045260246000fd5b14610e91576040517f08c379a0000000000000000000000000000000000000000000000000000000008152600401610e8890614d7f565b60405180910390fd5b600260078681548110610ecd577f4e487b7100000000000000000000000000000000000000000000000000000000600052603260045260246000fd5b9060005260206000200160000160086101000a81548160ff02191690836003811115610f22577f4e487b7100000000000000000000000000000000000000000000000000000000600052602160045260246000fd5b0217905550610f3085612f57565b7f0ec6ea11439b02352ac1e6ea4869e6c13bdfe61c08d27bc8801f2bbadcdd487b610f596109e7565b85604051610f68929190614ba8565b60405180910390a1839250505092915050565b610f8c610f86612e96565b82613068565b610fcb576040517f08c379a0000000000000000000000000000000000000000000000000000000008152600401610fc290614edf565b60405180910390fd5b610fd6838383613146565b505050565b600b6020528060005260406000206000915090505481565b60006001806005811115611030577f4e487b7100000000000000000000000000000000000000000000000000000000600052602160045260246000fd5b600660009054906101000a900460ff166005811115611078577f4e487b7100000000000000000000000000000000000000000000000000000000600052602160045260246000fd5b146110b8576040517f08c379a00000000000000000000000000000000000000000000000000000000081526004016110af90614c5f565b60405180910390fd5b3460088054906101000a900463ffffffff1663ffffffff16811015611112576040517f08c379a000000000000000000000000000000000000000000000000000000000815260040161110990614d3f565b60405180910390fd5b60038081111561114b577f4e487b7100000000000000000000000000000000000000000000000000000000600052602160045260246000fd5b60078581548110611185577f4e487b7100000000000000000000000000000000000000000000000000000000600052603260045260246000fd5b9060005260206000200160000160089054906101000a900460ff1660038111156111d8577f4e487b7100000000000000000000000000000000000000000000000000000000600052602160045260246000fd5b14611218576040517f08c379a000000000000000000000000000000000000000000000000000000000815260040161120f90614d5f565b60405180910390fd5b600060078581548110611254577f4e487b7100000000000000000000000000000000000000000000000000000000600052603260045260246000fd5b9060005260206000200160000160009054906101000a900463ffffffff1663ffffffff16905060008160646008600c9054906101000a900460ff16611299919061517b565b60ff166112a691906151ac565b9050600081836112b69190615206565b905060006112c388611b74565b905060008173ffffffffffffffffffffffffffffffffffffffff166108fc60088054906101000a900463ffffffff1663ffffffff169081150290604051600060405180830381858888f19350505050905080611354576040517f08c379a000000000000000000000000000000000000000000000000000000000815260040161134b90614dff565b60405180910390fd5b7f2ff282dae7c1a7b99b722227f3a2079b905c78122b1553e37f8c0ce1e06f4f4b82338b60405161138793929190614a67565b60405180910390a161139a82338b611723565b6001975050505050505050919050565b600080600b60003373ffffffffffffffffffffffffffffffffffffffff1673ffffffffffffffffffffffffffffffffffffffff1681526020019081526020016000205490506000600b60003373ffffffffffffffffffffffffffffffffffffffff1673ffffffffffffffffffffffffffffffffffffffff168152602001908152602001600020819055506004600581111561146e577f4e487b7100000000000000000000000000000000000000000000000000000000600052602160045260246000fd5b600660009054906101000a900460ff1660058111156114b6577f4e487b7100000000000000000000000000000000000000000000000000000000600052602160045260246000fd5b14806115415750600260058111156114f7577f4e487b7100000000000000000000000000000000000000000000000000000000600052602160045260246000fd5b600660009054906101000a900460ff16600581111561153f577f4e487b7100000000000000000000000000000000000000000000000000000000600052602160045260246000fd5b145b801561159d575060001515600c60003373ffffffffffffffffffffffffffffffffffffffff1673ffffffffffffffffffffffffffffffffffffffff16815260200190815260200160002060009054906101000a900460ff161515145b1561161f576001600c60003373ffffffffffffffffffffffffffffffffffffffff1673ffffffffffffffffffffffffffffffffffffffff16815260200190815260200160002060006101000a81548160ff02191690831515021790555060088054906101000a900463ffffffff1663ffffffff168161161c91906150f4565b90505b60008111611662576040517f08c379a000000000000000000000000000000000000000000000000000000000815260040161165990614cff565b60405180910390fd5b600033905060008173ffffffffffffffffffffffffffffffffffffffff166108fc849081150290604051600060405180830381858888f193505050509050806116e0576040517f08c379a00000000000000000000000000000000000000000000000000000000081526004016116d790614dff565b60405180910390fd5b7f9fe2db218b58c00ab3556f2be44b2769b37978368c63313d82d78306568e47763384604051611711929190614aea565b60405180910390a16001935050505090565b61173e8383836040518060200160405280600081525061259c565b505050565b6000600960009054906101000a900473ffffffffffffffffffffffffffffffffffffffff1673ffffffffffffffffffffffffffffffffffffffff163373ffffffffffffffffffffffffffffffffffffffff16146117d5576040517f08c379a00000000000000000000000000000000000000000000000000000000081526004016117cc90614bff565b60405180910390fd5b6005806005811115611810577f4e487b7100000000000000000000000000000000000000000000000000000000600052602160045260246000fd5b600660009054906101000a900460ff166005811115611858577f4e487b7100000000000000000000000000000000000000000000000000000000600052602160045260246000fd5b14611898576040517f08c379a000000000000000000000000000000000000000000000000000000000815260040161188f90614c5f565b60405180910390fd5b60001515600c6000600960009054906101000a900473ffffffffffffffffffffffffffffffffffffffff1673ffffffffffffffffffffffffffffffffffffffff1673ffffffffffffffffffffffffffffffffffffffff16815260200190815260200160002060009054906101000a900460ff1615151461194d576040517f08c379a000000000000000000000000000000000000000000000000000000000815260040161194490614cdf565b60405180910390fd5b6001600c6000600960009054906101000a900473ffffffffffffffffffffffffffffffffffffffff1673ffffffffffffffffffffffffffffffffffffffff1673ffffffffffffffffffffffffffffffffffffffff16815260200190815260200160002060006101000a81548160ff0219169083151502179055506000600a543073ffffffffffffffffffffffffffffffffffffffff16316119ee9190615206565b905060008111611a33576040517f08c379a0000000000000000000000000000000000000000000000000000000008152600401611a2a90614e9f565b60405180910390fd5b6000600960009054906101000a900473ffffffffffffffffffffffffffffffffffffffff1673ffffffffffffffffffffffffffffffffffffffff166108fc839081150290604051600060405180830381858888f19350505050905080611ace576040517f08c379a0000000000000000000000000000000000000000000000000000000008152600401611ac590614eff565b60405180910390fd5b7f5f0d69e5c0056ecc650fc0d2d916359037135dac3d5b5446d226dfdbe292482e3383604051611aff929190614aea565b60405180910390a16001935050505090565b60078181548110611b2157600080fd5b906000526020600020016000915090508060000160009054906101000a900463ffffffff16908060000160049054906101000a900463ffffffff16908060000160089054906101000a900460ff16905083565b6000806002600084815260200190815260200160002060009054906101000a900473ffffffffffffffffffffffffffffffffffffffff169050600073ffffffffffffffffffffffffffffffffffffffff168173ffffffffffffffffffffffffffffffffffffffff161415611c1d576040517f08c379a0000000000000000000000000000000000000000000000000000000008152600401611c1490614ddf565b60405180910390fd5b80915050919050565b60008073ffffffffffffffffffffffffffffffffffffffff168273ffffffffffffffffffffffffffffffffffffffff161415611c97576040517f08c379a0000000000000000000000000000000000000000000000000000000008152600401611c8e90614dbf565b60405180910390fd5b600360008373ffffffffffffffffffffffffffffffffffffffff1673ffffffffffffffffffffffffffffffffffffffff168152602001908152602001600020549050919050565b60006001806005811115611d1b577f4e487b7100000000000000000000000000000000000000000000000000000000600052602160045260246000fd5b600660009054906101000a900460ff166005811115611d63577f4e487b7100000000000000000000000000000000000000000000000000000000600052602160045260246000fd5b14611da3576040517f08c379a0000000000000000000000000000000000000000000000000000000008152600401611d9a90614c5f565b60405180910390fd5b823373ffffffffffffffffffffffffffffffffffffffff16611dc482611b74565b73ffffffffffffffffffffffffffffffffffffffff1614611e1a576040517f08c379a0000000000000000000000000000000000000000000000000000000008152600401611e1190614f3f565b60405180910390fd5b60026003811115611e54577f4e487b7100000000000000000000000000000000000000000000000000000000600052602160045260246000fd5b60078581548110611e8e577f4e487b7100000000000000000000000000000000000000000000000000000000600052603260045260246000fd5b9060005260206000200160000160089054906101000a900460ff166003811115611ee1577f4e487b7100000000000000000000000000000000000000000000000000000000600052602160045260246000fd5b1415611f22576040517f08c379a0000000000000000000000000000000000000000000000000000000008152600401611f1990614c3f565b60405180910390fd5b600360078581548110611f5e577f4e487b7100000000000000000000000000000000000000000000000000000000600052603260045260246000fd5b9060005260206000200160000160086101000a81548160ff02191690836003811115611fb3577f4e487b7100000000000000000000000000000000000000000000000000000000600052602160045260246000fd5b02179055507fec1a51878793b26371980da80139946e4a398461978717cbe8d07596dd3404b63385604051611fe9929190614aea565b60405180910390a1600192505050919050565b60008060006007848154811061203b577f4e487b7100000000000000000000000000000000000000000000000000000000600052603260045260246000fd5b9060005260206000200160000160009054906101000a900463ffffffff16925060078481548110612095577f4e487b7100000000000000000000000000000000000000000000000000000000600052603260045260246000fd5b9060005260206000200160000160049054906101000a900463ffffffff169150600784815481106120ef577f4e487b7100000000000000000000000000000000000000000000000000000000600052603260045260246000fd5b9060005260206000200160000160089054906101000a900460ff1690509193909250565b600960009054906101000a900473ffffffffffffffffffffffffffffffffffffffff1681565b60606007805480602002602001604051908101604052809291908181526020016000905b8282101561225e578382906000526020600020016040518060600160405290816000820160009054906101000a900463ffffffff1663ffffffff1663ffffffff1681526020016000820160049054906101000a900463ffffffff1663ffffffff1663ffffffff1681526020016000820160089054906101000a900460ff166003811115612213577f4e487b7100000000000000000000000000000000000000000000000000000000600052602160045260246000fd5b600381111561224b577f4e487b7100000000000000000000000000000000000000000000000000000000600052602160045260246000fd5b815250508152602001906001019061215d565b50505050905090565b606060018054612276906153c9565b80601f01602080910402602001604051908101604052809291908181526020018280546122a2906153c9565b80156122ef5780601f106122c4576101008083540402835291602001916122ef565b820191906000526020600020905b8154815290600101906020018083116122d257829003601f168201915b5050505050905090565b6001806005811115612334577f4e487b7100000000000000000000000000000000000000000000000000000000600052602160045260246000fd5b600660009054906101000a900460ff16600581111561237c577f4e487b7100000000000000000000000000000000000000000000000000000000600052602160045260246000fd5b146123bc576040517f08c379a00000000000000000000000000000000000000000000000000000000081526004016123b390614c5f565b60405180910390fd5b6123c68383610afe565b505050565b6008600c9054906101000a900460ff1681565b60088054906101000a900463ffffffff1681565b6123fa612e96565b73ffffffffffffffffffffffffffffffffffffffff168273ffffffffffffffffffffffffffffffffffffffff161415612468576040517f08c379a000000000000000000000000000000000000000000000000000000000815260040161245f90614cbf565b60405180910390fd5b8060056000612475612e96565b73ffffffffffffffffffffffffffffffffffffffff1673ffffffffffffffffffffffffffffffffffffffff16815260200190815260200160002060008473ffffffffffffffffffffffffffffffffffffffff1673ffffffffffffffffffffffffffffffffffffffff16815260200190815260200160002060006101000a81548160ff0219169083151502179055508173ffffffffffffffffffffffffffffffffffffffff16612522612e96565b73ffffffffffffffffffffffffffffffffffffffff167f17307eab39ab6107e8899845ad3d59bd9653f200f220920489ca2b5937696c31836040516125679190614b35565b60405180910390a35050565b600860009054906101000a900463ffffffff1681565b6008600d9054906101000a900460ff1681565b6125ad6125a7612e96565b83613068565b6125ec576040517f08c379a00000000000000000000000000000000000000000000000000000000081526004016125e390614edf565b60405180910390fd5b6125f8848484846133a2565b50505050565b600660009054906101000a900460ff1681565b606061261c82612e2a565b61265b576040517f08c379a000000000000000000000000000000000000000000000000000000000815260040161265290614e7f565b60405180910390fd5b60006126656133fe565b9050600081511161268557604051806020016040528060008152506126b0565b8061268f84613415565b6040516020016126a0929190614a0d565b6040516020818303038152906040525b915050919050565b6000600960009054906101000a900473ffffffffffffffffffffffffffffffffffffffff1673ffffffffffffffffffffffffffffffffffffffff163373ffffffffffffffffffffffffffffffffffffffff161461274a576040517f08c379a000000000000000000000000000000000000000000000000000000000815260040161274190614bff565b60405180910390fd5b81600660006101000a81548160ff02191690836005811115612795577f4e487b7100000000000000000000000000000000000000000000000000000000600052602160045260246000fd5b0217905550600660009054906101000a900460ff169050919050565b600860049054906101000a900463ffffffff1681565b6000600560008473ffffffffffffffffffffffffffffffffffffffff1673ffffffffffffffffffffffffffffffffffffffff16815260200190815260200160002060008373ffffffffffffffffffffffffffffffffffffffff1673ffffffffffffffffffffffffffffffffffffffff16815260200190815260200160002060009054906101000a900460ff16905092915050565b600060016005811115612897577f4e487b7100000000000000000000000000000000000000000000000000000000600052602160045260246000fd5b600660009054906101000a900460ff1660058111156128df577f4e487b7100000000000000000000000000000000000000000000000000000000600052602160045260246000fd5b148061296a575060036005811115612920577f4e487b7100000000000000000000000000000000000000000000000000000000600052602160045260246000fd5b600660009054906101000a900460ff166005811115612968577f4e487b7100000000000000000000000000000000000000000000000000000000600052602160045260246000fd5b145b6129a9576040517f08c379a00000000000000000000000000000000000000000000000000000000081526004016129a090614f1f565b60405180910390fd5b6000600860009054906101000a900463ffffffff1663ffffffff1611612a04576040517f08c379a00000000000000000000000000000000000000000000000000000000081526004016129fb90614c7f565b60405180910390fd5b3460088054906101000a900463ffffffff1663ffffffff16811015612a5e576040517f08c379a0000000000000000000000000000000000000000000000000000000008152600401612a5590614d3f565b60405180910390fd5b612a66613a0f565b60088054906101000a900463ffffffff16816000019063ffffffff16908163ffffffff168152505060088054906101000a900463ffffffff16816020019063ffffffff16908163ffffffff1681525050600181604001906003811115612af5577f4e487b7100000000000000000000000000000000000000000000000000000000600052602160045260246000fd5b90816003811115612b2f577f4e487b7100000000000000000000000000000000000000000000000000000000600052602160045260246000fd5b815250506007819080600181540180825580915050600190039060005260206000200160009091909190915060008201518160000160006101000a81548163ffffffff021916908363ffffffff16021790555060208201518160000160046101000a81548163ffffffff021916908363ffffffff16021790555060408201518160000160086101000a81548160ff02191690836003811115612bfa577f4e487b7100000000000000000000000000000000000000000000000000000000600052602160045260246000fd5b0217905550505060006001600780549050612c159190615206565b90506008600081819054906101000a900463ffffffff1680929190612c399061539f565b91906101000a81548163ffffffff021916908363ffffffff16021790555050612c6233826135e1565b7f45b138e571439656fbf8d1d09364ce6268bcd2bcbefd7d1d01c57ab4f8bbe8fc3382604051612c93929190614aea565b60405180910390a160088054906101000a900463ffffffff1663ffffffff16341115612d595760088054906101000a900463ffffffff1663ffffffff1634612cdb9190615206565b600b60003373ffffffffffffffffffffffffffffffffffffffff1673ffffffffffffffffffffffffffffffffffffffff1681526020019081526020016000208190555060088054906101000a900463ffffffff1663ffffffff1634612d409190615206565b600a6000828254612d5191906150f4565b925050819055505b80935050505090565b600060078281548110612d9e577f4e487b7100000000000000000000000000000000000000000000000000000000600052603260045260246000fd5b9060005260206000200160000160089054906101000a900460ff169050919050565b60007f01ffc9a7000000000000000000000000000000000000000000000000000000007bffffffffffffffffffffffffffffffffffffffffffffffffffffffff1916827bffffffffffffffffffffffffffffffffffffffffffffffffffffffff1916149050919050565b60008073ffffffffffffffffffffffffffffffffffffffff166002600084815260200190815260200160002060009054906101000a900473ffffffffffffffffffffffffffffffffffffffff1673ffffffffffffffffffffffffffffffffffffffff1614159050919050565b600033905090565b816004600083815260200190815260200160002060006101000a81548173ffffffffffffffffffffffffffffffffffffffff021916908373ffffffffffffffffffffffffffffffffffffffff160217905550808273ffffffffffffffffffffffffffffffffffffffff16612f1183611b74565b73ffffffffffffffffffffffffffffffffffffffff167f8c5be1e5ebec7d5bd14f71427d1e84f3dd0314c0f7b2291e5b200ac8c7c3b92560405160405180910390a45050565b6000612f6282611b74565b9050612f70816000846135ff565b612f7b600083612e9e565b6001600360008373ffffffffffffffffffffffffffffffffffffffff1673ffffffffffffffffffffffffffffffffffffffff1681526020019081526020016000206000828254612fcb9190615206565b925050819055506002600083815260200190815260200160002060006101000a81549073ffffffffffffffffffffffffffffffffffffffff021916905581600073ffffffffffffffffffffffffffffffffffffffff168273ffffffffffffffffffffffffffffffffffffffff167fddf252ad1be2c89b69c2b068fc378daa952ba7f163c4a11628f55a4df523b3ef60405160405180910390a45050565b600061307382612e2a565b6130b2576040517f08c379a00000000000000000000000000000000000000000000000000000000081526004016130a990614d1f565b60405180910390fd5b60006130bd83611b74565b90508073ffffffffffffffffffffffffffffffffffffffff168473ffffffffffffffffffffffffffffffffffffffff16148061312c57508373ffffffffffffffffffffffffffffffffffffffff1661311484610a79565b73ffffffffffffffffffffffffffffffffffffffff16145b8061313d575061313c81856127c7565b5b91505092915050565b8273ffffffffffffffffffffffffffffffffffffffff1661316682611b74565b73ffffffffffffffffffffffffffffffffffffffff16146131bc576040517f08c379a00000000000000000000000000000000000000000000000000000000081526004016131b390614e5f565b60405180910390fd5b600073ffffffffffffffffffffffffffffffffffffffff168273ffffffffffffffffffffffffffffffffffffffff16141561322c576040517f08c379a000000000000000000000000000000000000000000000000000000000815260040161322390614c9f565b60405180910390fd5b6132378383836135ff565b613242600082612e9e565b6001600360008573ffffffffffffffffffffffffffffffffffffffff1673ffffffffffffffffffffffffffffffffffffffff16815260200190815260200160002060008282546132929190615206565b925050819055506001600360008473ffffffffffffffffffffffffffffffffffffffff1673ffffffffffffffffffffffffffffffffffffffff16815260200190815260200160002060008282546132e991906150f4565b92505081905550816002600083815260200190815260200160002060006101000a81548173ffffffffffffffffffffffffffffffffffffffff021916908373ffffffffffffffffffffffffffffffffffffffff160217905550808273ffffffffffffffffffffffffffffffffffffffff168473ffffffffffffffffffffffffffffffffffffffff167fddf252ad1be2c89b69c2b068fc378daa952ba7f163c4a11628f55a4df523b3ef60405160405180910390a4505050565b6133ad848484613146565b6133b984848484613604565b6133f8576040517f08c379a00000000000000000000000000000000000000000000000000000000081526004016133ef90614bdf565b60405180910390fd5b50505050565b606060405180602001604052806000815250905090565b6060600082141561345d576040518060400160405280600181526020017f300000000000000000000000000000000000000000000000000000000000000081525090506135dc565b600082905060005b6000821461348f578080613478906153fb565b915050600a82613488919061514a565b9150613465565b60008167ffffffffffffffff8111156134d1577f4e487b7100000000000000000000000000000000000000000000000000000000600052604160045260246000fd5b6040519080825280601f01601f1916602001820160405280156135035781602001600182028036833780820191505090505b5090505b600085146135d55760018261351c9190615206565b9150600a8561352b9190615444565b603061353791906150f4565b7f010000000000000000000000000000000000000000000000000000000000000002818381518110613592577f4e487b7100000000000000000000000000000000000000000000000000000000600052603260045260246000fd5b60200101907effffffffffffffffffffffffffffffffffffffffffffffffffffffffffffff1916908160001a905350600a856135ce919061514a565b9450613507565b8093505050505b919050565b6135fb8282604051806020016040528060008152506137d3565b5050565b505050565b60006136258473ffffffffffffffffffffffffffffffffffffffff1661382e565b156137c6578373ffffffffffffffffffffffffffffffffffffffff1663150b7a0261364e612e96565b8786866040518563ffffffff167c010000000000000000000000000000000000000000000000000000000002815260040161368c9493929190614a9e565b602060405180830381600087803b1580156136a657600080fd5b505af19250505080156136d757506040513d601f19601f820116820180604052508101906136d49190613d92565b60015b61375a573d8060008114613707576040519150601f19603f3d011682016040523d82523d6000602084013e61370c565b606091505b50600081511415613752576040517f08c379a000000000000000000000000000000000000000000000000000000000815260040161374990614bdf565b60405180910390fd5b805181602001fd5b63150b7a027c0100000000000000000000000000000000000000000000000000000000027bffffffffffffffffffffffffffffffffffffffffffffffffffffffff1916817bffffffffffffffffffffffffffffffffffffffffffffffffffffffff1916149150506137cb565b600190505b949350505050565b6137dd8383613841565b6137ea6000848484613604565b613829576040517f08c379a000000000000000000000000000000000000000000000000000000000815260040161382090614bdf565b60405180910390fd5b505050565b600080823b905060008111915050919050565b600073ffffffffffffffffffffffffffffffffffffffff168273ffffffffffffffffffffffffffffffffffffffff1614156138b1576040517f08c379a00000000000000000000000000000000000000000000000000000000081526004016138a890614e1f565b60405180910390fd5b6138ba81612e2a565b156138fa576040517f08c379a00000000000000000000000000000000000000000000000000000000081526004016138f190614c1f565b60405180910390fd5b613906600083836135ff565b6001600360008473ffffffffffffffffffffffffffffffffffffffff1673ffffffffffffffffffffffffffffffffffffffff168152602001908152602001600020600082825461395691906150f4565b92505081905550816002600083815260200190815260200160002060006101000a81548173ffffffffffffffffffffffffffffffffffffffff021916908373ffffffffffffffffffffffffffffffffffffffff160217905550808273ffffffffffffffffffffffffffffffffffffffff16600073ffffffffffffffffffffffffffffffffffffffff167fddf252ad1be2c89b69c2b068fc378daa952ba7f163c4a11628f55a4df523b3ef60405160405180910390a45050565b6040518060600160405280600063ffffffff168152602001600063ffffffff16815260200160006003811115613a6e577f4e487b7100000000000000000000000000000000000000000000000000000000600052602160045260246000fd5b81525090565b6000613a87613a8284615018565b614fe7565b905082815260208101848484011115613a9f57600080fd5b613aaa84828561535d565b509392505050565b6000613ac5613ac084615048565b614fe7565b905082815260208101848484011115613add57600080fd5b613ae884828561535d565b509392505050565b600081359050613aff81615599565b92915050565b600081359050613b14816155b0565b92915050565b600081359050613b29816155c7565b92915050565b600081519050613b3e816155c7565b92915050565b600082601f830112613b5557600080fd5b8135613b65848260208601613a74565b91505092915050565b600081359050613b7d816155de565b92915050565b600082601f830112613b9457600080fd5b8135613ba4848260208601613ab2565b91505092915050565b600081359050613bbc816155ee565b92915050565b600060208284031215613bd457600080fd5b6000613be284828501613af0565b91505092915050565b60008060408385031215613bfe57600080fd5b6000613c0c85828601613af0565b9250506020613c1d85828601613af0565b9150509250929050565b600080600060608486031215613c3c57600080fd5b6000613c4a86828701613af0565b9350506020613c5b86828701613af0565b9250506040613c6c86828701613bad565b9150509250925092565b60008060008060808587031215613c8c57600080fd5b6000613c9a87828801613af0565b9450506020613cab87828801613af0565b9350506040613cbc87828801613bad565b925050606085013567ffffffffffffffff811115613cd957600080fd5b613ce587828801613b44565b91505092959194509250565b60008060408385031215613d0457600080fd5b6000613d1285828601613af0565b9250506020613d2385828601613b05565b9150509250929050565b60008060408385031215613d4057600080fd5b6000613d4e85828601613af0565b9250506020613d5f85828601613bad565b9150509250929050565b600060208284031215613d7b57600080fd5b6000613d8984828501613b1a565b91505092915050565b600060208284031215613da457600080fd5b6000613db284828501613b2f565b91505092915050565b600060208284031215613dcd57600080fd5b6000613ddb84828501613b6e565b91505092915050565b600060208284031215613df657600080fd5b6000613e0484828501613bad565b91505092915050565b60008060408385031215613e2057600080fd5b6000613e2e85828601613bad565b925050602083013567ffffffffffffffff811115613e4b57600080fd5b613e5785828601613b83565b9150509250929050565b6000613e6d838361498f565b60608301905092915050565b613e8281615303565b82525050565b613e918161524c565b82525050565b613ea08161523a565b82525050565b6000613eb182615088565b613ebb81856150b6565b9350613ec683615078565b8060005b83811015613ef7578151613ede8882613e61565b9750613ee9836150a9565b925050600181019050613eca565b5085935050505092915050565b613f0d8161525e565b82525050565b6000613f1e82615093565b613f2881856150c7565b9350613f3881856020860161536c565b613f4181615560565b840191505092915050565b613f5581615315565b82525050565b613f6481615327565b82525050565b613f7381615327565b82525050565b6000613f848261509e565b613f8e81856150d8565b9350613f9e81856020860161536c565b613fa781615560565b840191505092915050565b6000613fbd8261509e565b613fc781856150e9565b9350613fd781856020860161536c565b80840191505092915050565b6000613ff06032836150d8565b91507f4552433732313a207472616e7366657220746f206e6f6e20455243373231526560008301527f63656976657220696d706c656d656e74657200000000000000000000000000006020830152604082019050919050565b60006140566021836150d8565b91507f43616e206f6e6c7920626520657865637574656420627920746865206f776e6560008301527f72000000000000000000000000000000000000000000000000000000000000006020830152604082019050919050565b60006140bc601c836150d8565b91507f4552433732313a20746f6b656e20616c7265616479206d696e746564000000006000830152602082019050919050565b60006140fc601c836150d8565b91507f5469636b65742068617320616c7265616479206265656e2075736564000000006000830152602082019050919050565b600061413c6025836150d8565b91507f43616e6e6f7420657865637574652066756e6374696f6e20617420746869732060008301527f73746167650000000000000000000000000000000000000000000000000000006020830152604082019050919050565b60006141a26018836150d8565b91507f5468657265206172652030207469636b657473206c65667400000000000000006000830152602082019050919050565b60006141e26024836150d8565b91507f4552433732313a207472616e7366657220746f20746865207a65726f2061646460008301527f72657373000000000000000000000000000000000000000000000000000000006020830152604082019050919050565b60006142486019836150d8565b91507f4552433732313a20617070726f766520746f2063616c6c6572000000000000006000830152602082019050919050565b60006142886021836150d8565b91507f4f776e65722068617320616c72656164792077697468647261776e206d6f6e6560008301527f79000000000000000000000000000000000000000000000000000000000000006020830152604082019050919050565b60006142ee6024836150d8565b91507f5573657220646f6573206e6f742068617665206d6f6e657920746f207769746860008301527f64726177000000000000000000000000000000000000000000000000000000006020830152604082019050919050565b6000614354602c836150d8565b91507f4552433732313a206f70657261746f7220717565727920666f72206e6f6e657860008301527f697374656e7420746f6b656e00000000000000000000000000000000000000006020830152604082019050919050565b60006143ba6025836150d8565b91507f4e6f7420656e6f756768206d6f6e657920746f2070757263686173652061207460008301527f69636b65740000000000000000000000000000000000000000000000000000006020830152604082019050919050565b6000614420601d836150d8565b91507f5469636b6574206e6f7420617661696c61626c6520666f722073616c650000006000830152602082019050919050565b60006144606026836150d8565b91507f5468657265206973206e6f2076616c6964207469636b657420666f722074686960008301527f73207573657200000000000000000000000000000000000000000000000000006020830152604082019050919050565b60006144c66038836150d8565b91507f4552433732313a20617070726f76652063616c6c6572206973206e6f74206f7760008301527f6e6572206e6f7220617070726f76656420666f7220616c6c00000000000000006020830152604082019050919050565b600061452c602a836150d8565b91507f4552433732313a2062616c616e636520717565727920666f7220746865207a6560008301527f726f2061646472657373000000000000000000000000000000000000000000006020830152604082019050919050565b60006145926029836150d8565b91507f4552433732313a206f776e657220717565727920666f72206e6f6e657869737460008301527f656e7420746f6b656e00000000000000000000000000000000000000000000006020830152604082019050919050565b60006145f8601c836150d8565b91507f4661696c656420746f2073656e6420657468657220746f2075736572000000006000830152602082019050919050565b60006146386020836150d8565b91507f4552433732313a206d696e7420746f20746865207a65726f20616464726573736000830152602082019050919050565b6000614678602c836150d8565b91507f4552433732313a20617070726f76656420717565727920666f72206e6f6e657860008301527f697374656e7420746f6b656e00000000000000000000000000000000000000006020830152604082019050919050565b60006146de6029836150d8565b91507f4552433732313a207472616e73666572206f6620746f6b656e2074686174206960008301527f73206e6f74206f776e00000000000000000000000000000000000000000000006020830152604082019050919050565b6000614744602f836150d8565b91507f4552433732314d657461646174613a2055524920717565727920666f72206e6f60008301527f6e6578697374656e7420746f6b656e00000000000000000000000000000000006020830152604082019050919050565b60006147aa6022836150d8565b91507f4e6f206d6f6e657920696e20736d61727420636f6e7472616374206163636f7560008301527f6e740000000000000000000000000000000000000000000000000000000000006020830152604082019050919050565b60006148106021836150d8565b91507f4552433732313a20617070726f76616c20746f2063757272656e74206f776e6560008301527f72000000000000000000000000000000000000000000000000000000000000006020830152604082019050919050565b60006148766031836150d8565b91507f4552433732313a207472616e736665722063616c6c6572206973206e6f74206f60008301527f776e6572206e6f7220617070726f7665640000000000000000000000000000006020830152604082019050919050565b60006148dc601d836150d8565b91507f4661696c656420746f2073656e6420657468657220746f206f776e65720000006000830152602082019050919050565b600061491c601d836150d8565b91507f5469636b65747320617265206e6f74206f70656e20666f722073616c650000006000830152602082019050919050565b600061495c601d836150d8565b91507f5573657220646f6573206e6f74206f776e2074686973207469636b65740000006000830152602082019050919050565b6060820160008201516149a560008501826149e0565b5060208201516149b860208501826149e0565b5060408201516149cb6040850182613f5b565b50505050565b6149da816152dc565b82525050565b6149e9816152e6565b82525050565b6149f8816152e6565b82525050565b614a07816152f6565b82525050565b6000614a198285613fb2565b9150614a258284613fb2565b91508190509392505050565b6000602082019050614a466000830184613e97565b92915050565b6000602082019050614a616000830184613e88565b92915050565b6000606082019050614a7c6000830186613e79565b614a896020830185613e97565b614a9660408301846149d1565b949350505050565b6000608082019050614ab36000830187613e97565b614ac06020830186613e97565b614acd60408301856149d1565b8181036060830152614adf8184613f13565b905095945050505050565b6000604082019050614aff6000830185613e97565b614b0c60208301846149d1565b9392505050565b60006020820190508181036000830152614b2d8184613ea6565b905092915050565b6000602082019050614b4a6000830184613f04565b92915050565b6000602082019050614b656000830184613f4c565b92915050565b6000602082019050614b806000830184613f6a565b92915050565b60006020820190508181036000830152614ba08184613f79565b905092915050565b60006040820190508181036000830152614bc28185613f79565b90508181036020830152614bd68184613f79565b90509392505050565b60006020820190508181036000830152614bf881613fe3565b9050919050565b60006020820190508181036000830152614c1881614049565b9050919050565b60006020820190508181036000830152614c38816140af565b9050919050565b60006020820190508181036000830152614c58816140ef565b9050919050565b60006020820190508181036000830152614c788161412f565b9050919050565b60006020820190508181036000830152614c9881614195565b9050919050565b60006020820190508181036000830152614cb8816141d5565b9050919050565b60006020820190508181036000830152614cd88161423b565b9050919050565b60006020820190508181036000830152614cf88161427b565b9050919050565b60006020820190508181036000830152614d18816142e1565b9050919050565b60006020820190508181036000830152614d3881614347565b9050919050565b60006020820190508181036000830152614d58816143ad565b9050919050565b60006020820190508181036000830152614d7881614413565b9050919050565b60006020820190508181036000830152614d9881614453565b9050919050565b60006020820190508181036000830152614db8816144b9565b9050919050565b60006020820190508181036000830152614dd88161451f565b9050919050565b60006020820190508181036000830152614df881614585565b9050919050565b60006020820190508181036000830152614e18816145eb565b9050919050565b60006020820190508181036000830152614e388161462b565b9050919050565b60006020820190508181036000830152614e588161466b565b9050919050565b60006020820190508181036000830152614e78816146d1565b9050919050565b60006020820190508181036000830152614e9881614737565b9050919050565b60006020820190508181036000830152614eb88161479d565b9050919050565b60006020820190508181036000830152614ed881614803565b9050919050565b60006020820190508181036000830152614ef881614869565b9050919050565b60006020820190508181036000830152614f18816148cf565b9050919050565b60006020820190508181036000830152614f388161490f565b9050919050565b60006020820190508181036000830152614f588161494f565b9050919050565b6000602082019050614f7460008301846149d1565b92915050565b6000602082019050614f8f60008301846149ef565b92915050565b6000606082019050614faa60008301866149ef565b614fb760208301856149ef565b614fc46040830184613f6a565b949350505050565b6000602082019050614fe160008301846149fe565b92915050565b6000604051905081810181811067ffffffffffffffff8211171561500e5761500d615531565b5b8060405250919050565b600067ffffffffffffffff82111561503357615032615531565b5b601f19601f8301169050602081019050919050565b600067ffffffffffffffff82111561506357615062615531565b5b601f19601f8301169050602081019050919050565b6000819050602082019050919050565b600081519050919050565b600081519050919050565b600081519050919050565b6000602082019050919050565b600082825260208201905092915050565b600082825260208201905092915050565b600082825260208201905092915050565b600081905092915050565b60006150ff826152dc565b915061510a836152dc565b9250827fffffffffffffffffffffffffffffffffffffffffffffffffffffffffffffffff0382111561513f5761513e615475565b5b828201905092915050565b6000615155826152dc565b9150615160836152dc565b9250826151705761516f6154a4565b5b828204905092915050565b6000615186826152f6565b9150615191836152f6565b9250826151a1576151a06154a4565b5b828204905092915050565b60006151b7826152dc565b91506151c2836152dc565b9250817fffffffffffffffffffffffffffffffffffffffffffffffffffffffffffffffff04831182151516156151fb576151fa615475565b5b828202905092915050565b6000615211826152dc565b915061521c836152dc565b92508282101561522f5761522e615475565b5b828203905092915050565b6000615245826152bc565b9050919050565b6000615257826152bc565b9050919050565b60008115159050919050565b60007fffffffff0000000000000000000000000000000000000000000000000000000082169050919050565b60008190506152a482615571565b919050565b60008190506152b782615585565b919050565b600073ffffffffffffffffffffffffffffffffffffffff82169050919050565b6000819050919050565b600063ffffffff82169050919050565b600060ff82169050919050565b600061530e82615339565b9050919050565b600061532082615296565b9050919050565b6000615332826152a9565b9050919050565b60006153448261534b565b9050919050565b6000615356826152bc565b9050919050565b82818337600083830152505050565b60005b8381101561538a57808201518184015260208101905061536f565b83811115615399576000848401525b50505050565b60006153aa826152e6565b915060008214156153be576153bd615475565b5b600182039050919050565b600060028204905060018216806153e157607f821691505b602082108114156153f5576153f4615502565b5b50919050565b6000615406826152dc565b91507fffffffffffffffffffffffffffffffffffffffffffffffffffffffffffffffff82141561543957615438615475565b5b600182019050919050565b600061544f826152dc565b915061545a836152dc565b92508261546a576154696154a4565b5b828206905092915050565b7f4e487b7100000000000000000000000000000000000000000000000000000000600052601160045260246000fd5b7f4e487b7100000000000000000000000000000000000000000000000000000000600052601260045260246000fd5b7f4e487b7100000000000000000000000000000000000000000000000000000000600052602160045260246000fd5b7f4e487b7100000000000000000000000000000000000000000000000000000000600052602260045260246000fd5b7f4e487b7100000000000000000000000000000000000000000000000000000000600052604160045260246000fd5b6000601f19601f8301169050919050565b60068110615582576155816154d3565b5b50565b60048110615596576155956154d3565b5b50565b6155a28161523a565b81146155ad57600080fd5b50565b6155b98161525e565b81146155c457600080fd5b50565b6155d08161526a565b81146155db57600080fd5b50565b600681106155eb57600080fd5b50565b6155f7816152dc565b811461560257600080fd5b5056fea2646970667358221220fea997ebc0db7fa434806069bf05ca63e6820d20b25ea8fc83b1d5b98fb6745c64736f6c63430008000033",
  "immutableReferences": {},
  "source": "// SPDX-License-Identifier: UNLICENSED\r\npragma solidity 0.8.0;\r\nimport \"@openzeppelin/contracts/token/ERC721/ERC721.sol\";\r\n \r\n/// @title Factory Contract to create events\r\ncontract EventCreator {\r\n\r\n    // Created events\r\n    Event[] public events;\r\n\r\n    // EVENTS\r\n    event CreateEvent(address _creator, address _event);\r\n\r\n    /**\r\n     * @notice Creates Events\r\n     * @param _numTickets Number of tickets \r\n     * @param _price Price per ticket\r\n     * @param _canBeResold Are tickets allowed to be resold\r\n     * @param _royaltyPercent Royalty percentage accrued by organizers on reselling of ticket\r\n     * @param _eventName Name of the Ticket NFT\r\n     * @param _eventSymbol Symbol for the Ticket NFT Token\r\n     */\r\n    function createEvent(uint32 _numTickets, uint32 _price, bool _canBeResold, uint8 _royaltyPercent,\r\n            string memory _eventName, string memory _eventSymbol) external returns(address newEvent) {\r\n\r\n        // Create a new Event smart contract\r\n        // NOTE: 'new' keyword creates a new SC and returns address\r\n        Event e = new Event(msg.sender, _numTickets, _price, _canBeResold, _royaltyPercent, _eventName, _eventSymbol);\r\n        \r\n        // Store/return event address\r\n        events.push(e);\r\n        address eventAddress = address(e);\r\n        emit CreateEvent(msg.sender, eventAddress);\r\n\r\n        // QUESTION: I cannot return this because async??\r\n        return eventAddress;\r\n    }\r\n\r\n\r\n    /**\r\n     * @notice Retrieve number of events\r\n     */\r\n    function getEventCount() public view returns(uint contractCount) {\r\n        return events.length;\r\n    }\r\n\r\n    // Returns array of all events\r\n    function getEvents() external view returns(Event[] memory _events) {\r\n        _events = new Event[] (events.length);\r\n        for (uint i=0; i<events.length; i++){\r\n            _events[i] = events[i];\r\n        }\r\n\r\n        return _events;\r\n    }  \r\n}\r\n\r\n/// @title Contract to mint tickets of an event\r\ncontract Event is ERC721 {\r\n    /// Control Event Status at a granular level\r\n    enum Stages { Prep, Active, Paused, CheckinOpen, Cancelled, Closed }\r\n    Stages public stage = Stages.Prep;\r\n    \r\n    /// Control Ticket Status at a granular level\r\n    enum TicketStatus { Invalid, Valid, Used, AvailableForSale }\r\n    \r\n    // Ticket struct \r\n    struct Ticket {\r\n        uint32 price;\r\n        uint32 resalePrice;\r\n        TicketStatus status;\r\n    }\r\n    Ticket[] public tickets;\r\n    uint32 public numTicketsLeft;\r\n    uint32 public totalTickets;\r\n    uint32 public price;\r\n    \r\n    /// Percent royalty event creator receives from ticket resales\r\n    uint8 public royaltyPercent;\r\n    \r\n    // For each user, store corresponding ticket struct\r\n    //mapping(address => Ticket) public tickets;\r\n    \r\n    bool public canBeResold;\r\n    address payable public owner;\r\n    \r\n    // to store the balances for buyers and organizers\r\n    uint totalBalances = 0;\r\n    mapping(address => uint) public balances;\r\n    mapping(address => bool) public isUserRefunded;\r\n    mapping(address => uint) public numTicketsBought;\r\n\r\n    // EVENTS\r\n    event CreateTicket(address buyer, uint ticketID);\r\n    event WithdrawMoney(address receiver, uint money);\r\n    event OwnerWithdrawMoney(address owner, uint money);\r\n    event TicketForSale(address seller, uint ticketID);\r\n    event TicketSold(address seller, address buyer, uint ticketID);\r\n    event TicketUsed(string eventName, string sQRCodeKey);\r\n\r\n    // Creates a new Event Contract\r\n    constructor(address _owner, uint32 _numTickets, uint32 _price, bool _canBeResold, uint8 _royaltyPercent,\r\n            string memory _eventName, string memory _eventSymbol) ERC721(_eventName, _eventSymbol) {    \r\n        // Check valid constructor arguments\r\n        require(_royaltyPercent >= 0 && _royaltyPercent <= 100, \"Royalty Percentage must be between 0 and 100\");\r\n        // Number of tickets must be greater than 0\r\n        require(_numTickets > 0, \"The number of tickets must be greater than 0\");\r\n        // EventName, EventSymbol cannot be empty string\r\n        bytes memory eventNameBytes = bytes(_eventName);\r\n        bytes memory eventSymbolBytes = bytes(_eventSymbol);\r\n        require(eventNameBytes.length != 0, \"Event Name cannot be empty\");\r\n        require(eventSymbolBytes.length != 0, \"Event Symbol cannot be empty\");\r\n        \r\n        owner = payable(_owner);\r\n        totalTickets = _numTickets;\r\n        numTicketsLeft = _numTickets;\r\n        price = _price;\r\n        canBeResold = _canBeResold;\r\n        royaltyPercent = _royaltyPercent;\r\n    }\r\n\r\n    /**\r\n     * @notice Buy tickets\r\n     * @dev Checks: State is Active, has enough money\r\n     */\r\n    function buyTicket() public payable buyingTicketOpen ticketsLeft \r\n                                            hasEnoughMoney(msg.value) returns (uint){\r\n        //uint32 ticketID = numTicketsLeft;\r\n\r\n        // Create Ticket t\r\n        Ticket memory t;\r\n        t.price = price;\r\n        t.resalePrice = price;\r\n        t.status = TicketStatus.Valid;\r\n\r\n\r\n        // Store t in tickets array\r\n        tickets.push(t);\r\n        uint ticketID = tickets.length - 1;\r\n        numTicketsLeft--;\r\n\r\n        // Mint NFT\r\n        _safeMint(msg.sender, ticketID);\r\n        emit CreateTicket(msg.sender, ticketID);\r\n\r\n        // If user overpaid, add difference to balances\r\n        if (msg.value > price) {\r\n            balances[msg.sender] = msg.value - price;\r\n            totalBalances += (msg.value - price);\r\n        }\r\n        \r\n        return ticketID;\r\n    }\r\n\r\n    /**\r\n     * @notice Change Status\r\n     * @dev Only owner can change state\r\n     * @param _stage Stages as set in enum Stages\r\n     */\r\n    function setStage(Stages _stage) public onlyOwner returns (Stages) {\r\n        stage = _stage;\r\n        return stage;\r\n    }\r\n    \r\n    /**\r\n     * @notice Mark ticket as used\r\n     * @dev Only a valid buyer can mark ticket as used\r\n     * @param sQRCodeKey QR Code key sent by the app \r\n     */\r\n    function setTicketToUsed(uint ticketID, string memory sQRCodeKey) public requiredStage(Stages.CheckinOpen)\r\n                                                                    ownsTicket(ticketID) returns (string memory){\r\n\t\t// Validate that user has a ticket they own and it is valid\r\n        require(tickets[ticketID].status == TicketStatus.Valid, \"There is no valid ticket for this user\");\r\n    \r\n        \r\n        // Ticket is valid so mark it as used\r\n        tickets[ticketID].status = TicketStatus.Used;\r\n\r\n        // Burn the Token\r\n        _burn(ticketID); \r\n        \r\n        // Raise event which Gate Management system can consume then\r\n        emit TicketUsed(name(), sQRCodeKey);\r\n        \r\n        return sQRCodeKey;\r\n\t}\r\n\r\n    /**\r\n     * @notice Mark ticket as used\r\n     * @dev Only a valid buyer can mark ticket as used\r\n     * @param ticketID ticket ID of ticket\r\n     */\r\n    function setTicketForSale(uint ticketID) public requiredStage(Stages.Active) ownsTicket(ticketID) returns(bool) {\r\n\t\t// Validate that user has a ticket they own and it is valid\r\n        require(tickets[ticketID].status != TicketStatus.Used, \"Ticket has already been used\");\r\n        \r\n        // Ticket is valid so mark it as used\r\n        tickets[ticketID].status = TicketStatus.AvailableForSale;\r\n        \r\n        // Raise event which Gate Management system can consume then\r\n        emit TicketForSale(msg.sender, ticketID);\r\n        \r\n        //return ticketID;\r\n        return true;\r\n\t}\r\n\r\n     /**\r\n     * @dev get ticket status\r\n     */\r\n    function getTicketStatus(uint ticketID) public view returns (TicketStatus) {\r\n        return tickets[ticketID].status;\r\n    }\r\n\r\n    /**\r\n     * @dev get ticket by ID\r\n     */\r\n    function getTicket(uint ticketID) public view returns(uint32 price, uint32 resalePrice, TicketStatus status) {\r\n        price = tickets[ticketID].price;\r\n        resalePrice = tickets[ticketID].resalePrice;\r\n        status = tickets[ticketID].status;\r\n    }\r\n\r\n    /**\r\n     * @dev get all tickets \r\n     */\r\n    function getTicketsCreated() public view returns(Ticket [] memory){\r\n        return tickets;\r\n    }\r\n\t\r\n    /**\r\n     * @notice Allows owner to withdraw money\r\n     * @dev once the event is closed, owner can withdraw money from SC account\r\n     */\r\n    function ownerWithdraw() public onlyOwner requiredStage(Stages.Closed) returns (bool success){\r\n        // Make sure owner did not already withdraw\r\n        require(isUserRefunded[owner] == false, \"Owner has already withdrawn money\");\r\n        isUserRefunded[owner] = true;\r\n        \r\n        // Require smart contract balance - amount users overpaid > 0\r\n        // Otherwise, there is no money for owner to refund\r\n        uint sendToOwner = address(this).balance - totalBalances;\r\n        require(sendToOwner > 0, \"No money in smart contract account\");\r\n\r\n        // Transfer money to owner\r\n        bool sent = owner.send(sendToOwner);\r\n        // Failure condition if cannot transfer\r\n        require(sent, \"Failed to send ether to owner\");\r\n\r\n        emit OwnerWithdrawMoney(msg.sender, sendToOwner);\r\n\r\n        return true;\r\n    }\r\n\r\n    // TODO: DOES THIS NEED TO RETURN BOOLEAN? IF IT FAILS THERE WILL BE AN ERROR\r\n    /**\r\n     * @notice User to withdraw money \r\n     * @dev User can withdraw money if event cancelled or overpaid for ticket\r\n     */\r\n    function withdraw() public returns (bool success) {\r\n        // Amount to send to user\r\n        uint sendToUser = balances[msg.sender];\r\n\r\n        // Update balance before sending money\r\n        balances[msg.sender] = 0;\r\n        \r\n        // If event cancelled, send user the amount they overpaid for ticket + ticket price refund\r\n        if ((stage == Stages.Cancelled || stage == Stages.Paused) && isUserRefunded[msg.sender] == false) {\r\n            // Update isUserRefunded before sending money\r\n            isUserRefunded[msg.sender] = true;\r\n            sendToUser += price;\r\n        }\r\n\r\n        // Cannot withdraw if no money to withdraw\r\n        require(sendToUser > 0, \"User does not have money to withdraw\");\r\n\r\n        // Transfer money to user\r\n        address payable receiver = payable(msg.sender);\r\n        bool sent = receiver.send(sendToUser);\r\n        // Failure condition of send will emit this error\r\n        require(sent, \"Failed to send ether to user\");\r\n\r\n        emit WithdrawMoney(msg.sender, sendToUser);\r\n        \r\n        return true;\r\n    }\r\n\r\n    /**\r\n     * @dev approve a buyer to buy ticket of another user\r\n     */\r\n    function approveAsBuyer(address buyer, uint ticketID) public requiredStage(Stages.Active){\r\n        //setApprovalForAll(buyer, bool(true));\r\n        approve(buyer, ticketID);\r\n    }\r\n\r\n    /**\r\n     * @notice Mark ticket as used\r\n     * @dev Only a valid buyer can mark ticket as used\r\n     * @param ticketID ticket ID of ticket\r\n     */\r\n    function buyTicketFromUser(uint ticketID) public payable requiredStage(Stages.Active) hasEnoughMoney(msg.value) returns (bool) {\r\n        // Check if ticket is available for sale\r\n        require(tickets[ticketID].status == TicketStatus.AvailableForSale, \"Ticket not available for sale\");\r\n\r\n        //calc amount to pay after royalty\r\n        uint ticketPrice = tickets[ticketID].price;\r\n        uint royalty = (royaltyPercent/100) * ticketPrice;\r\n        uint priceToPay = ticketPrice - royalty;\r\n\r\n        //transfer money to seller\r\n        address payable seller = payable(ownerOf(ticketID));\r\n        //seller.transfer(priceToPay);\r\n        bool sent = seller.send(price);\r\n\r\n        require(sent, \"Failed to send ether to user\");\r\n\r\n        emit TicketSold(seller, msg.sender, ticketID);\r\n        safeTransferFrom(seller, msg.sender, ticketID);\r\n\r\n        return true;\r\n\r\n    }\r\n\r\n\r\n    // MODIFIERS\r\n\r\n    // Only owner\r\n    modifier onlyOwner() {\r\n        require(msg.sender == owner, \"Can only be executed by the owner\");\r\n        _;\r\n    }\r\n\r\n    // Requires stage to be _stage\r\n    modifier requiredStage(Stages _stage) {\r\n        require(stage == _stage, \"Cannot execute function at this stage\");\r\n        _;\r\n    }\r\n    \r\n    // Check if buying is open\r\n    modifier buyingTicketOpen() {\r\n        require(stage == Stages.Active || stage == Stages.CheckinOpen, \"Tickets are not open for sale\");\r\n        _;\r\n    }\r\n\r\n    // Requires there to be more than 0 tickets left\r\n    modifier ticketsLeft() {\r\n        require(numTicketsLeft > 0, \"There are 0 tickets left\");\r\n        _;\r\n    }\r\n\r\n    modifier hasEnoughMoney(uint money) {\r\n        require(money >= price, \"Not enough money to purchase a ticket\");\r\n        _;\r\n    }\r\n\r\n    // Check if user is ticket owner\r\n    modifier ownsTicket(uint ticketID) {\r\n        require(ownerOf(ticketID) == msg.sender, \"User does not own this ticket\");\r\n        _;\r\n    }\r\n    \r\n}\r\n\r\n",
  "sourcePath": "C:/Users/ManTheMith/Desktop/COMP6452/proj/comp6452-nft/src/contracts/Event.sol",
  "compiler": {
    "name": "solc",
    "version": "0.8.0+commit.c7dfd78e.Emscripten.clang"
  },
  "schemaVersion": "3.4.1",
  "updatedAt": "2021-07-25T10:10:29.771Z",
  "networkType": "ethereum",
  "devdoc": {
    "kind": "dev",
    "methods": {
      "approve(address,uint256)": {
        "details": "See {IERC721-approve}."
      },
      "approveAsBuyer(address,uint256)": {
        "details": "approve a buyer to buy ticket of another user"
      },
      "balanceOf(address)": {
        "details": "See {IERC721-balanceOf}."
      },
      "buyTicket()": {
        "details": "Checks: State is Active, has enough money"
      },
      "buyTicketFromUser(uint256)": {
        "details": "Only a valid buyer can mark ticket as used",
        "params": {
          "ticketID": "ticket ID of ticket"
        }
      },
      "getApproved(uint256)": {
        "details": "See {IERC721-getApproved}."
      },
      "getTicket(uint256)": {
        "details": "get ticket by ID"
      },
      "getTicketStatus(uint256)": {
        "details": "get ticket status"
      },
      "getTicketsCreated()": {
        "details": "get all tickets "
      },
      "isApprovedForAll(address,address)": {
        "details": "See {IERC721-isApprovedForAll}."
      },
      "name()": {
        "details": "See {IERC721Metadata-name}."
      },
      "ownerOf(uint256)": {
        "details": "See {IERC721-ownerOf}."
      },
      "ownerWithdraw()": {
        "details": "once the event is closed, owner can withdraw money from SC account"
      },
      "safeTransferFrom(address,address,uint256)": {
        "details": "See {IERC721-safeTransferFrom}."
      },
      "safeTransferFrom(address,address,uint256,bytes)": {
        "details": "See {IERC721-safeTransferFrom}."
      },
      "setApprovalForAll(address,bool)": {
        "details": "See {IERC721-setApprovalForAll}."
      },
      "setStage(uint8)": {
        "details": "Only owner can change state",
        "params": {
          "_stage": "Stages as set in enum Stages"
        }
      },
      "setTicketForSale(uint256)": {
        "details": "Only a valid buyer can mark ticket as used",
        "params": {
          "ticketID": "ticket ID of ticket"
        }
      },
      "setTicketToUsed(uint256,string)": {
        "details": "Only a valid buyer can mark ticket as used",
        "params": {
          "sQRCodeKey": "QR Code key sent by the app "
        }
      },
      "supportsInterface(bytes4)": {
        "details": "See {IERC165-supportsInterface}."
      },
      "symbol()": {
        "details": "See {IERC721Metadata-symbol}."
      },
      "tokenURI(uint256)": {
        "details": "See {IERC721Metadata-tokenURI}."
      },
      "transferFrom(address,address,uint256)": {
        "details": "See {IERC721-transferFrom}."
      },
      "withdraw()": {
        "details": "User can withdraw money if event cancelled or overpaid for ticket"
      }
    },
    "title": "Contract to mint tickets of an event",
    "version": 1
  },
  "userdoc": {
    "kind": "user",
    "methods": {
      "buyTicket()": {
        "notice": "Buy tickets"
      },
      "buyTicketFromUser(uint256)": {
        "notice": "Mark ticket as used"
      },
      "ownerWithdraw()": {
        "notice": "Allows owner to withdraw money"
      },
      "royaltyPercent()": {
        "notice": "Percent royalty event creator receives from ticket resales"
      },
      "setStage(uint8)": {
        "notice": "Change Status"
      },
      "setTicketForSale(uint256)": {
        "notice": "Mark ticket as used"
      },
      "setTicketToUsed(uint256,string)": {
        "notice": "Mark ticket as used"
      },
      "withdraw()": {
        "notice": "User to withdraw money "
      }
    },
    "version": 1
  }
}