{
  "contractName": "Event",
  "abi": [
    {
      "inputs": [
        {
          "internalType": "uint256",
          "name": "_numTickets",
          "type": "uint256"
        },
        {
          "internalType": "uint256",
          "name": "_price",
          "type": "uint256"
        },
        {
          "internalType": "bool",
          "name": "_canBeResold",
          "type": "bool"
        },
        {
          "internalType": "uint256",
          "name": "_royaltyPercent",
          "type": "uint256"
        }
      ],
      "stateMutability": "nonpayable",
      "type": "constructor"
    },
    {
      "anonymous": false,
      "inputs": [
        {
          "indexed": true,
          "internalType": "address",
          "name": "owner",
          "type": "address"
        },
        {
          "indexed": true,
          "internalType": "address",
          "name": "approved",
          "type": "address"
        },
        {
          "indexed": true,
          "internalType": "uint256",
          "name": "tokenId",
          "type": "uint256"
        }
      ],
      "name": "Approval",
      "type": "event"
    },
    {
      "anonymous": false,
      "inputs": [
        {
          "indexed": true,
          "internalType": "address",
          "name": "owner",
          "type": "address"
        },
        {
          "indexed": true,
          "internalType": "address",
          "name": "operator",
          "type": "address"
        },
        {
          "indexed": false,
          "internalType": "bool",
          "name": "approved",
          "type": "bool"
        }
      ],
      "name": "ApprovalForAll",
      "type": "event"
    },
    {
      "anonymous": false,
      "inputs": [
        {
          "indexed": false,
          "internalType": "address",
          "name": "buyer",
          "type": "address"
        },
        {
          "indexed": false,
          "internalType": "uint256",
          "name": "NFTID",
          "type": "uint256"
        }
      ],
      "name": "CreateNFTTicket",
      "type": "event"
    },
    {
      "anonymous": false,
      "inputs": [
        {
          "indexed": false,
          "internalType": "address",
          "name": "seller",
          "type": "address"
        },
        {
          "indexed": false,
          "internalType": "address",
          "name": "buyer",
          "type": "address"
        },
        {
          "indexed": false,
          "internalType": "uint256",
          "name": "ticketID",
          "type": "uint256"
        }
      ],
      "name": "TicketSold",
      "type": "event"
    },
    {
      "anonymous": false,
      "inputs": [
        {
          "indexed": true,
          "internalType": "address",
          "name": "from",
          "type": "address"
        },
        {
          "indexed": true,
          "internalType": "address",
          "name": "to",
          "type": "address"
        },
        {
          "indexed": true,
          "internalType": "uint256",
          "name": "tokenId",
          "type": "uint256"
        }
      ],
      "name": "Transfer",
      "type": "event"
    },
    {
      "inputs": [
        {
          "internalType": "address",
          "name": "to",
          "type": "address"
        },
        {
          "internalType": "uint256",
          "name": "tokenId",
          "type": "uint256"
        }
      ],
      "name": "approve",
      "outputs": [],
      "stateMutability": "nonpayable",
      "type": "function"
    },
    {
      "inputs": [
        {
          "internalType": "address",
          "name": "owner",
          "type": "address"
        }
      ],
      "name": "balanceOf",
      "outputs": [
        {
          "internalType": "uint256",
          "name": "",
          "type": "uint256"
        }
      ],
      "stateMutability": "view",
      "type": "function",
      "constant": true
    },
    {
      "inputs": [
        {
          "internalType": "uint256",
          "name": "tokenId",
          "type": "uint256"
        }
      ],
      "name": "getApproved",
      "outputs": [
        {
          "internalType": "address",
          "name": "",
          "type": "address"
        }
      ],
      "stateMutability": "view",
      "type": "function",
      "constant": true
    },
    {
      "inputs": [
        {
          "internalType": "address",
          "name": "owner",
          "type": "address"
        },
        {
          "internalType": "address",
          "name": "operator",
          "type": "address"
        }
      ],
      "name": "isApprovedForAll",
      "outputs": [
        {
          "internalType": "bool",
          "name": "",
          "type": "bool"
        }
      ],
      "stateMutability": "view",
      "type": "function",
      "constant": true
    },
    {
      "inputs": [],
      "name": "name",
      "outputs": [
        {
          "internalType": "string",
          "name": "",
          "type": "string"
        }
      ],
      "stateMutability": "view",
      "type": "function",
      "constant": true
    },
    {
      "inputs": [],
      "name": "owner",
      "outputs": [
        {
          "internalType": "address",
          "name": "",
          "type": "address"
        }
      ],
      "stateMutability": "view",
      "type": "function",
      "constant": true
    },
    {
      "inputs": [
        {
          "internalType": "uint256",
          "name": "tokenId",
          "type": "uint256"
        }
      ],
      "name": "ownerOf",
      "outputs": [
        {
          "internalType": "address",
          "name": "",
          "type": "address"
        }
      ],
      "stateMutability": "view",
      "type": "function",
      "constant": true
    },
    {
      "inputs": [
        {
          "internalType": "address",
          "name": "from",
          "type": "address"
        },
        {
          "internalType": "address",
          "name": "to",
          "type": "address"
        },
        {
          "internalType": "uint256",
          "name": "tokenId",
          "type": "uint256"
        }
      ],
      "name": "safeTransferFrom",
      "outputs": [],
      "stateMutability": "nonpayable",
      "type": "function"
    },
    {
      "inputs": [
        {
          "internalType": "address",
          "name": "from",
          "type": "address"
        },
        {
          "internalType": "address",
          "name": "to",
          "type": "address"
        },
        {
          "internalType": "uint256",
          "name": "tokenId",
          "type": "uint256"
        },
        {
          "internalType": "bytes",
          "name": "_data",
          "type": "bytes"
        }
      ],
      "name": "safeTransferFrom",
      "outputs": [],
      "stateMutability": "nonpayable",
      "type": "function"
    },
    {
      "inputs": [
        {
          "internalType": "address",
          "name": "operator",
          "type": "address"
        },
        {
          "internalType": "bool",
          "name": "approved",
          "type": "bool"
        }
      ],
      "name": "setApprovalForAll",
      "outputs": [],
      "stateMutability": "nonpayable",
      "type": "function"
    },
    {
      "inputs": [],
      "name": "stage",
      "outputs": [
        {
          "internalType": "enum Event.Stages",
          "name": "",
          "type": "uint8"
        }
      ],
      "stateMutability": "view",
      "type": "function",
      "constant": true
    },
    {
      "inputs": [
        {
          "internalType": "bytes4",
          "name": "interfaceId",
          "type": "bytes4"
        }
      ],
      "name": "supportsInterface",
      "outputs": [
        {
          "internalType": "bool",
          "name": "",
          "type": "bool"
        }
      ],
      "stateMutability": "view",
      "type": "function",
      "constant": true
    },
    {
      "inputs": [],
      "name": "symbol",
      "outputs": [
        {
          "internalType": "string",
          "name": "",
          "type": "string"
        }
      ],
      "stateMutability": "view",
      "type": "function",
      "constant": true
    },
    {
      "inputs": [
        {
          "internalType": "uint256",
          "name": "tokenId",
          "type": "uint256"
        }
      ],
      "name": "tokenURI",
      "outputs": [
        {
          "internalType": "string",
          "name": "",
          "type": "string"
        }
      ],
      "stateMutability": "view",
      "type": "function",
      "constant": true
    },
    {
      "inputs": [
        {
          "internalType": "address",
          "name": "from",
          "type": "address"
        },
        {
          "internalType": "address",
          "name": "to",
          "type": "address"
        },
        {
          "internalType": "uint256",
          "name": "tokenId",
          "type": "uint256"
        }
      ],
      "name": "transferFrom",
      "outputs": [],
      "stateMutability": "nonpayable",
      "type": "function"
    },
    {
      "inputs": [],
      "name": "buyTicket",
      "outputs": [],
      "stateMutability": "payable",
      "type": "function",
      "payable": true
    },
    {
      "inputs": [
        {
          "internalType": "address",
          "name": "userAdd",
          "type": "address"
        },
        {
          "internalType": "uint256",
          "name": "ticketID",
          "type": "uint256"
        }
      ],
      "name": "buyTicketFromUser",
      "outputs": [],
      "stateMutability": "payable",
      "type": "function",
      "payable": true
    },
    {
      "inputs": [
        {
          "internalType": "enum Event.Stages",
          "name": "_stage",
          "type": "uint8"
        }
      ],
      "name": "setStage",
      "outputs": [],
      "stateMutability": "nonpayable",
      "type": "function"
    }
  ],
  "bytecode": "0x60806040526000600660006101000a81548160ff0219169083600581111562000051577f4e487b7100000000000000000000000000000000000000000000000000000000600052602160045260246000fd5b02179055503480156200006357600080fd5b50604051620032dd380380620032dd833981810160405281019062000089919062000281565b6040518060400160405280600981526020017f4576656e744e616d6500000000000000000000000000000000000000000000008152506040518060400160405280600b81526020017f4576656e7453796d626f6c00000000000000000000000000000000000000000081525081600090805190602001906200010d929190620001a3565b50806001908051906020019062000126929190620001a3565b50505033600b60016101000a81548173ffffffffffffffffffffffffffffffffffffffff021916908373ffffffffffffffffffffffffffffffffffffffff160217905550836008819055508260098190555081600b60006101000a81548160ff02191690831515021790555080600a81905550505050506200039c565b828054620001b19062000303565b90600052602060002090601f016020900481019282620001d5576000855562000221565b82601f10620001f057805160ff191683800117855562000221565b8280016001018555821562000221579182015b828111156200022057825182559160200191906001019062000203565b5b50905062000230919062000234565b5090565b5b808211156200024f57600081600090555060010162000235565b5090565b600081519050620002648162000368565b92915050565b6000815190506200027b8162000382565b92915050565b600080600080608085870312156200029857600080fd5b6000620002a8878288016200026a565b9450506020620002bb878288016200026a565b9350506040620002ce8782880162000253565b9250506060620002e1878288016200026a565b91505092959194509250565b60008115159050919050565b6000819050919050565b600060028204905060018216806200031c57607f821691505b6020821081141562000333576200033262000339565b5b50919050565b7f4e487b7100000000000000000000000000000000000000000000000000000000600052602260045260246000fd5b6200037381620002ed565b81146200037f57600080fd5b50565b6200038d81620002f9565b81146200039957600080fd5b50565b612f3180620003ac6000396000f3fe6080604052600436106101095760003560e01c80638da5cb5b11610095578063c040e6b811610064578063c040e6b81461036c578063c87b56dd14610397578063ce3cd997146103d4578063e985e9c5146103fd578063edca914c1461043a57610109565b80638da5cb5b146102c457806395d89b41146102ef578063a22cb4651461031a578063b88d4fde1461034357610109565b80630c0b570d116100dc5780630c0b570d146101dc57806323b872dd146101f857806342842e0e146102215780636352211e1461024a57806370a082311461028757610109565b806301ffc9a71461010e57806306fdde031461014b578063081812fc14610176578063095ea7b3146101b3575b600080fd5b34801561011a57600080fd5b5061013560048036038101906101309190611fad565b610444565b604051610142919061278c565b60405180910390f35b34801561015757600080fd5b50610160610526565b60405161016d91906127c2565b60405180910390f35b34801561018257600080fd5b5061019d60048036038101906101989190612028565b6105b8565b6040516101aa91906126c5565b60405180910390f35b3480156101bf57600080fd5b506101da60048036038101906101d59190611f71565b61063d565b005b6101f660048036038101906101f19190611f71565b610755565b005b34801561020457600080fd5b5061021f600480360381019061021a9190611e6b565b610a06565b005b34801561022d57600080fd5b5061024860048036038101906102439190611e6b565b610a66565b005b34801561025657600080fd5b50610271600480360381019061026c9190612028565b610a86565b60405161027e91906126c5565b60405180910390f35b34801561029357600080fd5b506102ae60048036038101906102a99190611e06565b610b38565b6040516102bb91906129c4565b60405180910390f35b3480156102d057600080fd5b506102d9610bf0565b6040516102e691906126c5565b60405180910390f35b3480156102fb57600080fd5b50610304610c16565b60405161031191906127c2565b60405180910390f35b34801561032657600080fd5b50610341600480360381019061033c9190611f35565b610ca8565b005b34801561034f57600080fd5b5061036a60048036038101906103659190611eba565b610e29565b005b34801561037857600080fd5b50610381610e8b565b60405161038e91906127a7565b60405180910390f35b3480156103a357600080fd5b506103be60048036038101906103b99190612028565b610e9e565b6040516103cb91906127c2565b60405180910390f35b3480156103e057600080fd5b506103fb60048036038101906103f69190611fff565b610f45565b005b34801561040957600080fd5b50610424600480360381019061041f9190611e2f565b610f98565b604051610431919061278c565b60405180910390f35b61044261102c565b005b60007f80ac58cd000000000000000000000000000000000000000000000000000000007bffffffffffffffffffffffffffffffffffffffffffffffffffffffff1916827bffffffffffffffffffffffffffffffffffffffffffffffffffffffff1916148061050f57507f5b5e139f000000000000000000000000000000000000000000000000000000007bffffffffffffffffffffffffffffffffffffffffffffffffffffffff1916827bffffffffffffffffffffffffffffffffffffffffffffffffffffffff1916145b8061051f575061051e82611270565b5b9050919050565b60606000805461053590612cd3565b80601f016020809104026020016040519081016040528092919081815260200182805461056190612cd3565b80156105ae5780601f10610583576101008083540402835291602001916105ae565b820191906000526020600020905b81548152906001019060200180831161059157829003601f168201915b5050505050905090565b60006105c3826112da565b610602576040517f08c379a00000000000000000000000000000000000000000000000000000000081526004016105f990612924565b60405180910390fd5b6004600083815260200190815260200160002060009054906101000a900473ffffffffffffffffffffffffffffffffffffffff169050919050565b600061064882610a86565b90508073ffffffffffffffffffffffffffffffffffffffff168373ffffffffffffffffffffffffffffffffffffffff1614156106b9576040517f08c379a00000000000000000000000000000000000000000000000000000000081526004016106b090612984565b60405180910390fd5b8073ffffffffffffffffffffffffffffffffffffffff166106d8611346565b73ffffffffffffffffffffffffffffffffffffffff161480610707575061070681610701611346565b610f98565b5b610746576040517f08c379a000000000000000000000000000000000000000000000000000000000815260040161073d906128a4565b60405180910390fd5b610750838361134e565b505050565b6001806005811115610790577f4e487b7100000000000000000000000000000000000000000000000000000000600052602160045260246000fd5b600660009054906101000a900460ff1660058111156107d8577f4e487b7100000000000000000000000000000000000000000000000000000000600052602160045260246000fd5b146107e257600080fd5b346009548110156107f257600080fd5b826001151560078281548110610831577f4e487b7100000000000000000000000000000000000000000000000000000000600052603260045260246000fd5b906000526020600020906003020160020160009054906101000a900460ff16151514610892576040517f08c379a0000000000000000000000000000000000000000000000000000000008152600401610889906127e4565b60405180910390fd5b60008590506000600786815481106108d3577f4e487b7100000000000000000000000000000000000000000000000000000000600052603260045260246000fd5b90600052602060002090600302016001015490506000816064600a546108f99190612ad9565b6109039190612b0a565b9050600081836109139190612b64565b90508373ffffffffffffffffffffffffffffffffffffffff166108fc829081150290604051600060405180830381858888f1935050505015801561095b573d6000803e3d6000fd5b50600060078981548110610998577f4e487b7100000000000000000000000000000000000000000000000000000000600052603260045260246000fd5b906000526020600020906003020160020160006101000a81548160ff0219169083151502179055507f2ff282dae7c1a7b99b722227f3a2079b905c78122b1553e37f8c0ce1e06f4f4b84338a6040516109f3939291906126e0565b60405180910390a1505050505050505050565b610a17610a11611346565b82611407565b610a56576040517f08c379a0000000000000000000000000000000000000000000000000000000008152600401610a4d906129a4565b60405180910390fd5b610a618383836114e5565b505050565b610a8183838360405180602001604052806000815250610e29565b505050565b6000806002600084815260200190815260200160002060009054906101000a900473ffffffffffffffffffffffffffffffffffffffff169050600073ffffffffffffffffffffffffffffffffffffffff168173ffffffffffffffffffffffffffffffffffffffff161415610b2f576040517f08c379a0000000000000000000000000000000000000000000000000000000008152600401610b26906128e4565b60405180910390fd5b80915050919050565b60008073ffffffffffffffffffffffffffffffffffffffff168273ffffffffffffffffffffffffffffffffffffffff161415610ba9576040517f08c379a0000000000000000000000000000000000000000000000000000000008152600401610ba0906128c4565b60405180910390fd5b600360008373ffffffffffffffffffffffffffffffffffffffff1673ffffffffffffffffffffffffffffffffffffffff168152602001908152602001600020549050919050565b600b60019054906101000a900473ffffffffffffffffffffffffffffffffffffffff1681565b606060018054610c2590612cd3565b80601f0160208091040260200160405190810160405280929190818152602001828054610c5190612cd3565b8015610c9e5780601f10610c7357610100808354040283529160200191610c9e565b820191906000526020600020905b815481529060010190602001808311610c8157829003601f168201915b5050505050905090565b610cb0611346565b73ffffffffffffffffffffffffffffffffffffffff168273ffffffffffffffffffffffffffffffffffffffff161415610d1e576040517f08c379a0000000000000000000000000000000000000000000000000000000008152600401610d1590612864565b60405180910390fd5b8060056000610d2b611346565b73ffffffffffffffffffffffffffffffffffffffff1673ffffffffffffffffffffffffffffffffffffffff16815260200190815260200160002060008473ffffffffffffffffffffffffffffffffffffffff1673ffffffffffffffffffffffffffffffffffffffff16815260200190815260200160002060006101000a81548160ff0219169083151502179055508173ffffffffffffffffffffffffffffffffffffffff16610dd8611346565b73ffffffffffffffffffffffffffffffffffffffff167f17307eab39ab6107e8899845ad3d59bd9653f200f220920489ca2b5937696c3183604051610e1d919061278c565b60405180910390a35050565b610e3a610e34611346565b83611407565b610e79576040517f08c379a0000000000000000000000000000000000000000000000000000000008152600401610e70906129a4565b60405180910390fd5b610e8584848484611741565b50505050565b600660009054906101000a900460ff1681565b6060610ea9826112da565b610ee8576040517f08c379a0000000000000000000000000000000000000000000000000000000008152600401610edf90612964565b60405180910390fd5b6000610ef261179d565b90506000815111610f125760405180602001604052806000815250610f3d565b80610f1c846117b4565b604051602001610f2d9291906126a1565b6040516020818303038152906040525b915050919050565b80600660006101000a81548160ff02191690836005811115610f90577f4e487b7100000000000000000000000000000000000000000000000000000000600052602160045260246000fd5b021790555050565b6000600560008473ffffffffffffffffffffffffffffffffffffffff1673ffffffffffffffffffffffffffffffffffffffff16815260200190815260200160002060008373ffffffffffffffffffffffffffffffffffffffff1673ffffffffffffffffffffffffffffffffffffffff16815260200190815260200160002060009054906101000a900460ff16905092915050565b6001806005811115611067577f4e487b7100000000000000000000000000000000000000000000000000000000600052602160045260246000fd5b600660009054906101000a900460ff1660058111156110af577f4e487b7100000000000000000000000000000000000000000000000000000000600052602160045260246000fd5b146110b957600080fd5b6000600854116110c857600080fd5b346009548110156110d857600080fd5b6110e0611cde565b33816000019073ffffffffffffffffffffffffffffffffffffffff16908173ffffffffffffffffffffffffffffffffffffffff168152505060095481602001818152505060008160400190151590811515815250506000816060019015159081151581525050600781908060018154018082558091505060019003906000526020600020906003020160009091909190915060008201518160000160006101000a81548173ffffffffffffffffffffffffffffffffffffffff021916908373ffffffffffffffffffffffffffffffffffffffff1602179055506020820151816001015560408201518160020160006101000a81548160ff02191690831515021790555060608201518160020160016101000a81548160ff0219169083151502179055505050600060078054905090506008600081548092919061122290612ca9565b91905055506112313382611961565b7f93eeda3ba32b6c8680fa8458ef9dd061ee3fcc7d1d9c142f93b1a5e5c1aa418a3382604051611262929190612763565b60405180910390a150505050565b60007f01ffc9a7000000000000000000000000000000000000000000000000000000007bffffffffffffffffffffffffffffffffffffffffffffffffffffffff1916827bffffffffffffffffffffffffffffffffffffffffffffffffffffffff1916149050919050565b60008073ffffffffffffffffffffffffffffffffffffffff166002600084815260200190815260200160002060009054906101000a900473ffffffffffffffffffffffffffffffffffffffff1673ffffffffffffffffffffffffffffffffffffffff1614159050919050565b600033905090565b816004600083815260200190815260200160002060006101000a81548173ffffffffffffffffffffffffffffffffffffffff021916908373ffffffffffffffffffffffffffffffffffffffff160217905550808273ffffffffffffffffffffffffffffffffffffffff166113c183610a86565b73ffffffffffffffffffffffffffffffffffffffff167f8c5be1e5ebec7d5bd14f71427d1e84f3dd0314c0f7b2291e5b200ac8c7c3b92560405160405180910390a45050565b6000611412826112da565b611451576040517f08c379a000000000000000000000000000000000000000000000000000000000815260040161144890612884565b60405180910390fd5b600061145c83610a86565b90508073ffffffffffffffffffffffffffffffffffffffff168473ffffffffffffffffffffffffffffffffffffffff1614806114cb57508373ffffffffffffffffffffffffffffffffffffffff166114b3846105b8565b73ffffffffffffffffffffffffffffffffffffffff16145b806114dc57506114db8185610f98565b5b91505092915050565b8273ffffffffffffffffffffffffffffffffffffffff1661150582610a86565b73ffffffffffffffffffffffffffffffffffffffff161461155b576040517f08c379a000000000000000000000000000000000000000000000000000000000815260040161155290612944565b60405180910390fd5b600073ffffffffffffffffffffffffffffffffffffffff168273ffffffffffffffffffffffffffffffffffffffff1614156115cb576040517f08c379a00000000000000000000000000000000000000000000000000000000081526004016115c290612844565b60405180910390fd5b6115d6838383611b2f565b6115e160008261134e565b6001600360008573ffffffffffffffffffffffffffffffffffffffff1673ffffffffffffffffffffffffffffffffffffffff16815260200190815260200160002060008282546116319190612b64565b925050819055506001600360008473ffffffffffffffffffffffffffffffffffffffff1673ffffffffffffffffffffffffffffffffffffffff16815260200190815260200160002060008282546116889190612a83565b92505081905550816002600083815260200190815260200160002060006101000a81548173ffffffffffffffffffffffffffffffffffffffff021916908373ffffffffffffffffffffffffffffffffffffffff160217905550808273ffffffffffffffffffffffffffffffffffffffff168473ffffffffffffffffffffffffffffffffffffffff167fddf252ad1be2c89b69c2b068fc378daa952ba7f163c4a11628f55a4df523b3ef60405160405180910390a4505050565b61174c8484846114e5565b61175884848484611b34565b611797576040517f08c379a000000000000000000000000000000000000000000000000000000000815260040161178e90612804565b60405180910390fd5b50505050565b606060405180602001604052806000815250905090565b606060008214156117fc576040518060400160405280600181526020017f3000000000000000000000000000000000000000000000000000000000000000815250905061195c565b600082905060005b6000821461182e57808061181790612d05565b915050600a826118279190612ad9565b9150611804565b60008167ffffffffffffffff811115611870577f4e487b7100000000000000000000000000000000000000000000000000000000600052604160045260246000fd5b6040519080825280601f01601f1916602001820160405280156118a25781602001600182028036833780820191505090505b5090505b60008514611955576001826118bb9190612b64565b9150600a856118ca9190612d4e565b60306118d69190612a83565b60f81b818381518110611912577f4e487b7100000000000000000000000000000000000000000000000000000000600052603260045260246000fd5b60200101907effffffffffffffffffffffffffffffffffffffffffffffffffffffffffffff1916908160001a905350600a8561194e9190612ad9565b94506118a6565b8093505050505b919050565b600073ffffffffffffffffffffffffffffffffffffffff168273ffffffffffffffffffffffffffffffffffffffff1614156119d1576040517f08c379a00000000000000000000000000000000000000000000000000000000081526004016119c890612904565b60405180910390fd5b6119da816112da565b15611a1a576040517f08c379a0000000000000000000000000000000000000000000000000000000008152600401611a1190612824565b60405180910390fd5b611a2660008383611b2f565b6001600360008473ffffffffffffffffffffffffffffffffffffffff1673ffffffffffffffffffffffffffffffffffffffff1681526020019081526020016000206000828254611a769190612a83565b92505081905550816002600083815260200190815260200160002060006101000a81548173ffffffffffffffffffffffffffffffffffffffff021916908373ffffffffffffffffffffffffffffffffffffffff160217905550808273ffffffffffffffffffffffffffffffffffffffff16600073ffffffffffffffffffffffffffffffffffffffff167fddf252ad1be2c89b69c2b068fc378daa952ba7f163c4a11628f55a4df523b3ef60405160405180910390a45050565b505050565b6000611b558473ffffffffffffffffffffffffffffffffffffffff16611ccb565b15611cbe578373ffffffffffffffffffffffffffffffffffffffff1663150b7a02611b7e611346565b8786866040518563ffffffff1660e01b8152600401611ba09493929190612717565b602060405180830381600087803b158015611bba57600080fd5b505af1925050508015611beb57506040513d601f19601f82011682018060405250810190611be89190611fd6565b60015b611c6e573d8060008114611c1b576040519150601f19603f3d011682016040523d82523d6000602084013e611c20565b606091505b50600081511415611c66576040517f08c379a0000000000000000000000000000000000000000000000000000000008152600401611c5d90612804565b60405180910390fd5b805181602001fd5b63150b7a0260e01b7bffffffffffffffffffffffffffffffffffffffffffffffffffffffff1916817bffffffffffffffffffffffffffffffffffffffffffffffffffffffff191614915050611cc3565b600190505b949350505050565b600080823b905060008111915050919050565b6040518060800160405280600073ffffffffffffffffffffffffffffffffffffffff168152602001600081526020016000151581526020016000151581525090565b6000611d33611d2e84612a10565b6129df565b905082815260208101848484011115611d4b57600080fd5b611d56848285612c67565b509392505050565b600081359050611d6d81612e8f565b92915050565b600081359050611d8281612ea6565b92915050565b600081359050611d9781612ebd565b92915050565b600081519050611dac81612ebd565b92915050565b600082601f830112611dc357600080fd5b8135611dd3848260208601611d20565b91505092915050565b600081359050611deb81612ed4565b92915050565b600081359050611e0081612ee4565b92915050565b600060208284031215611e1857600080fd5b6000611e2684828501611d5e565b91505092915050565b60008060408385031215611e4257600080fd5b6000611e5085828601611d5e565b9250506020611e6185828601611d5e565b9150509250929050565b600080600060608486031215611e8057600080fd5b6000611e8e86828701611d5e565b9350506020611e9f86828701611d5e565b9250506040611eb086828701611df1565b9150509250925092565b60008060008060808587031215611ed057600080fd5b6000611ede87828801611d5e565b9450506020611eef87828801611d5e565b9350506040611f0087828801611df1565b925050606085013567ffffffffffffffff811115611f1d57600080fd5b611f2987828801611db2565b91505092959194509250565b60008060408385031215611f4857600080fd5b6000611f5685828601611d5e565b9250506020611f6785828601611d73565b9150509250929050565b60008060408385031215611f8457600080fd5b6000611f9285828601611d5e565b9250506020611fa385828601611df1565b9150509250929050565b600060208284031215611fbf57600080fd5b6000611fcd84828501611d88565b91505092915050565b600060208284031215611fe857600080fd5b6000611ff684828501611d9d565b91505092915050565b60006020828403121561201157600080fd5b600061201f84828501611ddc565b91505092915050565b60006020828403121561203a57600080fd5b600061204884828501611df1565b91505092915050565b61205a81612c1f565b82525050565b61206981612b98565b82525050565b61207881612baa565b82525050565b600061208982612a40565b6120938185612a56565b93506120a3818560208601612c76565b6120ac81612e6a565b840191505092915050565b6120c081612c31565b82525050565b60006120d182612a4b565b6120db8185612a67565b93506120eb818560208601612c76565b6120f481612e6a565b840191505092915050565b600061210a82612a4b565b6121148185612a78565b9350612124818560208601612c76565b80840191505092915050565b600061213d601383612a67565b91507f7469636b6574206e6f7420666f722073616c65000000000000000000000000006000830152602082019050919050565b600061217d603283612a67565b91507f4552433732313a207472616e7366657220746f206e6f6e20455243373231526560008301527f63656976657220696d706c656d656e74657200000000000000000000000000006020830152604082019050919050565b60006121e3601c83612a67565b91507f4552433732313a20746f6b656e20616c7265616479206d696e746564000000006000830152602082019050919050565b6000612223602483612a67565b91507f4552433732313a207472616e7366657220746f20746865207a65726f2061646460008301527f72657373000000000000000000000000000000000000000000000000000000006020830152604082019050919050565b6000612289601983612a67565b91507f4552433732313a20617070726f766520746f2063616c6c6572000000000000006000830152602082019050919050565b60006122c9602c83612a67565b91507f4552433732313a206f70657261746f7220717565727920666f72206e6f6e657860008301527f697374656e7420746f6b656e00000000000000000000000000000000000000006020830152604082019050919050565b600061232f603883612a67565b91507f4552433732313a20617070726f76652063616c6c6572206973206e6f74206f7760008301527f6e6572206e6f7220617070726f76656420666f7220616c6c00000000000000006020830152604082019050919050565b6000612395602a83612a67565b91507f4552433732313a2062616c616e636520717565727920666f7220746865207a6560008301527f726f2061646472657373000000000000000000000000000000000000000000006020830152604082019050919050565b60006123fb602983612a67565b91507f4552433732313a206f776e657220717565727920666f72206e6f6e657869737460008301527f656e7420746f6b656e00000000000000000000000000000000000000000000006020830152604082019050919050565b6000612461602083612a67565b91507f4552433732313a206d696e7420746f20746865207a65726f20616464726573736000830152602082019050919050565b60006124a1602c83612a67565b91507f4552433732313a20617070726f76656420717565727920666f72206e6f6e657860008301527f697374656e7420746f6b656e00000000000000000000000000000000000000006020830152604082019050919050565b6000612507602983612a67565b91507f4552433732313a207472616e73666572206f6620746f6b656e2074686174206960008301527f73206e6f74206f776e00000000000000000000000000000000000000000000006020830152604082019050919050565b600061256d602f83612a67565b91507f4552433732314d657461646174613a2055524920717565727920666f72206e6f60008301527f6e6578697374656e7420746f6b656e00000000000000000000000000000000006020830152604082019050919050565b60006125d3602183612a67565b91507f4552433732313a20617070726f76616c20746f2063757272656e74206f776e6560008301527f72000000000000000000000000000000000000000000000000000000000000006020830152604082019050919050565b6000612639603183612a67565b91507f4552433732313a207472616e736665722063616c6c6572206973206e6f74206f60008301527f776e6572206e6f7220617070726f7665640000000000000000000000000000006020830152604082019050919050565b61269b81612c15565b82525050565b60006126ad82856120ff565b91506126b982846120ff565b91508190509392505050565b60006020820190506126da6000830184612060565b92915050565b60006060820190506126f56000830186612051565b6127026020830185612060565b61270f6040830184612692565b949350505050565b600060808201905061272c6000830187612060565b6127396020830186612060565b6127466040830185612692565b8181036060830152612758818461207e565b905095945050505050565b60006040820190506127786000830185612060565b6127856020830184612692565b9392505050565b60006020820190506127a1600083018461206f565b92915050565b60006020820190506127bc60008301846120b7565b92915050565b600060208201905081810360008301526127dc81846120c6565b905092915050565b600060208201905081810360008301526127fd81612130565b9050919050565b6000602082019050818103600083015261281d81612170565b9050919050565b6000602082019050818103600083015261283d816121d6565b9050919050565b6000602082019050818103600083015261285d81612216565b9050919050565b6000602082019050818103600083015261287d8161227c565b9050919050565b6000602082019050818103600083015261289d816122bc565b9050919050565b600060208201905081810360008301526128bd81612322565b9050919050565b600060208201905081810360008301526128dd81612388565b9050919050565b600060208201905081810360008301526128fd816123ee565b9050919050565b6000602082019050818103600083015261291d81612454565b9050919050565b6000602082019050818103600083015261293d81612494565b9050919050565b6000602082019050818103600083015261295d816124fa565b9050919050565b6000602082019050818103600083015261297d81612560565b9050919050565b6000602082019050818103600083015261299d816125c6565b9050919050565b600060208201905081810360008301526129bd8161262c565b9050919050565b60006020820190506129d96000830184612692565b92915050565b6000604051905081810181811067ffffffffffffffff82111715612a0657612a05612e3b565b5b8060405250919050565b600067ffffffffffffffff821115612a2b57612a2a612e3b565b5b601f19601f8301169050602081019050919050565b600081519050919050565b600081519050919050565b600082825260208201905092915050565b600082825260208201905092915050565b600081905092915050565b6000612a8e82612c15565b9150612a9983612c15565b9250827fffffffffffffffffffffffffffffffffffffffffffffffffffffffffffffffff03821115612ace57612acd612d7f565b5b828201905092915050565b6000612ae482612c15565b9150612aef83612c15565b925082612aff57612afe612dae565b5b828204905092915050565b6000612b1582612c15565b9150612b2083612c15565b9250817fffffffffffffffffffffffffffffffffffffffffffffffffffffffffffffffff0483118215151615612b5957612b58612d7f565b5b828202905092915050565b6000612b6f82612c15565b9150612b7a83612c15565b925082821015612b8d57612b8c612d7f565b5b828203905092915050565b6000612ba382612bf5565b9050919050565b60008115159050919050565b60007fffffffff0000000000000000000000000000000000000000000000000000000082169050919050565b6000819050612bf082612e7b565b919050565b600073ffffffffffffffffffffffffffffffffffffffff82169050919050565b6000819050919050565b6000612c2a82612c43565b9050919050565b6000612c3c82612be2565b9050919050565b6000612c4e82612c55565b9050919050565b6000612c6082612bf5565b9050919050565b82818337600083830152505050565b60005b83811015612c94578082015181840152602081019050612c79565b83811115612ca3576000848401525b50505050565b6000612cb482612c15565b91506000821415612cc857612cc7612d7f565b5b600182039050919050565b60006002820490506001821680612ceb57607f821691505b60208210811415612cff57612cfe612e0c565b5b50919050565b6000612d1082612c15565b91507fffffffffffffffffffffffffffffffffffffffffffffffffffffffffffffffff821415612d4357612d42612d7f565b5b600182019050919050565b6000612d5982612c15565b9150612d6483612c15565b925082612d7457612d73612dae565b5b828206905092915050565b7f4e487b7100000000000000000000000000000000000000000000000000000000600052601160045260246000fd5b7f4e487b7100000000000000000000000000000000000000000000000000000000600052601260045260246000fd5b7f4e487b7100000000000000000000000000000000000000000000000000000000600052602160045260246000fd5b7f4e487b7100000000000000000000000000000000000000000000000000000000600052602260045260246000fd5b7f4e487b7100000000000000000000000000000000000000000000000000000000600052604160045260246000fd5b6000601f19601f8301169050919050565b60068110612e8c57612e8b612ddd565b5b50565b612e9881612b98565b8114612ea357600080fd5b50565b612eaf81612baa565b8114612eba57600080fd5b50565b612ec681612bb6565b8114612ed157600080fd5b50565b60068110612ee157600080fd5b50565b612eed81612c15565b8114612ef857600080fd5b5056fea26469706673582212208d6ec9d483eb64c26b5c3219669ef54b53b0fec09cd19889900caead1e56763b64736f6c63430008000033",
  "immutableReferences": {},
  "source": "// SPDX-License-Identifier: UNLICENSED\r\npragma solidity 0.8.0;\r\nimport \"@openzeppelin/contracts/token/ERC721/ERC721.sol\";\r\n\r\ncontract Event is ERC721 {\r\n\r\n    enum Stages { Prep, Active, Paused, CheckinOpen, Cancelled, Closed }\r\n    Stages public stage = Stages.Prep;\r\n    // Ticket struct \r\n    struct Ticket {\r\n        address owner;\r\n        uint price;\r\n        bool forSale;\r\n        bool used;\r\n    }\r\n    Ticket[] tickets; \r\n    uint numTicketsLeft;\r\n    uint price;\r\n    // Percent royalty event creator receives from ticket resales\r\n    uint royaltyPercent;\r\n    // For each user, store corresponding ticket struct\r\n    // mapping(address => Ticket) tickets;\r\n    bool canBeResold;\r\n    address public owner;\r\n\r\n    // EVENTS\r\n    event CreateNFTTicket(address buyer, uint NFTID);\r\n    event TicketSold(address seller, address buyer, uint ticketID);\r\n\r\n    // Creates a new Event Contract\r\n    constructor(uint _numTickets, uint _price, bool _canBeResold, uint _royaltyPercent) ERC721(\"EventName\", \"EventSymbol\") {\r\n        owner = msg.sender;\r\n        numTicketsLeft = _numTickets;\r\n        price = _price;\r\n        canBeResold = _canBeResold;\r\n        royaltyPercent = _royaltyPercent;\r\n    }\r\n\r\n    // Customer purchases a ticket from Organizer\r\n    // Checks: State is Active, has enough money, \r\n    function buyTicket() public payable requiredStage(Stages.Active) ticketsLeft hasEnoughMoney(msg.value) {\r\n        // Create Ticket t\r\n        Ticket memory t;\r\n        t.owner = msg.sender;\r\n        t.price = price;\r\n        t.forSale = false;\r\n        t.used = false;\r\n\r\n        // Store t in tickets array, reduce numTicketsLeft\r\n        tickets.push(t);\r\n        uint NFTID = tickets.length;\r\n        numTicketsLeft--;\r\n\r\n        // Mint NFT\r\n        _mint(msg.sender, NFTID);\r\n        emit CreateNFTTicket(msg.sender, NFTID);\r\n    }\r\n\r\n    function buyTicketFromUser(address userAdd, uint ticketID) public payable requiredStage(Stages.Active) hasEnoughMoney(msg.value) canBeSold(ticketID) {\r\n        address payable seller = payable(userAdd);\r\n\r\n        uint ticketPrice = tickets[ticketID].price;\r\n        uint royalty = (royaltyPercent/100) * ticketPrice;\r\n        uint priceToPay = ticketPrice - royalty;\r\n\r\n        seller.transfer(priceToPay);\r\n        tickets[ticketID].forSale = false;\r\n        emit TicketSold(seller, msg.sender, ticketID);\r\n    }\r\n\r\n    // Set new stage\r\n    function setStage(Stages _stage) public {\r\n        stage = _stage;\r\n    }\r\n\r\n\r\n\r\n\r\n    // MODIFIERS\r\n\r\n    // Requires stage to be _stage\r\n    modifier requiredStage(Stages _stage) {\r\n        require(stage == _stage);\r\n        _;\r\n    }\r\n\r\n    // Requires there to be more than 0 tickets left\r\n    modifier ticketsLeft() {\r\n        require(numTicketsLeft > 0);\r\n        _;\r\n    }\r\n\r\n    modifier hasEnoughMoney(uint money) {\r\n        require(money >= price);\r\n        _;\r\n    }\r\n\r\n    modifier canBeSold(uint ticketID) {\r\n        require(tickets[ticketID].forSale == true, \"ticket not for sale\");\r\n        _;\r\n    }\r\n\r\n}",
  "sourcePath": "C:/Users/ManTheMith/Desktop/COMP6452/proj/comp6452-nft/src/contracts/Event.sol",
  "compiler": {
    "name": "solc",
    "version": "0.8.0+commit.c7dfd78e.Emscripten.clang"
  },
  "schemaVersion": "3.4.1",
  "updatedAt": "2021-07-16T08:16:15.068Z",
  "networkType": "ethereum",
  "devdoc": {
    "kind": "dev",
    "methods": {
      "approve(address,uint256)": {
        "details": "See {IERC721-approve}."
      },
      "balanceOf(address)": {
        "details": "See {IERC721-balanceOf}."
      },
      "getApproved(uint256)": {
        "details": "See {IERC721-getApproved}."
      },
      "isApprovedForAll(address,address)": {
        "details": "See {IERC721-isApprovedForAll}."
      },
      "name()": {
        "details": "See {IERC721Metadata-name}."
      },
      "ownerOf(uint256)": {
        "details": "See {IERC721-ownerOf}."
      },
      "safeTransferFrom(address,address,uint256)": {
        "details": "See {IERC721-safeTransferFrom}."
      },
      "safeTransferFrom(address,address,uint256,bytes)": {
        "details": "See {IERC721-safeTransferFrom}."
      },
      "setApprovalForAll(address,bool)": {
        "details": "See {IERC721-setApprovalForAll}."
      },
      "supportsInterface(bytes4)": {
        "details": "See {IERC165-supportsInterface}."
      },
      "symbol()": {
        "details": "See {IERC721Metadata-symbol}."
      },
      "tokenURI(uint256)": {
        "details": "See {IERC721Metadata-tokenURI}."
      },
      "transferFrom(address,address,uint256)": {
        "details": "See {IERC721-transferFrom}."
      }
    },
    "version": 1
  },
  "userdoc": {
    "kind": "user",
    "methods": {},
    "version": 1
  }
}