{
  "contractName": "Event",
  "abi": [
    {
      "inputs": [
        {
          "internalType": "uint256",
          "name": "_numTickets",
          "type": "uint256"
        },
        {
          "internalType": "uint256",
          "name": "_price",
          "type": "uint256"
        },
        {
          "internalType": "bool",
          "name": "_canBeResold",
          "type": "bool"
        },
        {
          "internalType": "uint256",
          "name": "_royaltyPercent",
          "type": "uint256"
        }
      ],
      "stateMutability": "nonpayable",
      "type": "constructor"
    },
    {
      "anonymous": false,
      "inputs": [
        {
          "indexed": true,
          "internalType": "address",
          "name": "owner",
          "type": "address"
        },
        {
          "indexed": true,
          "internalType": "address",
          "name": "approved",
          "type": "address"
        },
        {
          "indexed": true,
          "internalType": "uint256",
          "name": "tokenId",
          "type": "uint256"
        }
      ],
      "name": "Approval",
      "type": "event"
    },
    {
      "anonymous": false,
      "inputs": [
        {
          "indexed": true,
          "internalType": "address",
          "name": "owner",
          "type": "address"
        },
        {
          "indexed": true,
          "internalType": "address",
          "name": "operator",
          "type": "address"
        },
        {
          "indexed": false,
          "internalType": "bool",
          "name": "approved",
          "type": "bool"
        }
      ],
      "name": "ApprovalForAll",
      "type": "event"
    },
    {
      "anonymous": false,
      "inputs": [
        {
          "indexed": false,
          "internalType": "address",
          "name": "buyer",
          "type": "address"
        },
        {
          "indexed": false,
          "internalType": "uint256",
          "name": "NFTID",
          "type": "uint256"
        }
      ],
      "name": "CreateNFTTicket",
      "type": "event"
    },
    {
      "anonymous": false,
      "inputs": [
        {
          "indexed": false,
          "internalType": "address",
          "name": "organizer",
          "type": "address"
        },
        {
          "indexed": false,
          "internalType": "address",
          "name": "receiver",
          "type": "address"
        },
        {
          "indexed": false,
          "internalType": "uint256",
          "name": "money",
          "type": "uint256"
        }
      ],
      "name": "Refund",
      "type": "event"
    },
    {
      "anonymous": false,
      "inputs": [
        {
          "indexed": true,
          "internalType": "address",
          "name": "from",
          "type": "address"
        },
        {
          "indexed": true,
          "internalType": "address",
          "name": "to",
          "type": "address"
        },
        {
          "indexed": true,
          "internalType": "uint256",
          "name": "tokenId",
          "type": "uint256"
        }
      ],
      "name": "Transfer",
      "type": "event"
    },
    {
      "anonymous": false,
      "inputs": [
        {
          "indexed": false,
          "internalType": "address",
          "name": "receiver",
          "type": "address"
        },
        {
          "indexed": false,
          "internalType": "uint256",
          "name": "money",
          "type": "uint256"
        }
      ],
      "name": "WithdrawalMoney",
      "type": "event"
    },
    {
      "inputs": [
        {
          "internalType": "address",
          "name": "to",
          "type": "address"
        },
        {
          "internalType": "uint256",
          "name": "tokenId",
          "type": "uint256"
        }
      ],
      "name": "approve",
      "outputs": [],
      "stateMutability": "nonpayable",
      "type": "function"
    },
    {
      "inputs": [
        {
          "internalType": "address",
          "name": "owner",
          "type": "address"
        }
      ],
      "name": "balanceOf",
      "outputs": [
        {
          "internalType": "uint256",
          "name": "",
          "type": "uint256"
        }
      ],
      "stateMutability": "view",
      "type": "function"
    },
    {
      "inputs": [
        {
          "internalType": "uint256",
          "name": "tokenId",
          "type": "uint256"
        }
      ],
      "name": "getApproved",
      "outputs": [
        {
          "internalType": "address",
          "name": "",
          "type": "address"
        }
      ],
      "stateMutability": "view",
      "type": "function"
    },
    {
      "inputs": [
        {
          "internalType": "address",
          "name": "owner",
          "type": "address"
        },
        {
          "internalType": "address",
          "name": "operator",
          "type": "address"
        }
      ],
      "name": "isApprovedForAll",
      "outputs": [
        {
          "internalType": "bool",
          "name": "",
          "type": "bool"
        }
      ],
      "stateMutability": "view",
      "type": "function"
    },
    {
      "inputs": [],
      "name": "name",
      "outputs": [
        {
          "internalType": "string",
          "name": "",
          "type": "string"
        }
      ],
      "stateMutability": "view",
      "type": "function"
    },
    {
      "inputs": [],
      "name": "owner",
      "outputs": [
        {
          "internalType": "address",
          "name": "",
          "type": "address"
        }
      ],
      "stateMutability": "view",
      "type": "function"
    },
    {
      "inputs": [
        {
          "internalType": "uint256",
          "name": "tokenId",
          "type": "uint256"
        }
      ],
      "name": "ownerOf",
      "outputs": [
        {
          "internalType": "address",
          "name": "",
          "type": "address"
        }
      ],
      "stateMutability": "view",
      "type": "function"
    },
    {
      "inputs": [
        {
          "internalType": "address",
          "name": "from",
          "type": "address"
        },
        {
          "internalType": "address",
          "name": "to",
          "type": "address"
        },
        {
          "internalType": "uint256",
          "name": "tokenId",
          "type": "uint256"
        }
      ],
      "name": "safeTransferFrom",
      "outputs": [],
      "stateMutability": "nonpayable",
      "type": "function"
    },
    {
      "inputs": [
        {
          "internalType": "address",
          "name": "from",
          "type": "address"
        },
        {
          "internalType": "address",
          "name": "to",
          "type": "address"
        },
        {
          "internalType": "uint256",
          "name": "tokenId",
          "type": "uint256"
        },
        {
          "internalType": "bytes",
          "name": "_data",
          "type": "bytes"
        }
      ],
      "name": "safeTransferFrom",
      "outputs": [],
      "stateMutability": "nonpayable",
      "type": "function"
    },
    {
      "inputs": [
        {
          "internalType": "address",
          "name": "operator",
          "type": "address"
        },
        {
          "internalType": "bool",
          "name": "approved",
          "type": "bool"
        }
      ],
      "name": "setApprovalForAll",
      "outputs": [],
      "stateMutability": "nonpayable",
      "type": "function"
    },
    {
      "inputs": [],
      "name": "stage",
      "outputs": [
        {
          "internalType": "enum Event.Stages",
          "name": "",
          "type": "uint8"
        }
      ],
      "stateMutability": "view",
      "type": "function"
    },
    {
      "inputs": [
        {
          "internalType": "bytes4",
          "name": "interfaceId",
          "type": "bytes4"
        }
      ],
      "name": "supportsInterface",
      "outputs": [
        {
          "internalType": "bool",
          "name": "",
          "type": "bool"
        }
      ],
      "stateMutability": "view",
      "type": "function"
    },
    {
      "inputs": [],
      "name": "symbol",
      "outputs": [
        {
          "internalType": "string",
          "name": "",
          "type": "string"
        }
      ],
      "stateMutability": "view",
      "type": "function"
    },
    {
      "inputs": [
        {
          "internalType": "uint256",
          "name": "tokenId",
          "type": "uint256"
        }
      ],
      "name": "tokenURI",
      "outputs": [
        {
          "internalType": "string",
          "name": "",
          "type": "string"
        }
      ],
      "stateMutability": "view",
      "type": "function"
    },
    {
      "inputs": [
        {
          "internalType": "address",
          "name": "from",
          "type": "address"
        },
        {
          "internalType": "address",
          "name": "to",
          "type": "address"
        },
        {
          "internalType": "uint256",
          "name": "tokenId",
          "type": "uint256"
        }
      ],
      "name": "transferFrom",
      "outputs": [],
      "stateMutability": "nonpayable",
      "type": "function"
    },
    {
      "inputs": [],
      "name": "buyTicket",
      "outputs": [],
      "stateMutability": "payable",
      "type": "function"
    },
    {
      "inputs": [
        {
          "internalType": "enum Event.Stages",
          "name": "_stage",
          "type": "uint8"
        }
      ],
      "name": "setStage",
      "outputs": [],
      "stateMutability": "nonpayable",
      "type": "function"
    },
    {
      "inputs": [
        {
          "internalType": "address",
          "name": "receiver",
          "type": "address"
        },
        {
          "internalType": "uint256",
          "name": "money",
          "type": "uint256"
        }
      ],
      "name": "refund",
      "outputs": [
        {
          "internalType": "bool",
          "name": "success",
          "type": "bool"
        }
      ],
      "stateMutability": "nonpayable",
      "type": "function"
    },
    {
      "inputs": [
        {
          "internalType": "uint256",
          "name": "money",
          "type": "uint256"
        }
      ],
      "name": "withdrawal",
      "outputs": [
        {
          "internalType": "bool",
          "name": "success",
          "type": "bool"
        }
      ],
      "stateMutability": "nonpayable",
      "type": "function"
    }
  ],
  "bytecode": "0x60806040526000600660006101000a81548160ff0219169083600581111562000051577f4e487b7100000000000000000000000000000000000000000000000000000000600052602160045260246000fd5b02179055503480156200006357600080fd5b506040516200342438038062003424833981810160405281019062000089919062000281565b6040518060400160405280600981526020017f4576656e744e616d6500000000000000000000000000000000000000000000008152506040518060400160405280600b81526020017f4576656e7453796d626f6c00000000000000000000000000000000000000000081525081600090805190602001906200010d929190620001a3565b50806001908051906020019062000126929190620001a3565b50505033600b60016101000a81548173ffffffffffffffffffffffffffffffffffffffff021916908373ffffffffffffffffffffffffffffffffffffffff160217905550836008819055508260098190555081600b60006101000a81548160ff02191690831515021790555080600a81905550505050506200039c565b828054620001b19062000303565b90600052602060002090601f016020900481019282620001d5576000855562000221565b82601f10620001f057805160ff191683800117855562000221565b8280016001018555821562000221579182015b828111156200022057825182559160200191906001019062000203565b5b50905062000230919062000234565b5090565b5b808211156200024f57600081600090555060010162000235565b5090565b600081519050620002648162000368565b92915050565b6000815190506200027b8162000382565b92915050565b600080600080608085870312156200029857600080fd5b6000620002a8878288016200026a565b9450506020620002bb878288016200026a565b9350506040620002ce8782880162000253565b9250506060620002e1878288016200026a565b91505092959194509250565b60008115159050919050565b6000819050919050565b600060028204905060018216806200031c57607f821691505b6020821081141562000333576200033262000339565b5b50919050565b7f4e487b7100000000000000000000000000000000000000000000000000000000600052602260045260246000fd5b6200037381620002ed565b81146200037f57600080fd5b50565b6200038d81620002f9565b81146200039957600080fd5b50565b61307880620003ac6000396000f3fe6080604052600436106101145760003560e01c8063835fc6ca116100a0578063c040e6b811610064578063c040e6b8146103d5578063c87b56dd14610400578063ce3cd9971461043d578063e985e9c514610466578063edca914c146104a357610114565b8063835fc6ca146102f05780638da5cb5b1461032d57806395d89b4114610358578063a22cb46514610383578063b88d4fde146103ac57610114565b806323b872dd116100e757806323b872dd146101e7578063410085df1461021057806342842e0e1461024d5780636352211e1461027657806370a08231146102b357610114565b806301ffc9a71461011957806306fdde0314610156578063081812fc14610181578063095ea7b3146101be575b600080fd5b34801561012557600080fd5b50610140600480360381019061013b919061210d565b6104ad565b60405161014d9190612943565b60405180910390f35b34801561016257600080fd5b5061016b61058f565b6040516101789190612979565b60405180910390f35b34801561018d57600080fd5b506101a860048036038101906101a39190612188565b610621565b6040516101b5919061287c565b60405180910390f35b3480156101ca57600080fd5b506101e560048036038101906101e091906120d1565b6106a6565b005b3480156101f357600080fd5b5061020e60048036038101906102099190611fcb565b6107be565b005b34801561021c57600080fd5b50610237600480360381019061023291906120d1565b61081e565b6040516102449190612943565b60405180910390f35b34801561025957600080fd5b50610274600480360381019061026f9190611fcb565b610a30565b005b34801561028257600080fd5b5061029d60048036038101906102989190612188565b610a50565b6040516102aa919061287c565b60405180910390f35b3480156102bf57600080fd5b506102da60048036038101906102d59190611f66565b610b02565b6040516102e79190612b9b565b60405180910390f35b3480156102fc57600080fd5b5061031760048036038101906103129190612188565b610bba565b6040516103249190612943565b60405180910390f35b34801561033957600080fd5b50610342610cd6565b60405161034f919061287c565b60405180910390f35b34801561036457600080fd5b5061036d610cfc565b60405161037a9190612979565b60405180910390f35b34801561038f57600080fd5b506103aa60048036038101906103a59190612095565b610d8e565b005b3480156103b857600080fd5b506103d360048036038101906103ce919061201a565b610f0f565b005b3480156103e157600080fd5b506103ea610f71565b6040516103f7919061295e565b60405180910390f35b34801561040c57600080fd5b5061042760048036038101906104229190612188565b610f84565b6040516104349190612979565b60405180910390f35b34801561044957600080fd5b50610464600480360381019061045f919061215f565b61102b565b005b34801561047257600080fd5b5061048d60048036038101906104889190611f8f565b61107e565b60405161049a9190612943565b60405180910390f35b6104ab611112565b005b60007f80ac58cd000000000000000000000000000000000000000000000000000000007bffffffffffffffffffffffffffffffffffffffffffffffffffffffff1916827bffffffffffffffffffffffffffffffffffffffffffffffffffffffff1916148061057857507f5b5e139f000000000000000000000000000000000000000000000000000000007bffffffffffffffffffffffffffffffffffffffffffffffffffffffff1916827bffffffffffffffffffffffffffffffffffffffffffffffffffffffff1916145b806105885750610587826113d0565b5b9050919050565b60606000805461059e90612e1a565b80601f01602080910402602001604051908101604052809291908181526020018280546105ca90612e1a565b80156106175780601f106105ec57610100808354040283529160200191610617565b820191906000526020600020905b8154815290600101906020018083116105fa57829003601f168201915b5050505050905090565b600061062c8261143a565b61066b576040517f08c379a000000000000000000000000000000000000000000000000000000000815260040161066290612afb565b60405180910390fd5b6004600083815260200190815260200160002060009054906101000a900473ffffffffffffffffffffffffffffffffffffffff169050919050565b60006106b182610a50565b90508073ffffffffffffffffffffffffffffffffffffffff168373ffffffffffffffffffffffffffffffffffffffff161415610722576040517f08c379a000000000000000000000000000000000000000000000000000000000815260040161071990612b5b565b60405180910390fd5b8073ffffffffffffffffffffffffffffffffffffffff166107416114a6565b73ffffffffffffffffffffffffffffffffffffffff161480610770575061076f8161076a6114a6565b61107e565b5b6107af576040517f08c379a00000000000000000000000000000000000000000000000000000000081526004016107a690612a7b565b60405180910390fd5b6107b983836114ae565b505050565b6107cf6107c96114a6565b82611567565b61080e576040517f08c379a000000000000000000000000000000000000000000000000000000000815260040161080590612b7b565b60405180910390fd5b610819838383611645565b505050565b6000600b60019054906101000a900473ffffffffffffffffffffffffffffffffffffffff1673ffffffffffffffffffffffffffffffffffffffff163373ffffffffffffffffffffffffffffffffffffffff16146108b0576040517f08c379a00000000000000000000000000000000000000000000000000000000081526004016108a79061299b565b60405180910390fd5b600082116108bd57600080fd5b81600c60003373ffffffffffffffffffffffffffffffffffffffff1673ffffffffffffffffffffffffffffffffffffffff16815260200190815260200160002054101561093f576040517f08c379a0000000000000000000000000000000000000000000000000000000008152600401610936906129bb565b60405180910390fd5b7ff40cc8c1a1d17359049ba500cfc894596a692cffc9d03943cd92ec2e159cf6ae33848460405161097293929190612897565b60405180910390a181600c60003373ffffffffffffffffffffffffffffffffffffffff1673ffffffffffffffffffffffffffffffffffffffff16815260200190815260200160002060008282546109c99190612ce1565b9250508190555081600c60008573ffffffffffffffffffffffffffffffffffffffff1673ffffffffffffffffffffffffffffffffffffffff1681526020019081526020016000206000828254610a1f9190612c5a565b925050819055506001905092915050565b610a4b83838360405180602001604052806000815250610f0f565b505050565b6000806002600084815260200190815260200160002060009054906101000a900473ffffffffffffffffffffffffffffffffffffffff169050600073ffffffffffffffffffffffffffffffffffffffff168173ffffffffffffffffffffffffffffffffffffffff161415610af9576040517f08c379a0000000000000000000000000000000000000000000000000000000008152600401610af090612abb565b60405180910390fd5b80915050919050565b60008073ffffffffffffffffffffffffffffffffffffffff168273ffffffffffffffffffffffffffffffffffffffff161415610b73576040517f08c379a0000000000000000000000000000000000000000000000000000000008152600401610b6a90612a9b565b60405180910390fd5b600360008373ffffffffffffffffffffffffffffffffffffffff1673ffffffffffffffffffffffffffffffffffffffff168152602001908152602001600020549050919050565b600081600c60003373ffffffffffffffffffffffffffffffffffffffff1673ffffffffffffffffffffffffffffffffffffffff168152602001908152602001600020541015610c3e576040517f08c379a0000000000000000000000000000000000000000000000000000000008152600401610c35906129bb565b60405180910390fd5b7fda69b20ff5228b13ac2372306ba0db8546b14caac27fd9e43768da6b04838d673383604051610c6f92919061291a565b60405180910390a181600c60003373ffffffffffffffffffffffffffffffffffffffff1673ffffffffffffffffffffffffffffffffffffffff1681526020019081526020016000206000828254610cc69190612ce1565b9250508190555060019050919050565b600b60019054906101000a900473ffffffffffffffffffffffffffffffffffffffff1681565b606060018054610d0b90612e1a565b80601f0160208091040260200160405190810160405280929190818152602001828054610d3790612e1a565b8015610d845780601f10610d5957610100808354040283529160200191610d84565b820191906000526020600020905b815481529060010190602001808311610d6757829003601f168201915b5050505050905090565b610d966114a6565b73ffffffffffffffffffffffffffffffffffffffff168273ffffffffffffffffffffffffffffffffffffffff161415610e04576040517f08c379a0000000000000000000000000000000000000000000000000000000008152600401610dfb90612a3b565b60405180910390fd5b8060056000610e116114a6565b73ffffffffffffffffffffffffffffffffffffffff1673ffffffffffffffffffffffffffffffffffffffff16815260200190815260200160002060008473ffffffffffffffffffffffffffffffffffffffff1673ffffffffffffffffffffffffffffffffffffffff16815260200190815260200160002060006101000a81548160ff0219169083151502179055508173ffffffffffffffffffffffffffffffffffffffff16610ebe6114a6565b73ffffffffffffffffffffffffffffffffffffffff167f17307eab39ab6107e8899845ad3d59bd9653f200f220920489ca2b5937696c3183604051610f039190612943565b60405180910390a35050565b610f20610f1a6114a6565b83611567565b610f5f576040517f08c379a0000000000000000000000000000000000000000000000000000000008152600401610f5690612b7b565b60405180910390fd5b610f6b848484846118a1565b50505050565b600660009054906101000a900460ff1681565b6060610f8f8261143a565b610fce576040517f08c379a0000000000000000000000000000000000000000000000000000000008152600401610fc590612b3b565b60405180910390fd5b6000610fd86118fd565b90506000815111610ff85760405180602001604052806000815250611023565b8061100284611914565b604051602001611013929190612858565b6040516020818303038152906040525b915050919050565b80600660006101000a81548160ff02191690836005811115611076577f4e487b7100000000000000000000000000000000000000000000000000000000600052602160045260246000fd5b021790555050565b6000600560008473ffffffffffffffffffffffffffffffffffffffff1673ffffffffffffffffffffffffffffffffffffffff16815260200190815260200160002060008373ffffffffffffffffffffffffffffffffffffffff1673ffffffffffffffffffffffffffffffffffffffff16815260200190815260200160002060009054906101000a900460ff16905092915050565b600180600581111561114d577f4e487b7100000000000000000000000000000000000000000000000000000000600052602160045260246000fd5b600660009054906101000a900460ff166005811115611195577f4e487b7100000000000000000000000000000000000000000000000000000000600052602160045260246000fd5b1461119f57600080fd5b6000600854116111ae57600080fd5b346009548110156111be57600080fd5b6111c6611e3e565b33816000019073ffffffffffffffffffffffffffffffffffffffff16908173ffffffffffffffffffffffffffffffffffffffff168152505060095481602001818152505060008160400190151590811515815250506000816060019015159081151581525050600781908060018154018082558091505060019003906000526020600020906003020160009091909190915060008201518160000160006101000a81548173ffffffffffffffffffffffffffffffffffffffff021916908373ffffffffffffffffffffffffffffffffffffffff1602179055506020820151816001015560408201518160020160006101000a81548160ff02191690831515021790555060608201518160020160016101000a81548160ff0219169083151502179055505050600060078054905090506008600081548092919061130890612df0565b9190505550600954600c6000600b60019054906101000a900473ffffffffffffffffffffffffffffffffffffffff1673ffffffffffffffffffffffffffffffffffffffff1673ffffffffffffffffffffffffffffffffffffffff16815260200190815260200160002060008282546113809190612c5a565b925050819055506113913382611ac1565b7f93eeda3ba32b6c8680fa8458ef9dd061ee3fcc7d1d9c142f93b1a5e5c1aa418a33826040516113c292919061291a565b60405180910390a150505050565b60007f01ffc9a7000000000000000000000000000000000000000000000000000000007bffffffffffffffffffffffffffffffffffffffffffffffffffffffff1916827bffffffffffffffffffffffffffffffffffffffffffffffffffffffff1916149050919050565b60008073ffffffffffffffffffffffffffffffffffffffff166002600084815260200190815260200160002060009054906101000a900473ffffffffffffffffffffffffffffffffffffffff1673ffffffffffffffffffffffffffffffffffffffff1614159050919050565b600033905090565b816004600083815260200190815260200160002060006101000a81548173ffffffffffffffffffffffffffffffffffffffff021916908373ffffffffffffffffffffffffffffffffffffffff160217905550808273ffffffffffffffffffffffffffffffffffffffff1661152183610a50565b73ffffffffffffffffffffffffffffffffffffffff167f8c5be1e5ebec7d5bd14f71427d1e84f3dd0314c0f7b2291e5b200ac8c7c3b92560405160405180910390a45050565b60006115728261143a565b6115b1576040517f08c379a00000000000000000000000000000000000000000000000000000000081526004016115a890612a5b565b60405180910390fd5b60006115bc83610a50565b90508073ffffffffffffffffffffffffffffffffffffffff168473ffffffffffffffffffffffffffffffffffffffff16148061162b57508373ffffffffffffffffffffffffffffffffffffffff1661161384610621565b73ffffffffffffffffffffffffffffffffffffffff16145b8061163c575061163b818561107e565b5b91505092915050565b8273ffffffffffffffffffffffffffffffffffffffff1661166582610a50565b73ffffffffffffffffffffffffffffffffffffffff16146116bb576040517f08c379a00000000000000000000000000000000000000000000000000000000081526004016116b290612b1b565b60405180910390fd5b600073ffffffffffffffffffffffffffffffffffffffff168273ffffffffffffffffffffffffffffffffffffffff16141561172b576040517f08c379a000000000000000000000000000000000000000000000000000000000815260040161172290612a1b565b60405180910390fd5b611736838383611c8f565b6117416000826114ae565b6001600360008573ffffffffffffffffffffffffffffffffffffffff1673ffffffffffffffffffffffffffffffffffffffff16815260200190815260200160002060008282546117919190612ce1565b925050819055506001600360008473ffffffffffffffffffffffffffffffffffffffff1673ffffffffffffffffffffffffffffffffffffffff16815260200190815260200160002060008282546117e89190612c5a565b92505081905550816002600083815260200190815260200160002060006101000a81548173ffffffffffffffffffffffffffffffffffffffff021916908373ffffffffffffffffffffffffffffffffffffffff160217905550808273ffffffffffffffffffffffffffffffffffffffff168473ffffffffffffffffffffffffffffffffffffffff167fddf252ad1be2c89b69c2b068fc378daa952ba7f163c4a11628f55a4df523b3ef60405160405180910390a4505050565b6118ac848484611645565b6118b884848484611c94565b6118f7576040517f08c379a00000000000000000000000000000000000000000000000000000000081526004016118ee906129db565b60405180910390fd5b50505050565b606060405180602001604052806000815250905090565b6060600082141561195c576040518060400160405280600181526020017f30000000000000000000000000000000000000000000000000000000000000008152509050611abc565b600082905060005b6000821461198e57808061197790612e4c565b915050600a826119879190612cb0565b9150611964565b60008167ffffffffffffffff8111156119d0577f4e487b7100000000000000000000000000000000000000000000000000000000600052604160045260246000fd5b6040519080825280601f01601f191660200182016040528015611a025781602001600182028036833780820191505090505b5090505b60008514611ab557600182611a1b9190612ce1565b9150600a85611a2a9190612e95565b6030611a369190612c5a565b60f81b818381518110611a72577f4e487b7100000000000000000000000000000000000000000000000000000000600052603260045260246000fd5b60200101907effffffffffffffffffffffffffffffffffffffffffffffffffffffffffffff1916908160001a905350600a85611aae9190612cb0565b9450611a06565b8093505050505b919050565b600073ffffffffffffffffffffffffffffffffffffffff168273ffffffffffffffffffffffffffffffffffffffff161415611b31576040517f08c379a0000000000000000000000000000000000000000000000000000000008152600401611b2890612adb565b60405180910390fd5b611b3a8161143a565b15611b7a576040517f08c379a0000000000000000000000000000000000000000000000000000000008152600401611b71906129fb565b60405180910390fd5b611b8660008383611c8f565b6001600360008473ffffffffffffffffffffffffffffffffffffffff1673ffffffffffffffffffffffffffffffffffffffff1681526020019081526020016000206000828254611bd69190612c5a565b92505081905550816002600083815260200190815260200160002060006101000a81548173ffffffffffffffffffffffffffffffffffffffff021916908373ffffffffffffffffffffffffffffffffffffffff160217905550808273ffffffffffffffffffffffffffffffffffffffff16600073ffffffffffffffffffffffffffffffffffffffff167fddf252ad1be2c89b69c2b068fc378daa952ba7f163c4a11628f55a4df523b3ef60405160405180910390a45050565b505050565b6000611cb58473ffffffffffffffffffffffffffffffffffffffff16611e2b565b15611e1e578373ffffffffffffffffffffffffffffffffffffffff1663150b7a02611cde6114a6565b8786866040518563ffffffff1660e01b8152600401611d0094939291906128ce565b602060405180830381600087803b158015611d1a57600080fd5b505af1925050508015611d4b57506040513d601f19601f82011682018060405250810190611d489190612136565b60015b611dce573d8060008114611d7b576040519150601f19603f3d011682016040523d82523d6000602084013e611d80565b606091505b50600081511415611dc6576040517f08c379a0000000000000000000000000000000000000000000000000000000008152600401611dbd906129db565b60405180910390fd5b805181602001fd5b63150b7a0260e01b7bffffffffffffffffffffffffffffffffffffffffffffffffffffffff1916817bffffffffffffffffffffffffffffffffffffffffffffffffffffffff191614915050611e23565b600190505b949350505050565b600080823b905060008111915050919050565b6040518060800160405280600073ffffffffffffffffffffffffffffffffffffffff168152602001600081526020016000151581526020016000151581525090565b6000611e93611e8e84612be7565b612bb6565b905082815260208101848484011115611eab57600080fd5b611eb6848285612dae565b509392505050565b600081359050611ecd81612fd6565b92915050565b600081359050611ee281612fed565b92915050565b600081359050611ef781613004565b92915050565b600081519050611f0c81613004565b92915050565b600082601f830112611f2357600080fd5b8135611f33848260208601611e80565b91505092915050565b600081359050611f4b8161301b565b92915050565b600081359050611f608161302b565b92915050565b600060208284031215611f7857600080fd5b6000611f8684828501611ebe565b91505092915050565b60008060408385031215611fa257600080fd5b6000611fb085828601611ebe565b9250506020611fc185828601611ebe565b9150509250929050565b600080600060608486031215611fe057600080fd5b6000611fee86828701611ebe565b9350506020611fff86828701611ebe565b925050604061201086828701611f51565b9150509250925092565b6000806000806080858703121561203057600080fd5b600061203e87828801611ebe565b945050602061204f87828801611ebe565b935050604061206087828801611f51565b925050606085013567ffffffffffffffff81111561207d57600080fd5b61208987828801611f12565b91505092959194509250565b600080604083850312156120a857600080fd5b60006120b685828601611ebe565b92505060206120c785828601611ed3565b9150509250929050565b600080604083850312156120e457600080fd5b60006120f285828601611ebe565b925050602061210385828601611f51565b9150509250929050565b60006020828403121561211f57600080fd5b600061212d84828501611ee8565b91505092915050565b60006020828403121561214857600080fd5b600061215684828501611efd565b91505092915050565b60006020828403121561217157600080fd5b600061217f84828501611f3c565b91505092915050565b60006020828403121561219a57600080fd5b60006121a884828501611f51565b91505092915050565b6121ba81612d15565b82525050565b6121c981612d27565b82525050565b60006121da82612c17565b6121e48185612c2d565b93506121f4818560208601612dbd565b6121fd81612fb1565b840191505092915050565b61221181612d9c565b82525050565b600061222282612c22565b61222c8185612c3e565b935061223c818560208601612dbd565b61224581612fb1565b840191505092915050565b600061225b82612c22565b6122658185612c4f565b9350612275818560208601612dbd565b80840191505092915050565b600061228e602583612c3e565b91507f43616e206f6e6c7920626520657865637574656420627920746865206f72676160008301527f6e697a65720000000000000000000000000000000000000000000000000000006020830152604082019050919050565b60006122f4601083612c3e565b91507f4e6f7420656e6f756768206d6f6e6579000000000000000000000000000000006000830152602082019050919050565b6000612334603283612c3e565b91507f4552433732313a207472616e7366657220746f206e6f6e20455243373231526560008301527f63656976657220696d706c656d656e74657200000000000000000000000000006020830152604082019050919050565b600061239a601c83612c3e565b91507f4552433732313a20746f6b656e20616c7265616479206d696e746564000000006000830152602082019050919050565b60006123da602483612c3e565b91507f4552433732313a207472616e7366657220746f20746865207a65726f2061646460008301527f72657373000000000000000000000000000000000000000000000000000000006020830152604082019050919050565b6000612440601983612c3e565b91507f4552433732313a20617070726f766520746f2063616c6c6572000000000000006000830152602082019050919050565b6000612480602c83612c3e565b91507f4552433732313a206f70657261746f7220717565727920666f72206e6f6e657860008301527f697374656e7420746f6b656e00000000000000000000000000000000000000006020830152604082019050919050565b60006124e6603883612c3e565b91507f4552433732313a20617070726f76652063616c6c6572206973206e6f74206f7760008301527f6e6572206e6f7220617070726f76656420666f7220616c6c00000000000000006020830152604082019050919050565b600061254c602a83612c3e565b91507f4552433732313a2062616c616e636520717565727920666f7220746865207a6560008301527f726f2061646472657373000000000000000000000000000000000000000000006020830152604082019050919050565b60006125b2602983612c3e565b91507f4552433732313a206f776e657220717565727920666f72206e6f6e657869737460008301527f656e7420746f6b656e00000000000000000000000000000000000000000000006020830152604082019050919050565b6000612618602083612c3e565b91507f4552433732313a206d696e7420746f20746865207a65726f20616464726573736000830152602082019050919050565b6000612658602c83612c3e565b91507f4552433732313a20617070726f76656420717565727920666f72206e6f6e657860008301527f697374656e7420746f6b656e00000000000000000000000000000000000000006020830152604082019050919050565b60006126be602983612c3e565b91507f4552433732313a207472616e73666572206f6620746f6b656e2074686174206960008301527f73206e6f74206f776e00000000000000000000000000000000000000000000006020830152604082019050919050565b6000612724602f83612c3e565b91507f4552433732314d657461646174613a2055524920717565727920666f72206e6f60008301527f6e6578697374656e7420746f6b656e00000000000000000000000000000000006020830152604082019050919050565b600061278a602183612c3e565b91507f4552433732313a20617070726f76616c20746f2063757272656e74206f776e6560008301527f72000000000000000000000000000000000000000000000000000000000000006020830152604082019050919050565b60006127f0603183612c3e565b91507f4552433732313a207472616e736665722063616c6c6572206973206e6f74206f60008301527f776e6572206e6f7220617070726f7665640000000000000000000000000000006020830152604082019050919050565b61285281612d92565b82525050565b60006128648285612250565b91506128708284612250565b91508190509392505050565b600060208201905061289160008301846121b1565b92915050565b60006060820190506128ac60008301866121b1565b6128b960208301856121b1565b6128c66040830184612849565b949350505050565b60006080820190506128e360008301876121b1565b6128f060208301866121b1565b6128fd6040830185612849565b818103606083015261290f81846121cf565b905095945050505050565b600060408201905061292f60008301856121b1565b61293c6020830184612849565b9392505050565b600060208201905061295860008301846121c0565b92915050565b60006020820190506129736000830184612208565b92915050565b600060208201905081810360008301526129938184612217565b905092915050565b600060208201905081810360008301526129b481612281565b9050919050565b600060208201905081810360008301526129d4816122e7565b9050919050565b600060208201905081810360008301526129f481612327565b9050919050565b60006020820190508181036000830152612a148161238d565b9050919050565b60006020820190508181036000830152612a34816123cd565b9050919050565b60006020820190508181036000830152612a5481612433565b9050919050565b60006020820190508181036000830152612a7481612473565b9050919050565b60006020820190508181036000830152612a94816124d9565b9050919050565b60006020820190508181036000830152612ab48161253f565b9050919050565b60006020820190508181036000830152612ad4816125a5565b9050919050565b60006020820190508181036000830152612af48161260b565b9050919050565b60006020820190508181036000830152612b148161264b565b9050919050565b60006020820190508181036000830152612b34816126b1565b9050919050565b60006020820190508181036000830152612b5481612717565b9050919050565b60006020820190508181036000830152612b748161277d565b9050919050565b60006020820190508181036000830152612b94816127e3565b9050919050565b6000602082019050612bb06000830184612849565b92915050565b6000604051905081810181811067ffffffffffffffff82111715612bdd57612bdc612f82565b5b8060405250919050565b600067ffffffffffffffff821115612c0257612c01612f82565b5b601f19601f8301169050602081019050919050565b600081519050919050565b600081519050919050565b600082825260208201905092915050565b600082825260208201905092915050565b600081905092915050565b6000612c6582612d92565b9150612c7083612d92565b9250827fffffffffffffffffffffffffffffffffffffffffffffffffffffffffffffffff03821115612ca557612ca4612ec6565b5b828201905092915050565b6000612cbb82612d92565b9150612cc683612d92565b925082612cd657612cd5612ef5565b5b828204905092915050565b6000612cec82612d92565b9150612cf783612d92565b925082821015612d0a57612d09612ec6565b5b828203905092915050565b6000612d2082612d72565b9050919050565b60008115159050919050565b60007fffffffff0000000000000000000000000000000000000000000000000000000082169050919050565b6000819050612d6d82612fc2565b919050565b600073ffffffffffffffffffffffffffffffffffffffff82169050919050565b6000819050919050565b6000612da782612d5f565b9050919050565b82818337600083830152505050565b60005b83811015612ddb578082015181840152602081019050612dc0565b83811115612dea576000848401525b50505050565b6000612dfb82612d92565b91506000821415612e0f57612e0e612ec6565b5b600182039050919050565b60006002820490506001821680612e3257607f821691505b60208210811415612e4657612e45612f53565b5b50919050565b6000612e5782612d92565b91507fffffffffffffffffffffffffffffffffffffffffffffffffffffffffffffffff821415612e8a57612e89612ec6565b5b600182019050919050565b6000612ea082612d92565b9150612eab83612d92565b925082612ebb57612eba612ef5565b5b828206905092915050565b7f4e487b7100000000000000000000000000000000000000000000000000000000600052601160045260246000fd5b7f4e487b7100000000000000000000000000000000000000000000000000000000600052601260045260246000fd5b7f4e487b7100000000000000000000000000000000000000000000000000000000600052602160045260246000fd5b7f4e487b7100000000000000000000000000000000000000000000000000000000600052602260045260246000fd5b7f4e487b7100000000000000000000000000000000000000000000000000000000600052604160045260246000fd5b6000601f19601f8301169050919050565b60068110612fd357612fd2612f24565b5b50565b612fdf81612d15565b8114612fea57600080fd5b50565b612ff681612d27565b811461300157600080fd5b50565b61300d81612d33565b811461301857600080fd5b50565b6006811061302857600080fd5b50565b61303481612d92565b811461303f57600080fd5b5056fea2646970667358221220a7fb687590ee1cb449998a82a7143ec3a80e17db77cc544b6575a28d8b9002d164736f6c63430008000033",
  "immutableReferences": {},
  "source": "// SPDX-License-Identifier: UNLICENSED\npragma solidity 0.8.0;\nimport \"@openzeppelin/contracts/token/ERC721/ERC721.sol\";\n\ncontract Event is ERC721 {\n\n    enum Stages { Prep, Active, Paused, CheckinOpen, Cancelled, Closed }\n    Stages public stage = Stages.Prep;\n    // Ticket struct \n    struct Ticket {\n        address owner;\n        uint price;\n        bool forSale;\n        bool used;\n    }\n    Ticket[] tickets; \n    uint numTicketsLeft;\n    uint price;\n    // Percent royalty event creator receives from ticket resales\n    uint royaltyPercent;\n    // For each user, store corresponding ticket struct\n    // mapping(address => Ticket) tickets;\n    bool canBeResold;\n    address public owner;\n    mapping(address => uint256) balance;\n\n    // EVENTS\n    event CreateNFTTicket(address buyer, uint NFTID);\n    event WithdrawalMoney(address receiver, uint money);\n    event Refund(address organizer, address receiver, uint money);\n\n    // Creates a new Event Contract\n    constructor(uint _numTickets, uint _price, bool _canBeResold, uint _royaltyPercent) ERC721(\"EventName\", \"EventSymbol\") {\n        owner = msg.sender;\n        numTicketsLeft = _numTickets;\n        price = _price;\n        canBeResold = _canBeResold;\n        royaltyPercent = _royaltyPercent;\n    }\n\n    // Customer purchases a ticket from Organizer\n    // Checks: State is Active, has enough money, \n    function buyTicket() public payable requiredStage(Stages.Active) ticketsLeft hasEnoughMoney(msg.value) {\n        // Create Ticket t\n        Ticket memory t;\n        t.owner = msg.sender;\n        t.price = price;\n        t.forSale = false;\n        t.used = false;\n\n        // Store t in tickets array, reduce numTicketsLeft\n        tickets.push(t);\n        uint NFTID = tickets.length;\n        numTicketsLeft--;\n        \n        // new added\n        balance[owner] += price;\n\n        // Mint NFT\n        _mint(msg.sender, NFTID);\n        emit CreateNFTTicket(msg.sender, NFTID);\n    }\n\n    // Set new stage\n    function setStage(Stages _stage) public {\n        stage = _stage;\n    }\n\n\n\n    function refund(address receiver, uint money) public isOrganizer returns (bool success){\n        require (money > 0);\n        require(balance[msg.sender] >= money, \"Not enough money\");\n        emit Refund(msg.sender, receiver, money);\n        balance[msg.sender] -= money;\n        balance[receiver] += money;\n        return true;\n    }\n    \n\n    function withdrawal(uint money) public returns (bool success){\n        require(balance[msg.sender] >= money, \"Not enough money\");\n        emit WithdrawalMoney(msg.sender, money);\n        balance[msg.sender] -= money;\n        return true;\n    }\n\n\n    // MODIFIERS\n\n    // Requires stage to be _stage\n    modifier requiredStage(Stages _stage) {\n        require(stage == _stage);\n        _;\n    }\n\n    // Requires there to be more than 0 tickets left\n    modifier ticketsLeft() {\n        require(numTicketsLeft > 0);\n        _;\n    }\n\n    modifier hasEnoughMoney(uint money) {\n        require(money >= price);\n        _;\n    }\n    \n    modifier isOrganizer () {\n        require (msg.sender == owner , \"Can only be executed by the organizer\");\n        _;\n    }\n}\n\n",
  "sourcePath": "/home/young/Documents/study/comp6452/comp6452-nft/src/contracts/Event.sol",
  "compiler": {
    "name": "solc",
    "version": "0.8.0+commit.c7dfd78e.Emscripten.clang"
  },
  "schemaVersion": "3.4.1",
  "updatedAt": "2021-07-16T09:10:06.243Z",
  "devdoc": {
    "kind": "dev",
    "methods": {
      "approve(address,uint256)": {
        "details": "See {IERC721-approve}."
      },
      "balanceOf(address)": {
        "details": "See {IERC721-balanceOf}."
      },
      "getApproved(uint256)": {
        "details": "See {IERC721-getApproved}."
      },
      "isApprovedForAll(address,address)": {
        "details": "See {IERC721-isApprovedForAll}."
      },
      "name()": {
        "details": "See {IERC721Metadata-name}."
      },
      "ownerOf(uint256)": {
        "details": "See {IERC721-ownerOf}."
      },
      "safeTransferFrom(address,address,uint256)": {
        "details": "See {IERC721-safeTransferFrom}."
      },
      "safeTransferFrom(address,address,uint256,bytes)": {
        "details": "See {IERC721-safeTransferFrom}."
      },
      "setApprovalForAll(address,bool)": {
        "details": "See {IERC721-setApprovalForAll}."
      },
      "supportsInterface(bytes4)": {
        "details": "See {IERC165-supportsInterface}."
      },
      "symbol()": {
        "details": "See {IERC721Metadata-symbol}."
      },
      "tokenURI(uint256)": {
        "details": "See {IERC721Metadata-tokenURI}."
      },
      "transferFrom(address,address,uint256)": {
        "details": "See {IERC721-transferFrom}."
      }
    },
    "version": 1
  },
  "userdoc": {
    "kind": "user",
    "methods": {},
    "version": 1
  }
}