{
  "contractName": "EventCreator",
  "abi": [
    {
      "anonymous": false,
      "inputs": [
        {
          "indexed": false,
          "internalType": "address",
          "name": "_creator",
          "type": "address"
        },
        {
          "indexed": false,
          "internalType": "address",
          "name": "_event",
          "type": "address"
        }
      ],
      "name": "CreateEvent",
      "type": "event"
    },
    {
      "inputs": [
        {
          "internalType": "uint256",
          "name": "",
          "type": "uint256"
        }
      ],
      "name": "events",
      "outputs": [
        {
          "internalType": "contract Event",
          "name": "",
          "type": "address"
        }
      ],
      "stateMutability": "view",
      "type": "function"
    },
    {
      "inputs": [
        {
          "internalType": "uint256",
          "name": "_numTickets",
          "type": "uint256"
        },
        {
          "internalType": "uint128",
          "name": "_price",
          "type": "uint128"
        },
        {
          "internalType": "bool",
          "name": "_canBeResold",
          "type": "bool"
        },
        {
          "internalType": "uint128",
          "name": "_royaltyPercent",
          "type": "uint128"
        },
        {
          "internalType": "string",
          "name": "_eventName",
          "type": "string"
        },
        {
          "internalType": "string",
          "name": "_eventSymbol",
          "type": "string"
        }
      ],
      "name": "createEvent",
      "outputs": [
        {
          "internalType": "address",
          "name": "newEvent",
          "type": "address"
        }
      ],
      "stateMutability": "nonpayable",
      "type": "function"
    },
    {
      "inputs": [],
      "name": "getEventCount",
      "outputs": [
        {
          "internalType": "uint256",
          "name": "contractCount",
          "type": "uint256"
        }
      ],
      "stateMutability": "view",
      "type": "function"
    },
    {
      "inputs": [],
      "name": "getEvents",
      "outputs": [
        {
          "internalType": "contract Event[]",
          "name": "_events",
          "type": "address[]"
        }
      ],
      "stateMutability": "view",
      "type": "function"
    }
  ],
  "bytecode": "0x608060405234801561001057600080fd5b5061715c806100206000396000f3fe60806040523480156200001157600080fd5b50600436106200006f576000357c0100000000000000000000000000000000000000000000000000000000900480630b7914301462000074578063164a135514620000aa578063404aa8f914620000e0578063d9e48f5c1462000102575b600080fd5b6200009260048036038101906200008c9190620004b0565b62000124565b604051620000a19190620007c8565b60405180910390f35b620000c86004803603810190620000c29190620004dc565b62000164565b604051620000d79190620006cf565b60405180910390f35b620000ea62000260565b604051620000f99190620007a4565b60405180910390f35b6200010c620003df565b6040516200011b9190620007e5565b60405180910390f35b600081815481106200013557600080fd5b906000526020600020016000915054906101000a900473ffffffffffffffffffffffffffffffffffffffff1681565b600080338888888888886040516200017c90620003eb565b6200018e979695949392919062000719565b604051809103906000f080158015620001ab573d6000803e3d6000fd5b5090506000819080600181540180825580915050600190039060005260206000200160009091909190916101000a81548173ffffffffffffffffffffffffffffffffffffffff021916908373ffffffffffffffffffffffffffffffffffffffff16021790555060008190507f64f31017a670226c80c75659d4bb64bf5bb7f8490fef658f1be89d99583fe304338260405162000249929190620006ec565b60405180910390a180925050509695505050505050565b606060008054905067ffffffffffffffff811115620002a8577f4e487b7100000000000000000000000000000000000000000000000000000000600052604160045260246000fd5b604051908082528060200260200182016040528015620002d75781602001602082028036833780820191505090505b50905060005b600080549050811015620003db576000818154811062000326577f4e487b7100000000000000000000000000000000000000000000000000000000600052603260045260246000fd5b9060005260206000200160009054906101000a900473ffffffffffffffffffffffffffffffffffffffff168282815181106200038b577f4e487b7100000000000000000000000000000000000000000000000000000000600052603260045260246000fd5b602002602001019073ffffffffffffffffffffffffffffffffffffffff16908173ffffffffffffffffffffffffffffffffffffffff16815250508080620003d29062000991565b915050620002dd565b5090565b60008080549050905090565b61668a8062000a9d83390190565b6000620004106200040a8462000836565b62000802565b9050828152602081018484840111156200042957600080fd5b620004368482856200094c565b509392505050565b6000813590506200044f8162000a4e565b92915050565b600082601f8301126200046757600080fd5b813562000479848260208601620003f9565b91505092915050565b600081359050620004938162000a68565b92915050565b600081359050620004aa8162000a82565b92915050565b600060208284031215620004c357600080fd5b6000620004d38482850162000499565b91505092915050565b60008060008060008060c08789031215620004f657600080fd5b60006200050689828a0162000499565b96505060206200051989828a0162000482565b95505060406200052c89828a016200043e565b94505060606200053f89828a0162000482565b935050608087013567ffffffffffffffff8111156200055d57600080fd5b6200056b89828a0162000455565b92505060a087013567ffffffffffffffff8111156200058957600080fd5b6200059789828a0162000455565b9150509295509295509295565b6000620005b283836200064a565b60208301905092915050565b620005c981620008be565b82525050565b6000620005dc8262000879565b620005e881856200089c565b9350620005f58362000869565b8060005b838110156200062c578151620006108882620005a4565b97506200061d836200088f565b925050600181019050620005f9565b5085935050505092915050565b6200064481620008d2565b82525050565b620006558162000924565b82525050565b620006668162000924565b82525050565b6000620006798262000884565b620006858185620008ad565b9350620006978185602086016200095b565b620006a28162000a3d565b840191505092915050565b620006b881620008de565b82525050565b620006c9816200091a565b82525050565b6000602082019050620006e66000830184620005be565b92915050565b6000604082019050620007036000830185620005be565b620007126020830184620005be565b9392505050565b600060e08201905062000730600083018a620005be565b6200073f6020830189620006be565b6200074e6040830188620006ad565b6200075d606083018762000639565b6200076c6080830186620006ad565b81810360a08301526200078081856200066c565b905081810360c08301526200079681846200066c565b905098975050505050505050565b60006020820190508181036000830152620007c08184620005cf565b905092915050565b6000602082019050620007df60008301846200065b565b92915050565b6000602082019050620007fc6000830184620006be565b92915050565b6000604051905081810181811067ffffffffffffffff821117156200082c576200082b62000a0e565b5b8060405250919050565b600067ffffffffffffffff82111562000854576200085362000a0e565b5b601f19601f8301169050602081019050919050565b6000819050602082019050919050565b600081519050919050565b600081519050919050565b6000602082019050919050565b600082825260208201905092915050565b600082825260208201905092915050565b6000620008cb82620008fa565b9050919050565b60008115159050919050565b60006fffffffffffffffffffffffffffffffff82169050919050565b600073ffffffffffffffffffffffffffffffffffffffff82169050919050565b6000819050919050565b6000620009318262000938565b9050919050565b60006200094582620008fa565b9050919050565b82818337600083830152505050565b60005b838110156200097b5780820151818401526020810190506200095e565b838111156200098b576000848401525b50505050565b60006200099e826200091a565b91507fffffffffffffffffffffffffffffffffffffffffffffffffffffffffffffffff821415620009d457620009d3620009df565b5b600182019050919050565b7f4e487b7100000000000000000000000000000000000000000000000000000000600052601160045260246000fd5b7f4e487b7100000000000000000000000000000000000000000000000000000000600052604160045260246000fd5b6000601f19601f8301169050919050565b62000a5981620008d2565b811462000a6557600080fd5b50565b62000a7381620008de565b811462000a7f57600080fd5b50565b62000a8d816200091a565b811462000a9957600080fd5b5056fe60806040523480156200001157600080fd5b506040516200668a3803806200668a833981810160405281019062000037919062000479565b8181816000908051906020019062000051929190620002fb565b5080600190805190602001906200006a929190620002fb565b5050506000836fffffffffffffffffffffffffffffffff1610158015620000a457506064836fffffffffffffffffffffffffffffffff1611155b620000e6576040517f08c379a0000000000000000000000000000000000000000000000000000000008152600401620000dd90620006ac565b60405180910390fd5b600086116200012c576040517f08c379a00000000000000000000000000000000000000000000000000000000081526004016200012390620006ce565b60405180910390fd5b600082905060008290506000825114156200017e576040517f08c379a0000000000000000000000000000000000000000000000000000000008152600401620001759062000712565b60405180910390fd5b600081511415620001c6576040517f08c379a0000000000000000000000000000000000000000000000000000000008152600401620001bd90620006f0565b60405180910390fd5b88600a60026101000a81548173ffffffffffffffffffffffffffffffffffffffff021916908373ffffffffffffffffffffffffffffffffffffffff1602179055508760098190555086600860006101000a8154816fffffffffffffffffffffffffffffffff02191690836fffffffffffffffffffffffffffffffff16021790555085600a60006101000a81548160ff02191690831515021790555084600860106101000a8154816fffffffffffffffffffffffffffffffff02191690836fffffffffffffffffffffffffffffffff1602179055506000600660006101000a81548160ff02191690836005811115620002e7577f4e487b7100000000000000000000000000000000000000000000000000000000600052602160045260246000fd5b021790555050505050505050505062000944565b828054620003099062000848565b90600052602060002090601f0160209004810192826200032d576000855562000379565b82601f106200034857805160ff191683800117855562000379565b8280016001018555821562000379579182015b82811115620003785782518255916020019190600101906200035b565b5b5090506200038891906200038c565b5090565b5b80821115620003a75760008160009055506001016200038d565b5090565b6000620003c2620003bc8462000768565b62000734565b905082815260208101848484011115620003db57600080fd5b620003e884828562000812565b509392505050565b6000815190506200040181620008dc565b92915050565b6000815190506200041881620008f6565b92915050565b600082601f8301126200043057600080fd5b815162000442848260208601620003ab565b91505092915050565b6000815190506200045c8162000910565b92915050565b60008151905062000473816200092a565b92915050565b600080600080600080600060e0888a0312156200049557600080fd5b6000620004a58a828b01620003f0565b9750506020620004b88a828b0162000462565b9650506040620004cb8a828b016200044b565b9550506060620004de8a828b0162000407565b9450506080620004f18a828b016200044b565b93505060a088015167ffffffffffffffff8111156200050f57600080fd5b6200051d8a828b016200041e565b92505060c088015167ffffffffffffffff8111156200053b57600080fd5b620005498a828b016200041e565b91505092959891949750929550565b600062000567602c836200079b565b91507f526f79616c74792050657263656e74616765206d75737420626520626574776560008301527f656e203020616e642031303000000000000000000000000000000000000000006020830152604082019050919050565b6000620005cf602c836200079b565b91507f546865206e756d626572206f66207469636b657473206d75737420626520677260008301527f6561746572207468616e203000000000000000000000000000000000000000006020830152604082019050919050565b600062000637601c836200079b565b91507f4576656e742053796d626f6c2063616e6e6f7420626520656d707479000000006000830152602082019050919050565b600062000679601a836200079b565b91507f4576656e74204e616d652063616e6e6f7420626520656d7074790000000000006000830152602082019050919050565b60006020820190508181036000830152620006c78162000558565b9050919050565b60006020820190508181036000830152620006e981620005c0565b9050919050565b600060208201905081810360008301526200070b8162000628565b9050919050565b600060208201905081810360008301526200072d816200066a565b9050919050565b6000604051905081810181811067ffffffffffffffff821117156200075e576200075d620008ad565b5b8060405250919050565b600067ffffffffffffffff821115620007865762000785620008ad565b5b601f19601f8301169050602081019050919050565b600082825260208201905092915050565b6000620007b982620007e8565b9050919050565b60008115159050919050565b60006fffffffffffffffffffffffffffffffff82169050919050565b600073ffffffffffffffffffffffffffffffffffffffff82169050919050565b6000819050919050565b60005b838110156200083257808201518184015260208101905062000815565b8381111562000842576000848401525b50505050565b600060028204905060018216806200086157607f821691505b602082108114156200087857620008776200087e565b5b50919050565b7f4e487b7100000000000000000000000000000000000000000000000000000000600052602260045260246000fd5b7f4e487b7100000000000000000000000000000000000000000000000000000000600052604160045260246000fd5b620008e781620007ac565b8114620008f357600080fd5b50565b6200090181620007c0565b81146200090d57600080fd5b50565b6200091b81620007cc565b81146200092757600080fd5b50565b620009358162000808565b81146200094157600080fd5b50565b615d3680620009546000396000f3fe608060405260043610610221576000357c0100000000000000000000000000000000000000000000000000000000900480638da5cb5b11610135578063a51bba8c116100bd578063c87b56dd1161008c578063c87b56dd146107b5578063ce3cd997146107f2578063da24df5f1461082f578063e985e9c51461086c578063edca914c146108a957610221565b8063a51bba8c1461070b578063b3874c0d14610736578063b88d4fde14610761578063c040e6b81461078a57610221565b806395ee12211161010457806395ee1221146106385780639aecd64a146106635780639f67756d1461068c578063a035b1fe146106b7578063a22cb465146106e257610221565b80638da5cb5b1461057a57806393bbd9df146105a557806394d51fc0146105d057806395d89b411461060d57610221565b80632f31707c116101b85780634680a424116101875780634680a4241461045b57806350b44712146104985780636352211e146104d757806370a0823114610514578063830473741461055157610221565b80632f31707c146103d45780633ccfd60b1461040457806342842e0e1461041b5780634311de8f1461044457610221565b8063095ea7b3116101f4578063095ea7b31461030857806318b3822f1461033157806323b872dd1461036e57806327e235e31461039757610221565b806301ffc9a71461022657806302216d331461026357806306fdde03146102a0578063081812fc146102cb575b600080fd5b34801561023257600080fd5b5061024d60048036038101906102489190614368565b6108c7565b60405161025a9190615283565b60405180910390f35b34801561026f57600080fd5b5061028a600480360381019061028591906143e3565b6109a9565b6040516102979190615117565b60405180910390f35b3480156102ac57600080fd5b506102b56109e6565b6040516102c291906152b9565b60405180910390f35b3480156102d757600080fd5b506102f260048036038101906102ed91906143e3565b610a78565b6040516102ff9190615117565b60405180910390f35b34801561031457600080fd5b5061032f600480360381019061032a919061432c565b610afd565b005b34801561033d57600080fd5b506103586004803603810190610353919061440c565b610c15565b60405161036591906152b9565b60405180910390f35b34801561037a57600080fd5b5061039560048036038101906103909190614226565b610f4e565b005b3480156103a357600080fd5b506103be60048036038101906103b991906141c1565b610fae565b6040516103cb919061570d565b60405180910390f35b6103ee60048036038101906103e991906143e3565b610fc6565b6040516103fb9190615283565b60405180910390f35b34801561041057600080fd5b50610419611526565b005b34801561042757600080fd5b50610442600480360381019061043d9190614226565b61188d565b005b34801561045057600080fd5b506104596118ad565b005b34801561046757600080fd5b50610482600480360381019061047d91906141c1565b611bfa565b60405161048f9190615283565b60405180910390f35b3480156104a457600080fd5b506104bf60048036038101906104ba91906143e3565b611c1a565b6040516104ce939291906156d6565b60405180910390f35b3480156104e357600080fd5b506104fe60048036038101906104f991906143e3565b611c99565b60405161050b9190615117565b60405180910390f35b34801561052057600080fd5b5061053b600480360381019061053691906141c1565b611d4b565b604051610548919061570d565b60405180910390f35b34801561055d57600080fd5b50610578600480360381019061057391906143e3565b611e03565b005b34801561058657600080fd5b5061058f611fbe565b60405161059c9190615132565b60405180910390f35b3480156105b157600080fd5b506105ba611fe4565b6040516105c79190615261565b60405180910390f35b3480156105dc57600080fd5b506105f760048036038101906105f291906143e3565b61215e565b6040516106049190615117565b60405180910390f35b34801561061957600080fd5b50610622612191565b60405161062f91906152b9565b60405180910390f35b34801561064457600080fd5b5061064d612223565b60405161065a9190615283565b60405180910390f35b34801561066f57600080fd5b5061068a6004803603810190610685919061432c565b612236565b005b34801561069857600080fd5b506106a1612389565b6040516106ae91906156bb565b60405180910390f35b3480156106c357600080fd5b506106cc6123ab565b6040516106d991906156bb565b60405180910390f35b3480156106ee57600080fd5b50610709600480360381019061070491906142f0565b6123cd565b005b34801561071757600080fd5b5061072061254e565b60405161072d919061570d565b60405180910390f35b34801561074257600080fd5b5061074b612554565b6040516107589190615283565b60405180910390f35b34801561076d57600080fd5b5061078860048036038101906107839190614275565b612567565b005b34801561079657600080fd5b5061079f6125c9565b6040516107ac919061529e565b60405180910390f35b3480156107c157600080fd5b506107dc60048036038101906107d791906143e3565b6125dc565b6040516107e991906152b9565b60405180910390f35b3480156107fe57600080fd5b50610819600480360381019061081491906143ba565b612683565b604051610826919061529e565b60405180910390f35b34801561083b57600080fd5b5061085660048036038101906108519190614460565b6128d8565b6040516108639190615283565b60405180910390f35b34801561087857600080fd5b50610893600480360381019061088e91906141ea565b612cd7565b6040516108a09190615283565b60405180910390f35b6108b1612d6b565b6040516108be919061570d565b60405180910390f35b60007f80ac58cd000000000000000000000000000000000000000000000000000000007bffffffffffffffffffffffffffffffffffffffffffffffffffffffff1916827bffffffffffffffffffffffffffffffffffffffffffffffffffffffff1916148061099257507f5b5e139f000000000000000000000000000000000000000000000000000000007bffffffffffffffffffffffffffffffffffffffffffffffffffffffff1916827bffffffffffffffffffffffffffffffffffffffffffffffffffffffff1916145b806109a257506109a182613392565b5b9050919050565b6000600d600083815260200190815260200160002060009054906101000a900473ffffffffffffffffffffffffffffffffffffffff169050919050565b6060600080546109f590615aad565b80601f0160208091040260200160405190810160405280929190818152602001828054610a2190615aad565b8015610a6e5780601f10610a4357610100808354040283529160200191610a6e565b820191906000526020600020905b815481529060010190602001808311610a5157829003601f168201915b5050505050905090565b6000610a83826133fc565b610ac2576040517f08c379a0000000000000000000000000000000000000000000000000000000008152600401610ab99061557b565b60405180910390fd5b6004600083815260200190815260200160002060009054906101000a900473ffffffffffffffffffffffffffffffffffffffff169050919050565b6000610b0882611c99565b90508073ffffffffffffffffffffffffffffffffffffffff168373ffffffffffffffffffffffffffffffffffffffff161415610b79576040517f08c379a0000000000000000000000000000000000000000000000000000000008152600401610b70906155db565b60405180910390fd5b8073ffffffffffffffffffffffffffffffffffffffff16610b98613468565b73ffffffffffffffffffffffffffffffffffffffff161480610bc75750610bc681610bc1613468565b612cd7565b5b610c06576040517f08c379a0000000000000000000000000000000000000000000000000000000008152600401610bfd906154bb565b60405180910390fd5b610c108383613470565b505050565b60606003806005811115610c52577f4e487b7100000000000000000000000000000000000000000000000000000000600052602160045260246000fd5b600660009054906101000a900460ff166005811115610c9a577f4e487b7100000000000000000000000000000000000000000000000000000000600052602160045260246000fd5b14610cda576040517f08c379a0000000000000000000000000000000000000000000000000000000008152600401610cd19061539b565b60405180910390fd5b833373ffffffffffffffffffffffffffffffffffffffff16610cfb82611c99565b73ffffffffffffffffffffffffffffffffffffffff1614610d51576040517f08c379a0000000000000000000000000000000000000000000000000000000008152600401610d489061567b565b60405180910390fd5b60006002811115610d8b577f4e487b7100000000000000000000000000000000000000000000000000000000600052602160045260246000fd5b60078681548110610dc5577f4e487b7100000000000000000000000000000000000000000000000000000000600052603260045260246000fd5b906000526020600020906002020160010160009054906101000a900460ff166002811115610e1c577f4e487b7100000000000000000000000000000000000000000000000000000000600052602160045260246000fd5b14610e5c576040517f08c379a0000000000000000000000000000000000000000000000000000000008152600401610e539061549b565b60405180910390fd5b600160078681548110610e98577f4e487b7100000000000000000000000000000000000000000000000000000000600052603260045260246000fd5b906000526020600020906002020160010160006101000a81548160ff02191690836002811115610ef1577f4e487b7100000000000000000000000000000000000000000000000000000000600052602160045260246000fd5b0217905550610eff85613529565b7fad735fea640d2273c159ca0571101d62d2fa19a0d10e2cd97fcc2c2f30410df13086610f2a6109e6565b87604051610f3b949392919061520e565b60405180910390a1839250505092915050565b610f5f610f59613468565b8261363a565b610f9e576040517f08c379a0000000000000000000000000000000000000000000000000000000008152600401610f95906155fb565b60405180910390fd5b610fa9838383613718565b505050565b600b6020528060005260406000206000915090505481565b60006001806005811115611003577f4e487b7100000000000000000000000000000000000000000000000000000000600052602160045260246000fd5b600660009054906101000a900460ff16600581111561104b577f4e487b7100000000000000000000000000000000000000000000000000000000600052602160045260246000fd5b1461108b576040517f08c379a00000000000000000000000000000000000000000000000000000000081526004016110829061539b565b60405180910390fd5b34600860009054906101000a90046fffffffffffffffffffffffffffffffff166fffffffffffffffffffffffffffffffff168110156110ff576040517f08c379a00000000000000000000000000000000000000000000000000000000081526004016110f69061545b565b60405180910390fd5b600280811115611138577f4e487b7100000000000000000000000000000000000000000000000000000000600052602160045260246000fd5b60078581548110611172577f4e487b7100000000000000000000000000000000000000000000000000000000600052603260045260246000fd5b906000526020600020906002020160010160009054906101000a900460ff1660028111156111c9577f4e487b7100000000000000000000000000000000000000000000000000000000600052602160045260246000fd5b14611209576040517f08c379a00000000000000000000000000000000000000000000000000000000081526004016112009061547b565b60405180910390fd5b600060078581548110611245577f4e487b7100000000000000000000000000000000000000000000000000000000600052603260045260246000fd5b906000526020600020906002020160000160109054906101000a90046fffffffffffffffffffffffffffffffff166fffffffffffffffffffffffffffffffff169050803411156112f7576000813461129d9190615921565b905080600b60003373ffffffffffffffffffffffffffffffffffffffff1673ffffffffffffffffffffffffffffffffffffffff16815260200190815260200160002060008282546112ee9190615840565b92505081905550505b6000606482600860109054906101000a90046fffffffffffffffffffffffffffffffff166fffffffffffffffffffffffffffffffff1661133791906158c7565b6113419190615896565b9050600081836113519190615921565b9050600061135e88611c99565b905081600b60008373ffffffffffffffffffffffffffffffffffffffff1673ffffffffffffffffffffffffffffffffffffffff16815260200190815260200160002060008282546113af9190615840565b9250508190555082600b6000600a60029054906101000a900473ffffffffffffffffffffffffffffffffffffffff1673ffffffffffffffffffffffffffffffffffffffff1673ffffffffffffffffffffffffffffffffffffffff16815260200190815260200160002060008282546114279190615840565b925050819055507ff43c2b94d59192e43ff5461a2ec018bcf2178e26af43252b9bb00e937ab5c843306114586109e6565b338b60405161146a9493929190615199565b60405180910390a161147d81338a61188d565b6000600789815481106114b9577f4e487b7100000000000000000000000000000000000000000000000000000000600052603260045260246000fd5b906000526020600020906002020160010160006101000a81548160ff02191690836002811115611512577f4e487b7100000000000000000000000000000000000000000000000000000000600052602160045260246000fd5b021790555060019650505050505050919050565b600a60029054906101000a900473ffffffffffffffffffffffffffffffffffffffff1673ffffffffffffffffffffffffffffffffffffffff163373ffffffffffffffffffffffffffffffffffffffff1614156115b7576040517f08c379a00000000000000000000000000000000000000000000000000000000081526004016115ae9061553b565b60405180910390fd5b6000600b60003373ffffffffffffffffffffffffffffffffffffffff1673ffffffffffffffffffffffffffffffffffffffff168152602001908152602001600020549050600a60019054906101000a900460ff168015611667575060001515600c60003373ffffffffffffffffffffffffffffffffffffffff1673ffffffffffffffffffffffffffffffffffffffff16815260200190815260200160002060009054906101000a900460ff161515145b156116be57600860009054906101000a90046fffffffffffffffffffffffffffffffff166fffffffffffffffffffffffffffffffff166116a633611d4b565b6116b091906158c7565b816116bb9190615840565b90505b60008111611701576040517f08c379a00000000000000000000000000000000000000000000000000000000081526004016116f89061541b565b60405180910390fd5b600033905060008173ffffffffffffffffffffffffffffffffffffffff168360405161172c90615102565b60006040518083038185875af1925050503d8060008114611769576040519150601f19603f3d011682016040523d82523d6000602084013e61176e565b606091505b50509050806117b2576040517f08c379a00000000000000000000000000000000000000000000000000000000081526004016117a99061551b565b60405180910390fd5b6000600b60003373ffffffffffffffffffffffffffffffffffffffff1673ffffffffffffffffffffffffffffffffffffffff168152602001908152602001600020819055506001600c60003373ffffffffffffffffffffffffffffffffffffffff1673ffffffffffffffffffffffffffffffffffffffff16815260200190815260200160002060006101000a81548160ff0219169083151502179055507f9fe2db218b58c00ab3556f2be44b2769b37978368c63313d82d78306568e477633846040516118809291906151e5565b60405180910390a1505050565b6118a883838360405180602001604052806000815250612567565b505050565b600a60029054906101000a900473ffffffffffffffffffffffffffffffffffffffff1673ffffffffffffffffffffffffffffffffffffffff163373ffffffffffffffffffffffffffffffffffffffff161461193d576040517f08c379a00000000000000000000000000000000000000000000000000000000081526004016119349061531b565b60405180910390fd5b6005806005811115611978577f4e487b7100000000000000000000000000000000000000000000000000000000600052602160045260246000fd5b600660009054906101000a900460ff1660058111156119c0577f4e487b7100000000000000000000000000000000000000000000000000000000600052602160045260246000fd5b14611a00576040517f08c379a00000000000000000000000000000000000000000000000000000000081526004016119f79061539b565b60405180910390fd5b6000600b6000600a60029054906101000a900473ffffffffffffffffffffffffffffffffffffffff1673ffffffffffffffffffffffffffffffffffffffff1673ffffffffffffffffffffffffffffffffffffffff16815260200190815260200160002054905060008111611aa9576040517f08c379a0000000000000000000000000000000000000000000000000000000008152600401611aa0906152db565b60405180910390fd5b60003373ffffffffffffffffffffffffffffffffffffffff1682604051611acf90615102565b60006040518083038185875af1925050503d8060008114611b0c576040519150601f19603f3d011682016040523d82523d6000602084013e611b11565b606091505b5050905080611b55576040517f08c379a0000000000000000000000000000000000000000000000000000000008152600401611b4c9061561b565b60405180910390fd5b6000600b6000600a60029054906101000a900473ffffffffffffffffffffffffffffffffffffffff1673ffffffffffffffffffffffffffffffffffffffff1673ffffffffffffffffffffffffffffffffffffffff168152602001908152602001600020819055507f5f0d69e5c0056ecc650fc0d2d916359037135dac3d5b5446d226dfdbe292482e3383604051611bed9291906151e5565b60405180910390a1505050565b600c6020528060005260406000206000915054906101000a900460ff1681565b60078181548110611c2a57600080fd5b90600052602060002090600202016000915090508060000160009054906101000a90046fffffffffffffffffffffffffffffffff16908060000160109054906101000a90046fffffffffffffffffffffffffffffffff16908060010160009054906101000a900460ff16905083565b6000806002600084815260200190815260200160002060009054906101000a900473ffffffffffffffffffffffffffffffffffffffff169050600073ffffffffffffffffffffffffffffffffffffffff168173ffffffffffffffffffffffffffffffffffffffff161415611d42576040517f08c379a0000000000000000000000000000000000000000000000000000000008152600401611d39906154fb565b60405180910390fd5b80915050919050565b60008073ffffffffffffffffffffffffffffffffffffffff168273ffffffffffffffffffffffffffffffffffffffff161415611dbc576040517f08c379a0000000000000000000000000000000000000000000000000000000008152600401611db3906154db565b60405180910390fd5b600360008373ffffffffffffffffffffffffffffffffffffffff1673ffffffffffffffffffffffffffffffffffffffff168152602001908152602001600020549050919050565b6001806005811115611e3e577f4e487b7100000000000000000000000000000000000000000000000000000000600052602160045260246000fd5b600660009054906101000a900460ff166005811115611e86577f4e487b7100000000000000000000000000000000000000000000000000000000600052602160045260246000fd5b14611ec6576040517f08c379a0000000000000000000000000000000000000000000000000000000008152600401611ebd9061539b565b60405180910390fd5b3373ffffffffffffffffffffffffffffffffffffffff16600d600084815260200190815260200160002060009054906101000a900473ffffffffffffffffffffffffffffffffffffffff1673ffffffffffffffffffffffffffffffffffffffff161415611f68576040517f08c379a0000000000000000000000000000000000000000000000000000000008152600401611f5f9061569b565b60405180910390fd5b33600d600084815260200190815260200160002060006101000a81548173ffffffffffffffffffffffffffffffffffffffff021916908373ffffffffffffffffffffffffffffffffffffffff1602179055505050565b600a60029054906101000a900473ffffffffffffffffffffffffffffffffffffffff1681565b60606007805480602002602001604051908101604052809291908181526020016000905b8282101561215557838290600052602060002090600202016040518060600160405290816000820160009054906101000a90046fffffffffffffffffffffffffffffffff166fffffffffffffffffffffffffffffffff166fffffffffffffffffffffffffffffffff1681526020016000820160109054906101000a90046fffffffffffffffffffffffffffffffff166fffffffffffffffffffffffffffffffff166fffffffffffffffffffffffffffffffff1681526020016001820160009054906101000a900460ff16600281111561210a577f4e487b7100000000000000000000000000000000000000000000000000000000600052602160045260246000fd5b6002811115612142577f4e487b7100000000000000000000000000000000000000000000000000000000600052602160045260246000fd5b8152505081526020019060010190612008565b50505050905090565b600d6020528060005260406000206000915054906101000a900473ffffffffffffffffffffffffffffffffffffffff1681565b6060600180546121a090615aad565b80601f01602080910402602001604051908101604052809291908181526020018280546121cc90615aad565b80156122195780601f106121ee57610100808354040283529160200191612219565b820191906000526020600020905b8154815290600101906020018083116121fc57829003601f168201915b5050505050905090565b600a60019054906101000a900460ff1681565b6001806005811115612271577f4e487b7100000000000000000000000000000000000000000000000000000000600052602160045260246000fd5b600660009054906101000a900460ff1660058111156122b9577f4e487b7100000000000000000000000000000000000000000000000000000000600052602160045260246000fd5b146122f9576040517f08c379a00000000000000000000000000000000000000000000000000000000081526004016122f09061539b565b60405180910390fd5b3373ffffffffffffffffffffffffffffffffffffffff1661231983611c99565b73ffffffffffffffffffffffffffffffffffffffff161461236f576040517f08c379a00000000000000000000000000000000000000000000000000000000081526004016123669061535b565b60405180910390fd5b61237a8360016123cd565b6123848383610afd565b505050565b600860109054906101000a90046fffffffffffffffffffffffffffffffff1681565b600860009054906101000a90046fffffffffffffffffffffffffffffffff1681565b6123d5613468565b73ffffffffffffffffffffffffffffffffffffffff168273ffffffffffffffffffffffffffffffffffffffff161415612443576040517f08c379a000000000000000000000000000000000000000000000000000000000815260040161243a906153fb565b60405180910390fd5b8060056000612450613468565b73ffffffffffffffffffffffffffffffffffffffff1673ffffffffffffffffffffffffffffffffffffffff16815260200190815260200160002060008473ffffffffffffffffffffffffffffffffffffffff1673ffffffffffffffffffffffffffffffffffffffff16815260200190815260200160002060006101000a81548160ff0219169083151502179055508173ffffffffffffffffffffffffffffffffffffffff166124fd613468565b73ffffffffffffffffffffffffffffffffffffffff167f17307eab39ab6107e8899845ad3d59bd9653f200f220920489ca2b5937696c31836040516125429190615283565b60405180910390a35050565b60095481565b600a60009054906101000a900460ff1681565b612578612572613468565b8361363a565b6125b7576040517f08c379a00000000000000000000000000000000000000000000000000000000081526004016125ae906155fb565b60405180910390fd5b6125c384848484613974565b50505050565b600660009054906101000a900460ff1681565b60606125e7826133fc565b612626576040517f08c379a000000000000000000000000000000000000000000000000000000000815260040161261d906155bb565b60405180910390fd5b60006126306139d0565b90506000815111612650576040518060200160405280600081525061267b565b8061265a846139e7565b60405160200161266b9291906150de565b6040516020818303038152906040525b915050919050565b6000600a60029054906101000a900473ffffffffffffffffffffffffffffffffffffffff1673ffffffffffffffffffffffffffffffffffffffff163373ffffffffffffffffffffffffffffffffffffffff1614612715576040517f08c379a000000000000000000000000000000000000000000000000000000000815260040161270c9061531b565b60405180910390fd5b81600660006101000a81548160ff02191690836005811115612760577f4e487b7100000000000000000000000000000000000000000000000000000000600052602160045260246000fd5b02179055506004600581111561279f577f4e487b7100000000000000000000000000000000000000000000000000000000600052602160045260246000fd5b600660009054906101000a900460ff1660058111156127e7577f4e487b7100000000000000000000000000000000000000000000000000000000600052602160045260246000fd5b14156128c1576001600a60016101000a81548160ff021916908315150217905550600780549050600860009054906101000a90046fffffffffffffffffffffffffffffffff166fffffffffffffffffffffffffffffffff1661284991906158c7565b600b6000600a60029054906101000a900473ffffffffffffffffffffffffffffffffffffffff1673ffffffffffffffffffffffffffffffffffffffff1673ffffffffffffffffffffffffffffffffffffffff16815260200190815260200160002060008282546128b99190615921565b925050819055505b600660009054906101000a900460ff169050919050565b60006001806005811115612915577f4e487b7100000000000000000000000000000000000000000000000000000000600052602160045260246000fd5b600660009054906101000a900460ff16600581111561295d577f4e487b7100000000000000000000000000000000000000000000000000000000600052602160045260246000fd5b1461299d576040517f08c379a00000000000000000000000000000000000000000000000000000000081526004016129949061539b565b60405180910390fd5b833373ffffffffffffffffffffffffffffffffffffffff166129be82611c99565b73ffffffffffffffffffffffffffffffffffffffff1614612a14576040517f08c379a0000000000000000000000000000000000000000000000000000000008152600401612a0b9061567b565b60405180910390fd5b60016002811115612a4e577f4e487b7100000000000000000000000000000000000000000000000000000000600052602160045260246000fd5b60078681548110612a88577f4e487b7100000000000000000000000000000000000000000000000000000000600052603260045260246000fd5b906000526020600020906002020160010160009054906101000a900460ff166002811115612adf577f4e487b7100000000000000000000000000000000000000000000000000000000600052602160045260246000fd5b1415612b20576040517f08c379a0000000000000000000000000000000000000000000000000000000008152600401612b179061537b565b60405180910390fd5b60011515600a60009054906101000a900460ff16151514612b76576040517f08c379a0000000000000000000000000000000000000000000000000000000008152600401612b6d9061563b565b60405180910390fd5b600260078681548110612bb2577f4e487b7100000000000000000000000000000000000000000000000000000000600052603260045260246000fd5b906000526020600020906002020160010160006101000a81548160ff02191690836002811115612c0b577f4e487b7100000000000000000000000000000000000000000000000000000000600052602160045260246000fd5b02179055508360078681548110612c4b577f4e487b7100000000000000000000000000000000000000000000000000000000600052603260045260246000fd5b906000526020600020906002020160000160106101000a8154816fffffffffffffffffffffffffffffffff02191690836fffffffffffffffffffffffffffffffff1602179055507fec1a51878793b26371980da80139946e4a398461978717cbe8d07596dd3404b63386604051612cc39291906151e5565b60405180910390a160019250505092915050565b6000600560008473ffffffffffffffffffffffffffffffffffffffff1673ffffffffffffffffffffffffffffffffffffffff16815260200190815260200160002060008373ffffffffffffffffffffffffffffffffffffffff1673ffffffffffffffffffffffffffffffffffffffff16815260200190815260200160002060009054906101000a900460ff16905092915050565b600060016005811115612da7577f4e487b7100000000000000000000000000000000000000000000000000000000600052602160045260246000fd5b600660009054906101000a900460ff166005811115612def577f4e487b7100000000000000000000000000000000000000000000000000000000600052602160045260246000fd5b1480612e7a575060036005811115612e30577f4e487b7100000000000000000000000000000000000000000000000000000000600052602160045260246000fd5b600660009054906101000a900460ff166005811115612e78577f4e487b7100000000000000000000000000000000000000000000000000000000600052602160045260246000fd5b145b612eb9576040517f08c379a0000000000000000000000000000000000000000000000000000000008152600401612eb09061565b565b60405180910390fd5b600060095411612efe576040517f08c379a0000000000000000000000000000000000000000000000000000000008152600401612ef5906153bb565b60405180910390fd5b34600860009054906101000a90046fffffffffffffffffffffffffffffffff166fffffffffffffffffffffffffffffffff16811015612f72576040517f08c379a0000000000000000000000000000000000000000000000000000000008152600401612f699061545b565b60405180910390fd5b612f7a613fe1565b600860009054906101000a90046fffffffffffffffffffffffffffffffff1681600001906fffffffffffffffffffffffffffffffff1690816fffffffffffffffffffffffffffffffff1681525050600860009054906101000a90046fffffffffffffffffffffffffffffffff1681602001906fffffffffffffffffffffffffffffffff1690816fffffffffffffffffffffffffffffffff1681525050600081604001906002811115613055577f4e487b7100000000000000000000000000000000000000000000000000000000600052602160045260246000fd5b9081600281111561308f577f4e487b7100000000000000000000000000000000000000000000000000000000600052602160045260246000fd5b81525050600781908060018154018082558091505060019003906000526020600020906002020160009091909190915060008201518160000160006101000a8154816fffffffffffffffffffffffffffffffff02191690836fffffffffffffffffffffffffffffffff16021790555060208201518160000160106101000a8154816fffffffffffffffffffffffffffffffff02191690836fffffffffffffffffffffffffffffffff16021790555060408201518160010160006101000a81548160ff0219169083600281111561318e577f4e487b7100000000000000000000000000000000000000000000000000000000600052602160045260246000fd5b02179055505050600060016007805490506131a99190615921565b9050600960008154809291906131be90615a83565b9190505550600860009054906101000a90046fffffffffffffffffffffffffffffffff166fffffffffffffffffffffffffffffffff16341115613293576000600860009054906101000a90046fffffffffffffffffffffffffffffffff166fffffffffffffffffffffffffffffffff16346132399190615921565b905080600b60003373ffffffffffffffffffffffffffffffffffffffff1673ffffffffffffffffffffffffffffffffffffffff168152602001908152602001600020600082825461328a9190615840565b92505081905550505b600860009054906101000a90046fffffffffffffffffffffffffffffffff166fffffffffffffffffffffffffffffffff16600b6000600a60029054906101000a900473ffffffffffffffffffffffffffffffffffffffff1673ffffffffffffffffffffffffffffffffffffffff1673ffffffffffffffffffffffffffffffffffffffff16815260200190815260200160002060008282546133349190615840565b925050819055506133453382613bb3565b7f1b430c41ad1e9efc507aac150600ae9a3da936ed08479682cf954ffe044cd3d73061336f6109e6565b33846040516133819493929190615199565b60405180910390a180935050505090565b60007f01ffc9a7000000000000000000000000000000000000000000000000000000007bffffffffffffffffffffffffffffffffffffffffffffffffffffffff1916827bffffffffffffffffffffffffffffffffffffffffffffffffffffffff1916149050919050565b60008073ffffffffffffffffffffffffffffffffffffffff166002600084815260200190815260200160002060009054906101000a900473ffffffffffffffffffffffffffffffffffffffff1673ffffffffffffffffffffffffffffffffffffffff1614159050919050565b600033905090565b816004600083815260200190815260200160002060006101000a81548173ffffffffffffffffffffffffffffffffffffffff021916908373ffffffffffffffffffffffffffffffffffffffff160217905550808273ffffffffffffffffffffffffffffffffffffffff166134e383611c99565b73ffffffffffffffffffffffffffffffffffffffff167f8c5be1e5ebec7d5bd14f71427d1e84f3dd0314c0f7b2291e5b200ac8c7c3b92560405160405180910390a45050565b600061353482611c99565b905061354281600084613bd1565b61354d600083613470565b6001600360008373ffffffffffffffffffffffffffffffffffffffff1673ffffffffffffffffffffffffffffffffffffffff168152602001908152602001600020600082825461359d9190615921565b925050819055506002600083815260200190815260200160002060006101000a81549073ffffffffffffffffffffffffffffffffffffffff021916905581600073ffffffffffffffffffffffffffffffffffffffff168273ffffffffffffffffffffffffffffffffffffffff167fddf252ad1be2c89b69c2b068fc378daa952ba7f163c4a11628f55a4df523b3ef60405160405180910390a45050565b6000613645826133fc565b613684576040517f08c379a000000000000000000000000000000000000000000000000000000000815260040161367b9061543b565b60405180910390fd5b600061368f83611c99565b90508073ffffffffffffffffffffffffffffffffffffffff168473ffffffffffffffffffffffffffffffffffffffff1614806136fe57508373ffffffffffffffffffffffffffffffffffffffff166136e684610a78565b73ffffffffffffffffffffffffffffffffffffffff16145b8061370f575061370e8185612cd7565b5b91505092915050565b8273ffffffffffffffffffffffffffffffffffffffff1661373882611c99565b73ffffffffffffffffffffffffffffffffffffffff161461378e576040517f08c379a00000000000000000000000000000000000000000000000000000000081526004016137859061559b565b60405180910390fd5b600073ffffffffffffffffffffffffffffffffffffffff168273ffffffffffffffffffffffffffffffffffffffff1614156137fe576040517f08c379a00000000000000000000000000000000000000000000000000000000081526004016137f5906153db565b60405180910390fd5b613809838383613bd1565b613814600082613470565b6001600360008573ffffffffffffffffffffffffffffffffffffffff1673ffffffffffffffffffffffffffffffffffffffff16815260200190815260200160002060008282546138649190615921565b925050819055506001600360008473ffffffffffffffffffffffffffffffffffffffff1673ffffffffffffffffffffffffffffffffffffffff16815260200190815260200160002060008282546138bb9190615840565b92505081905550816002600083815260200190815260200160002060006101000a81548173ffffffffffffffffffffffffffffffffffffffff021916908373ffffffffffffffffffffffffffffffffffffffff160217905550808273ffffffffffffffffffffffffffffffffffffffff168473ffffffffffffffffffffffffffffffffffffffff167fddf252ad1be2c89b69c2b068fc378daa952ba7f163c4a11628f55a4df523b3ef60405160405180910390a4505050565b61397f848484613718565b61398b84848484613bd6565b6139ca576040517f08c379a00000000000000000000000000000000000000000000000000000000081526004016139c1906152fb565b60405180910390fd5b50505050565b606060405180602001604052806000815250905090565b60606000821415613a2f576040518060400160405280600181526020017f30000000000000000000000000000000000000000000000000000000000000008152509050613bae565b600082905060005b60008214613a61578080613a4a90615adf565b915050600a82613a5a9190615896565b9150613a37565b60008167ffffffffffffffff811115613aa3577f4e487b7100000000000000000000000000000000000000000000000000000000600052604160045260246000fd5b6040519080825280601f01601f191660200182016040528015613ad55781602001600182028036833780820191505090505b5090505b60008514613ba757600182613aee9190615921565b9150600a85613afd9190615b28565b6030613b099190615840565b7f010000000000000000000000000000000000000000000000000000000000000002818381518110613b64577f4e487b7100000000000000000000000000000000000000000000000000000000600052603260045260246000fd5b60200101907effffffffffffffffffffffffffffffffffffffffffffffffffffffffffffff1916908160001a905350600a85613ba09190615896565b9450613ad9565b8093505050505b919050565b613bcd828260405180602001604052806000815250613da5565b5050565b505050565b6000613bf78473ffffffffffffffffffffffffffffffffffffffff16613e00565b15613d98578373ffffffffffffffffffffffffffffffffffffffff1663150b7a02613c20613468565b8786866040518563ffffffff167c0100000000000000000000000000000000000000000000000000000000028152600401613c5e949392919061514d565b602060405180830381600087803b158015613c7857600080fd5b505af1925050508015613ca957506040513d601f19601f82011682018060405250810190613ca69190614391565b60015b613d2c573d8060008114613cd9576040519150601f19603f3d011682016040523d82523d6000602084013e613cde565b606091505b50600081511415613d24576040517f08c379a0000000000000000000000000000000000000000000000000000000008152600401613d1b906152fb565b60405180910390fd5b805181602001fd5b63150b7a027c0100000000000000000000000000000000000000000000000000000000027bffffffffffffffffffffffffffffffffffffffffffffffffffffffff1916817bffffffffffffffffffffffffffffffffffffffffffffffffffffffff191614915050613d9d565b600190505b949350505050565b613daf8383613e13565b613dbc6000848484613bd6565b613dfb576040517f08c379a0000000000000000000000000000000000000000000000000000000008152600401613df2906152fb565b60405180910390fd5b505050565b600080823b905060008111915050919050565b600073ffffffffffffffffffffffffffffffffffffffff168273ffffffffffffffffffffffffffffffffffffffff161415613e83576040517f08c379a0000000000000000000000000000000000000000000000000000000008152600401613e7a9061555b565b60405180910390fd5b613e8c816133fc565b15613ecc576040517f08c379a0000000000000000000000000000000000000000000000000000000008152600401613ec39061533b565b60405180910390fd5b613ed860008383613bd1565b6001600360008473ffffffffffffffffffffffffffffffffffffffff1673ffffffffffffffffffffffffffffffffffffffff1681526020019081526020016000206000828254613f289190615840565b92505081905550816002600083815260200190815260200160002060006101000a81548173ffffffffffffffffffffffffffffffffffffffff021916908373ffffffffffffffffffffffffffffffffffffffff160217905550808273ffffffffffffffffffffffffffffffffffffffff16600073ffffffffffffffffffffffffffffffffffffffff167fddf252ad1be2c89b69c2b068fc378daa952ba7f163c4a11628f55a4df523b3ef60405160405180910390a45050565b604051806060016040528060006fffffffffffffffffffffffffffffffff16815260200160006fffffffffffffffffffffffffffffffff16815260200160006002811115614058577f4e487b7100000000000000000000000000000000000000000000000000000000600052602160045260246000fd5b81525090565b600061407161406c84615759565b615728565b90508281526020810184848401111561408957600080fd5b614094848285615a41565b509392505050565b60006140af6140aa84615789565b615728565b9050828152602081018484840111156140c757600080fd5b6140d2848285615a41565b509392505050565b6000813590506140e981615c7d565b92915050565b6000813590506140fe81615c94565b92915050565b60008135905061411381615cab565b92915050565b60008151905061412881615cab565b92915050565b600082601f83011261413f57600080fd5b813561414f84826020860161405e565b91505092915050565b60008135905061416781615cc2565b92915050565b600082601f83011261417e57600080fd5b813561418e84826020860161409c565b91505092915050565b6000813590506141a681615cd2565b92915050565b6000813590506141bb81615ce9565b92915050565b6000602082840312156141d357600080fd5b60006141e1848285016140da565b91505092915050565b600080604083850312156141fd57600080fd5b600061420b858286016140da565b925050602061421c858286016140da565b9150509250929050565b60008060006060848603121561423b57600080fd5b6000614249868287016140da565b935050602061425a868287016140da565b925050604061426b868287016141ac565b9150509250925092565b6000806000806080858703121561428b57600080fd5b6000614299878288016140da565b94505060206142aa878288016140da565b93505060406142bb878288016141ac565b925050606085013567ffffffffffffffff8111156142d857600080fd5b6142e48782880161412e565b91505092959194509250565b6000806040838503121561430357600080fd5b6000614311858286016140da565b9250506020614322858286016140ef565b9150509250929050565b6000806040838503121561433f57600080fd5b600061434d858286016140da565b925050602061435e858286016141ac565b9150509250929050565b60006020828403121561437a57600080fd5b600061438884828501614104565b91505092915050565b6000602082840312156143a357600080fd5b60006143b184828501614119565b91505092915050565b6000602082840312156143cc57600080fd5b60006143da84828501614158565b91505092915050565b6000602082840312156143f557600080fd5b6000614403848285016141ac565b91505092915050565b6000806040838503121561441f57600080fd5b600061442d858286016141ac565b925050602083013567ffffffffffffffff81111561444a57600080fd5b6144568582860161416d565b9150509250929050565b6000806040838503121561447357600080fd5b6000614481858286016141ac565b925050602061449285828601614197565b9150509250929050565b60006144a8838361506f565b60608301905092915050565b6144bd81615967565b82525050565b6144cc81615955565b82525050565b60006144dd826157c9565b6144e781856157f7565b93506144f2836157b9565b8060005b8381101561452357815161450a888261449c565b9750614515836157ea565b9250506001810190506144f6565b5085935050505092915050565b61453981615979565b82525050565b600061454a826157d4565b6145548185615808565b9350614564818560208601615a50565b61456d81615c44565b840191505092915050565b61458181615a1d565b82525050565b61459081615a2f565b82525050565b61459f81615a2f565b82525050565b60006145b0826157df565b6145ba8185615824565b93506145ca818560208601615a50565b6145d381615c44565b840191505092915050565b60006145e9826157df565b6145f38185615835565b9350614603818560208601615a50565b80840191505092915050565b600061461c601483615824565b91507f4e6f206d6f6e657920746f2077697468647261770000000000000000000000006000830152602082019050919050565b600061465c603283615824565b91507f4552433732313a207472616e7366657220746f206e6f6e20455243373231526560008301527f63656976657220696d706c656d656e74657200000000000000000000000000006020830152604082019050919050565b60006146c2602183615824565b91507f43616e206f6e6c7920626520657865637574656420627920746865206f776e6560008301527f72000000000000000000000000000000000000000000000000000000000000006020830152604082019050919050565b6000614728601c83615824565b91507f4552433732313a20746f6b656e20616c7265616479206d696e746564000000006000830152602082019050919050565b6000614768600d83615824565b91507f6e6f207065726d697373696f6e000000000000000000000000000000000000006000830152602082019050919050565b60006147a8601c83615824565b91507f5469636b65742068617320616c7265616479206265656e2075736564000000006000830152602082019050919050565b60006147e8602583615824565b91507f43616e6e6f7420657865637574652066756e6374696f6e20617420746869732060008301527f73746167650000000000000000000000000000000000000000000000000000006020830152604082019050919050565b600061484e601883615824565b91507f5468657265206172652030207469636b657473206c65667400000000000000006000830152602082019050919050565b600061488e602483615824565b91507f4552433732313a207472616e7366657220746f20746865207a65726f2061646460008301527f72657373000000000000000000000000000000000000000000000000000000006020830152604082019050919050565b60006148f4601983615824565b91507f4552433732313a20617070726f766520746f2063616c6c6572000000000000006000830152602082019050919050565b6000614934602483615824565b91507f5573657220646f6573206e6f742068617665206d6f6e657920746f207769746860008301527f64726177000000000000000000000000000000000000000000000000000000006020830152604082019050919050565b600061499a602c83615824565b91507f4552433732313a206f70657261746f7220717565727920666f72206e6f6e657860008301527f697374656e7420746f6b656e00000000000000000000000000000000000000006020830152604082019050919050565b6000614a00602583615824565b91507f4e6f7420656e6f756768206d6f6e657920746f2070757263686173652061207460008301527f69636b65740000000000000000000000000000000000000000000000000000006020830152604082019050919050565b6000614a66601d83615824565b91507f5469636b6574206e6f7420617661696c61626c6520666f722073616c650000006000830152602082019050919050565b6000614aa6602683615824565b91507f5468657265206973206e6f2076616c6964207469636b657420666f722074686960008301527f73207573657200000000000000000000000000000000000000000000000000006020830152604082019050919050565b6000614b0c603883615824565b91507f4552433732313a20617070726f76652063616c6c6572206973206e6f74206f7760008301527f6e6572206e6f7220617070726f76656420666f7220616c6c00000000000000006020830152604082019050919050565b6000614b72602a83615824565b91507f4552433732313a2062616c616e636520717565727920666f7220746865207a6560008301527f726f2061646472657373000000000000000000000000000000000000000000006020830152604082019050919050565b6000614bd8602983615824565b91507f4552433732313a206f776e657220717565727920666f72206e6f6e657869737460008301527f656e7420746f6b656e00000000000000000000000000000000000000000000006020830152604082019050919050565b6000614c3e601c83615824565b91507f4661696c656420746f2073656e6420657468657220746f2075736572000000006000830152602082019050919050565b6000614c7e602083615824565b91507f43616e206e6f7420626520657865637574656420627920746865206f776e65726000830152602082019050919050565b6000614cbe602083615824565b91507f4552433732313a206d696e7420746f20746865207a65726f20616464726573736000830152602082019050919050565b6000614cfe602c83615824565b91507f4552433732313a20617070726f76656420717565727920666f72206e6f6e657860008301527f697374656e7420746f6b656e00000000000000000000000000000000000000006020830152604082019050919050565b6000614d64602983615824565b91507f4552433732313a207472616e73666572206f6620746f6b656e2074686174206960008301527f73206e6f74206f776e00000000000000000000000000000000000000000000006020830152604082019050919050565b6000614dca602f83615824565b91507f4552433732314d657461646174613a2055524920717565727920666f72206e6f60008301527f6e6578697374656e7420746f6b656e00000000000000000000000000000000006020830152604082019050919050565b6000614e30602183615824565b91507f4552433732313a20617070726f76616c20746f2063757272656e74206f776e6560008301527f72000000000000000000000000000000000000000000000000000000000000006020830152604082019050919050565b6000614e96600083615819565b9150600082019050919050565b6000614eb0603183615824565b91507f4552433732313a207472616e736665722063616c6c6572206973206e6f74206f60008301527f776e6572206e6f7220617070726f7665640000000000000000000000000000006020830152604082019050919050565b6000614f16601d83615824565b91507f4661696c656420746f2073656e6420657468657220746f206f776e65720000006000830152602082019050919050565b6000614f56601783615824565b91507f5469636b65742063616e6e6f74206265207265736f6c640000000000000000006000830152602082019050919050565b6000614f96601d83615824565b91507f5469636b65747320617265206e6f74206f70656e20666f722073616c650000006000830152602082019050919050565b6000614fd6601d83615824565b91507f5573657220646f6573206e6f74206f776e2074686973207469636b65740000006000830152602082019050919050565b6000615016602283615824565b91507f596f75206861766520616c7265616479207265676973746572656420746f206260008301527f75790000000000000000000000000000000000000000000000000000000000006020830152604082019050919050565b60608201600082015161508560008501826150b1565b50602082015161509860208501826150b1565b5060408201516150ab6040850182614587565b50505050565b6150ba816159d7565b82525050565b6150c9816159d7565b82525050565b6150d881615a13565b82525050565b60006150ea82856145de565b91506150f682846145de565b91508190509392505050565b600061510d82614e89565b9150819050919050565b600060208201905061512c60008301846144c3565b92915050565b600060208201905061514760008301846144b4565b92915050565b600060808201905061516260008301876144c3565b61516f60208301866144c3565b61517c60408301856150cf565b818103606083015261518e818461453f565b905095945050505050565b60006080820190506151ae60008301876144c3565b81810360208301526151c081866145a5565b90506151cf60408301856144c3565b6151dc60608301846150cf565b95945050505050565b60006040820190506151fa60008301856144c3565b61520760208301846150cf565b9392505050565b600060808201905061522360008301876144c3565b61523060208301866150cf565b818103604083015261524281856145a5565b9050818103606083015261525681846145a5565b905095945050505050565b6000602082019050818103600083015261527b81846144d2565b905092915050565b60006020820190506152986000830184614530565b92915050565b60006020820190506152b36000830184614578565b92915050565b600060208201905081810360008301526152d381846145a5565b905092915050565b600060208201905081810360008301526152f48161460f565b9050919050565b600060208201905081810360008301526153148161464f565b9050919050565b60006020820190508181036000830152615334816146b5565b9050919050565b600060208201905081810360008301526153548161471b565b9050919050565b600060208201905081810360008301526153748161475b565b9050919050565b600060208201905081810360008301526153948161479b565b9050919050565b600060208201905081810360008301526153b4816147db565b9050919050565b600060208201905081810360008301526153d481614841565b9050919050565b600060208201905081810360008301526153f481614881565b9050919050565b60006020820190508181036000830152615414816148e7565b9050919050565b6000602082019050818103600083015261543481614927565b9050919050565b600060208201905081810360008301526154548161498d565b9050919050565b60006020820190508181036000830152615474816149f3565b9050919050565b6000602082019050818103600083015261549481614a59565b9050919050565b600060208201905081810360008301526154b481614a99565b9050919050565b600060208201905081810360008301526154d481614aff565b9050919050565b600060208201905081810360008301526154f481614b65565b9050919050565b6000602082019050818103600083015261551481614bcb565b9050919050565b6000602082019050818103600083015261553481614c31565b9050919050565b6000602082019050818103600083015261555481614c71565b9050919050565b6000602082019050818103600083015261557481614cb1565b9050919050565b6000602082019050818103600083015261559481614cf1565b9050919050565b600060208201905081810360008301526155b481614d57565b9050919050565b600060208201905081810360008301526155d481614dbd565b9050919050565b600060208201905081810360008301526155f481614e23565b9050919050565b6000602082019050818103600083015261561481614ea3565b9050919050565b6000602082019050818103600083015261563481614f09565b9050919050565b6000602082019050818103600083015261565481614f49565b9050919050565b6000602082019050818103600083015261567481614f89565b9050919050565b6000602082019050818103600083015261569481614fc9565b9050919050565b600060208201905081810360008301526156b481615009565b9050919050565b60006020820190506156d060008301846150c0565b92915050565b60006060820190506156eb60008301866150c0565b6156f860208301856150c0565b6157056040830184614596565b949350505050565b600060208201905061572260008301846150cf565b92915050565b6000604051905081810181811067ffffffffffffffff8211171561574f5761574e615c15565b5b8060405250919050565b600067ffffffffffffffff82111561577457615773615c15565b5b601f19601f8301169050602081019050919050565b600067ffffffffffffffff8211156157a4576157a3615c15565b5b601f19601f8301169050602081019050919050565b6000819050602082019050919050565b600081519050919050565b600081519050919050565b600081519050919050565b6000602082019050919050565b600082825260208201905092915050565b600082825260208201905092915050565b600081905092915050565b600082825260208201905092915050565b600081905092915050565b600061584b82615a13565b915061585683615a13565b9250827fffffffffffffffffffffffffffffffffffffffffffffffffffffffffffffffff0382111561588b5761588a615b59565b5b828201905092915050565b60006158a182615a13565b91506158ac83615a13565b9250826158bc576158bb615b88565b5b828204905092915050565b60006158d282615a13565b91506158dd83615a13565b9250817fffffffffffffffffffffffffffffffffffffffffffffffffffffffffffffffff048311821515161561591657615915615b59565b5b828202905092915050565b600061592c82615a13565b915061593783615a13565b92508282101561594a57615949615b59565b5b828203905092915050565b6000615960826159f3565b9050919050565b6000615972826159f3565b9050919050565b60008115159050919050565b60007fffffffff0000000000000000000000000000000000000000000000000000000082169050919050565b60008190506159bf82615c55565b919050565b60008190506159d282615c69565b919050565b60006fffffffffffffffffffffffffffffffff82169050919050565b600073ffffffffffffffffffffffffffffffffffffffff82169050919050565b6000819050919050565b6000615a28826159b1565b9050919050565b6000615a3a826159c4565b9050919050565b82818337600083830152505050565b60005b83811015615a6e578082015181840152602081019050615a53565b83811115615a7d576000848401525b50505050565b6000615a8e82615a13565b91506000821415615aa257615aa1615b59565b5b600182039050919050565b60006002820490506001821680615ac557607f821691505b60208210811415615ad957615ad8615be6565b5b50919050565b6000615aea82615a13565b91507fffffffffffffffffffffffffffffffffffffffffffffffffffffffffffffffff821415615b1d57615b1c615b59565b5b600182019050919050565b6000615b3382615a13565b9150615b3e83615a13565b925082615b4e57615b4d615b88565b5b828206905092915050565b7f4e487b7100000000000000000000000000000000000000000000000000000000600052601160045260246000fd5b7f4e487b7100000000000000000000000000000000000000000000000000000000600052601260045260246000fd5b7f4e487b7100000000000000000000000000000000000000000000000000000000600052602160045260246000fd5b7f4e487b7100000000000000000000000000000000000000000000000000000000600052602260045260246000fd5b7f4e487b7100000000000000000000000000000000000000000000000000000000600052604160045260246000fd5b6000601f19601f8301169050919050565b60068110615c6657615c65615bb7565b5b50565b60038110615c7a57615c79615bb7565b5b50565b615c8681615955565b8114615c9157600080fd5b50565b615c9d81615979565b8114615ca857600080fd5b50565b615cb481615985565b8114615cbf57600080fd5b50565b60068110615ccf57600080fd5b50565b615cdb816159d7565b8114615ce657600080fd5b50565b615cf281615a13565b8114615cfd57600080fd5b5056fea264697066735822122099acf41137472d2259037f3d87bcf1f52cf50de95eb8ec31e1f0ff4fa04eccdc64736f6c63430008000033a26469706673582212202a93d3c46d553dfbeeffaf4146d6fab48518128ac1a931cef19900d2db99cc7164736f6c63430008000033",
  "immutableReferences": {},
  "source": "// SPDX-License-Identifier: UNLICENSED\npragma solidity 0.8.0;\nimport \"@openzeppelin/contracts/token/ERC721/ERC721.sol\";\n \n/// @title Factory Contract to create events\ncontract EventCreator {\n\n    // Created events\n    Event[] public events;\n\n    // EVENTS\n    event CreateEvent(address _creator, address _event);\n\n    /**\n     * @notice Creates Events\n     * @param _numTickets Number of tickets \n     * @param _price Price per ticket\n     * @param _canBeResold Are tickets allowed to be resold\n     * @param _royaltyPercent Royalty percentage accrued by organizers on reselling of ticket\n     * @param _eventName Name of the Ticket NFT\n     * @param _eventSymbol Symbol for the Ticket NFT Token\n     */\n    function createEvent(uint256 _numTickets, uint128 _price, bool _canBeResold, uint128 _royaltyPercent,\n            string memory _eventName, string memory _eventSymbol) external returns(address newEvent) {\n\n        // Create a new Event smart contract\n        Event e = new Event(msg.sender, _numTickets, _price, _canBeResold, _royaltyPercent, _eventName, _eventSymbol);\n        \n        // Store/return event address\n        events.push(e);\n        address eventAddress = address(e);\n        emit CreateEvent(msg.sender, eventAddress);\n\n        return eventAddress;\n    }\n\n\n    /**\n     * @notice Retrieve number of events\n     */\n    function getEventCount() public view returns(uint contractCount) {\n        return events.length;\n    }\n\n    // Returns array of all events\n    function getEvents() external view returns(Event[] memory _events) {\n        _events = new Event[] (events.length);\n        for (uint i=0; i<events.length; i++){\n            _events[i] = events[i];\n        }\n\n        return _events;\n    }  \n}\n\n/// @title Contract to mint tickets of an event\ncontract Event is ERC721 {\n    /// Control Event Status at a granular level\n    enum Stages { Prep, Active, Paused, CheckinOpen, Cancelled, Closed }\n    // Stages public stage = Stages.Prep;\n    Stages public stage;\n    /// Control Ticket Status at a granular level\n    /// Valid - Ticket is Valid\n    /// Used - Ticket is used\n    /// AvailableForSale - Ticket is allowed to be sold to someone\n    enum TicketStatus { Valid, Used, AvailableForSale }\n    \n    // Ticket struct \n    struct Ticket {\n        uint128 price;\n        uint128 resalePrice;\n        TicketStatus status;\n    }\n    \n    // array to store tickets, index will be ticketID\n    Ticket[] public tickets;\n    \n    // ticket original price\n    uint128 public price;\n    \n    // Percent royalty event creator receives from ticket resales\n    uint128 public royaltyPercent;\n    \n    // number of tickets left to sell\n    uint256 public numTicketsLeft;\n    \n    // if ticket can be resold in the second market\n    bool public canBeResold;\n    \n    // if event is cancelled\n    bool public isCancelled;\n    \n    // orginizer of event\n    address payable public owner;\n    \n    // to store the balances for buyers and organizers\n    mapping(address => uint) public balances;\n    mapping(address => bool) public isUserRefund;\n    mapping(uint => address) public registeredBuyers;\n\n    // EVENTS\n    event CreateTicket(address contractAddress, string eventName, address buyer, uint ticketID);\n    event WithdrawMoney(address receiver, uint money);\n    event OwnerWithdrawMoney(address owner, uint money);\n    event TicketForSale(address seller, uint ticketID);\n    event TicketSold(address contractAddress, string eventName, address buyer, uint ticketID);\n    event TicketUsed(address contractAddress, uint ticketID, string eventName, string sQRCodeKey);\n\n    // Creates a new Event Contract\n    constructor(address _owner, uint256 _numTickets, uint128 _price, bool _canBeResold, uint128 _royaltyPercent,\n            string memory _eventName, string memory _eventSymbol) ERC721(_eventName, _eventSymbol) {    \n        // Check valid constructor arguments\n        require(_royaltyPercent >= 0 && _royaltyPercent <= 100, \"Royalty Percentage must be between 0 and 100\");\n        // Number of tickets must be greater than 0\n        require(_numTickets > 0, \"The number of tickets must be greater than 0\");\n        // EventName, EventSymbol cannot be empty string\n        bytes memory eventNameBytes = bytes(_eventName);\n        bytes memory eventSymbolBytes = bytes(_eventSymbol);\n        require(eventNameBytes.length != 0, \"Event Name cannot be empty\");\n        require(eventSymbolBytes.length != 0, \"Event Symbol cannot be empty\");\n        \n        owner = payable(_owner);\n        numTicketsLeft = _numTickets;\n        price = _price;\n        canBeResold = _canBeResold;\n        royaltyPercent = _royaltyPercent;\n        stage = Stages.Prep;\n    }\n\n    /**\n     * @notice Buy tickets\n     * @dev Checks: State is Active, has enough money\n     */\n    function buyTicket() public payable buyingTicketOpen ticketsLeft \n                                            hasEnoughMoney(msg.value) returns (uint){\n        // Create Ticket t\n        Ticket memory t;\n        t.price = price;\n        t.resalePrice = price;\n        t.status = TicketStatus.Valid;\n\n        // Store t in tickets array\n        tickets.push(t);\n        uint ticketID = tickets.length - 1;\n        numTicketsLeft--;\n        \n        // store overpaid in balances\n        if (msg.value > price) {\n            uint amount = msg.value - price;\n            balances[msg.sender] += amount;\n        }\n        balances[owner] += price;\n        \n        // Mint NFT\n        _safeMint(msg.sender, ticketID);\n        emit CreateTicket(address(this), name(), msg.sender, ticketID);\n        \n        return ticketID;\n    }\n\n    /**\n     * @notice Mark ticket as used\n     * @dev Only a valid buyer can mark ticket as used\n     * @param ticketID ticket ID of ticket\n     */\n    function buyTicketFromUser(uint ticketID) public payable requiredStage(Stages.Active) hasEnoughMoney(msg.value) returns (bool) {\n        // Check if ticket is available for sale\n        require(tickets[ticketID].status == TicketStatus.AvailableForSale, \"Ticket not available for sale\");\n\n        // calc amount to pay after royalty\n        uint ticketPrice = tickets[ticketID].resalePrice;\n        // store overpaid in balances\n        if (msg.value > ticketPrice) {\n            uint amount = msg.value - ticketPrice;\n            balances[msg.sender] += amount;\n        }\n        uint royalty = (royaltyPercent * ticketPrice) / 100;\n        uint priceToPay = ticketPrice - royalty;\n\n        address payable seller = payable(ownerOf(ticketID));\n        // store balances for seller and owner to withdraw later\n        balances[seller] += priceToPay;\n        balances[owner] += royalty;\n        \n        emit TicketSold(address(this), name(), msg.sender, ticketID);\n        safeTransferFrom(seller, msg.sender, ticketID);\n\n        tickets[ticketID].status = TicketStatus.Valid;\n\n        return true;\n\n    }\n    \n    /**\n     * @notice Mark ticket as used\n     * @dev Only a valid buyer can mark ticket as used\n     * @param ticketID ticket ID of ticket\n     * @param sQRCodeKey QR Code key sent by the app \n     */\n    function setTicketToUsed(uint ticketID, string memory sQRCodeKey) public requiredStage(Stages.CheckinOpen)\n                                                                    ownsTicket(ticketID) returns (string memory){\n\t\t// Validate that user has a ticket they own and it is valid\n        require(tickets[ticketID].status == TicketStatus.Valid, \"There is no valid ticket for this user\");\n    \n        // Ticket is valid so mark it as used\n        tickets[ticketID].status = TicketStatus.Used;\n\n        // Burn the Token\n        _burn(ticketID); \n        \n        // Raise event which Gate Management system can consume then\n        emit TicketUsed(address(this), ticketID, name(), sQRCodeKey);\n        \n        return sQRCodeKey;\n\t}\n\n    /**\n     * @notice Mark ticket as used\n     * @dev Only a valid buyer can mark ticket as used\n     * @param ticketID ticket ID of ticket\n     * @param resalePrice resale price for ticket\n     */\n    function setTicketForSale(uint ticketID, uint128 resalePrice) public requiredStage(Stages.Active) ownsTicket(ticketID) returns(bool) {\n\t\t// Validate that user has a ticket they own and it is valid\n        require(tickets[ticketID].status != TicketStatus.Used, \"Ticket has already been used\");\n        require(canBeResold == true, \"Ticket cannot be resold\");\n        \n        // Ticket is valid so mark it as used\n        tickets[ticketID].status = TicketStatus.AvailableForSale;\n        tickets[ticketID].resalePrice = resalePrice;\n        \n        // Raise event which Gate Management system can consume then\n        emit TicketForSale(msg.sender, ticketID);\n        \n        //return ticketID;\n        return true;\n\t}\n\n    /**\n     * @dev get all tickets \n     */\n    function getTicketsCreated() public view returns(Ticket [] memory){\n        return tickets;\n    }\n\t\n   /**\n     * @notice owner can only withdraw what's in the balances\n     * @dev once the event is cancelled, organizer should refund money to buyers\n     */\n    function ownerWithdraw() public onlyOwner requiredStage(Stages.Closed) {\n        uint ownerBalance = balances[owner];\n        require(ownerBalance > 0, \"No money to withdraw\");\n        \n        // Call will forwards all available gas\n        (bool sent, ) = msg.sender.call{value:ownerBalance}(\"\");\n        // Failure condition if cannot transfer\n        require(sent, \"Failed to send ether to owner\");\n        // Update balance after transfering money\n        balances[owner] = 0;\n        emit OwnerWithdrawMoney(msg.sender, ownerBalance);\n    }\n\n    /**\n     * @notice User to withdraw money \n     * @dev User can withdraw money if event cancelled or overpaid for ticket\n     */\n    function withdraw() public {\n        require(msg.sender != owner, \"Can not be executed by the owner\");\n        // Amount to send to user\n        uint sendToUser = balances[msg.sender];\n        \n        // If event cancelled, send user the amount they overpaid for ticket + ticket price refund\n        if (isCancelled && isUserRefund[msg.sender] == false ) {\n            sendToUser += balanceOf(msg.sender) * price;\n        }\n\n        // Cannot withdraw if no money to withdraw\n        require(sendToUser > 0, \"User does not have money to withdraw\");\n        \n        // Transfer money to user\n        address payable receiver = payable(msg.sender);\n        // Call will forwards all available gas\n        (bool sent, ) = receiver.call{value:sendToUser}(\"\");\n        // Failure condition of send will emit this error\n        require(sent, \"Failed to send ether to user\");\n        // Update balance after transfering money\n        balances[msg.sender] = 0;\n        isUserRefund[msg.sender] = true;\n        emit WithdrawMoney(msg.sender, sendToUser);\n        \n    }\n\n    /**\n     * @dev approve a buyer to buy ticket of another user\n     */\n    function approveAsBuyer(address buyer, uint ticketID) public requiredStage(Stages.Active){\n        require(ownerOf(ticketID) == msg.sender, \"no permission\");\n        setApprovalForAll(buyer, bool(true));\n        approve(buyer, ticketID);\n    }\n\n    /**\n     * @dev register as buyer\n     */\n    function registerAsBuyer(uint ticketID) public requiredStage(Stages.Active){\n        require(registeredBuyers[ticketID] != msg.sender, \"You have already registered to buy\");\n\n        registeredBuyers[ticketID] = msg.sender;\n\n    }\n\n    /**\n     * @dev get registered buyer\n     */\n    function getRegisteredBuyer(uint ticketID) public view returns(address) {\n        return registeredBuyers[ticketID];\n    }\n    \n    /** \n     * @notice Change Status\n     * @dev Only owner can change state\n     * @param _stage Stages as set in enum Stages\n     */\n    function setStage(Stages _stage) public onlyOwner returns (Stages) {\n        stage = _stage;\n        if (stage == Stages.Cancelled) {\n            isCancelled = true;\n            balances[owner] -= price * tickets.length;\n        }\n        return stage;\n    }\n\n\n    // MODIFIERS\n    // Only owner\n    modifier onlyOwner() {\n        require(msg.sender == owner, \"Can only be executed by the owner\");\n        _;\n    }\n\n    // Requires stage to be _stage\n    modifier requiredStage(Stages _stage) {\n        require(stage == _stage, \"Cannot execute function at this stage\");\n        _;\n    }\n    \n    // Check if buying is open\n    modifier buyingTicketOpen() {\n        require(stage == Stages.Active || stage == Stages.CheckinOpen, \"Tickets are not open for sale\");\n        _;\n    }\n\n    // Requires there to be more than 0 tickets left\n    modifier ticketsLeft() {\n        require(numTicketsLeft > 0, \"There are 0 tickets left\");\n        _;\n    }\n    \n    // Requires user send enough money to smart contract\n    modifier hasEnoughMoney(uint money) {\n        require(money >= price, \"Not enough money to purchase a ticket\");\n        _;\n    }\n\n    // Check if user is ticket owner\n    modifier ownsTicket(uint ticketID) {\n        require(ownerOf(ticketID) == msg.sender, \"User does not own this ticket\");\n        _;\n    }\n    \n}\n\n",
  "sourcePath": "/home/young/Documents/study/comp6452/comp6452-nft/src/contracts/Event.sol",
  "compiler": {
    "name": "solc",
    "version": "0.8.0+commit.c7dfd78e.Emscripten.clang"
  },
  "schemaVersion": "3.4.2",
  "updatedAt": "2021-07-28T03:54:10.630Z",
  "devdoc": {
    "kind": "dev",
    "methods": {
      "createEvent(uint256,uint128,bool,uint128,string,string)": {
        "params": {
          "_canBeResold": "Are tickets allowed to be resold",
          "_eventName": "Name of the Ticket NFT",
          "_eventSymbol": "Symbol for the Ticket NFT Token",
          "_numTickets": "Number of tickets ",
          "_price": "Price per ticket",
          "_royaltyPercent": "Royalty percentage accrued by organizers on reselling of ticket"
        }
      }
    },
    "title": "Factory Contract to create events",
    "version": 1
  },
  "userdoc": {
    "kind": "user",
    "methods": {
      "createEvent(uint256,uint128,bool,uint128,string,string)": {
        "notice": "Creates Events"
      },
      "getEventCount()": {
        "notice": "Retrieve number of events"
      }
    },
    "version": 1
  }
}