{
  "contractName": "EventCreator",
  "abi": [
    {
      "anonymous": false,
      "inputs": [
        {
          "indexed": false,
          "internalType": "address",
          "name": "_creator",
          "type": "address"
        },
        {
          "indexed": false,
          "internalType": "address",
          "name": "_event",
          "type": "address"
        }
      ],
      "name": "CreateEvent",
      "type": "event"
    },
    {
      "inputs": [
        {
          "internalType": "uint256",
          "name": "",
          "type": "uint256"
        }
      ],
      "name": "events",
      "outputs": [
        {
          "internalType": "contract Event",
          "name": "",
          "type": "address"
        }
      ],
      "stateMutability": "view",
      "type": "function",
      "constant": true
    },
    {
      "inputs": [
        {
          "internalType": "uint32",
          "name": "_numTickets",
          "type": "uint32"
        },
        {
          "internalType": "uint32",
          "name": "_price",
          "type": "uint32"
        },
        {
          "internalType": "bool",
          "name": "_canBeResold",
          "type": "bool"
        },
        {
          "internalType": "uint8",
          "name": "_royaltyPercent",
          "type": "uint8"
        },
        {
          "internalType": "string",
          "name": "_eventName",
          "type": "string"
        },
        {
          "internalType": "string",
          "name": "_eventSymbol",
          "type": "string"
        }
      ],
      "name": "createEvent",
      "outputs": [
        {
          "internalType": "address",
          "name": "newEvent",
          "type": "address"
        }
      ],
      "stateMutability": "nonpayable",
      "type": "function"
    },
    {
      "inputs": [],
      "name": "getEventCount",
      "outputs": [
        {
          "internalType": "uint256",
          "name": "contractCount",
          "type": "uint256"
        }
      ],
      "stateMutability": "view",
      "type": "function",
      "constant": true
    },
    {
      "inputs": [],
      "name": "getEvents",
      "outputs": [
        {
          "internalType": "contract Event[]",
          "name": "_events",
          "type": "address[]"
        }
      ],
      "stateMutability": "view",
      "type": "function",
      "constant": true
    }
  ],
  "bytecode": "0x608060405234801561001057600080fd5b50616fb6806100206000396000f3fe60806040523480156200001157600080fd5b50600436106200006f576000357c0100000000000000000000000000000000000000000000000000000000900480630b7914301462000074578063404aa8f914620000aa578063aeeb70ae14620000cc578063d9e48f5c1462000102575b600080fd5b6200009260048036038101906200008c9190620004c7565b62000124565b604051620000a19190620007f0565b60405180910390f35b620000b462000164565b604051620000c39190620007cc565b60405180910390f35b620000ea6004803603810190620000e49190620004f3565b620002e3565b604051620000f99190620006f7565b60405180910390f35b6200010c620003df565b6040516200011b91906200080d565b60405180910390f35b600081815481106200013557600080fd5b906000526020600020016000915054906101000a900473ffffffffffffffffffffffffffffffffffffffff1681565b606060008054905067ffffffffffffffff811115620001ac577f4e487b7100000000000000000000000000000000000000000000000000000000600052604160045260246000fd5b604051908082528060200260200182016040528015620001db5781602001602082028036833780820191505090505b50905060005b600080549050811015620002df57600081815481106200022a577f4e487b7100000000000000000000000000000000000000000000000000000000600052603260045260246000fd5b9060005260206000200160009054906101000a900473ffffffffffffffffffffffffffffffffffffffff168282815181106200028f577f4e487b7100000000000000000000000000000000000000000000000000000000600052603260045260246000fd5b602002602001019073ffffffffffffffffffffffffffffffffffffffff16908173ffffffffffffffffffffffffffffffffffffffff16815250508080620002d690620009ba565b915050620001e1565b5090565b60008033888888888888604051620002fb90620003eb565b6200030d979695949392919062000741565b604051809103906000f0801580156200032a573d6000803e3d6000fd5b5090506000819080600181540180825580915050600190039060005260206000200160009091909190916101000a81548173ffffffffffffffffffffffffffffffffffffffff021916908373ffffffffffffffffffffffffffffffffffffffff16021790555060008190507f64f31017a670226c80c75659d4bb64bf5bb7f8490fef658f1be89d99583fe3043382604051620003c892919062000714565b60405180910390a180925050509695505050505050565b60008080549050905090565b6164a18062000ae083390190565b6000620004106200040a846200085e565b6200082a565b9050828152602081018484840111156200042957600080fd5b6200043684828562000975565b509392505050565b6000813590506200044f8162000a77565b92915050565b600082601f8301126200046757600080fd5b813562000479848260208601620003f9565b91505092915050565b600081359050620004938162000a91565b92915050565b600081359050620004aa8162000aab565b92915050565b600081359050620004c18162000ac5565b92915050565b600060208284031215620004da57600080fd5b6000620004ea8482850162000482565b91505092915050565b60008060008060008060c087890312156200050d57600080fd5b60006200051d89828a0162000499565b96505060206200053089828a0162000499565b95505060406200054389828a016200043e565b94505060606200055689828a01620004b0565b935050608087013567ffffffffffffffff8111156200057457600080fd5b6200058289828a0162000455565b92505060a087013567ffffffffffffffff811115620005a057600080fd5b620005ae89828a0162000455565b9150509295509295509295565b6000620005c9838362000661565b60208301905092915050565b620005e081620008e6565b82525050565b6000620005f382620008a1565b620005ff8185620008c4565b93506200060c8362000891565b8060005b8381101562000643578151620006278882620005bb565b97506200063483620008b7565b92505060018101905062000610565b5085935050505092915050565b6200065b81620008fa565b82525050565b6200066c816200094d565b82525050565b6200067d816200094d565b82525050565b60006200069082620008ac565b6200069c8185620008d5565b9350620006ae81856020860162000984565b620006b98162000a66565b840191505092915050565b620006cf8162000926565b82525050565b620006e08162000930565b82525050565b620006f18162000940565b82525050565b60006020820190506200070e6000830184620005d5565b92915050565b60006040820190506200072b6000830185620005d5565b6200073a6020830184620005d5565b9392505050565b600060e08201905062000758600083018a620005d5565b620007676020830189620006d5565b620007766040830188620006d5565b62000785606083018762000650565b620007946080830186620006e6565b81810360a0830152620007a8818562000683565b905081810360c0830152620007be818462000683565b905098975050505050505050565b60006020820190508181036000830152620007e88184620005e6565b905092915050565b600060208201905062000807600083018462000672565b92915050565b6000602082019050620008246000830184620006c4565b92915050565b6000604051905081810181811067ffffffffffffffff8211171562000854576200085362000a37565b5b8060405250919050565b600067ffffffffffffffff8211156200087c576200087b62000a37565b5b601f19601f8301169050602081019050919050565b6000819050602082019050919050565b600081519050919050565b600081519050919050565b6000602082019050919050565b600082825260208201905092915050565b600082825260208201905092915050565b6000620008f38262000906565b9050919050565b60008115159050919050565b600073ffffffffffffffffffffffffffffffffffffffff82169050919050565b6000819050919050565b600063ffffffff82169050919050565b600060ff82169050919050565b60006200095a8262000961565b9050919050565b60006200096e8262000906565b9050919050565b82818337600083830152505050565b60005b83811015620009a457808201518184015260208101905062000987565b83811115620009b4576000848401525b50505050565b6000620009c78262000926565b91507fffffffffffffffffffffffffffffffffffffffffffffffffffffffffffffffff821415620009fd57620009fc62000a08565b5b600182019050919050565b7f4e487b7100000000000000000000000000000000000000000000000000000000600052601160045260246000fd5b7f4e487b7100000000000000000000000000000000000000000000000000000000600052604160045260246000fd5b6000601f19601f8301169050919050565b62000a8281620008fa565b811462000a8e57600080fd5b50565b62000a9c8162000926565b811462000aa857600080fd5b50565b62000ab68162000930565b811462000ac257600080fd5b50565b62000ad08162000940565b811462000adc57600080fd5b5056fe60806040526000600660006101000a81548160ff0219169083600581111562000051577f4e487b7100000000000000000000000000000000000000000000000000000000600052602160045260246000fd5b02179055506000600a553480156200006857600080fd5b50604051620064a1380380620064a183398181016040528101906200008e91906200046a565b81818160009080519060200190620000a8929190620002ec565b508060019080519060200190620000c1929190620002ec565b50505060008360ff1610158015620000dd575060648360ff1611155b6200011f576040517f08c379a000000000000000000000000000000000000000000000000000000000815260040162000116906200069d565b60405180910390fd5b60008663ffffffff16116200016b576040517f08c379a00000000000000000000000000000000000000000000000000000000081526004016200016290620006bf565b60405180910390fd5b60008290506000829050600082511415620001bd576040517f08c379a0000000000000000000000000000000000000000000000000000000008152600401620001b49062000703565b60405180910390fd5b60008151141562000205576040517f08c379a0000000000000000000000000000000000000000000000000000000008152600401620001fc90620006e1565b60405180910390fd5b88600960006101000a81548173ffffffffffffffffffffffffffffffffffffffff021916908373ffffffffffffffffffffffffffffffffffffffff16021790555087600860046101000a81548163ffffffff021916908363ffffffff16021790555087600860006101000a81548163ffffffff021916908363ffffffff160217905550866008806101000a81548163ffffffff021916908363ffffffff160217905550856008600d6101000a81548160ff021916908315150217905550846008600c6101000a81548160ff021916908360ff1602179055505050505050505050506200092c565b828054620002fa9062000830565b90600052602060002090601f0160209004810192826200031e57600085556200036a565b82601f106200033957805160ff19168380011785556200036a565b828001600101855582156200036a579182015b82811115620003695782518255916020019190600101906200034c565b5b5090506200037991906200037d565b5090565b5b80821115620003985760008160009055506001016200037e565b5090565b6000620003b3620003ad8462000759565b62000725565b905082815260208101848484011115620003cc57600080fd5b620003d9848285620007fa565b509392505050565b600081519050620003f281620008c4565b92915050565b6000815190506200040981620008de565b92915050565b600082601f8301126200042157600080fd5b8151620004338482602086016200039c565b91505092915050565b6000815190506200044d81620008f8565b92915050565b600081519050620004648162000912565b92915050565b600080600080600080600060e0888a0312156200048657600080fd5b6000620004968a828b01620003e1565b9750506020620004a98a828b016200043c565b9650506040620004bc8a828b016200043c565b9550506060620004cf8a828b01620003f8565b9450506080620004e28a828b0162000453565b93505060a088015167ffffffffffffffff8111156200050057600080fd5b6200050e8a828b016200040f565b92505060c088015167ffffffffffffffff8111156200052c57600080fd5b6200053a8a828b016200040f565b91505092959891949750929550565b600062000558602c836200078c565b91507f526f79616c74792050657263656e74616765206d75737420626520626574776560008301527f656e203020616e642031303000000000000000000000000000000000000000006020830152604082019050919050565b6000620005c0602c836200078c565b91507f546865206e756d626572206f66207469636b657473206d75737420626520677260008301527f6561746572207468616e203000000000000000000000000000000000000000006020830152604082019050919050565b600062000628601c836200078c565b91507f4576656e742053796d626f6c2063616e6e6f7420626520656d707479000000006000830152602082019050919050565b60006200066a601a836200078c565b91507f4576656e74204e616d652063616e6e6f7420626520656d7074790000000000006000830152602082019050919050565b60006020820190508181036000830152620006b88162000549565b9050919050565b60006020820190508181036000830152620006da81620005b1565b9050919050565b60006020820190508181036000830152620006fc8162000619565b9050919050565b600060208201905081810360008301526200071e816200065b565b9050919050565b6000604051905081810181811067ffffffffffffffff821117156200074f576200074e62000895565b5b8060405250919050565b600067ffffffffffffffff82111562000777576200077662000895565b5b601f19601f8301169050602081019050919050565b600082825260208201905092915050565b6000620007aa82620007bd565b9050919050565b60008115159050919050565b600073ffffffffffffffffffffffffffffffffffffffff82169050919050565b600063ffffffff82169050919050565b600060ff82169050919050565b60005b838110156200081a578082015181840152602081019050620007fd565b838111156200082a576000848401525b50505050565b600060028204905060018216806200084957607f821691505b6020821081141562000860576200085f62000866565b5b50919050565b7f4e487b7100000000000000000000000000000000000000000000000000000000600052602260045260246000fd5b7f4e487b7100000000000000000000000000000000000000000000000000000000600052604160045260246000fd5b620008cf816200079d565b8114620008db57600080fd5b50565b620008e981620007b1565b8114620008f557600080fd5b50565b6200090381620007dd565b81146200090f57600080fd5b50565b6200091d81620007ed565b81146200092957600080fd5b50565b615b65806200093c6000396000f3fe608060405260043610610242576000357c0100000000000000000000000000000000000000000000000000000000900480638304737411610140578063a51bba8c116100c8578063ce3cd9971161008c578063ce3cd997146108c9578063dd11247e14610906578063e985e9c514610931578063edca914c1461096e578063fb87774c1461098c57610242565b8063a51bba8c146107e2578063b3874c0d1461080d578063b88d4fde14610838578063c040e6b814610861578063c87b56dd1461088c57610242565b806395d89b411161010f57806395d89b411461070f5780639aecd64a1461073a5780639f67756d14610763578063a035b1fe1461078e578063a22cb465146107b957610242565b806383047374146106535780638da5cb5b1461067c57806393bbd9df146106a757806394d51fc0146106d257610242565b806327e235e3116101ce57806350b447121161019257806350b447121461051e5780636352211e1461055d57806370a082311461059a57806376fa6206146105d75780637dc379fa1461061457610242565b806327e235e3146104325780632f31707c1461046f5780633ccfd60b1461049f57806342842e0e146104ca5780634311de8f146104f357610242565b8063095ea7b311610215578063095ea7b3146103295780631052a9211461035257806318133d151461038f57806318b3822f146103cc57806323b872dd1461040957610242565b806301ffc9a71461024757806302216d331461028457806306fdde03146102c1578063081812fc146102ec575b600080fd5b34801561025357600080fd5b5061026e600480360381019061026991906141ad565b6109c9565b60405161027b919061501f565b60405180910390f35b34801561029057600080fd5b506102ab60048036038101906102a69190614228565b610aab565b6040516102b89190614f1b565b60405180910390f35b3480156102cd57600080fd5b506102d6610ae8565b6040516102e39190615070565b60405180910390f35b3480156102f857600080fd5b50610313600480360381019061030e9190614228565b610b7a565b6040516103209190614f1b565b60405180910390f35b34801561033557600080fd5b50610350600480360381019061034b9190614171565b610bff565b005b34801561035e57600080fd5b5061037960048036038101906103749190614006565b610d17565b6040516103869190615489565b60405180910390f35b34801561039b57600080fd5b506103b660048036038101906103b19190614006565b610d2f565b6040516103c3919061501f565b60405180910390f35b3480156103d857600080fd5b506103f360048036038101906103ee9190614251565b610d4f565b6040516104009190615070565b60405180910390f35b34801561041557600080fd5b50610430600480360381019061042b919061406b565b61107c565b005b34801561043e57600080fd5b5061045960048036038101906104549190614006565b6110dc565b6040516104669190615489565b60405180910390f35b61048960048036038101906104849190614228565b6110f4565b604051610496919061501f565b60405180910390f35b3480156104ab57600080fd5b506104b461157f565b6040516104c1919061501f565b60405180910390f35b3480156104d657600080fd5b506104f160048036038101906104ec919061406b565b6118f8565b005b3480156104ff57600080fd5b50610508611918565b604051610515919061501f565b60405180910390f35b34801561052a57600080fd5b5061054560048036038101906105409190614228565b611ce6565b604051610554939291906154bf565b60405180910390f35b34801561056957600080fd5b50610584600480360381019061057f9190614228565b611d49565b6040516105919190614f1b565b60405180910390f35b3480156105a657600080fd5b506105c160048036038101906105bc9190614006565b611dfb565b6040516105ce9190615489565b60405180910390f35b3480156105e357600080fd5b506105fe60048036038101906105f99190614228565b611eb3565b60405161060b919061501f565b60405180910390f35b34801561062057600080fd5b5061063b60048036038101906106369190614228565b6121d1565b60405161064a939291906154bf565b60405180910390f35b34801561065f57600080fd5b5061067a60048036038101906106759190614228565b6122e8565b005b34801561068857600080fd5b506106916124a3565b60405161069e9190614f36565b60405180910390f35b3480156106b357600080fd5b506106bc6124c9565b6040516106c99190614ffd565b60405180910390f35b3480156106de57600080fd5b506106f960048036038101906106f49190614228565b6125f7565b6040516107069190614f1b565b60405180910390f35b34801561071b57600080fd5b5061072461262a565b6040516107319190615070565b60405180910390f35b34801561074657600080fd5b50610761600480360381019061075c9190614171565b6126bc565b005b34801561076f57600080fd5b5061077861280f565b60405161078591906154f6565b60405180910390f35b34801561079a57600080fd5b506107a3612822565b6040516107b091906154a4565b60405180910390f35b3480156107c557600080fd5b506107e060048036038101906107db9190614135565b612836565b005b3480156107ee57600080fd5b506107f76129b7565b60405161080491906154a4565b60405180910390f35b34801561081957600080fd5b506108226129cd565b60405161082f919061501f565b60405180910390f35b34801561084457600080fd5b5061085f600480360381019061085a91906140ba565b6129e0565b005b34801561086d57600080fd5b50610876612a42565b604051610883919061503a565b60405180910390f35b34801561089857600080fd5b506108b360048036038101906108ae9190614228565b612a55565b6040516108c09190615070565b60405180910390f35b3480156108d557600080fd5b506108f060048036038101906108eb91906141ff565b612afc565b6040516108fd919061503a565b60405180910390f35b34801561091257600080fd5b5061091b612bf5565b60405161092891906154a4565b60405180910390f35b34801561093d57600080fd5b506109586004803603810190610953919061402f565b612c0b565b604051610965919061501f565b60405180910390f35b610976612c9f565b6040516109839190615489565b60405180910390f35b34801561099857600080fd5b506109b360048036038101906109ae9190614228565b6131a6565b6040516109c09190615055565b60405180910390f35b60007f80ac58cd000000000000000000000000000000000000000000000000000000007bffffffffffffffffffffffffffffffffffffffffffffffffffffffff1916827bffffffffffffffffffffffffffffffffffffffffffffffffffffffff19161480610a9457507f5b5e139f000000000000000000000000000000000000000000000000000000007bffffffffffffffffffffffffffffffffffffffffffffffffffffffff1916827bffffffffffffffffffffffffffffffffffffffffffffffffffffffff1916145b80610aa45750610aa382613204565b5b9050919050565b6000600e600083815260200190815260200160002060009054906101000a900473ffffffffffffffffffffffffffffffffffffffff169050919050565b606060008054610af7906158f3565b80601f0160208091040260200160405190810160405280929190818152602001828054610b23906158f3565b8015610b705780601f10610b4557610100808354040283529160200191610b70565b820191906000526020600020905b815481529060010190602001808311610b5357829003601f168201915b5050505050905090565b6000610b858261326e565b610bc4576040517f08c379a0000000000000000000000000000000000000000000000000000000008152600401610bbb90615349565b60405180910390fd5b6004600083815260200190815260200160002060009054906101000a900473ffffffffffffffffffffffffffffffffffffffff169050919050565b6000610c0a82611d49565b90508073ffffffffffffffffffffffffffffffffffffffff168373ffffffffffffffffffffffffffffffffffffffff161415610c7b576040517f08c379a0000000000000000000000000000000000000000000000000000000008152600401610c72906153c9565b60405180910390fd5b8073ffffffffffffffffffffffffffffffffffffffff16610c9a6132da565b73ffffffffffffffffffffffffffffffffffffffff161480610cc95750610cc881610cc36132da565b612c0b565b5b610d08576040517f08c379a0000000000000000000000000000000000000000000000000000000008152600401610cff906152a9565b60405180910390fd5b610d1283836132e2565b505050565b600d6020528060005260406000206000915090505481565b600c6020528060005260406000206000915054906101000a900460ff1681565b60606003806005811115610d8c577f4e487b7100000000000000000000000000000000000000000000000000000000600052602160045260246000fd5b600660009054906101000a900460ff166005811115610dd4577f4e487b7100000000000000000000000000000000000000000000000000000000600052602160045260246000fd5b14610e14576040517f08c379a0000000000000000000000000000000000000000000000000000000008152600401610e0b90615169565b60405180910390fd5b833373ffffffffffffffffffffffffffffffffffffffff16610e3582611d49565b73ffffffffffffffffffffffffffffffffffffffff1614610e8b576040517f08c379a0000000000000000000000000000000000000000000000000000000008152600401610e8290615449565b60405180910390fd5b60016003811115610ec5577f4e487b7100000000000000000000000000000000000000000000000000000000600052602160045260246000fd5b60078681548110610eff577f4e487b7100000000000000000000000000000000000000000000000000000000600052603260045260246000fd5b9060005260206000200160000160089054906101000a900460ff166003811115610f52577f4e487b7100000000000000000000000000000000000000000000000000000000600052602160045260246000fd5b14610f92576040517f08c379a0000000000000000000000000000000000000000000000000000000008152600401610f8990615289565b60405180910390fd5b600260078681548110610fce577f4e487b7100000000000000000000000000000000000000000000000000000000600052603260045260246000fd5b9060005260206000200160000160086101000a81548160ff02191690836003811115611023577f4e487b7100000000000000000000000000000000000000000000000000000000600052602160045260246000fd5b02179055506110318561339b565b7f0ec6ea11439b02352ac1e6ea4869e6c13bdfe61c08d27bc8801f2bbadcdd487b61105a610ae8565b85604051611069929190615092565b60405180910390a1839250505092915050565b61108d6110876132da565b826134ac565b6110cc576040517f08c379a00000000000000000000000000000000000000000000000000000000081526004016110c3906153e9565b60405180910390fd5b6110d783838361358a565b505050565b600b6020528060005260406000206000915090505481565b60006001806005811115611131577f4e487b7100000000000000000000000000000000000000000000000000000000600052602160045260246000fd5b600660009054906101000a900460ff166005811115611179577f4e487b7100000000000000000000000000000000000000000000000000000000600052602160045260246000fd5b146111b9576040517f08c379a00000000000000000000000000000000000000000000000000000000081526004016111b090615169565b60405180910390fd5b3460088054906101000a900463ffffffff1663ffffffff16811015611213576040517f08c379a000000000000000000000000000000000000000000000000000000000815260040161120a90615249565b60405180910390fd5b60038081111561124c577f4e487b7100000000000000000000000000000000000000000000000000000000600052602160045260246000fd5b60078581548110611286577f4e487b7100000000000000000000000000000000000000000000000000000000600052603260045260246000fd5b9060005260206000200160000160089054906101000a900460ff1660038111156112d9577f4e487b7100000000000000000000000000000000000000000000000000000000600052602160045260246000fd5b14611319576040517f08c379a000000000000000000000000000000000000000000000000000000000815260040161131090615269565b60405180910390fd5b600060078581548110611355577f4e487b7100000000000000000000000000000000000000000000000000000000600052603260045260246000fd5b9060005260206000200160000160009054906101000a900463ffffffff1663ffffffff16905060008160646008600c9054906101000a900460ff1661139a91906156a5565b60ff166113a791906156d6565b9050600081836113b79190615730565b905060006113c488611d49565b905081600b60008373ffffffffffffffffffffffffffffffffffffffff1673ffffffffffffffffffffffffffffffffffffffff1681526020019081526020016000206000828254611415919061561e565b9250508190555082600b6000600960009054906101000a900473ffffffffffffffffffffffffffffffffffffffff1673ffffffffffffffffffffffffffffffffffffffff1673ffffffffffffffffffffffffffffffffffffffff168152602001908152602001600020600082825461148d919061561e565b925050819055507f2ff282dae7c1a7b99b722227f3a2079b905c78122b1553e37f8c0ce1e06f4f4b81338a6040516114c793929190614f51565b60405180910390a16114da81338a6118f8565b600160078981548110611516577f4e487b7100000000000000000000000000000000000000000000000000000000600052603260045260246000fd5b9060005260206000200160000160086101000a81548160ff0219169083600381111561156b577f4e487b7100000000000000000000000000000000000000000000000000000000600052602160045260246000fd5b021790555060019650505050505050919050565b600080600b60003373ffffffffffffffffffffffffffffffffffffffff1673ffffffffffffffffffffffffffffffffffffffff1681526020019081526020016000205490506000600b60003373ffffffffffffffffffffffffffffffffffffffff1673ffffffffffffffffffffffffffffffffffffffff1681526020019081526020016000208190555060046005811115611643577f4e487b7100000000000000000000000000000000000000000000000000000000600052602160045260246000fd5b600660009054906101000a900460ff16600581111561168b577f4e487b7100000000000000000000000000000000000000000000000000000000600052602160045260246000fd5b14806117165750600260058111156116cc577f4e487b7100000000000000000000000000000000000000000000000000000000600052602160045260246000fd5b600660009054906101000a900460ff166005811115611714577f4e487b7100000000000000000000000000000000000000000000000000000000600052602160045260246000fd5b145b8015611772575060001515600c60003373ffffffffffffffffffffffffffffffffffffffff1673ffffffffffffffffffffffffffffffffffffffff16815260200190815260200160002060009054906101000a900460ff161515145b156117f4576001600c60003373ffffffffffffffffffffffffffffffffffffffff1673ffffffffffffffffffffffffffffffffffffffff16815260200190815260200160002060006101000a81548160ff02191690831515021790555060088054906101000a900463ffffffff1663ffffffff16816117f1919061561e565b90505b60008111611837576040517f08c379a000000000000000000000000000000000000000000000000000000000815260040161182e90615209565b60405180910390fd5b600033905060008173ffffffffffffffffffffffffffffffffffffffff166108fc849081150290604051600060405180830381858888f193505050509050806118b5576040517f08c379a00000000000000000000000000000000000000000000000000000000081526004016118ac90615309565b60405180910390fd5b7f9fe2db218b58c00ab3556f2be44b2769b37978368c63313d82d78306568e477633846040516118e6929190614fd4565b60405180910390a16001935050505090565b611913838383604051806020016040528060008152506129e0565b505050565b6000600960009054906101000a900473ffffffffffffffffffffffffffffffffffffffff1673ffffffffffffffffffffffffffffffffffffffff163373ffffffffffffffffffffffffffffffffffffffff16146119aa576040517f08c379a00000000000000000000000000000000000000000000000000000000081526004016119a1906150e9565b60405180910390fd5b60058060058111156119e5577f4e487b7100000000000000000000000000000000000000000000000000000000600052602160045260246000fd5b600660009054906101000a900460ff166005811115611a2d577f4e487b7100000000000000000000000000000000000000000000000000000000600052602160045260246000fd5b14611a6d576040517f08c379a0000000000000000000000000000000000000000000000000000000008152600401611a6490615169565b60405180910390fd5b60001515600c6000600960009054906101000a900473ffffffffffffffffffffffffffffffffffffffff1673ffffffffffffffffffffffffffffffffffffffff1673ffffffffffffffffffffffffffffffffffffffff16815260200190815260200160002060009054906101000a900460ff16151514611b22576040517f08c379a0000000000000000000000000000000000000000000000000000000008152600401611b19906151e9565b60405180910390fd5b6001600c6000600960009054906101000a900473ffffffffffffffffffffffffffffffffffffffff1673ffffffffffffffffffffffffffffffffffffffff1673ffffffffffffffffffffffffffffffffffffffff16815260200190815260200160002060006101000a81548160ff0219169083151502179055506000600a543073ffffffffffffffffffffffffffffffffffffffff1631611bc39190615730565b905060008111611c08576040517f08c379a0000000000000000000000000000000000000000000000000000000008152600401611bff906153a9565b60405180910390fd5b6000600960009054906101000a900473ffffffffffffffffffffffffffffffffffffffff1673ffffffffffffffffffffffffffffffffffffffff166108fc839081150290604051600060405180830381858888f19350505050905080611ca3576040517f08c379a0000000000000000000000000000000000000000000000000000000008152600401611c9a90615409565b60405180910390fd5b7f5f0d69e5c0056ecc650fc0d2d916359037135dac3d5b5446d226dfdbe292482e3383604051611cd4929190614fd4565b60405180910390a16001935050505090565b60078181548110611cf657600080fd5b906000526020600020016000915090508060000160009054906101000a900463ffffffff16908060000160049054906101000a900463ffffffff16908060000160089054906101000a900460ff16905083565b6000806002600084815260200190815260200160002060009054906101000a900473ffffffffffffffffffffffffffffffffffffffff169050600073ffffffffffffffffffffffffffffffffffffffff168173ffffffffffffffffffffffffffffffffffffffff161415611df2576040517f08c379a0000000000000000000000000000000000000000000000000000000008152600401611de9906152e9565b60405180910390fd5b80915050919050565b60008073ffffffffffffffffffffffffffffffffffffffff168273ffffffffffffffffffffffffffffffffffffffff161415611e6c576040517f08c379a0000000000000000000000000000000000000000000000000000000008152600401611e63906152c9565b60405180910390fd5b600360008373ffffffffffffffffffffffffffffffffffffffff1673ffffffffffffffffffffffffffffffffffffffff168152602001908152602001600020549050919050565b60006001806005811115611ef0577f4e487b7100000000000000000000000000000000000000000000000000000000600052602160045260246000fd5b600660009054906101000a900460ff166005811115611f38577f4e487b7100000000000000000000000000000000000000000000000000000000600052602160045260246000fd5b14611f78576040517f08c379a0000000000000000000000000000000000000000000000000000000008152600401611f6f90615169565b60405180910390fd5b823373ffffffffffffffffffffffffffffffffffffffff16611f9982611d49565b73ffffffffffffffffffffffffffffffffffffffff1614611fef576040517f08c379a0000000000000000000000000000000000000000000000000000000008152600401611fe690615449565b60405180910390fd5b60026003811115612029577f4e487b7100000000000000000000000000000000000000000000000000000000600052602160045260246000fd5b60078581548110612063577f4e487b7100000000000000000000000000000000000000000000000000000000600052603260045260246000fd5b9060005260206000200160000160089054906101000a900460ff1660038111156120b6577f4e487b7100000000000000000000000000000000000000000000000000000000600052602160045260246000fd5b14156120f7576040517f08c379a00000000000000000000000000000000000000000000000000000000081526004016120ee90615149565b60405180910390fd5b600360078581548110612133577f4e487b7100000000000000000000000000000000000000000000000000000000600052603260045260246000fd5b9060005260206000200160000160086101000a81548160ff02191690836003811115612188577f4e487b7100000000000000000000000000000000000000000000000000000000600052602160045260246000fd5b02179055507fec1a51878793b26371980da80139946e4a398461978717cbe8d07596dd3404b633856040516121be929190614fd4565b60405180910390a1600192505050919050565b600080600060078481548110612210577f4e487b7100000000000000000000000000000000000000000000000000000000600052603260045260246000fd5b9060005260206000200160000160009054906101000a900463ffffffff1692506007848154811061226a577f4e487b7100000000000000000000000000000000000000000000000000000000600052603260045260246000fd5b9060005260206000200160000160049054906101000a900463ffffffff169150600784815481106122c4577f4e487b7100000000000000000000000000000000000000000000000000000000600052603260045260246000fd5b9060005260206000200160000160089054906101000a900460ff1690509193909250565b6001806005811115612323577f4e487b7100000000000000000000000000000000000000000000000000000000600052602160045260246000fd5b600660009054906101000a900460ff16600581111561236b577f4e487b7100000000000000000000000000000000000000000000000000000000600052602160045260246000fd5b146123ab576040517f08c379a00000000000000000000000000000000000000000000000000000000081526004016123a290615169565b60405180910390fd5b3373ffffffffffffffffffffffffffffffffffffffff16600e600084815260200190815260200160002060009054906101000a900473ffffffffffffffffffffffffffffffffffffffff1673ffffffffffffffffffffffffffffffffffffffff16141561244d576040517f08c379a000000000000000000000000000000000000000000000000000000000815260040161244490615469565b60405180910390fd5b33600e600084815260200190815260200160002060006101000a81548173ffffffffffffffffffffffffffffffffffffffff021916908373ffffffffffffffffffffffffffffffffffffffff1602179055505050565b600960009054906101000a900473ffffffffffffffffffffffffffffffffffffffff1681565b60606007805480602002602001604051908101604052809291908181526020016000905b828210156125ee578382906000526020600020016040518060600160405290816000820160009054906101000a900463ffffffff1663ffffffff1663ffffffff1681526020016000820160049054906101000a900463ffffffff1663ffffffff1663ffffffff1681526020016000820160089054906101000a900460ff1660038111156125a3577f4e487b7100000000000000000000000000000000000000000000000000000000600052602160045260246000fd5b60038111156125db577f4e487b7100000000000000000000000000000000000000000000000000000000600052602160045260246000fd5b81525050815260200190600101906124ed565b50505050905090565b600e6020528060005260406000206000915054906101000a900473ffffffffffffffffffffffffffffffffffffffff1681565b606060018054612639906158f3565b80601f0160208091040260200160405190810160405280929190818152602001828054612665906158f3565b80156126b25780601f10612687576101008083540402835291602001916126b2565b820191906000526020600020905b81548152906001019060200180831161269557829003601f168201915b5050505050905090565b60018060058111156126f7577f4e487b7100000000000000000000000000000000000000000000000000000000600052602160045260246000fd5b600660009054906101000a900460ff16600581111561273f577f4e487b7100000000000000000000000000000000000000000000000000000000600052602160045260246000fd5b1461277f576040517f08c379a000000000000000000000000000000000000000000000000000000000815260040161277690615169565b60405180910390fd5b3373ffffffffffffffffffffffffffffffffffffffff1661279f83611d49565b73ffffffffffffffffffffffffffffffffffffffff16146127f5576040517f08c379a00000000000000000000000000000000000000000000000000000000081526004016127ec90615129565b60405180910390fd5b612800836001612836565b61280a8383610bff565b505050565b6008600c9054906101000a900460ff1681565b60088054906101000a900463ffffffff1681565b61283e6132da565b73ffffffffffffffffffffffffffffffffffffffff168273ffffffffffffffffffffffffffffffffffffffff1614156128ac576040517f08c379a00000000000000000000000000000000000000000000000000000000081526004016128a3906151c9565b60405180910390fd5b80600560006128b96132da565b73ffffffffffffffffffffffffffffffffffffffff1673ffffffffffffffffffffffffffffffffffffffff16815260200190815260200160002060008473ffffffffffffffffffffffffffffffffffffffff1673ffffffffffffffffffffffffffffffffffffffff16815260200190815260200160002060006101000a81548160ff0219169083151502179055508173ffffffffffffffffffffffffffffffffffffffff166129666132da565b73ffffffffffffffffffffffffffffffffffffffff167f17307eab39ab6107e8899845ad3d59bd9653f200f220920489ca2b5937696c31836040516129ab919061501f565b60405180910390a35050565b600860009054906101000a900463ffffffff1681565b6008600d9054906101000a900460ff1681565b6129f16129eb6132da565b836134ac565b612a30576040517f08c379a0000000000000000000000000000000000000000000000000000000008152600401612a27906153e9565b60405180910390fd5b612a3c848484846137e6565b50505050565b600660009054906101000a900460ff1681565b6060612a608261326e565b612a9f576040517f08c379a0000000000000000000000000000000000000000000000000000000008152600401612a9690615389565b60405180910390fd5b6000612aa9613842565b90506000815111612ac95760405180602001604052806000815250612af4565b80612ad384613859565b604051602001612ae4929190614ef7565b6040516020818303038152906040525b915050919050565b6000600960009054906101000a900473ffffffffffffffffffffffffffffffffffffffff1673ffffffffffffffffffffffffffffffffffffffff163373ffffffffffffffffffffffffffffffffffffffff1614612b8e576040517f08c379a0000000000000000000000000000000000000000000000000000000008152600401612b85906150e9565b60405180910390fd5b81600660006101000a81548160ff02191690836005811115612bd9577f4e487b7100000000000000000000000000000000000000000000000000000000600052602160045260246000fd5b0217905550600660009054906101000a900460ff169050919050565b600860049054906101000a900463ffffffff1681565b6000600560008473ffffffffffffffffffffffffffffffffffffffff1673ffffffffffffffffffffffffffffffffffffffff16815260200190815260200160002060008373ffffffffffffffffffffffffffffffffffffffff1673ffffffffffffffffffffffffffffffffffffffff16815260200190815260200160002060009054906101000a900460ff16905092915050565b600060016005811115612cdb577f4e487b7100000000000000000000000000000000000000000000000000000000600052602160045260246000fd5b600660009054906101000a900460ff166005811115612d23577f4e487b7100000000000000000000000000000000000000000000000000000000600052602160045260246000fd5b1480612dae575060036005811115612d64577f4e487b7100000000000000000000000000000000000000000000000000000000600052602160045260246000fd5b600660009054906101000a900460ff166005811115612dac577f4e487b7100000000000000000000000000000000000000000000000000000000600052602160045260246000fd5b145b612ded576040517f08c379a0000000000000000000000000000000000000000000000000000000008152600401612de490615429565b60405180910390fd5b6000600860009054906101000a900463ffffffff1663ffffffff1611612e48576040517f08c379a0000000000000000000000000000000000000000000000000000000008152600401612e3f90615189565b60405180910390fd5b3460088054906101000a900463ffffffff1663ffffffff16811015612ea2576040517f08c379a0000000000000000000000000000000000000000000000000000000008152600401612e9990615249565b60405180910390fd5b612eaa613e53565b60088054906101000a900463ffffffff16816000019063ffffffff16908163ffffffff168152505060088054906101000a900463ffffffff16816020019063ffffffff16908163ffffffff1681525050600181604001906003811115612f39577f4e487b7100000000000000000000000000000000000000000000000000000000600052602160045260246000fd5b90816003811115612f73577f4e487b7100000000000000000000000000000000000000000000000000000000600052602160045260246000fd5b815250506007819080600181540180825580915050600190039060005260206000200160009091909190915060008201518160000160006101000a81548163ffffffff021916908363ffffffff16021790555060208201518160000160046101000a81548163ffffffff021916908363ffffffff16021790555060408201518160000160086101000a81548160ff0219169083600381111561303e577f4e487b7100000000000000000000000000000000000000000000000000000000600052602160045260246000fd5b02179055505050600060016007805490506130599190615730565b90506008600081819054906101000a900463ffffffff168092919061307d906158c9565b91906101000a81548163ffffffff021916908363ffffffff160217905550506130a63382613a25565b7f45b138e571439656fbf8d1d09364ce6268bcd2bcbefd7d1d01c57ab4f8bbe8fc33826040516130d7929190614fd4565b60405180910390a160088054906101000a900463ffffffff1663ffffffff1634111561319d5760088054906101000a900463ffffffff1663ffffffff163461311f9190615730565b600b60003373ffffffffffffffffffffffffffffffffffffffff1673ffffffffffffffffffffffffffffffffffffffff1681526020019081526020016000208190555060088054906101000a900463ffffffff1663ffffffff16346131849190615730565b600a6000828254613195919061561e565b925050819055505b80935050505090565b6000600782815481106131e2577f4e487b7100000000000000000000000000000000000000000000000000000000600052603260045260246000fd5b9060005260206000200160000160089054906101000a900460ff169050919050565b60007f01ffc9a7000000000000000000000000000000000000000000000000000000007bffffffffffffffffffffffffffffffffffffffffffffffffffffffff1916827bffffffffffffffffffffffffffffffffffffffffffffffffffffffff1916149050919050565b60008073ffffffffffffffffffffffffffffffffffffffff166002600084815260200190815260200160002060009054906101000a900473ffffffffffffffffffffffffffffffffffffffff1673ffffffffffffffffffffffffffffffffffffffff1614159050919050565b600033905090565b816004600083815260200190815260200160002060006101000a81548173ffffffffffffffffffffffffffffffffffffffff021916908373ffffffffffffffffffffffffffffffffffffffff160217905550808273ffffffffffffffffffffffffffffffffffffffff1661335583611d49565b73ffffffffffffffffffffffffffffffffffffffff167f8c5be1e5ebec7d5bd14f71427d1e84f3dd0314c0f7b2291e5b200ac8c7c3b92560405160405180910390a45050565b60006133a682611d49565b90506133b481600084613a43565b6133bf6000836132e2565b6001600360008373ffffffffffffffffffffffffffffffffffffffff1673ffffffffffffffffffffffffffffffffffffffff168152602001908152602001600020600082825461340f9190615730565b925050819055506002600083815260200190815260200160002060006101000a81549073ffffffffffffffffffffffffffffffffffffffff021916905581600073ffffffffffffffffffffffffffffffffffffffff168273ffffffffffffffffffffffffffffffffffffffff167fddf252ad1be2c89b69c2b068fc378daa952ba7f163c4a11628f55a4df523b3ef60405160405180910390a45050565b60006134b78261326e565b6134f6576040517f08c379a00000000000000000000000000000000000000000000000000000000081526004016134ed90615229565b60405180910390fd5b600061350183611d49565b90508073ffffffffffffffffffffffffffffffffffffffff168473ffffffffffffffffffffffffffffffffffffffff16148061357057508373ffffffffffffffffffffffffffffffffffffffff1661355884610b7a565b73ffffffffffffffffffffffffffffffffffffffff16145b8061358157506135808185612c0b565b5b91505092915050565b8273ffffffffffffffffffffffffffffffffffffffff166135aa82611d49565b73ffffffffffffffffffffffffffffffffffffffff1614613600576040517f08c379a00000000000000000000000000000000000000000000000000000000081526004016135f790615369565b60405180910390fd5b600073ffffffffffffffffffffffffffffffffffffffff168273ffffffffffffffffffffffffffffffffffffffff161415613670576040517f08c379a0000000000000000000000000000000000000000000000000000000008152600401613667906151a9565b60405180910390fd5b61367b838383613a43565b6136866000826132e2565b6001600360008573ffffffffffffffffffffffffffffffffffffffff1673ffffffffffffffffffffffffffffffffffffffff16815260200190815260200160002060008282546136d69190615730565b925050819055506001600360008473ffffffffffffffffffffffffffffffffffffffff1673ffffffffffffffffffffffffffffffffffffffff168152602001908152602001600020600082825461372d919061561e565b92505081905550816002600083815260200190815260200160002060006101000a81548173ffffffffffffffffffffffffffffffffffffffff021916908373ffffffffffffffffffffffffffffffffffffffff160217905550808273ffffffffffffffffffffffffffffffffffffffff168473ffffffffffffffffffffffffffffffffffffffff167fddf252ad1be2c89b69c2b068fc378daa952ba7f163c4a11628f55a4df523b3ef60405160405180910390a4505050565b6137f184848461358a565b6137fd84848484613a48565b61383c576040517f08c379a0000000000000000000000000000000000000000000000000000000008152600401613833906150c9565b60405180910390fd5b50505050565b606060405180602001604052806000815250905090565b606060008214156138a1576040518060400160405280600181526020017f30000000000000000000000000000000000000000000000000000000000000008152509050613a20565b600082905060005b600082146138d35780806138bc90615925565b915050600a826138cc9190615674565b91506138a9565b60008167ffffffffffffffff811115613915577f4e487b7100000000000000000000000000000000000000000000000000000000600052604160045260246000fd5b6040519080825280601f01601f1916602001820160405280156139475781602001600182028036833780820191505090505b5090505b60008514613a19576001826139609190615730565b9150600a8561396f919061596e565b603061397b919061561e565b7f0100000000000000000000000000000000000000000000000000000000000000028183815181106139d6577f4e487b7100000000000000000000000000000000000000000000000000000000600052603260045260246000fd5b60200101907effffffffffffffffffffffffffffffffffffffffffffffffffffffffffffff1916908160001a905350600a85613a129190615674565b945061394b565b8093505050505b919050565b613a3f828260405180602001604052806000815250613c17565b5050565b505050565b6000613a698473ffffffffffffffffffffffffffffffffffffffff16613c72565b15613c0a578373ffffffffffffffffffffffffffffffffffffffff1663150b7a02613a926132da565b8786866040518563ffffffff167c0100000000000000000000000000000000000000000000000000000000028152600401613ad09493929190614f88565b602060405180830381600087803b158015613aea57600080fd5b505af1925050508015613b1b57506040513d601f19601f82011682018060405250810190613b1891906141d6565b60015b613b9e573d8060008114613b4b576040519150601f19603f3d011682016040523d82523d6000602084013e613b50565b606091505b50600081511415613b96576040517f08c379a0000000000000000000000000000000000000000000000000000000008152600401613b8d906150c9565b60405180910390fd5b805181602001fd5b63150b7a027c0100000000000000000000000000000000000000000000000000000000027bffffffffffffffffffffffffffffffffffffffffffffffffffffffff1916817bffffffffffffffffffffffffffffffffffffffffffffffffffffffff191614915050613c0f565b600190505b949350505050565b613c218383613c85565b613c2e6000848484613a48565b613c6d576040517f08c379a0000000000000000000000000000000000000000000000000000000008152600401613c64906150c9565b60405180910390fd5b505050565b600080823b905060008111915050919050565b600073ffffffffffffffffffffffffffffffffffffffff168273ffffffffffffffffffffffffffffffffffffffff161415613cf5576040517f08c379a0000000000000000000000000000000000000000000000000000000008152600401613cec90615329565b60405180910390fd5b613cfe8161326e565b15613d3e576040517f08c379a0000000000000000000000000000000000000000000000000000000008152600401613d3590615109565b60405180910390fd5b613d4a60008383613a43565b6001600360008473ffffffffffffffffffffffffffffffffffffffff1673ffffffffffffffffffffffffffffffffffffffff1681526020019081526020016000206000828254613d9a919061561e565b92505081905550816002600083815260200190815260200160002060006101000a81548173ffffffffffffffffffffffffffffffffffffffff021916908373ffffffffffffffffffffffffffffffffffffffff160217905550808273ffffffffffffffffffffffffffffffffffffffff16600073ffffffffffffffffffffffffffffffffffffffff167fddf252ad1be2c89b69c2b068fc378daa952ba7f163c4a11628f55a4df523b3ef60405160405180910390a45050565b6040518060600160405280600063ffffffff168152602001600063ffffffff16815260200160006003811115613eb2577f4e487b7100000000000000000000000000000000000000000000000000000000600052602160045260246000fd5b81525090565b6000613ecb613ec684615542565b615511565b905082815260208101848484011115613ee357600080fd5b613eee848285615887565b509392505050565b6000613f09613f0484615572565b615511565b905082815260208101848484011115613f2157600080fd5b613f2c848285615887565b509392505050565b600081359050613f4381615ac3565b92915050565b600081359050613f5881615ada565b92915050565b600081359050613f6d81615af1565b92915050565b600081519050613f8281615af1565b92915050565b600082601f830112613f9957600080fd5b8135613fa9848260208601613eb8565b91505092915050565b600081359050613fc181615b08565b92915050565b600082601f830112613fd857600080fd5b8135613fe8848260208601613ef6565b91505092915050565b60008135905061400081615b18565b92915050565b60006020828403121561401857600080fd5b600061402684828501613f34565b91505092915050565b6000806040838503121561404257600080fd5b600061405085828601613f34565b925050602061406185828601613f34565b9150509250929050565b60008060006060848603121561408057600080fd5b600061408e86828701613f34565b935050602061409f86828701613f34565b92505060406140b086828701613ff1565b9150509250925092565b600080600080608085870312156140d057600080fd5b60006140de87828801613f34565b94505060206140ef87828801613f34565b935050604061410087828801613ff1565b925050606085013567ffffffffffffffff81111561411d57600080fd5b61412987828801613f88565b91505092959194509250565b6000806040838503121561414857600080fd5b600061415685828601613f34565b925050602061416785828601613f49565b9150509250929050565b6000806040838503121561418457600080fd5b600061419285828601613f34565b92505060206141a385828601613ff1565b9150509250929050565b6000602082840312156141bf57600080fd5b60006141cd84828501613f5e565b91505092915050565b6000602082840312156141e857600080fd5b60006141f684828501613f73565b91505092915050565b60006020828403121561421157600080fd5b600061421f84828501613fb2565b91505092915050565b60006020828403121561423a57600080fd5b600061424884828501613ff1565b91505092915050565b6000806040838503121561426457600080fd5b600061427285828601613ff1565b925050602083013567ffffffffffffffff81111561428f57600080fd5b61429b85828601613fc7565b9150509250929050565b60006142b18383614e79565b60608301905092915050565b6142c68161582d565b82525050565b6142d581615776565b82525050565b6142e481615764565b82525050565b60006142f5826155b2565b6142ff81856155e0565b935061430a836155a2565b8060005b8381101561433b57815161432288826142a5565b975061432d836155d3565b92505060018101905061430e565b5085935050505092915050565b61435181615788565b82525050565b6000614362826155bd565b61436c81856155f1565b935061437c818560208601615896565b61438581615a8a565b840191505092915050565b6143998161583f565b82525050565b6143a881615851565b82525050565b6143b781615851565b82525050565b60006143c8826155c8565b6143d28185615602565b93506143e2818560208601615896565b6143eb81615a8a565b840191505092915050565b6000614401826155c8565b61440b8185615613565b935061441b818560208601615896565b80840191505092915050565b6000614434603283615602565b91507f4552433732313a207472616e7366657220746f206e6f6e20455243373231526560008301527f63656976657220696d706c656d656e74657200000000000000000000000000006020830152604082019050919050565b600061449a602183615602565b91507f43616e206f6e6c7920626520657865637574656420627920746865206f776e6560008301527f72000000000000000000000000000000000000000000000000000000000000006020830152604082019050919050565b6000614500601c83615602565b91507f4552433732313a20746f6b656e20616c7265616479206d696e746564000000006000830152602082019050919050565b6000614540600d83615602565b91507f6e6f207065726d697373696f6e000000000000000000000000000000000000006000830152602082019050919050565b6000614580601c83615602565b91507f5469636b65742068617320616c7265616479206265656e2075736564000000006000830152602082019050919050565b60006145c0602583615602565b91507f43616e6e6f7420657865637574652066756e6374696f6e20617420746869732060008301527f73746167650000000000000000000000000000000000000000000000000000006020830152604082019050919050565b6000614626601883615602565b91507f5468657265206172652030207469636b657473206c65667400000000000000006000830152602082019050919050565b6000614666602483615602565b91507f4552433732313a207472616e7366657220746f20746865207a65726f2061646460008301527f72657373000000000000000000000000000000000000000000000000000000006020830152604082019050919050565b60006146cc601983615602565b91507f4552433732313a20617070726f766520746f2063616c6c6572000000000000006000830152602082019050919050565b600061470c602183615602565b91507f4f776e65722068617320616c72656164792077697468647261776e206d6f6e6560008301527f79000000000000000000000000000000000000000000000000000000000000006020830152604082019050919050565b6000614772602483615602565b91507f5573657220646f6573206e6f742068617665206d6f6e657920746f207769746860008301527f64726177000000000000000000000000000000000000000000000000000000006020830152604082019050919050565b60006147d8602c83615602565b91507f4552433732313a206f70657261746f7220717565727920666f72206e6f6e657860008301527f697374656e7420746f6b656e00000000000000000000000000000000000000006020830152604082019050919050565b600061483e602583615602565b91507f4e6f7420656e6f756768206d6f6e657920746f2070757263686173652061207460008301527f69636b65740000000000000000000000000000000000000000000000000000006020830152604082019050919050565b60006148a4601d83615602565b91507f5469636b6574206e6f7420617661696c61626c6520666f722073616c650000006000830152602082019050919050565b60006148e4602683615602565b91507f5468657265206973206e6f2076616c6964207469636b657420666f722074686960008301527f73207573657200000000000000000000000000000000000000000000000000006020830152604082019050919050565b600061494a603883615602565b91507f4552433732313a20617070726f76652063616c6c6572206973206e6f74206f7760008301527f6e6572206e6f7220617070726f76656420666f7220616c6c00000000000000006020830152604082019050919050565b60006149b0602a83615602565b91507f4552433732313a2062616c616e636520717565727920666f7220746865207a6560008301527f726f2061646472657373000000000000000000000000000000000000000000006020830152604082019050919050565b6000614a16602983615602565b91507f4552433732313a206f776e657220717565727920666f72206e6f6e657869737460008301527f656e7420746f6b656e00000000000000000000000000000000000000000000006020830152604082019050919050565b6000614a7c601c83615602565b91507f4661696c656420746f2073656e6420657468657220746f2075736572000000006000830152602082019050919050565b6000614abc602083615602565b91507f4552433732313a206d696e7420746f20746865207a65726f20616464726573736000830152602082019050919050565b6000614afc602c83615602565b91507f4552433732313a20617070726f76656420717565727920666f72206e6f6e657860008301527f697374656e7420746f6b656e00000000000000000000000000000000000000006020830152604082019050919050565b6000614b62602983615602565b91507f4552433732313a207472616e73666572206f6620746f6b656e2074686174206960008301527f73206e6f74206f776e00000000000000000000000000000000000000000000006020830152604082019050919050565b6000614bc8602f83615602565b91507f4552433732314d657461646174613a2055524920717565727920666f72206e6f60008301527f6e6578697374656e7420746f6b656e00000000000000000000000000000000006020830152604082019050919050565b6000614c2e602283615602565b91507f4e6f206d6f6e657920696e20736d61727420636f6e7472616374206163636f7560008301527f6e740000000000000000000000000000000000000000000000000000000000006020830152604082019050919050565b6000614c94602183615602565b91507f4552433732313a20617070726f76616c20746f2063757272656e74206f776e6560008301527f72000000000000000000000000000000000000000000000000000000000000006020830152604082019050919050565b6000614cfa603183615602565b91507f4552433732313a207472616e736665722063616c6c6572206973206e6f74206f60008301527f776e6572206e6f7220617070726f7665640000000000000000000000000000006020830152604082019050919050565b6000614d60601d83615602565b91507f4661696c656420746f2073656e6420657468657220746f206f776e65720000006000830152602082019050919050565b6000614da0601d83615602565b91507f5469636b65747320617265206e6f74206f70656e20666f722073616c650000006000830152602082019050919050565b6000614de0601d83615602565b91507f5573657220646f6573206e6f74206f776e2074686973207469636b65740000006000830152602082019050919050565b6000614e20602283615602565b91507f596f75206861766520616c7265616479207265676973746572656420746f206260008301527f75790000000000000000000000000000000000000000000000000000000000006020830152604082019050919050565b606082016000820151614e8f6000850182614eca565b506020820151614ea26020850182614eca565b506040820151614eb5604085018261439f565b50505050565b614ec481615806565b82525050565b614ed381615810565b82525050565b614ee281615810565b82525050565b614ef181615820565b82525050565b6000614f0382856143f6565b9150614f0f82846143f6565b91508190509392505050565b6000602082019050614f3060008301846142db565b92915050565b6000602082019050614f4b60008301846142cc565b92915050565b6000606082019050614f6660008301866142bd565b614f7360208301856142db565b614f806040830184614ebb565b949350505050565b6000608082019050614f9d60008301876142db565b614faa60208301866142db565b614fb76040830185614ebb565b8181036060830152614fc98184614357565b905095945050505050565b6000604082019050614fe960008301856142db565b614ff66020830184614ebb565b9392505050565b6000602082019050818103600083015261501781846142ea565b905092915050565b60006020820190506150346000830184614348565b92915050565b600060208201905061504f6000830184614390565b92915050565b600060208201905061506a60008301846143ae565b92915050565b6000602082019050818103600083015261508a81846143bd565b905092915050565b600060408201905081810360008301526150ac81856143bd565b905081810360208301526150c081846143bd565b90509392505050565b600060208201905081810360008301526150e281614427565b9050919050565b600060208201905081810360008301526151028161448d565b9050919050565b60006020820190508181036000830152615122816144f3565b9050919050565b6000602082019050818103600083015261514281614533565b9050919050565b6000602082019050818103600083015261516281614573565b9050919050565b60006020820190508181036000830152615182816145b3565b9050919050565b600060208201905081810360008301526151a281614619565b9050919050565b600060208201905081810360008301526151c281614659565b9050919050565b600060208201905081810360008301526151e2816146bf565b9050919050565b60006020820190508181036000830152615202816146ff565b9050919050565b6000602082019050818103600083015261522281614765565b9050919050565b60006020820190508181036000830152615242816147cb565b9050919050565b6000602082019050818103600083015261526281614831565b9050919050565b6000602082019050818103600083015261528281614897565b9050919050565b600060208201905081810360008301526152a2816148d7565b9050919050565b600060208201905081810360008301526152c28161493d565b9050919050565b600060208201905081810360008301526152e2816149a3565b9050919050565b6000602082019050818103600083015261530281614a09565b9050919050565b6000602082019050818103600083015261532281614a6f565b9050919050565b6000602082019050818103600083015261534281614aaf565b9050919050565b6000602082019050818103600083015261536281614aef565b9050919050565b6000602082019050818103600083015261538281614b55565b9050919050565b600060208201905081810360008301526153a281614bbb565b9050919050565b600060208201905081810360008301526153c281614c21565b9050919050565b600060208201905081810360008301526153e281614c87565b9050919050565b6000602082019050818103600083015261540281614ced565b9050919050565b6000602082019050818103600083015261542281614d53565b9050919050565b6000602082019050818103600083015261544281614d93565b9050919050565b6000602082019050818103600083015261546281614dd3565b9050919050565b6000602082019050818103600083015261548281614e13565b9050919050565b600060208201905061549e6000830184614ebb565b92915050565b60006020820190506154b96000830184614ed9565b92915050565b60006060820190506154d46000830186614ed9565b6154e16020830185614ed9565b6154ee60408301846143ae565b949350505050565b600060208201905061550b6000830184614ee8565b92915050565b6000604051905081810181811067ffffffffffffffff8211171561553857615537615a5b565b5b8060405250919050565b600067ffffffffffffffff82111561555d5761555c615a5b565b5b601f19601f8301169050602081019050919050565b600067ffffffffffffffff82111561558d5761558c615a5b565b5b601f19601f8301169050602081019050919050565b6000819050602082019050919050565b600081519050919050565b600081519050919050565b600081519050919050565b6000602082019050919050565b600082825260208201905092915050565b600082825260208201905092915050565b600082825260208201905092915050565b600081905092915050565b600061562982615806565b915061563483615806565b9250827fffffffffffffffffffffffffffffffffffffffffffffffffffffffffffffffff038211156156695761566861599f565b5b828201905092915050565b600061567f82615806565b915061568a83615806565b92508261569a576156996159ce565b5b828204905092915050565b60006156b082615820565b91506156bb83615820565b9250826156cb576156ca6159ce565b5b828204905092915050565b60006156e182615806565b91506156ec83615806565b9250817fffffffffffffffffffffffffffffffffffffffffffffffffffffffffffffffff04831182151516156157255761572461599f565b5b828202905092915050565b600061573b82615806565b915061574683615806565b9250828210156157595761575861599f565b5b828203905092915050565b600061576f826157e6565b9050919050565b6000615781826157e6565b9050919050565b60008115159050919050565b60007fffffffff0000000000000000000000000000000000000000000000000000000082169050919050565b60008190506157ce82615a9b565b919050565b60008190506157e182615aaf565b919050565b600073ffffffffffffffffffffffffffffffffffffffff82169050919050565b6000819050919050565b600063ffffffff82169050919050565b600060ff82169050919050565b600061583882615863565b9050919050565b600061584a826157c0565b9050919050565b600061585c826157d3565b9050919050565b600061586e82615875565b9050919050565b6000615880826157e6565b9050919050565b82818337600083830152505050565b60005b838110156158b4578082015181840152602081019050615899565b838111156158c3576000848401525b50505050565b60006158d482615810565b915060008214156158e8576158e761599f565b5b600182039050919050565b6000600282049050600182168061590b57607f821691505b6020821081141561591f5761591e615a2c565b5b50919050565b600061593082615806565b91507fffffffffffffffffffffffffffffffffffffffffffffffffffffffffffffffff8214156159635761596261599f565b5b600182019050919050565b600061597982615806565b915061598483615806565b925082615994576159936159ce565b5b828206905092915050565b7f4e487b7100000000000000000000000000000000000000000000000000000000600052601160045260246000fd5b7f4e487b7100000000000000000000000000000000000000000000000000000000600052601260045260246000fd5b7f4e487b7100000000000000000000000000000000000000000000000000000000600052602160045260246000fd5b7f4e487b7100000000000000000000000000000000000000000000000000000000600052602260045260246000fd5b7f4e487b7100000000000000000000000000000000000000000000000000000000600052604160045260246000fd5b6000601f19601f8301169050919050565b60068110615aac57615aab6159fd565b5b50565b60048110615ac057615abf6159fd565b5b50565b615acc81615764565b8114615ad757600080fd5b50565b615ae381615788565b8114615aee57600080fd5b50565b615afa81615794565b8114615b0557600080fd5b50565b60068110615b1557600080fd5b50565b615b2181615806565b8114615b2c57600080fd5b5056fea2646970667358221220a8a836ee01928764920a463ff113d8491b324b685e48ccd4e7e7aaac8173b84564736f6c63430008000033a2646970667358221220d2b215fdf19353a83949d05fc6153b3f140c636d2a42a48f47c86eaa187d9b3664736f6c63430008000033",
  "immutableReferences": {},
  "source": "// SPDX-License-Identifier: UNLICENSED\r\npragma solidity 0.8.0;\r\nimport \"@openzeppelin/contracts/token/ERC721/ERC721.sol\";\r\n \r\n/// @title Factory Contract to create events\r\ncontract EventCreator {\r\n\r\n    // Created events\r\n    Event[] public events;\r\n\r\n    // EVENTS\r\n    event CreateEvent(address _creator, address _event);\r\n\r\n    /**\r\n     * @notice Creates Events\r\n     * @param _numTickets Number of tickets \r\n     * @param _price Price per ticket\r\n     * @param _canBeResold Are tickets allowed to be resold\r\n     * @param _royaltyPercent Royalty percentage accrued by organizers on reselling of ticket\r\n     * @param _eventName Name of the Ticket NFT\r\n     * @param _eventSymbol Symbol for the Ticket NFT Token\r\n     */\r\n    function createEvent(uint32 _numTickets, uint32 _price, bool _canBeResold, uint8 _royaltyPercent,\r\n            string memory _eventName, string memory _eventSymbol) external returns(address newEvent) {\r\n\r\n        // Create a new Event smart contract\r\n        // NOTE: 'new' keyword creates a new SC and returns address\r\n        Event e = new Event(msg.sender, _numTickets, _price, _canBeResold, _royaltyPercent, _eventName, _eventSymbol);\r\n        \r\n        // Store/return event address\r\n        events.push(e);\r\n        address eventAddress = address(e);\r\n        emit CreateEvent(msg.sender, eventAddress);\r\n\r\n        // QUESTION: I cannot return this because async??\r\n        return eventAddress;\r\n    }\r\n\r\n\r\n    /**\r\n     * @notice Retrieve number of events\r\n     */\r\n    function getEventCount() public view returns(uint contractCount) {\r\n        return events.length;\r\n    }\r\n\r\n    // Returns array of all events\r\n    function getEvents() external view returns(Event[] memory _events) {\r\n        _events = new Event[] (events.length);\r\n        for (uint i=0; i<events.length; i++){\r\n            _events[i] = events[i];\r\n        }\r\n\r\n        return _events;\r\n    }  \r\n}\r\n\r\n/// @title Contract to mint tickets of an event\r\ncontract Event is ERC721 {\r\n    /// Control Event Status at a granular level\r\n    enum Stages { Prep, Active, Paused, CheckinOpen, Cancelled, Closed }\r\n    Stages public stage = Stages.Prep;\r\n    \r\n    /// Control Ticket Status at a granular level\r\n    enum TicketStatus { Invalid, Valid, Used, AvailableForSale }\r\n    \r\n    // Ticket struct \r\n    struct Ticket {\r\n        uint32 price;\r\n        uint32 resalePrice;\r\n        TicketStatus status;\r\n    }\r\n    Ticket[] public tickets;\r\n    uint32 public numTicketsLeft;\r\n    uint32 public totalTickets;\r\n    uint32 public price;\r\n    \r\n    /// Percent royalty event creator receives from ticket resales\r\n    uint8 public royaltyPercent;\r\n    \r\n    // For each user, store corresponding ticket struct\r\n    //mapping(address => Ticket) public tickets;\r\n    \r\n    bool public canBeResold;\r\n    address payable public owner;\r\n    \r\n    // to store the balances for buyers and organizers\r\n    uint totalBalances = 0;\r\n    mapping(address => uint) public balances;\r\n    mapping(address => bool) public isUserRefunded;\r\n    mapping(address => uint) public numTicketsBought;\r\n    mapping(uint => address) public registeredBuyers;\r\n\r\n    // EVENTS\r\n    event CreateTicket(address buyer, uint ticketID);\r\n    event WithdrawMoney(address receiver, uint money);\r\n    event OwnerWithdrawMoney(address owner, uint money);\r\n    event TicketForSale(address seller, uint ticketID);\r\n    event TicketSold(address seller, address buyer, uint ticketID);\r\n    event TicketUsed(string eventName, string sQRCodeKey);\r\n\r\n    // Creates a new Event Contract\r\n    constructor(address _owner, uint32 _numTickets, uint32 _price, bool _canBeResold, uint8 _royaltyPercent,\r\n            string memory _eventName, string memory _eventSymbol) ERC721(_eventName, _eventSymbol) {    \r\n        // Check valid constructor arguments\r\n        require(_royaltyPercent >= 0 && _royaltyPercent <= 100, \"Royalty Percentage must be between 0 and 100\");\r\n        // Number of tickets must be greater than 0\r\n        require(_numTickets > 0, \"The number of tickets must be greater than 0\");\r\n        // EventName, EventSymbol cannot be empty string\r\n        bytes memory eventNameBytes = bytes(_eventName);\r\n        bytes memory eventSymbolBytes = bytes(_eventSymbol);\r\n        require(eventNameBytes.length != 0, \"Event Name cannot be empty\");\r\n        require(eventSymbolBytes.length != 0, \"Event Symbol cannot be empty\");\r\n        \r\n        owner = payable(_owner);\r\n        totalTickets = _numTickets;\r\n        numTicketsLeft = _numTickets;\r\n        price = _price;\r\n        canBeResold = _canBeResold;\r\n        royaltyPercent = _royaltyPercent;\r\n    }\r\n\r\n    /**\r\n     * @notice Buy tickets\r\n     * @dev Checks: State is Active, has enough money\r\n     */\r\n    function buyTicket() public payable buyingTicketOpen ticketsLeft \r\n                                            hasEnoughMoney(msg.value) returns (uint){\r\n        //uint32 ticketID = numTicketsLeft;\r\n\r\n        // Create Ticket t\r\n        Ticket memory t;\r\n        t.price = price;\r\n        t.resalePrice = price;\r\n        t.status = TicketStatus.Valid;\r\n\r\n\r\n        // Store t in tickets array\r\n        tickets.push(t);\r\n        uint ticketID = tickets.length - 1;\r\n        numTicketsLeft--;\r\n\r\n        // Mint NFT\r\n        _safeMint(msg.sender, ticketID);\r\n        emit CreateTicket(msg.sender, ticketID);\r\n\r\n        // If user overpaid, add difference to balances\r\n        if (msg.value > price) {\r\n            balances[msg.sender] = msg.value - price;\r\n            totalBalances += (msg.value - price);\r\n        }\r\n        \r\n        return ticketID;\r\n    }\r\n\r\n    /**\r\n     * @notice Change Status\r\n     * @dev Only owner can change state\r\n     * @param _stage Stages as set in enum Stages\r\n     */\r\n    function setStage(Stages _stage) public onlyOwner returns (Stages) {\r\n        stage = _stage;\r\n        return stage;\r\n    }\r\n    \r\n    /**\r\n     * @notice Mark ticket as used\r\n     * @dev Only a valid buyer can mark ticket as used\r\n     * @param sQRCodeKey QR Code key sent by the app \r\n     */\r\n    function setTicketToUsed(uint ticketID, string memory sQRCodeKey) public requiredStage(Stages.CheckinOpen)\r\n                                                                    ownsTicket(ticketID) returns (string memory){\r\n\t\t// Validate that user has a ticket they own and it is valid\r\n        require(tickets[ticketID].status == TicketStatus.Valid, \"There is no valid ticket for this user\");\r\n    \r\n        \r\n        // Ticket is valid so mark it as used\r\n        tickets[ticketID].status = TicketStatus.Used;\r\n\r\n        // Burn the Token\r\n        _burn(ticketID); \r\n        \r\n        // Raise event which Gate Management system can consume then\r\n        emit TicketUsed(name(), sQRCodeKey);\r\n        \r\n        return sQRCodeKey;\r\n\t}\r\n\r\n    /**\r\n     * @notice Mark ticket as used\r\n     * @dev Only a valid buyer can mark ticket as used\r\n     * @param ticketID ticket ID of ticket\r\n     */\r\n    function setTicketForSale(uint ticketID) public requiredStage(Stages.Active) ownsTicket(ticketID) returns(bool) {\r\n\t\t// Validate that user has a ticket they own and it is valid\r\n        require(tickets[ticketID].status != TicketStatus.Used, \"Ticket has already been used\");\r\n        \r\n        // Ticket is valid so mark it as used\r\n        tickets[ticketID].status = TicketStatus.AvailableForSale;\r\n        \r\n        // Raise event which Gate Management system can consume then\r\n        emit TicketForSale(msg.sender, ticketID);\r\n        \r\n        //return ticketID;\r\n        return true;\r\n\t}\r\n\r\n     /**\r\n     * @dev get ticket status\r\n     */\r\n    function getTicketStatus(uint ticketID) public view returns (TicketStatus) {\r\n        return tickets[ticketID].status;\r\n    }\r\n\r\n    /**\r\n     * @dev get ticket by ID\r\n     */\r\n    function getTicket(uint ticketID) public view returns(uint32 price, uint32 resalePrice, TicketStatus status) {\r\n        price = tickets[ticketID].price;\r\n        resalePrice = tickets[ticketID].resalePrice;\r\n        status = tickets[ticketID].status;\r\n    }\r\n\r\n    /**\r\n     * @dev get all tickets \r\n     */\r\n    function getTicketsCreated() public view returns(Ticket [] memory){\r\n        return tickets;\r\n    }\r\n\t\r\n    /**\r\n     * @notice Allows owner to withdraw money\r\n     * @dev once the event is closed, owner can withdraw money from SC account\r\n     */\r\n    function ownerWithdraw() public onlyOwner requiredStage(Stages.Closed) returns (bool success){\r\n        // Make sure owner did not already withdraw\r\n        require(isUserRefunded[owner] == false, \"Owner has already withdrawn money\");\r\n        isUserRefunded[owner] = true;\r\n        \r\n        // Require smart contract balance - amount users overpaid > 0\r\n        // Otherwise, there is no money for owner to refund\r\n        uint sendToOwner = address(this).balance - totalBalances;\r\n        require(sendToOwner > 0, \"No money in smart contract account\");\r\n\r\n        // Transfer money to owner\r\n        bool sent = owner.send(sendToOwner);\r\n        // Failure condition if cannot transfer\r\n        require(sent, \"Failed to send ether to owner\");\r\n\r\n        emit OwnerWithdrawMoney(msg.sender, sendToOwner);\r\n\r\n        return true;\r\n    }\r\n\r\n    // TODO: DOES THIS NEED TO RETURN BOOLEAN? IF IT FAILS THERE WILL BE AN ERROR\r\n    /**\r\n     * @notice User to withdraw money \r\n     * @dev User can withdraw money if event cancelled or overpaid for ticket\r\n     */\r\n    function withdraw() public returns (bool success) {\r\n        // Amount to send to user\r\n        uint sendToUser = balances[msg.sender];\r\n\r\n        // Update balance before sending money\r\n        balances[msg.sender] = 0;\r\n        \r\n        // If event cancelled, send user the amount they overpaid for ticket + ticket price refund\r\n        if ((stage == Stages.Cancelled || stage == Stages.Paused) && isUserRefunded[msg.sender] == false) {\r\n            // Update isUserRefunded before sending money\r\n            isUserRefunded[msg.sender] = true;\r\n            sendToUser += price;\r\n        }\r\n\r\n        // Cannot withdraw if no money to withdraw\r\n        require(sendToUser > 0, \"User does not have money to withdraw\");\r\n\r\n        // Transfer money to user\r\n        address payable receiver = payable(msg.sender);\r\n        bool sent = receiver.send(sendToUser);\r\n        // Failure condition of send will emit this error\r\n        require(sent, \"Failed to send ether to user\");\r\n\r\n        emit WithdrawMoney(msg.sender, sendToUser);\r\n        \r\n        return true;\r\n    }\r\n\r\n    /**\r\n     * @dev approve a buyer to buy ticket of another user\r\n     */\r\n    function approveAsBuyer(address buyer, uint ticketID) public requiredStage(Stages.Active){\r\n        require(ownerOf(ticketID) == msg.sender, \"no permission\");\r\n        setApprovalForAll(buyer, bool(true));\r\n        approve(buyer, ticketID);\r\n    }\r\n\r\n    /**\r\n     * @dev register as buyer\r\n     */\r\n    function registerAsBuyer(uint ticketID) public requiredStage(Stages.Active){\r\n        require(registeredBuyers[ticketID] != msg.sender, \"You have already registered to buy\");\r\n\r\n        registeredBuyers[ticketID] = msg.sender;\r\n\r\n    }\r\n\r\n    /**\r\n     * @dev get registered buyer\r\n     */\r\n    function getRegisteredBuyer(uint ticketID) public view returns(address) {\r\n        return registeredBuyers[ticketID];\r\n    }\r\n\r\n    /**\r\n     * @notice Mark ticket as used\r\n     * @dev Only a valid buyer can mark ticket as used\r\n     * @param ticketID ticket ID of ticket\r\n     */\r\n    function buyTicketFromUser(uint ticketID) public payable requiredStage(Stages.Active) hasEnoughMoney(msg.value) returns (bool) {\r\n        // Check if ticket is available for sale\r\n        require(tickets[ticketID].status == TicketStatus.AvailableForSale, \"Ticket not available for sale\");\r\n        //approveAsBuyer(msg.sender, ticketID);\r\n\r\n        //calc amount to pay after royalty\r\n        uint ticketPrice = tickets[ticketID].price;\r\n        uint royalty = (royaltyPercent/100) * ticketPrice;\r\n        uint priceToPay = ticketPrice - royalty;\r\n\r\n        //transfer money to seller\r\n        address payable seller = payable(ownerOf(ticketID));\r\n        ///seller.transfer(priceToPay);\r\n        // bool sent = seller.send(price);\r\n        balances[seller] += priceToPay;\r\n        balances[owner] += royalty;\r\n\r\n        // require(sent, \"Failed to send ether to user\");\r\n\r\n        emit TicketSold(seller, msg.sender, ticketID);\r\n        safeTransferFrom(seller, msg.sender, ticketID);\r\n\r\n        tickets[ticketID].status = TicketStatus.Valid;\r\n\r\n        return true;\r\n\r\n    }\r\n\r\n\r\n    // MODIFIERS\r\n\r\n    // Only owner\r\n    modifier onlyOwner() {\r\n        require(msg.sender == owner, \"Can only be executed by the owner\");\r\n        _;\r\n    }\r\n\r\n    // Requires stage to be _stage\r\n    modifier requiredStage(Stages _stage) {\r\n        require(stage == _stage, \"Cannot execute function at this stage\");\r\n        _;\r\n    }\r\n    \r\n    // Check if buying is open\r\n    modifier buyingTicketOpen() {\r\n        require(stage == Stages.Active || stage == Stages.CheckinOpen, \"Tickets are not open for sale\");\r\n        _;\r\n    }\r\n\r\n    // Requires there to be more than 0 tickets left\r\n    modifier ticketsLeft() {\r\n        require(numTicketsLeft > 0, \"There are 0 tickets left\");\r\n        _;\r\n    }\r\n\r\n    modifier hasEnoughMoney(uint money) {\r\n        require(money >= price, \"Not enough money to purchase a ticket\");\r\n        _;\r\n    }\r\n\r\n    // Check if user is ticket owner\r\n    modifier ownsTicket(uint ticketID) {\r\n        require(ownerOf(ticketID) == msg.sender, \"User does not own this ticket\");\r\n        _;\r\n    }\r\n    \r\n}\r\n\r\n",
  "sourcePath": "C:/Users/ManTheMith/Desktop/COMP6452/proj/comp6452-nft/src/contracts/Event.sol",
  "compiler": {
    "name": "solc",
    "version": "0.8.0+commit.c7dfd78e.Emscripten.clang"
  },
  "schemaVersion": "3.4.1",
  "updatedAt": "2021-07-26T05:02:31.704Z",
  "networkType": "ethereum",
  "devdoc": {
    "kind": "dev",
    "methods": {
      "createEvent(uint32,uint32,bool,uint8,string,string)": {
        "params": {
          "_canBeResold": "Are tickets allowed to be resold",
          "_eventName": "Name of the Ticket NFT",
          "_eventSymbol": "Symbol for the Ticket NFT Token",
          "_numTickets": "Number of tickets ",
          "_price": "Price per ticket",
          "_royaltyPercent": "Royalty percentage accrued by organizers on reselling of ticket"
        }
      }
    },
    "title": "Factory Contract to create events",
    "version": 1
  },
  "userdoc": {
    "kind": "user",
    "methods": {
      "createEvent(uint32,uint32,bool,uint8,string,string)": {
        "notice": "Creates Events"
      },
      "getEventCount()": {
        "notice": "Retrieve number of events"
      }
    },
    "version": 1
  }
}