{
  "contractName": "Event",
  "abi": [
    {
      "inputs": [
        {
          "internalType": "address",
          "name": "_owner",
          "type": "address"
        },
        {
          "internalType": "uint32",
          "name": "_numTickets",
          "type": "uint32"
        },
        {
          "internalType": "uint32",
          "name": "_price",
          "type": "uint32"
        },
        {
          "internalType": "bool",
          "name": "_canBeResold",
          "type": "bool"
        },
        {
          "internalType": "uint8",
          "name": "_royaltyPercent",
          "type": "uint8"
        },
        {
          "internalType": "string",
          "name": "_eventName",
          "type": "string"
        },
        {
          "internalType": "string",
          "name": "_eventSymbol",
          "type": "string"
        }
      ],
      "stateMutability": "nonpayable",
      "type": "constructor"
    },
    {
      "anonymous": false,
      "inputs": [
        {
          "indexed": true,
          "internalType": "address",
          "name": "owner",
          "type": "address"
        },
        {
          "indexed": true,
          "internalType": "address",
          "name": "approved",
          "type": "address"
        },
        {
          "indexed": true,
          "internalType": "uint256",
          "name": "tokenId",
          "type": "uint256"
        }
      ],
      "name": "Approval",
      "type": "event"
    },
    {
      "anonymous": false,
      "inputs": [
        {
          "indexed": true,
          "internalType": "address",
          "name": "owner",
          "type": "address"
        },
        {
          "indexed": true,
          "internalType": "address",
          "name": "operator",
          "type": "address"
        },
        {
          "indexed": false,
          "internalType": "bool",
          "name": "approved",
          "type": "bool"
        }
      ],
      "name": "ApprovalForAll",
      "type": "event"
    },
    {
      "anonymous": false,
      "inputs": [
        {
          "indexed": false,
          "internalType": "address",
          "name": "contractAddress",
          "type": "address"
        },
        {
          "indexed": false,
          "internalType": "string",
          "name": "eventName",
          "type": "string"
        },
        {
          "indexed": false,
          "internalType": "address",
          "name": "buyer",
          "type": "address"
        },
        {
          "indexed": false,
          "internalType": "uint256",
          "name": "ticketID",
          "type": "uint256"
        }
      ],
      "name": "CreateTicket",
      "type": "event"
    },
    {
      "anonymous": false,
      "inputs": [
        {
          "indexed": false,
          "internalType": "address",
          "name": "owner",
          "type": "address"
        },
        {
          "indexed": false,
          "internalType": "uint256",
          "name": "money",
          "type": "uint256"
        }
      ],
      "name": "OwnerWithdrawMoney",
      "type": "event"
    },
    {
      "anonymous": false,
      "inputs": [
        {
          "indexed": false,
          "internalType": "address",
          "name": "seller",
          "type": "address"
        },
        {
          "indexed": false,
          "internalType": "uint256",
          "name": "ticketID",
          "type": "uint256"
        }
      ],
      "name": "TicketForSale",
      "type": "event"
    },
    {
      "anonymous": false,
      "inputs": [
        {
          "indexed": false,
          "internalType": "address",
          "name": "contractAddress",
          "type": "address"
        },
        {
          "indexed": false,
          "internalType": "string",
          "name": "eventName",
          "type": "string"
        },
        {
          "indexed": false,
          "internalType": "address",
          "name": "buyer",
          "type": "address"
        },
        {
          "indexed": false,
          "internalType": "uint256",
          "name": "ticketID",
          "type": "uint256"
        }
      ],
      "name": "TicketSold",
      "type": "event"
    },
    {
      "anonymous": false,
      "inputs": [
        {
          "indexed": false,
          "internalType": "address",
          "name": "contractAddress",
          "type": "address"
        },
        {
          "indexed": false,
          "internalType": "uint256",
          "name": "ticketID",
          "type": "uint256"
        },
        {
          "indexed": false,
          "internalType": "string",
          "name": "eventName",
          "type": "string"
        },
        {
          "indexed": false,
          "internalType": "string",
          "name": "sQRCodeKey",
          "type": "string"
        }
      ],
      "name": "TicketUsed",
      "type": "event"
    },
    {
      "anonymous": false,
      "inputs": [
        {
          "indexed": true,
          "internalType": "address",
          "name": "from",
          "type": "address"
        },
        {
          "indexed": true,
          "internalType": "address",
          "name": "to",
          "type": "address"
        },
        {
          "indexed": true,
          "internalType": "uint256",
          "name": "tokenId",
          "type": "uint256"
        }
      ],
      "name": "Transfer",
      "type": "event"
    },
    {
      "anonymous": false,
      "inputs": [
        {
          "indexed": false,
          "internalType": "address",
          "name": "receiver",
          "type": "address"
        },
        {
          "indexed": false,
          "internalType": "uint256",
          "name": "money",
          "type": "uint256"
        }
      ],
      "name": "WithdrawMoney",
      "type": "event"
    },
    {
      "inputs": [
        {
          "internalType": "address",
          "name": "to",
          "type": "address"
        },
        {
          "internalType": "uint256",
          "name": "tokenId",
          "type": "uint256"
        }
      ],
      "name": "approve",
      "outputs": [],
      "stateMutability": "nonpayable",
      "type": "function"
    },
    {
      "inputs": [
        {
          "internalType": "address",
          "name": "owner",
          "type": "address"
        }
      ],
      "name": "balanceOf",
      "outputs": [
        {
          "internalType": "uint256",
          "name": "",
          "type": "uint256"
        }
      ],
      "stateMutability": "view",
      "type": "function"
    },
    {
      "inputs": [
        {
          "internalType": "address",
          "name": "",
          "type": "address"
        }
      ],
      "name": "balances",
      "outputs": [
        {
          "internalType": "uint256",
          "name": "",
          "type": "uint256"
        }
      ],
      "stateMutability": "view",
      "type": "function"
    },
    {
      "inputs": [],
      "name": "canBeResold",
      "outputs": [
        {
          "internalType": "bool",
          "name": "",
          "type": "bool"
        }
      ],
      "stateMutability": "view",
      "type": "function"
    },
    {
      "inputs": [
        {
          "internalType": "uint256",
          "name": "tokenId",
          "type": "uint256"
        }
      ],
      "name": "getApproved",
      "outputs": [
        {
          "internalType": "address",
          "name": "",
          "type": "address"
        }
      ],
      "stateMutability": "view",
      "type": "function"
    },
    {
      "inputs": [
        {
          "internalType": "address",
          "name": "owner",
          "type": "address"
        },
        {
          "internalType": "address",
          "name": "operator",
          "type": "address"
        }
      ],
      "name": "isApprovedForAll",
      "outputs": [
        {
          "internalType": "bool",
          "name": "",
          "type": "bool"
        }
      ],
      "stateMutability": "view",
      "type": "function"
    },
    {
      "inputs": [],
      "name": "isCancelled",
      "outputs": [
        {
          "internalType": "bool",
          "name": "",
          "type": "bool"
        }
      ],
      "stateMutability": "view",
      "type": "function"
    },
    {
      "inputs": [
        {
          "internalType": "address",
          "name": "",
          "type": "address"
        }
      ],
      "name": "isUserRefund",
      "outputs": [
        {
          "internalType": "bool",
          "name": "",
          "type": "bool"
        }
      ],
      "stateMutability": "view",
      "type": "function"
    },
    {
      "inputs": [],
      "name": "name",
      "outputs": [
        {
          "internalType": "string",
          "name": "",
          "type": "string"
        }
      ],
      "stateMutability": "view",
      "type": "function"
    },
    {
      "inputs": [],
      "name": "numTicketsLeft",
      "outputs": [
        {
          "internalType": "uint32",
          "name": "",
          "type": "uint32"
        }
      ],
      "stateMutability": "view",
      "type": "function"
    },
    {
      "inputs": [],
      "name": "owner",
      "outputs": [
        {
          "internalType": "address payable",
          "name": "",
          "type": "address"
        }
      ],
      "stateMutability": "view",
      "type": "function"
    },
    {
      "inputs": [
        {
          "internalType": "uint256",
          "name": "tokenId",
          "type": "uint256"
        }
      ],
      "name": "ownerOf",
      "outputs": [
        {
          "internalType": "address",
          "name": "",
          "type": "address"
        }
      ],
      "stateMutability": "view",
      "type": "function"
    },
    {
      "inputs": [],
      "name": "price",
      "outputs": [
        {
          "internalType": "uint32",
          "name": "",
          "type": "uint32"
        }
      ],
      "stateMutability": "view",
      "type": "function"
    },
    {
      "inputs": [
        {
          "internalType": "uint256",
          "name": "",
          "type": "uint256"
        }
      ],
      "name": "registeredBuyers",
      "outputs": [
        {
          "internalType": "address",
          "name": "",
          "type": "address"
        }
      ],
      "stateMutability": "view",
      "type": "function"
    },
    {
      "inputs": [],
      "name": "royaltyPercent",
      "outputs": [
        {
          "internalType": "uint8",
          "name": "",
          "type": "uint8"
        }
      ],
      "stateMutability": "view",
      "type": "function"
    },
    {
      "inputs": [
        {
          "internalType": "address",
          "name": "from",
          "type": "address"
        },
        {
          "internalType": "address",
          "name": "to",
          "type": "address"
        },
        {
          "internalType": "uint256",
          "name": "tokenId",
          "type": "uint256"
        }
      ],
      "name": "safeTransferFrom",
      "outputs": [],
      "stateMutability": "nonpayable",
      "type": "function"
    },
    {
      "inputs": [
        {
          "internalType": "address",
          "name": "from",
          "type": "address"
        },
        {
          "internalType": "address",
          "name": "to",
          "type": "address"
        },
        {
          "internalType": "uint256",
          "name": "tokenId",
          "type": "uint256"
        },
        {
          "internalType": "bytes",
          "name": "_data",
          "type": "bytes"
        }
      ],
      "name": "safeTransferFrom",
      "outputs": [],
      "stateMutability": "nonpayable",
      "type": "function"
    },
    {
      "inputs": [
        {
          "internalType": "address",
          "name": "operator",
          "type": "address"
        },
        {
          "internalType": "bool",
          "name": "approved",
          "type": "bool"
        }
      ],
      "name": "setApprovalForAll",
      "outputs": [],
      "stateMutability": "nonpayable",
      "type": "function"
    },
    {
      "inputs": [],
      "name": "stage",
      "outputs": [
        {
          "internalType": "enum Event.Stages",
          "name": "",
          "type": "uint8"
        }
      ],
      "stateMutability": "view",
      "type": "function"
    },
    {
      "inputs": [
        {
          "internalType": "bytes4",
          "name": "interfaceId",
          "type": "bytes4"
        }
      ],
      "name": "supportsInterface",
      "outputs": [
        {
          "internalType": "bool",
          "name": "",
          "type": "bool"
        }
      ],
      "stateMutability": "view",
      "type": "function"
    },
    {
      "inputs": [],
      "name": "symbol",
      "outputs": [
        {
          "internalType": "string",
          "name": "",
          "type": "string"
        }
      ],
      "stateMutability": "view",
      "type": "function"
    },
    {
      "inputs": [
        {
          "internalType": "uint256",
          "name": "",
          "type": "uint256"
        }
      ],
      "name": "tickets",
      "outputs": [
        {
          "internalType": "uint32",
          "name": "price",
          "type": "uint32"
        },
        {
          "internalType": "uint32",
          "name": "resalePrice",
          "type": "uint32"
        },
        {
          "internalType": "enum Event.TicketStatus",
          "name": "status",
          "type": "uint8"
        }
      ],
      "stateMutability": "view",
      "type": "function"
    },
    {
      "inputs": [
        {
          "internalType": "uint256",
          "name": "tokenId",
          "type": "uint256"
        }
      ],
      "name": "tokenURI",
      "outputs": [
        {
          "internalType": "string",
          "name": "",
          "type": "string"
        }
      ],
      "stateMutability": "view",
      "type": "function"
    },
    {
      "inputs": [],
      "name": "totalTickets",
      "outputs": [
        {
          "internalType": "uint32",
          "name": "",
          "type": "uint32"
        }
      ],
      "stateMutability": "view",
      "type": "function"
    },
    {
      "inputs": [
        {
          "internalType": "address",
          "name": "from",
          "type": "address"
        },
        {
          "internalType": "address",
          "name": "to",
          "type": "address"
        },
        {
          "internalType": "uint256",
          "name": "tokenId",
          "type": "uint256"
        }
      ],
      "name": "transferFrom",
      "outputs": [],
      "stateMutability": "nonpayable",
      "type": "function"
    },
    {
      "inputs": [],
      "name": "buyTicket",
      "outputs": [
        {
          "internalType": "uint256",
          "name": "",
          "type": "uint256"
        }
      ],
      "stateMutability": "payable",
      "type": "function"
    },
    {
      "inputs": [
        {
          "internalType": "uint256",
          "name": "ticketID",
          "type": "uint256"
        }
      ],
      "name": "buyTicketFromUser",
      "outputs": [
        {
          "internalType": "bool",
          "name": "",
          "type": "bool"
        }
      ],
      "stateMutability": "payable",
      "type": "function"
    },
    {
      "inputs": [
        {
          "internalType": "uint256",
          "name": "ticketID",
          "type": "uint256"
        },
        {
          "internalType": "string",
          "name": "sQRCodeKey",
          "type": "string"
        }
      ],
      "name": "setTicketToUsed",
      "outputs": [
        {
          "internalType": "string",
          "name": "",
          "type": "string"
        }
      ],
      "stateMutability": "nonpayable",
      "type": "function"
    },
    {
      "inputs": [
        {
          "internalType": "uint256",
          "name": "ticketID",
          "type": "uint256"
        }
      ],
      "name": "setTicketForSale",
      "outputs": [
        {
          "internalType": "bool",
          "name": "",
          "type": "bool"
        }
      ],
      "stateMutability": "nonpayable",
      "type": "function"
    },
    {
      "inputs": [],
      "name": "getTicketsCreated",
      "outputs": [
        {
          "components": [
            {
              "internalType": "uint32",
              "name": "price",
              "type": "uint32"
            },
            {
              "internalType": "uint32",
              "name": "resalePrice",
              "type": "uint32"
            },
            {
              "internalType": "enum Event.TicketStatus",
              "name": "status",
              "type": "uint8"
            }
          ],
          "internalType": "struct Event.Ticket[]",
          "name": "",
          "type": "tuple[]"
        }
      ],
      "stateMutability": "view",
      "type": "function"
    },
    {
      "inputs": [],
      "name": "ownerWithdraw",
      "outputs": [],
      "stateMutability": "nonpayable",
      "type": "function"
    },
    {
      "inputs": [],
      "name": "withdraw",
      "outputs": [],
      "stateMutability": "nonpayable",
      "type": "function"
    },
    {
      "inputs": [
        {
          "internalType": "address",
          "name": "buyer",
          "type": "address"
        },
        {
          "internalType": "uint256",
          "name": "ticketID",
          "type": "uint256"
        }
      ],
      "name": "approveAsBuyer",
      "outputs": [],
      "stateMutability": "nonpayable",
      "type": "function"
    },
    {
      "inputs": [
        {
          "internalType": "uint256",
          "name": "ticketID",
          "type": "uint256"
        }
      ],
      "name": "registerAsBuyer",
      "outputs": [],
      "stateMutability": "nonpayable",
      "type": "function"
    },
    {
      "inputs": [
        {
          "internalType": "uint256",
          "name": "ticketID",
          "type": "uint256"
        }
      ],
      "name": "getRegisteredBuyer",
      "outputs": [
        {
          "internalType": "address",
          "name": "",
          "type": "address"
        }
      ],
      "stateMutability": "view",
      "type": "function"
    },
    {
      "inputs": [
        {
          "internalType": "enum Event.Stages",
          "name": "_stage",
          "type": "uint8"
        }
      ],
      "name": "setStage",
      "outputs": [
        {
          "internalType": "enum Event.Stages",
          "name": "",
          "type": "uint8"
        }
      ],
      "stateMutability": "nonpayable",
      "type": "function"
    }
  ],
  "bytecode": "0x60806040526000600a553480156200001657600080fd5b50604051620063e9380380620063e983398181016040528101906200003c91906200046a565b8181816000908051906020019062000056929190620002ec565b5080600190805190602001906200006f929190620002ec565b50505060008360ff16101580156200008b575060648360ff1611155b620000cd576040517f08c379a0000000000000000000000000000000000000000000000000000000008152600401620000c4906200069d565b60405180910390fd5b60008663ffffffff161162000119576040517f08c379a00000000000000000000000000000000000000000000000000000000081526004016200011090620006bf565b60405180910390fd5b600082905060008290506000825114156200016b576040517f08c379a0000000000000000000000000000000000000000000000000000000008152600401620001629062000703565b60405180910390fd5b600081511415620001b3576040517f08c379a0000000000000000000000000000000000000000000000000000000008152600401620001aa90620006e1565b60405180910390fd5b88600960006101000a81548173ffffffffffffffffffffffffffffffffffffffff021916908373ffffffffffffffffffffffffffffffffffffffff16021790555087600860046101000a81548163ffffffff021916908363ffffffff16021790555087600860006101000a81548163ffffffff021916908363ffffffff160217905550866008806101000a81548163ffffffff021916908363ffffffff160217905550856008600d6101000a81548160ff021916908315150217905550846008600c6101000a81548160ff021916908360ff1602179055506000600660006101000a81548160ff02191690836005811115620002d8577f4e487b7100000000000000000000000000000000000000000000000000000000600052602160045260246000fd5b02179055505050505050505050506200092c565b828054620002fa9062000830565b90600052602060002090601f0160209004810192826200031e57600085556200036a565b82601f106200033957805160ff19168380011785556200036a565b828001600101855582156200036a579182015b82811115620003695782518255916020019190600101906200034c565b5b5090506200037991906200037d565b5090565b5b80821115620003985760008160009055506001016200037e565b5090565b6000620003b3620003ad8462000759565b62000725565b905082815260208101848484011115620003cc57600080fd5b620003d9848285620007fa565b509392505050565b600081519050620003f281620008c4565b92915050565b6000815190506200040981620008de565b92915050565b600082601f8301126200042157600080fd5b8151620004338482602086016200039c565b91505092915050565b6000815190506200044d81620008f8565b92915050565b600081519050620004648162000912565b92915050565b600080600080600080600060e0888a0312156200048657600080fd5b6000620004968a828b01620003e1565b9750506020620004a98a828b016200043c565b9650506040620004bc8a828b016200043c565b9550506060620004cf8a828b01620003f8565b9450506080620004e28a828b0162000453565b93505060a088015167ffffffffffffffff8111156200050057600080fd5b6200050e8a828b016200040f565b92505060c088015167ffffffffffffffff8111156200052c57600080fd5b6200053a8a828b016200040f565b91505092959891949750929550565b600062000558602c836200078c565b91507f526f79616c74792050657263656e74616765206d75737420626520626574776560008301527f656e203020616e642031303000000000000000000000000000000000000000006020830152604082019050919050565b6000620005c0602c836200078c565b91507f546865206e756d626572206f66207469636b657473206d75737420626520677260008301527f6561746572207468616e203000000000000000000000000000000000000000006020830152604082019050919050565b600062000628601c836200078c565b91507f4576656e742053796d626f6c2063616e6e6f7420626520656d707479000000006000830152602082019050919050565b60006200066a601a836200078c565b91507f4576656e74204e616d652063616e6e6f7420626520656d7074790000000000006000830152602082019050919050565b60006020820190508181036000830152620006b88162000549565b9050919050565b60006020820190508181036000830152620006da81620005b1565b9050919050565b60006020820190508181036000830152620006fc8162000619565b9050919050565b600060208201905081810360008301526200071e816200065b565b9050919050565b6000604051905081810181811067ffffffffffffffff821117156200074f576200074e62000895565b5b8060405250919050565b600067ffffffffffffffff82111562000777576200077662000895565b5b601f19601f8301169050602081019050919050565b600082825260208201905092915050565b6000620007aa82620007bd565b9050919050565b60008115159050919050565b600073ffffffffffffffffffffffffffffffffffffffff82169050919050565b600063ffffffff82169050919050565b600060ff82169050919050565b60005b838110156200081a578082015181840152602081019050620007fd565b838111156200082a576000848401525b50505050565b600060028204905060018216806200084957607f821691505b6020821081141562000860576200085f62000866565b5b50919050565b7f4e487b7100000000000000000000000000000000000000000000000000000000600052602260045260246000fd5b7f4e487b7100000000000000000000000000000000000000000000000000000000600052604160045260246000fd5b620008cf816200079d565b8114620008db57600080fd5b50565b620008e981620007b1565b8114620008f557600080fd5b50565b6200090381620007dd565b81146200090f57600080fd5b50565b6200091d81620007ed565b81146200092957600080fd5b50565b615aad806200093c6000396000f3fe60806040526004361061022c576000357c0100000000000000000000000000000000000000000000000000000000900480638da5cb5b11610135578063a51bba8c116100bd578063c87b56dd1161008c578063c87b56dd146107fd578063ce3cd9971461083a578063dd11247e14610877578063e985e9c5146108a2578063edca914c146108df5761022c565b8063a51bba8c14610753578063b3874c0d1461077e578063b88d4fde146107a9578063c040e6b8146107d25761022c565b806395ee12211161010457806395ee1221146106805780639aecd64a146106ab5780639f67756d146106d4578063a035b1fe146106ff578063a22cb4651461072a5761022c565b80638da5cb5b146105c257806393bbd9df146105ed57806394d51fc01461061857806395d89b41146106555761022c565b80633ccfd60b116101b857806350b447121161018757806350b44712146104a35780636352211e146104e257806370a082311461051f57806376fa62061461055c57806383047374146105995761022c565b80633ccfd60b1461040f57806342842e0e146104265780634311de8f1461044f5780634680a424146104665761022c565b8063095ea7b3116101ff578063095ea7b31461031357806318b3822f1461033c57806323b872dd1461037957806327e235e3146103a25780632f31707c146103df5761022c565b806301ffc9a71461023157806302216d331461026e57806306fdde03146102ab578063081812fc146102d6575b600080fd5b34801561023d57600080fd5b50610258600480360381019061025391906140d6565b6108fd565b6040516102659190614fc4565b60405180910390f35b34801561027a57600080fd5b5061029560048036038101906102909190614151565b6109df565b6040516102a29190614e58565b60405180910390f35b3480156102b757600080fd5b506102c0610a1c565b6040516102cd9190614ffa565b60405180910390f35b3480156102e257600080fd5b506102fd60048036038101906102f89190614151565b610aae565b60405161030a9190614e58565b60405180910390f35b34801561031f57600080fd5b5061033a6004803603810190610335919061409a565b610b33565b005b34801561034857600080fd5b50610363600480360381019061035e919061417a565b610c4b565b6040516103709190614ffa565b60405180910390f35b34801561038557600080fd5b506103a0600480360381019061039b9190613f94565b610f7c565b005b3480156103ae57600080fd5b506103c960048036038101906103c49190613f2f565b610fdc565b6040516103d691906153fc565b60405180910390f35b6103f960048036038101906103f49190614151565b610ff4565b6040516104069190614fc4565b60405180910390f35b34801561041b57600080fd5b50610424611488565b005b34801561043257600080fd5b5061044d60048036038101906104489190613f94565b6117d5565b005b34801561045b57600080fd5b506104646117f5565b005b34801561047257600080fd5b5061048d60048036038101906104889190613f2f565b611b42565b60405161049a9190614fc4565b60405180910390f35b3480156104af57600080fd5b506104ca60048036038101906104c59190614151565b611b62565b6040516104d993929190615432565b60405180910390f35b3480156104ee57600080fd5b5061050960048036038101906105049190614151565b611bc5565b6040516105169190614e58565b60405180910390f35b34801561052b57600080fd5b5061054660048036038101906105419190613f2f565b611c77565b60405161055391906153fc565b60405180910390f35b34801561056857600080fd5b50610583600480360381019061057e9190614151565b611d2f565b6040516105909190614fc4565b60405180910390f35b3480156105a557600080fd5b506105c060048036038101906105bb9190614151565b6120a3565b005b3480156105ce57600080fd5b506105d761225e565b6040516105e49190614e73565b60405180910390f35b3480156105f957600080fd5b50610602612284565b60405161060f9190614fa2565b60405180910390f35b34801561062457600080fd5b5061063f600480360381019061063a9190614151565b6123b2565b60405161064c9190614e58565b60405180910390f35b34801561066157600080fd5b5061066a6123e5565b6040516106779190614ffa565b60405180910390f35b34801561068c57600080fd5b50610695612477565b6040516106a29190614fc4565b60405180910390f35b3480156106b757600080fd5b506106d260048036038101906106cd919061409a565b61248a565b005b3480156106e057600080fd5b506106e96125dd565b6040516106f69190615469565b60405180910390f35b34801561070b57600080fd5b506107146125f0565b6040516107219190615417565b60405180910390f35b34801561073657600080fd5b50610751600480360381019061074c919061405e565b612604565b005b34801561075f57600080fd5b50610768612785565b6040516107759190615417565b60405180910390f35b34801561078a57600080fd5b5061079361279b565b6040516107a09190614fc4565b60405180910390f35b3480156107b557600080fd5b506107d060048036038101906107cb9190613fe3565b6127ae565b005b3480156107de57600080fd5b506107e7612810565b6040516107f49190614fdf565b60405180910390f35b34801561080957600080fd5b50610824600480360381019061081f9190614151565b612823565b6040516108319190614ffa565b60405180910390f35b34801561084657600080fd5b50610861600480360381019061085c9190614128565b6128ca565b60405161086e9190614fdf565b60405180910390f35b34801561088357600080fd5b5061088c612b05565b6040516108999190615417565b60405180910390f35b3480156108ae57600080fd5b506108c960048036038101906108c49190613f58565b612b1b565b6040516108d69190614fc4565b60405180910390f35b6108e7612baf565b6040516108f491906153fc565b60405180910390f35b60007f80ac58cd000000000000000000000000000000000000000000000000000000007bffffffffffffffffffffffffffffffffffffffffffffffffffffffff1916827bffffffffffffffffffffffffffffffffffffffffffffffffffffffff191614806109c857507f5b5e139f000000000000000000000000000000000000000000000000000000007bffffffffffffffffffffffffffffffffffffffffffffffffffffffff1916827bffffffffffffffffffffffffffffffffffffffffffffffffffffffff1916145b806109d857506109d78261312d565b5b9050919050565b6000600d600083815260200190815260200160002060009054906101000a900473ffffffffffffffffffffffffffffffffffffffff169050919050565b606060008054610a2b9061583b565b80601f0160208091040260200160405190810160405280929190818152602001828054610a579061583b565b8015610aa45780601f10610a7957610100808354040283529160200191610aa4565b820191906000526020600020905b815481529060010190602001808311610a8757829003601f168201915b5050505050905090565b6000610ab982613197565b610af8576040517f08c379a0000000000000000000000000000000000000000000000000000000008152600401610aef906152bc565b60405180910390fd5b6004600083815260200190815260200160002060009054906101000a900473ffffffffffffffffffffffffffffffffffffffff169050919050565b6000610b3e82611bc5565b90508073ffffffffffffffffffffffffffffffffffffffff168373ffffffffffffffffffffffffffffffffffffffff161415610baf576040517f08c379a0000000000000000000000000000000000000000000000000000000008152600401610ba69061531c565b60405180910390fd5b8073ffffffffffffffffffffffffffffffffffffffff16610bce613203565b73ffffffffffffffffffffffffffffffffffffffff161480610bfd5750610bfc81610bf7613203565b612b1b565b5b610c3c576040517f08c379a0000000000000000000000000000000000000000000000000000000008152600401610c33906151fc565b60405180910390fd5b610c46838361320b565b505050565b60606003806005811115610c88577f4e487b7100000000000000000000000000000000000000000000000000000000600052602160045260246000fd5b600660009054906101000a900460ff166005811115610cd0577f4e487b7100000000000000000000000000000000000000000000000000000000600052602160045260246000fd5b14610d10576040517f08c379a0000000000000000000000000000000000000000000000000000000008152600401610d07906150dc565b60405180910390fd5b833373ffffffffffffffffffffffffffffffffffffffff16610d3182611bc5565b73ffffffffffffffffffffffffffffffffffffffff1614610d87576040517f08c379a0000000000000000000000000000000000000000000000000000000008152600401610d7e906153bc565b60405180910390fd5b60006002811115610dc1577f4e487b7100000000000000000000000000000000000000000000000000000000600052602160045260246000fd5b60078681548110610dfb577f4e487b7100000000000000000000000000000000000000000000000000000000600052603260045260246000fd5b9060005260206000200160000160089054906101000a900460ff166002811115610e4e577f4e487b7100000000000000000000000000000000000000000000000000000000600052602160045260246000fd5b14610e8e576040517f08c379a0000000000000000000000000000000000000000000000000000000008152600401610e85906151dc565b60405180910390fd5b600160078681548110610eca577f4e487b7100000000000000000000000000000000000000000000000000000000600052603260045260246000fd5b9060005260206000200160000160086101000a81548160ff02191690836002811115610f1f577f4e487b7100000000000000000000000000000000000000000000000000000000600052602160045260246000fd5b0217905550610f2d856132c4565b7fad735fea640d2273c159ca0571101d62d2fa19a0d10e2cd97fcc2c2f30410df13086610f58610a1c565b87604051610f699493929190614f4f565b60405180910390a1839250505092915050565b610f8d610f87613203565b826133d5565b610fcc576040517f08c379a0000000000000000000000000000000000000000000000000000000008152600401610fc39061533c565b60405180910390fd5b610fd78383836134b3565b505050565b600b6020528060005260406000206000915090505481565b60006001806005811115611031577f4e487b7100000000000000000000000000000000000000000000000000000000600052602160045260246000fd5b600660009054906101000a900460ff166005811115611079577f4e487b7100000000000000000000000000000000000000000000000000000000600052602160045260246000fd5b146110b9576040517f08c379a00000000000000000000000000000000000000000000000000000000081526004016110b0906150dc565b60405180910390fd5b3460088054906101000a900463ffffffff1663ffffffff16811015611113576040517f08c379a000000000000000000000000000000000000000000000000000000000815260040161110a9061519c565b60405180910390fd5b60028081111561114c577f4e487b7100000000000000000000000000000000000000000000000000000000600052602160045260246000fd5b60078581548110611186577f4e487b7100000000000000000000000000000000000000000000000000000000600052603260045260246000fd5b9060005260206000200160000160089054906101000a900460ff1660028111156111d9577f4e487b7100000000000000000000000000000000000000000000000000000000600052602160045260246000fd5b14611219576040517f08c379a0000000000000000000000000000000000000000000000000000000008152600401611210906151bc565b60405180910390fd5b600060078581548110611255577f4e487b7100000000000000000000000000000000000000000000000000000000600052603260045260246000fd5b9060005260206000200160000160009054906101000a900463ffffffff1663ffffffff16905060008160646008600c9054906101000a900460ff1661129a9190615623565b60ff166112a79190615654565b9050600081836112b791906156ae565b905060006112c488611bc5565b905081600b60008373ffffffffffffffffffffffffffffffffffffffff1673ffffffffffffffffffffffffffffffffffffffff1681526020019081526020016000206000828254611315919061559c565b9250508190555082600b6000600960009054906101000a900473ffffffffffffffffffffffffffffffffffffffff1673ffffffffffffffffffffffffffffffffffffffff1673ffffffffffffffffffffffffffffffffffffffff168152602001908152602001600020600082825461138d919061559c565b925050819055507ff43c2b94d59192e43ff5461a2ec018bcf2178e26af43252b9bb00e937ab5c843306113be610a1c565b338b6040516113d09493929190614eda565b60405180910390a16113e381338a6117d5565b60006007898154811061141f577f4e487b7100000000000000000000000000000000000000000000000000000000600052603260045260246000fd5b9060005260206000200160000160086101000a81548160ff02191690836002811115611474577f4e487b7100000000000000000000000000000000000000000000000000000000600052602160045260246000fd5b021790555060019650505050505050919050565b600960009054906101000a900473ffffffffffffffffffffffffffffffffffffffff1673ffffffffffffffffffffffffffffffffffffffff163373ffffffffffffffffffffffffffffffffffffffff161415611519576040517f08c379a00000000000000000000000000000000000000000000000000000000081526004016115109061527c565b60405180910390fd5b6000600b60003373ffffffffffffffffffffffffffffffffffffffff1673ffffffffffffffffffffffffffffffffffffffff1681526020019081526020016000205490506008600e9054906101000a900460ff1680156115c9575060001515600c60003373ffffffffffffffffffffffffffffffffffffffff1673ffffffffffffffffffffffffffffffffffffffff16815260200190815260200160002060009054906101000a900460ff161515145b156116065760088054906101000a900463ffffffff1663ffffffff166115ee33611c77565b6115f89190615654565b81611603919061559c565b90505b60008111611649576040517f08c379a00000000000000000000000000000000000000000000000000000000081526004016116409061515c565b60405180910390fd5b600033905060008173ffffffffffffffffffffffffffffffffffffffff168360405161167490614e43565b60006040518083038185875af1925050503d80600081146116b1576040519150601f19603f3d011682016040523d82523d6000602084013e6116b6565b606091505b50509050806116fa576040517f08c379a00000000000000000000000000000000000000000000000000000000081526004016116f19061525c565b60405180910390fd5b6000600b60003373ffffffffffffffffffffffffffffffffffffffff1673ffffffffffffffffffffffffffffffffffffffff168152602001908152602001600020819055506001600c60003373ffffffffffffffffffffffffffffffffffffffff1673ffffffffffffffffffffffffffffffffffffffff16815260200190815260200160002060006101000a81548160ff0219169083151502179055507f9fe2db218b58c00ab3556f2be44b2769b37978368c63313d82d78306568e477633846040516117c8929190614f26565b60405180910390a1505050565b6117f0838383604051806020016040528060008152506127ae565b505050565b600960009054906101000a900473ffffffffffffffffffffffffffffffffffffffff1673ffffffffffffffffffffffffffffffffffffffff163373ffffffffffffffffffffffffffffffffffffffff1614611885576040517f08c379a000000000000000000000000000000000000000000000000000000000815260040161187c9061505c565b60405180910390fd5b60058060058111156118c0577f4e487b7100000000000000000000000000000000000000000000000000000000600052602160045260246000fd5b600660009054906101000a900460ff166005811115611908577f4e487b7100000000000000000000000000000000000000000000000000000000600052602160045260246000fd5b14611948576040517f08c379a000000000000000000000000000000000000000000000000000000000815260040161193f906150dc565b60405180910390fd5b6000600b6000600960009054906101000a900473ffffffffffffffffffffffffffffffffffffffff1673ffffffffffffffffffffffffffffffffffffffff1673ffffffffffffffffffffffffffffffffffffffff168152602001908152602001600020549050600081116119f1576040517f08c379a00000000000000000000000000000000000000000000000000000000081526004016119e89061501c565b60405180910390fd5b60003373ffffffffffffffffffffffffffffffffffffffff1682604051611a1790614e43565b60006040518083038185875af1925050503d8060008114611a54576040519150601f19603f3d011682016040523d82523d6000602084013e611a59565b606091505b5050905080611a9d576040517f08c379a0000000000000000000000000000000000000000000000000000000008152600401611a949061535c565b60405180910390fd5b6000600b6000600960009054906101000a900473ffffffffffffffffffffffffffffffffffffffff1673ffffffffffffffffffffffffffffffffffffffff1673ffffffffffffffffffffffffffffffffffffffff168152602001908152602001600020819055507f5f0d69e5c0056ecc650fc0d2d916359037135dac3d5b5446d226dfdbe292482e3383604051611b35929190614f26565b60405180910390a1505050565b600c6020528060005260406000206000915054906101000a900460ff1681565b60078181548110611b7257600080fd5b906000526020600020016000915090508060000160009054906101000a900463ffffffff16908060000160049054906101000a900463ffffffff16908060000160089054906101000a900460ff16905083565b6000806002600084815260200190815260200160002060009054906101000a900473ffffffffffffffffffffffffffffffffffffffff169050600073ffffffffffffffffffffffffffffffffffffffff168173ffffffffffffffffffffffffffffffffffffffff161415611c6e576040517f08c379a0000000000000000000000000000000000000000000000000000000008152600401611c659061523c565b60405180910390fd5b80915050919050565b60008073ffffffffffffffffffffffffffffffffffffffff168273ffffffffffffffffffffffffffffffffffffffff161415611ce8576040517f08c379a0000000000000000000000000000000000000000000000000000000008152600401611cdf9061521c565b60405180910390fd5b600360008373ffffffffffffffffffffffffffffffffffffffff1673ffffffffffffffffffffffffffffffffffffffff168152602001908152602001600020549050919050565b60006001806005811115611d6c577f4e487b7100000000000000000000000000000000000000000000000000000000600052602160045260246000fd5b600660009054906101000a900460ff166005811115611db4577f4e487b7100000000000000000000000000000000000000000000000000000000600052602160045260246000fd5b14611df4576040517f08c379a0000000000000000000000000000000000000000000000000000000008152600401611deb906150dc565b60405180910390fd5b823373ffffffffffffffffffffffffffffffffffffffff16611e1582611bc5565b73ffffffffffffffffffffffffffffffffffffffff1614611e6b576040517f08c379a0000000000000000000000000000000000000000000000000000000008152600401611e62906153bc565b60405180910390fd5b60016002811115611ea5577f4e487b7100000000000000000000000000000000000000000000000000000000600052602160045260246000fd5b60078581548110611edf577f4e487b7100000000000000000000000000000000000000000000000000000000600052603260045260246000fd5b9060005260206000200160000160089054906101000a900460ff166002811115611f32577f4e487b7100000000000000000000000000000000000000000000000000000000600052602160045260246000fd5b1415611f73576040517f08c379a0000000000000000000000000000000000000000000000000000000008152600401611f6a906150bc565b60405180910390fd5b600115156008600d9054906101000a900460ff16151514611fc9576040517f08c379a0000000000000000000000000000000000000000000000000000000008152600401611fc09061537c565b60405180910390fd5b600260078581548110612005577f4e487b7100000000000000000000000000000000000000000000000000000000600052603260045260246000fd5b9060005260206000200160000160086101000a81548160ff0219169083600281111561205a577f4e487b7100000000000000000000000000000000000000000000000000000000600052602160045260246000fd5b02179055507fec1a51878793b26371980da80139946e4a398461978717cbe8d07596dd3404b63385604051612090929190614f26565b60405180910390a1600192505050919050565b60018060058111156120de577f4e487b7100000000000000000000000000000000000000000000000000000000600052602160045260246000fd5b600660009054906101000a900460ff166005811115612126577f4e487b7100000000000000000000000000000000000000000000000000000000600052602160045260246000fd5b14612166576040517f08c379a000000000000000000000000000000000000000000000000000000000815260040161215d906150dc565b60405180910390fd5b3373ffffffffffffffffffffffffffffffffffffffff16600d600084815260200190815260200160002060009054906101000a900473ffffffffffffffffffffffffffffffffffffffff1673ffffffffffffffffffffffffffffffffffffffff161415612208576040517f08c379a00000000000000000000000000000000000000000000000000000000081526004016121ff906153dc565b60405180910390fd5b33600d600084815260200190815260200160002060006101000a81548173ffffffffffffffffffffffffffffffffffffffff021916908373ffffffffffffffffffffffffffffffffffffffff1602179055505050565b600960009054906101000a900473ffffffffffffffffffffffffffffffffffffffff1681565b60606007805480602002602001604051908101604052809291908181526020016000905b828210156123a9578382906000526020600020016040518060600160405290816000820160009054906101000a900463ffffffff1663ffffffff1663ffffffff1681526020016000820160049054906101000a900463ffffffff1663ffffffff1663ffffffff1681526020016000820160089054906101000a900460ff16600281111561235e577f4e487b7100000000000000000000000000000000000000000000000000000000600052602160045260246000fd5b6002811115612396577f4e487b7100000000000000000000000000000000000000000000000000000000600052602160045260246000fd5b81525050815260200190600101906122a8565b50505050905090565b600d6020528060005260406000206000915054906101000a900473ffffffffffffffffffffffffffffffffffffffff1681565b6060600180546123f49061583b565b80601f01602080910402602001604051908101604052809291908181526020018280546124209061583b565b801561246d5780601f106124425761010080835404028352916020019161246d565b820191906000526020600020905b81548152906001019060200180831161245057829003601f168201915b5050505050905090565b6008600e9054906101000a900460ff1681565b60018060058111156124c5577f4e487b7100000000000000000000000000000000000000000000000000000000600052602160045260246000fd5b600660009054906101000a900460ff16600581111561250d577f4e487b7100000000000000000000000000000000000000000000000000000000600052602160045260246000fd5b1461254d576040517f08c379a0000000000000000000000000000000000000000000000000000000008152600401612544906150dc565b60405180910390fd5b3373ffffffffffffffffffffffffffffffffffffffff1661256d83611bc5565b73ffffffffffffffffffffffffffffffffffffffff16146125c3576040517f08c379a00000000000000000000000000000000000000000000000000000000081526004016125ba9061509c565b60405180910390fd5b6125ce836001612604565b6125d88383610b33565b505050565b6008600c9054906101000a900460ff1681565b60088054906101000a900463ffffffff1681565b61260c613203565b73ffffffffffffffffffffffffffffffffffffffff168273ffffffffffffffffffffffffffffffffffffffff16141561267a576040517f08c379a00000000000000000000000000000000000000000000000000000000081526004016126719061513c565b60405180910390fd5b8060056000612687613203565b73ffffffffffffffffffffffffffffffffffffffff1673ffffffffffffffffffffffffffffffffffffffff16815260200190815260200160002060008473ffffffffffffffffffffffffffffffffffffffff1673ffffffffffffffffffffffffffffffffffffffff16815260200190815260200160002060006101000a81548160ff0219169083151502179055508173ffffffffffffffffffffffffffffffffffffffff16612734613203565b73ffffffffffffffffffffffffffffffffffffffff167f17307eab39ab6107e8899845ad3d59bd9653f200f220920489ca2b5937696c31836040516127799190614fc4565b60405180910390a35050565b600860009054906101000a900463ffffffff1681565b6008600d9054906101000a900460ff1681565b6127bf6127b9613203565b836133d5565b6127fe576040517f08c379a00000000000000000000000000000000000000000000000000000000081526004016127f59061533c565b60405180910390fd5b61280a8484848461370f565b50505050565b600660009054906101000a900460ff1681565b606061282e82613197565b61286d576040517f08c379a0000000000000000000000000000000000000000000000000000000008152600401612864906152fc565b60405180910390fd5b600061287761376b565b9050600081511161289757604051806020016040528060008152506128c2565b806128a184613782565b6040516020016128b2929190614e1f565b6040516020818303038152906040525b915050919050565b6000600960009054906101000a900473ffffffffffffffffffffffffffffffffffffffff1673ffffffffffffffffffffffffffffffffffffffff163373ffffffffffffffffffffffffffffffffffffffff161461295c576040517f08c379a00000000000000000000000000000000000000000000000000000000081526004016129539061505c565b60405180910390fd5b81600660006101000a81548160ff021916908360058111156129a7577f4e487b7100000000000000000000000000000000000000000000000000000000600052602160045260246000fd5b0217905550600460058111156129e6577f4e487b7100000000000000000000000000000000000000000000000000000000600052602160045260246000fd5b600660009054906101000a900460ff166005811115612a2e577f4e487b7100000000000000000000000000000000000000000000000000000000600052602160045260246000fd5b1415612aee5760016008600e6101000a81548160ff02191690831515021790555060078054905060088054906101000a900463ffffffff1663ffffffff16612a769190615654565b600b6000600960009054906101000a900473ffffffffffffffffffffffffffffffffffffffff1673ffffffffffffffffffffffffffffffffffffffff1673ffffffffffffffffffffffffffffffffffffffff1681526020019081526020016000206000828254612ae691906156ae565b925050819055505b600660009054906101000a900460ff169050919050565b600860049054906101000a900463ffffffff1681565b6000600560008473ffffffffffffffffffffffffffffffffffffffff1673ffffffffffffffffffffffffffffffffffffffff16815260200190815260200160002060008373ffffffffffffffffffffffffffffffffffffffff1673ffffffffffffffffffffffffffffffffffffffff16815260200190815260200160002060009054906101000a900460ff16905092915050565b600060016005811115612beb577f4e487b7100000000000000000000000000000000000000000000000000000000600052602160045260246000fd5b600660009054906101000a900460ff166005811115612c33577f4e487b7100000000000000000000000000000000000000000000000000000000600052602160045260246000fd5b1480612cbe575060036005811115612c74577f4e487b7100000000000000000000000000000000000000000000000000000000600052602160045260246000fd5b600660009054906101000a900460ff166005811115612cbc577f4e487b7100000000000000000000000000000000000000000000000000000000600052602160045260246000fd5b145b612cfd576040517f08c379a0000000000000000000000000000000000000000000000000000000008152600401612cf49061539c565b60405180910390fd5b6000600860009054906101000a900463ffffffff1663ffffffff1611612d58576040517f08c379a0000000000000000000000000000000000000000000000000000000008152600401612d4f906150fc565b60405180910390fd5b3460088054906101000a900463ffffffff1663ffffffff16811015612db2576040517f08c379a0000000000000000000000000000000000000000000000000000000008152600401612da99061519c565b60405180910390fd5b612dba613d7c565b60088054906101000a900463ffffffff16816000019063ffffffff16908163ffffffff168152505060088054906101000a900463ffffffff16816020019063ffffffff16908163ffffffff1681525050600081604001906002811115612e49577f4e487b7100000000000000000000000000000000000000000000000000000000600052602160045260246000fd5b90816002811115612e83577f4e487b7100000000000000000000000000000000000000000000000000000000600052602160045260246000fd5b815250506007819080600181540180825580915050600190039060005260206000200160009091909190915060008201518160000160006101000a81548163ffffffff021916908363ffffffff16021790555060208201518160000160046101000a81548163ffffffff021916908363ffffffff16021790555060408201518160000160086101000a81548160ff02191690836002811115612f4e577f4e487b7100000000000000000000000000000000000000000000000000000000600052602160045260246000fd5b0217905550505060006001600780549050612f6991906156ae565b90506008600081819054906101000a900463ffffffff1680929190612f8d90615811565b91906101000a81548163ffffffff021916908363ffffffff1602179055505060088054906101000a900463ffffffff1663ffffffff1634111561304857600060088054906101000a900463ffffffff1663ffffffff1634612fee91906156ae565b905080600b60003373ffffffffffffffffffffffffffffffffffffffff1673ffffffffffffffffffffffffffffffffffffffff168152602001908152602001600020600082825461303f919061559c565b92505081905550505b60088054906101000a900463ffffffff1663ffffffff16600b6000600960009054906101000a900473ffffffffffffffffffffffffffffffffffffffff1673ffffffffffffffffffffffffffffffffffffffff1673ffffffffffffffffffffffffffffffffffffffff16815260200190815260200160002060008282546130cf919061559c565b925050819055506130e0338261394e565b7f1b430c41ad1e9efc507aac150600ae9a3da936ed08479682cf954ffe044cd3d73061310a610a1c565b338460405161311c9493929190614eda565b60405180910390a180935050505090565b60007f01ffc9a7000000000000000000000000000000000000000000000000000000007bffffffffffffffffffffffffffffffffffffffffffffffffffffffff1916827bffffffffffffffffffffffffffffffffffffffffffffffffffffffff1916149050919050565b60008073ffffffffffffffffffffffffffffffffffffffff166002600084815260200190815260200160002060009054906101000a900473ffffffffffffffffffffffffffffffffffffffff1673ffffffffffffffffffffffffffffffffffffffff1614159050919050565b600033905090565b816004600083815260200190815260200160002060006101000a81548173ffffffffffffffffffffffffffffffffffffffff021916908373ffffffffffffffffffffffffffffffffffffffff160217905550808273ffffffffffffffffffffffffffffffffffffffff1661327e83611bc5565b73ffffffffffffffffffffffffffffffffffffffff167f8c5be1e5ebec7d5bd14f71427d1e84f3dd0314c0f7b2291e5b200ac8c7c3b92560405160405180910390a45050565b60006132cf82611bc5565b90506132dd8160008461396c565b6132e860008361320b565b6001600360008373ffffffffffffffffffffffffffffffffffffffff1673ffffffffffffffffffffffffffffffffffffffff168152602001908152602001600020600082825461333891906156ae565b925050819055506002600083815260200190815260200160002060006101000a81549073ffffffffffffffffffffffffffffffffffffffff021916905581600073ffffffffffffffffffffffffffffffffffffffff168273ffffffffffffffffffffffffffffffffffffffff167fddf252ad1be2c89b69c2b068fc378daa952ba7f163c4a11628f55a4df523b3ef60405160405180910390a45050565b60006133e082613197565b61341f576040517f08c379a00000000000000000000000000000000000000000000000000000000081526004016134169061517c565b60405180910390fd5b600061342a83611bc5565b90508073ffffffffffffffffffffffffffffffffffffffff168473ffffffffffffffffffffffffffffffffffffffff16148061349957508373ffffffffffffffffffffffffffffffffffffffff1661348184610aae565b73ffffffffffffffffffffffffffffffffffffffff16145b806134aa57506134a98185612b1b565b5b91505092915050565b8273ffffffffffffffffffffffffffffffffffffffff166134d382611bc5565b73ffffffffffffffffffffffffffffffffffffffff1614613529576040517f08c379a0000000000000000000000000000000000000000000000000000000008152600401613520906152dc565b60405180910390fd5b600073ffffffffffffffffffffffffffffffffffffffff168273ffffffffffffffffffffffffffffffffffffffff161415613599576040517f08c379a00000000000000000000000000000000000000000000000000000000081526004016135909061511c565b60405180910390fd5b6135a483838361396c565b6135af60008261320b565b6001600360008573ffffffffffffffffffffffffffffffffffffffff1673ffffffffffffffffffffffffffffffffffffffff16815260200190815260200160002060008282546135ff91906156ae565b925050819055506001600360008473ffffffffffffffffffffffffffffffffffffffff1673ffffffffffffffffffffffffffffffffffffffff1681526020019081526020016000206000828254613656919061559c565b92505081905550816002600083815260200190815260200160002060006101000a81548173ffffffffffffffffffffffffffffffffffffffff021916908373ffffffffffffffffffffffffffffffffffffffff160217905550808273ffffffffffffffffffffffffffffffffffffffff168473ffffffffffffffffffffffffffffffffffffffff167fddf252ad1be2c89b69c2b068fc378daa952ba7f163c4a11628f55a4df523b3ef60405160405180910390a4505050565b61371a8484846134b3565b61372684848484613971565b613765576040517f08c379a000000000000000000000000000000000000000000000000000000000815260040161375c9061503c565b60405180910390fd5b50505050565b606060405180602001604052806000815250905090565b606060008214156137ca576040518060400160405280600181526020017f30000000000000000000000000000000000000000000000000000000000000008152509050613949565b600082905060005b600082146137fc5780806137e59061586d565b915050600a826137f591906155f2565b91506137d2565b60008167ffffffffffffffff81111561383e577f4e487b7100000000000000000000000000000000000000000000000000000000600052604160045260246000fd5b6040519080825280601f01601f1916602001820160405280156138705781602001600182028036833780820191505090505b5090505b600085146139425760018261388991906156ae565b9150600a8561389891906158b6565b60306138a4919061559c565b7f0100000000000000000000000000000000000000000000000000000000000000028183815181106138ff577f4e487b7100000000000000000000000000000000000000000000000000000000600052603260045260246000fd5b60200101907effffffffffffffffffffffffffffffffffffffffffffffffffffffffffffff1916908160001a905350600a8561393b91906155f2565b9450613874565b8093505050505b919050565b613968828260405180602001604052806000815250613b40565b5050565b505050565b60006139928473ffffffffffffffffffffffffffffffffffffffff16613b9b565b15613b33578373ffffffffffffffffffffffffffffffffffffffff1663150b7a026139bb613203565b8786866040518563ffffffff167c01000000000000000000000000000000000000000000000000000000000281526004016139f99493929190614e8e565b602060405180830381600087803b158015613a1357600080fd5b505af1925050508015613a4457506040513d601f19601f82011682018060405250810190613a4191906140ff565b60015b613ac7573d8060008114613a74576040519150601f19603f3d011682016040523d82523d6000602084013e613a79565b606091505b50600081511415613abf576040517f08c379a0000000000000000000000000000000000000000000000000000000008152600401613ab69061503c565b60405180910390fd5b805181602001fd5b63150b7a027c0100000000000000000000000000000000000000000000000000000000027bffffffffffffffffffffffffffffffffffffffffffffffffffffffff1916817bffffffffffffffffffffffffffffffffffffffffffffffffffffffff191614915050613b38565b600190505b949350505050565b613b4a8383613bae565b613b576000848484613971565b613b96576040517f08c379a0000000000000000000000000000000000000000000000000000000008152600401613b8d9061503c565b60405180910390fd5b505050565b600080823b905060008111915050919050565b600073ffffffffffffffffffffffffffffffffffffffff168273ffffffffffffffffffffffffffffffffffffffff161415613c1e576040517f08c379a0000000000000000000000000000000000000000000000000000000008152600401613c159061529c565b60405180910390fd5b613c2781613197565b15613c67576040517f08c379a0000000000000000000000000000000000000000000000000000000008152600401613c5e9061507c565b60405180910390fd5b613c736000838361396c565b6001600360008473ffffffffffffffffffffffffffffffffffffffff1673ffffffffffffffffffffffffffffffffffffffff1681526020019081526020016000206000828254613cc3919061559c565b92505081905550816002600083815260200190815260200160002060006101000a81548173ffffffffffffffffffffffffffffffffffffffff021916908373ffffffffffffffffffffffffffffffffffffffff160217905550808273ffffffffffffffffffffffffffffffffffffffff16600073ffffffffffffffffffffffffffffffffffffffff167fddf252ad1be2c89b69c2b068fc378daa952ba7f163c4a11628f55a4df523b3ef60405160405180910390a45050565b6040518060600160405280600063ffffffff168152602001600063ffffffff16815260200160006002811115613ddb577f4e487b7100000000000000000000000000000000000000000000000000000000600052602160045260246000fd5b81525090565b6000613df4613def846154b5565b615484565b905082815260208101848484011115613e0c57600080fd5b613e178482856157cf565b509392505050565b6000613e32613e2d846154e5565b615484565b905082815260208101848484011115613e4a57600080fd5b613e558482856157cf565b509392505050565b600081359050613e6c81615a0b565b92915050565b600081359050613e8181615a22565b92915050565b600081359050613e9681615a39565b92915050565b600081519050613eab81615a39565b92915050565b600082601f830112613ec257600080fd5b8135613ed2848260208601613de1565b91505092915050565b600081359050613eea81615a50565b92915050565b600082601f830112613f0157600080fd5b8135613f11848260208601613e1f565b91505092915050565b600081359050613f2981615a60565b92915050565b600060208284031215613f4157600080fd5b6000613f4f84828501613e5d565b91505092915050565b60008060408385031215613f6b57600080fd5b6000613f7985828601613e5d565b9250506020613f8a85828601613e5d565b9150509250929050565b600080600060608486031215613fa957600080fd5b6000613fb786828701613e5d565b9350506020613fc886828701613e5d565b9250506040613fd986828701613f1a565b9150509250925092565b60008060008060808587031215613ff957600080fd5b600061400787828801613e5d565b945050602061401887828801613e5d565b935050604061402987828801613f1a565b925050606085013567ffffffffffffffff81111561404657600080fd5b61405287828801613eb1565b91505092959194509250565b6000806040838503121561407157600080fd5b600061407f85828601613e5d565b925050602061409085828601613e72565b9150509250929050565b600080604083850312156140ad57600080fd5b60006140bb85828601613e5d565b92505060206140cc85828601613f1a565b9150509250929050565b6000602082840312156140e857600080fd5b60006140f684828501613e87565b91505092915050565b60006020828403121561411157600080fd5b600061411f84828501613e9c565b91505092915050565b60006020828403121561413a57600080fd5b600061414884828501613edb565b91505092915050565b60006020828403121561416357600080fd5b600061417184828501613f1a565b91505092915050565b6000806040838503121561418d57600080fd5b600061419b85828601613f1a565b925050602083013567ffffffffffffffff8111156141b857600080fd5b6141c485828601613ef0565b9150509250929050565b60006141da8383614da1565b60608301905092915050565b6141ef816156f4565b82525050565b6141fe816156e2565b82525050565b600061420f82615525565b6142198185615553565b935061422483615515565b8060005b8381101561425557815161423c88826141ce565b975061424783615546565b925050600181019050614228565b5085935050505092915050565b61426b81615706565b82525050565b600061427c82615530565b6142868185615564565b93506142968185602086016157de565b61429f816159d2565b840191505092915050565b6142b3816157ab565b82525050565b6142c2816157bd565b82525050565b6142d1816157bd565b82525050565b60006142e28261553b565b6142ec8185615580565b93506142fc8185602086016157de565b614305816159d2565b840191505092915050565b600061431b8261553b565b6143258185615591565b93506143358185602086016157de565b80840191505092915050565b600061434e601483615580565b91507f4e6f206d6f6e657920746f2077697468647261770000000000000000000000006000830152602082019050919050565b600061438e603283615580565b91507f4552433732313a207472616e7366657220746f206e6f6e20455243373231526560008301527f63656976657220696d706c656d656e74657200000000000000000000000000006020830152604082019050919050565b60006143f4602183615580565b91507f43616e206f6e6c7920626520657865637574656420627920746865206f776e6560008301527f72000000000000000000000000000000000000000000000000000000000000006020830152604082019050919050565b600061445a601c83615580565b91507f4552433732313a20746f6b656e20616c7265616479206d696e746564000000006000830152602082019050919050565b600061449a600d83615580565b91507f6e6f207065726d697373696f6e000000000000000000000000000000000000006000830152602082019050919050565b60006144da601c83615580565b91507f5469636b65742068617320616c7265616479206265656e2075736564000000006000830152602082019050919050565b600061451a602583615580565b91507f43616e6e6f7420657865637574652066756e6374696f6e20617420746869732060008301527f73746167650000000000000000000000000000000000000000000000000000006020830152604082019050919050565b6000614580601883615580565b91507f5468657265206172652030207469636b657473206c65667400000000000000006000830152602082019050919050565b60006145c0602483615580565b91507f4552433732313a207472616e7366657220746f20746865207a65726f2061646460008301527f72657373000000000000000000000000000000000000000000000000000000006020830152604082019050919050565b6000614626601983615580565b91507f4552433732313a20617070726f766520746f2063616c6c6572000000000000006000830152602082019050919050565b6000614666602483615580565b91507f5573657220646f6573206e6f742068617665206d6f6e657920746f207769746860008301527f64726177000000000000000000000000000000000000000000000000000000006020830152604082019050919050565b60006146cc602c83615580565b91507f4552433732313a206f70657261746f7220717565727920666f72206e6f6e657860008301527f697374656e7420746f6b656e00000000000000000000000000000000000000006020830152604082019050919050565b6000614732602583615580565b91507f4e6f7420656e6f756768206d6f6e657920746f2070757263686173652061207460008301527f69636b65740000000000000000000000000000000000000000000000000000006020830152604082019050919050565b6000614798601d83615580565b91507f5469636b6574206e6f7420617661696c61626c6520666f722073616c650000006000830152602082019050919050565b60006147d8602683615580565b91507f5468657265206973206e6f2076616c6964207469636b657420666f722074686960008301527f73207573657200000000000000000000000000000000000000000000000000006020830152604082019050919050565b600061483e603883615580565b91507f4552433732313a20617070726f76652063616c6c6572206973206e6f74206f7760008301527f6e6572206e6f7220617070726f76656420666f7220616c6c00000000000000006020830152604082019050919050565b60006148a4602a83615580565b91507f4552433732313a2062616c616e636520717565727920666f7220746865207a6560008301527f726f2061646472657373000000000000000000000000000000000000000000006020830152604082019050919050565b600061490a602983615580565b91507f4552433732313a206f776e657220717565727920666f72206e6f6e657869737460008301527f656e7420746f6b656e00000000000000000000000000000000000000000000006020830152604082019050919050565b6000614970601c83615580565b91507f4661696c656420746f2073656e6420657468657220746f2075736572000000006000830152602082019050919050565b60006149b0602083615580565b91507f43616e206e6f7420626520657865637574656420627920746865206f776e65726000830152602082019050919050565b60006149f0602083615580565b91507f4552433732313a206d696e7420746f20746865207a65726f20616464726573736000830152602082019050919050565b6000614a30602c83615580565b91507f4552433732313a20617070726f76656420717565727920666f72206e6f6e657860008301527f697374656e7420746f6b656e00000000000000000000000000000000000000006020830152604082019050919050565b6000614a96602983615580565b91507f4552433732313a207472616e73666572206f6620746f6b656e2074686174206960008301527f73206e6f74206f776e00000000000000000000000000000000000000000000006020830152604082019050919050565b6000614afc602f83615580565b91507f4552433732314d657461646174613a2055524920717565727920666f72206e6f60008301527f6e6578697374656e7420746f6b656e00000000000000000000000000000000006020830152604082019050919050565b6000614b62602183615580565b91507f4552433732313a20617070726f76616c20746f2063757272656e74206f776e6560008301527f72000000000000000000000000000000000000000000000000000000000000006020830152604082019050919050565b6000614bc8600083615575565b9150600082019050919050565b6000614be2603183615580565b91507f4552433732313a207472616e736665722063616c6c6572206973206e6f74206f60008301527f776e6572206e6f7220617070726f7665640000000000000000000000000000006020830152604082019050919050565b6000614c48601d83615580565b91507f4661696c656420746f2073656e6420657468657220746f206f776e65720000006000830152602082019050919050565b6000614c88601783615580565b91507f5469636b65742063616e6e6f74206265207265736f6c640000000000000000006000830152602082019050919050565b6000614cc8601d83615580565b91507f5469636b65747320617265206e6f74206f70656e20666f722073616c650000006000830152602082019050919050565b6000614d08601d83615580565b91507f5573657220646f6573206e6f74206f776e2074686973207469636b65740000006000830152602082019050919050565b6000614d48602283615580565b91507f596f75206861766520616c7265616479207265676973746572656420746f206260008301527f75790000000000000000000000000000000000000000000000000000000000006020830152604082019050919050565b606082016000820151614db76000850182614df2565b506020820151614dca6020850182614df2565b506040820151614ddd60408501826142b9565b50505050565b614dec81615784565b82525050565b614dfb8161578e565b82525050565b614e0a8161578e565b82525050565b614e198161579e565b82525050565b6000614e2b8285614310565b9150614e378284614310565b91508190509392505050565b6000614e4e82614bbb565b9150819050919050565b6000602082019050614e6d60008301846141f5565b92915050565b6000602082019050614e8860008301846141e6565b92915050565b6000608082019050614ea360008301876141f5565b614eb060208301866141f5565b614ebd6040830185614de3565b8181036060830152614ecf8184614271565b905095945050505050565b6000608082019050614eef60008301876141f5565b8181036020830152614f0181866142d7565b9050614f1060408301856141f5565b614f1d6060830184614de3565b95945050505050565b6000604082019050614f3b60008301856141f5565b614f486020830184614de3565b9392505050565b6000608082019050614f6460008301876141f5565b614f716020830186614de3565b8181036040830152614f8381856142d7565b90508181036060830152614f9781846142d7565b905095945050505050565b60006020820190508181036000830152614fbc8184614204565b905092915050565b6000602082019050614fd96000830184614262565b92915050565b6000602082019050614ff460008301846142aa565b92915050565b6000602082019050818103600083015261501481846142d7565b905092915050565b6000602082019050818103600083015261503581614341565b9050919050565b6000602082019050818103600083015261505581614381565b9050919050565b60006020820190508181036000830152615075816143e7565b9050919050565b600060208201905081810360008301526150958161444d565b9050919050565b600060208201905081810360008301526150b58161448d565b9050919050565b600060208201905081810360008301526150d5816144cd565b9050919050565b600060208201905081810360008301526150f58161450d565b9050919050565b6000602082019050818103600083015261511581614573565b9050919050565b60006020820190508181036000830152615135816145b3565b9050919050565b6000602082019050818103600083015261515581614619565b9050919050565b6000602082019050818103600083015261517581614659565b9050919050565b60006020820190508181036000830152615195816146bf565b9050919050565b600060208201905081810360008301526151b581614725565b9050919050565b600060208201905081810360008301526151d58161478b565b9050919050565b600060208201905081810360008301526151f5816147cb565b9050919050565b6000602082019050818103600083015261521581614831565b9050919050565b6000602082019050818103600083015261523581614897565b9050919050565b60006020820190508181036000830152615255816148fd565b9050919050565b6000602082019050818103600083015261527581614963565b9050919050565b60006020820190508181036000830152615295816149a3565b9050919050565b600060208201905081810360008301526152b5816149e3565b9050919050565b600060208201905081810360008301526152d581614a23565b9050919050565b600060208201905081810360008301526152f581614a89565b9050919050565b6000602082019050818103600083015261531581614aef565b9050919050565b6000602082019050818103600083015261533581614b55565b9050919050565b6000602082019050818103600083015261535581614bd5565b9050919050565b6000602082019050818103600083015261537581614c3b565b9050919050565b6000602082019050818103600083015261539581614c7b565b9050919050565b600060208201905081810360008301526153b581614cbb565b9050919050565b600060208201905081810360008301526153d581614cfb565b9050919050565b600060208201905081810360008301526153f581614d3b565b9050919050565b60006020820190506154116000830184614de3565b92915050565b600060208201905061542c6000830184614e01565b92915050565b60006060820190506154476000830186614e01565b6154546020830185614e01565b61546160408301846142c8565b949350505050565b600060208201905061547e6000830184614e10565b92915050565b6000604051905081810181811067ffffffffffffffff821117156154ab576154aa6159a3565b5b8060405250919050565b600067ffffffffffffffff8211156154d0576154cf6159a3565b5b601f19601f8301169050602081019050919050565b600067ffffffffffffffff821115615500576154ff6159a3565b5b601f19601f8301169050602081019050919050565b6000819050602082019050919050565b600081519050919050565b600081519050919050565b600081519050919050565b6000602082019050919050565b600082825260208201905092915050565b600082825260208201905092915050565b600081905092915050565b600082825260208201905092915050565b600081905092915050565b60006155a782615784565b91506155b283615784565b9250827fffffffffffffffffffffffffffffffffffffffffffffffffffffffffffffffff038211156155e7576155e66158e7565b5b828201905092915050565b60006155fd82615784565b915061560883615784565b92508261561857615617615916565b5b828204905092915050565b600061562e8261579e565b91506156398361579e565b92508261564957615648615916565b5b828204905092915050565b600061565f82615784565b915061566a83615784565b9250817fffffffffffffffffffffffffffffffffffffffffffffffffffffffffffffffff04831182151516156156a3576156a26158e7565b5b828202905092915050565b60006156b982615784565b91506156c483615784565b9250828210156156d7576156d66158e7565b5b828203905092915050565b60006156ed82615764565b9050919050565b60006156ff82615764565b9050919050565b60008115159050919050565b60007fffffffff0000000000000000000000000000000000000000000000000000000082169050919050565b600081905061574c826159e3565b919050565b600081905061575f826159f7565b919050565b600073ffffffffffffffffffffffffffffffffffffffff82169050919050565b6000819050919050565b600063ffffffff82169050919050565b600060ff82169050919050565b60006157b68261573e565b9050919050565b60006157c882615751565b9050919050565b82818337600083830152505050565b60005b838110156157fc5780820151818401526020810190506157e1565b8381111561580b576000848401525b50505050565b600061581c8261578e565b915060008214156158305761582f6158e7565b5b600182039050919050565b6000600282049050600182168061585357607f821691505b6020821081141561586757615866615974565b5b50919050565b600061587882615784565b91507fffffffffffffffffffffffffffffffffffffffffffffffffffffffffffffffff8214156158ab576158aa6158e7565b5b600182019050919050565b60006158c182615784565b91506158cc83615784565b9250826158dc576158db615916565b5b828206905092915050565b7f4e487b7100000000000000000000000000000000000000000000000000000000600052601160045260246000fd5b7f4e487b7100000000000000000000000000000000000000000000000000000000600052601260045260246000fd5b7f4e487b7100000000000000000000000000000000000000000000000000000000600052602160045260246000fd5b7f4e487b7100000000000000000000000000000000000000000000000000000000600052602260045260246000fd5b7f4e487b7100000000000000000000000000000000000000000000000000000000600052604160045260246000fd5b6000601f19601f8301169050919050565b600681106159f4576159f3615945565b5b50565b60038110615a0857615a07615945565b5b50565b615a14816156e2565b8114615a1f57600080fd5b50565b615a2b81615706565b8114615a3657600080fd5b50565b615a4281615712565b8114615a4d57600080fd5b50565b60068110615a5d57600080fd5b50565b615a6981615784565b8114615a7457600080fd5b5056fea2646970667358221220240a89d6cd5fa04877941980c43d282c412c37881224152986a8432c7edab32264736f6c63430008000033",
  "immutableReferences": {},
  "source": "// SPDX-License-Identifier: UNLICENSED\r\npragma solidity 0.8.0;\r\nimport \"@openzeppelin/contracts/token/ERC721/ERC721.sol\";\r\n \r\n/// @title Factory Contract to create events\r\ncontract EventCreator {\r\n\r\n    // Created events\r\n    Event[] public events;\r\n\r\n    // EVENTS\r\n    event CreateEvent(address _creator, address _event);\r\n\r\n    /**\r\n     * @notice Creates Events\r\n     * @param _numTickets Number of tickets \r\n     * @param _price Price per ticket\r\n     * @param _canBeResold Are tickets allowed to be resold\r\n     * @param _royaltyPercent Royalty percentage accrued by organizers on reselling of ticket\r\n     * @param _eventName Name of the Ticket NFT\r\n     * @param _eventSymbol Symbol for the Ticket NFT Token\r\n     */\r\n    function createEvent(uint32 _numTickets, uint32 _price, bool _canBeResold, uint8 _royaltyPercent,\r\n            string memory _eventName, string memory _eventSymbol) external returns(address newEvent) {\r\n\r\n        // Create a new Event smart contract\r\n        Event e = new Event(msg.sender, _numTickets, _price, _canBeResold, _royaltyPercent, _eventName, _eventSymbol);\r\n        \r\n        // Store/return event address\r\n        events.push(e);\r\n        address eventAddress = address(e);\r\n        emit CreateEvent(msg.sender, eventAddress);\r\n\r\n        return eventAddress;\r\n    }\r\n\r\n\r\n    /**\r\n     * @notice Retrieve number of events\r\n     */\r\n    function getEventCount() public view returns(uint contractCount) {\r\n        return events.length;\r\n    }\r\n\r\n    // Returns array of all events\r\n    function getEvents() external view returns(Event[] memory _events) {\r\n        _events = new Event[] (events.length);\r\n        for (uint i=0; i<events.length; i++){\r\n            _events[i] = events[i];\r\n        }\r\n\r\n        return _events;\r\n    }  \r\n}\r\n\r\n/// @title Contract to mint tickets of an event\r\ncontract Event is ERC721 {\r\n    /// Control Event Status at a granular level\r\n    enum Stages { Prep, Active, Paused, CheckinOpen, Cancelled, Closed }\r\n    // Stages public stage = Stages.Prep;\r\n    Stages public stage;\r\n    /// Control Ticket Status at a granular level\r\n    /// Valid - Ticket is Valid\r\n    /// Used - Ticket is used\r\n    /// AvailableForSale - Ticket is allowed to be sold to someone\r\n    enum TicketStatus {Valid, Used, AvailableForSale }\r\n    \r\n    // Ticket struct \r\n    struct Ticket {\r\n        uint32 price;\r\n        uint32 resalePrice;\r\n        TicketStatus status;\r\n    }\r\n    Ticket[] public tickets;\r\n    uint32 public numTicketsLeft;\r\n    uint32 public totalTickets;\r\n    uint32 public price;\r\n    \r\n    /// Percent royalty event creator receives from ticket resales\r\n    uint8 public royaltyPercent;\r\n    \r\n    // if ticket can be resold in the second market\r\n    bool public canBeResold;\r\n    \r\n    // if event is cancelled\r\n    bool public isCancelled;\r\n    \r\n    // orginizer of event\r\n    address payable public owner;\r\n    \r\n    // to store the balances for buyers and organizers\r\n    uint totalBalances = 0;\r\n    mapping(address => uint) public balances;\r\n    mapping(address => bool) public isUserRefund;\r\n    mapping(uint => address) public registeredBuyers;\r\n\r\n    // EVENTS\r\n    event CreateTicket(address contractAddress, string eventName, address buyer, uint ticketID);\r\n    event WithdrawMoney(address receiver, uint money);\r\n    event OwnerWithdrawMoney(address owner, uint money);\r\n    event TicketForSale(address seller, uint ticketID);\r\n    event TicketSold(address contractAddress, string eventName, address buyer, uint ticketID);\r\n    event TicketUsed(address contractAddress, uint ticketID, string eventName, string sQRCodeKey);\r\n\r\n    // Creates a new Event Contract\r\n    constructor(address _owner, uint32 _numTickets, uint32 _price, bool _canBeResold, uint8 _royaltyPercent,\r\n            string memory _eventName, string memory _eventSymbol) ERC721(_eventName, _eventSymbol) {    \r\n        // Check valid constructor arguments\r\n        require(_royaltyPercent >= 0 && _royaltyPercent <= 100, \"Royalty Percentage must be between 0 and 100\");\r\n        // Number of tickets must be greater than 0\r\n        require(_numTickets > 0, \"The number of tickets must be greater than 0\");\r\n        // EventName, EventSymbol cannot be empty string\r\n        bytes memory eventNameBytes = bytes(_eventName);\r\n        bytes memory eventSymbolBytes = bytes(_eventSymbol);\r\n        require(eventNameBytes.length != 0, \"Event Name cannot be empty\");\r\n        require(eventSymbolBytes.length != 0, \"Event Symbol cannot be empty\");\r\n        \r\n        owner = payable(_owner);\r\n        totalTickets = _numTickets;\r\n        numTicketsLeft = _numTickets;\r\n        price = _price;\r\n        canBeResold = _canBeResold;\r\n        royaltyPercent = _royaltyPercent;\r\n        stage = Stages.Prep;\r\n    }\r\n\r\n    /**\r\n     * @notice Buy tickets\r\n     * @dev Checks: State is Active, has enough money\r\n     */\r\n    function buyTicket() public payable buyingTicketOpen ticketsLeft \r\n                                            hasEnoughMoney(msg.value) returns (uint){\r\n        // Create Ticket t\r\n        Ticket memory t;\r\n        t.price = price;\r\n        t.resalePrice = price;\r\n        t.status = TicketStatus.Valid;\r\n\r\n        // Store t in tickets array\r\n        tickets.push(t);\r\n        uint ticketID = tickets.length - 1;\r\n        numTicketsLeft--;\r\n        \r\n        // store overpaid in balances\r\n        if (msg.value > price) {\r\n            uint amount = msg.value - price;\r\n            balances[msg.sender] += amount;\r\n        }\r\n        balances[owner] += price;\r\n        \r\n        // Mint NFT\r\n        _safeMint(msg.sender, ticketID);\r\n        emit CreateTicket(address(this), name(), msg.sender, ticketID);\r\n        \r\n        return ticketID;\r\n    }\r\n\r\n    /**\r\n     * @notice Mark ticket as used\r\n     * @dev Only a valid buyer can mark ticket as used\r\n     * @param ticketID ticket ID of ticket\r\n     */\r\n    function buyTicketFromUser(uint ticketID) public payable requiredStage(Stages.Active) hasEnoughMoney(msg.value) returns (bool) {\r\n        // Check if ticket is available for sale\r\n        require(tickets[ticketID].status == TicketStatus.AvailableForSale, \"Ticket not available for sale\");\r\n        //approveAsBuyer(msg.sender, ticketID);\r\n\r\n        //calc amount to pay after royalty\r\n        uint ticketPrice = tickets[ticketID].price;\r\n        uint royalty = (royaltyPercent/100) * ticketPrice;\r\n        uint priceToPay = ticketPrice - royalty;\r\n\r\n        //transfer money to seller\r\n        address payable seller = payable(ownerOf(ticketID));\r\n        ///seller.transfer(priceToPay);\r\n        // bool sent = seller.send(price);\r\n        balances[seller] += priceToPay;\r\n        balances[owner] += royalty;\r\n\r\n        // require(sent, \"Failed to send ether to user\");\r\n\r\n        emit TicketSold(address(this), name(), msg.sender, ticketID);\r\n        safeTransferFrom(seller, msg.sender, ticketID);\r\n\r\n        tickets[ticketID].status = TicketStatus.Valid;\r\n\r\n        return true;\r\n\r\n    }\r\n    \r\n    /**\r\n     * @notice Mark ticket as used\r\n     * @dev Only a valid buyer can mark ticket as used\r\n     * @param sQRCodeKey QR Code key sent by the app \r\n     */\r\n    function setTicketToUsed(uint ticketID, string memory sQRCodeKey) public requiredStage(Stages.CheckinOpen)\r\n                                                                    ownsTicket(ticketID) returns (string memory){\r\n\t\t// Validate that user has a ticket they own and it is valid\r\n        require(tickets[ticketID].status == TicketStatus.Valid, \"There is no valid ticket for this user\");\r\n    \r\n        // Ticket is valid so mark it as used\r\n        tickets[ticketID].status = TicketStatus.Used;\r\n\r\n        // Burn the Token\r\n        _burn(ticketID); \r\n        \r\n        // Raise event which Gate Management system can consume then\r\n        emit TicketUsed(address(this), ticketID, name(), sQRCodeKey);\r\n        \r\n        return sQRCodeKey;\r\n\t}\r\n\r\n    /**\r\n     * @notice Mark ticket as used\r\n     * @dev Only a valid buyer can mark ticket as used\r\n     * @param ticketID ticket ID of ticket\r\n     */\r\n    function setTicketForSale(uint ticketID) public requiredStage(Stages.Active) ownsTicket(ticketID) returns(bool) {\r\n\t\t// Validate that user has a ticket they own and it is valid\r\n        require(tickets[ticketID].status != TicketStatus.Used, \"Ticket has already been used\");\r\n        require(canBeResold == true, \"Ticket cannot be resold\");\r\n        \r\n        // Ticket is valid so mark it as used\r\n        tickets[ticketID].status = TicketStatus.AvailableForSale;\r\n        \r\n        // Raise event which Gate Management system can consume then\r\n        emit TicketForSale(msg.sender, ticketID);\r\n        \r\n        //return ticketID;\r\n        return true;\r\n\t}\r\n\r\n    //  /**\r\n    //  * @dev get ticket status\r\n    //  */\r\n    // function getTicketStatus(uint ticketID) public view returns (TicketStatus) {\r\n    //     return tickets[ticketID].status;\r\n    // }\r\n\r\n    // /**\r\n    //  * @dev get ticket by ID\r\n    //  */\r\n    // function getTicket(uint ticketID) public view returns(uint32 price, uint32 resalePrice, TicketStatus status) {\r\n    //     price = tickets[ticketID].price;\r\n    //     resalePrice = tickets[ticketID].resalePrice;\r\n    //     status = tickets[ticketID].status;\r\n    // }\r\n\r\n    /**\r\n     * @dev get all tickets \r\n     */\r\n    function getTicketsCreated() public view returns(Ticket [] memory){\r\n        return tickets;\r\n    }\r\n\t\r\n   /**\r\n     * @notice owner can only withdraw what's in the balances\r\n     * @dev once the event is cancelled, organizer should refund money to buyers\r\n     */\r\n    function ownerWithdraw() public onlyOwner requiredStage(Stages.Closed) {\r\n        uint ownerBalance = balances[owner];\r\n        require(ownerBalance > 0, \"No money to withdraw\");\r\n        \r\n        // Call will forwards all available gas\r\n        (bool sent, ) = msg.sender.call{value:ownerBalance}(\"\");\r\n        // Failure condition if cannot transfer\r\n        require(sent, \"Failed to send ether to owner\");\r\n        // Update balance after transfering money\r\n        balances[owner] = 0;\r\n        emit OwnerWithdrawMoney(msg.sender, ownerBalance);\r\n    }\r\n\r\n    /**\r\n     * @notice User to withdraw money \r\n     * @dev User can withdraw money if event cancelled or overpaid for ticket\r\n     */\r\n    function withdraw() public {\r\n        require(msg.sender != owner, \"Can not be executed by the owner\");\r\n        // Amount to send to user\r\n        uint sendToUser = balances[msg.sender];\r\n        \r\n        // If event cancelled, send user the amount they overpaid for ticket + ticket price refund\r\n        if (isCancelled && isUserRefund[msg.sender] == false ) {\r\n            sendToUser += balanceOf(msg.sender) * price;\r\n        }\r\n\r\n        // Cannot withdraw if no money to withdraw\r\n        require(sendToUser > 0, \"User does not have money to withdraw\");\r\n        \r\n        // Transfer money to user\r\n        address payable receiver = payable(msg.sender);\r\n        // Call will forwards all available gas\r\n        (bool sent, ) = receiver.call{value:sendToUser}(\"\");\r\n        // Failure condition of send will emit this error\r\n        require(sent, \"Failed to send ether to user\");\r\n        // Update balance after transfering money\r\n        balances[msg.sender] = 0;\r\n        isUserRefund[msg.sender] = true;\r\n        emit WithdrawMoney(msg.sender, sendToUser);\r\n        \r\n    }\r\n\r\n    /**\r\n     * @dev approve a buyer to buy ticket of another user\r\n     */\r\n    function approveAsBuyer(address buyer, uint ticketID) public requiredStage(Stages.Active){\r\n        require(ownerOf(ticketID) == msg.sender, \"no permission\");\r\n        setApprovalForAll(buyer, bool(true));\r\n        approve(buyer, ticketID);\r\n    }\r\n\r\n    /**\r\n     * @dev register as buyer\r\n     */\r\n    function registerAsBuyer(uint ticketID) public requiredStage(Stages.Active){\r\n        require(registeredBuyers[ticketID] != msg.sender, \"You have already registered to buy\");\r\n\r\n        registeredBuyers[ticketID] = msg.sender;\r\n\r\n    }\r\n\r\n    /**\r\n     * @dev get registered buyer\r\n     */\r\n    function getRegisteredBuyer(uint ticketID) public view returns(address) {\r\n        return registeredBuyers[ticketID];\r\n    }\r\n\r\n        // /**\r\n    //  * @notice Change Stage to closed\r\n    //  * @dev Only owner , only able to close in Stages.Cancelled or Stages.CheckinOpen\r\n    //  */\r\n    // function setStageToClosed() public view onlyOwner ableToClose returns (Stages) {\r\n    //     stage == Stages.Closed;\r\n    //     return stage;\r\n    // }\r\n    \r\n    // function setStageToPause() public view onlyOwner requiredStage(Stages.Active) returns (Stages) {\r\n    //     stage == Stages.Paused;\r\n    //     return stage;\r\n    // }\r\n    \r\n    // function setStageToActive() public view onlyOwner ableToActive returns (Stages) {\r\n    //     stage == Stages.Active;\r\n    //     return stage;\r\n    // }\r\n    \r\n    // function setStageToCheckinOpen() public view onlyOwner requiredStage(Stages.Active) returns (Stages) {\r\n    //     stage == Stages.CheckinOpen;\r\n    //     return stage;\r\n    // }\r\n    \r\n    // function setStageToCancelled() public  onlyOwner ableToCancelled returns (Stages) {\r\n    //     stage == Stages.Cancelled;\r\n    //     isCancelled = true;\r\n    //     balances[owner] -= price * tickets.length;\r\n    //     return stage;\r\n    // }\r\n    \r\n    // function setStageNew(Stages _s) public onlyOwner returns (Stages) {\r\n    //     if (_s == Stages.Closed) {\r\n    //         require(stage == Stages.CheckinOpen || stage == Stages.Cancelled, \"Need to in cancelled or checkinOpen stage\");\r\n    //         stage == Stages.Closed;\r\n    //         emit StageChangeTo(stage);\r\n    //         return stage;\r\n    //     }\r\n        \r\n    //     if (_s == Stages.Cancelled) {\r\n    //         require(stage == Stages.Prep || stage == Stages.Paused, \"Need to in active or paused stage\");\r\n    //         stage == Stages.Cancelled;\r\n    //         isCancelled = true;\r\n    //         emit StageChangeTo(stage);\r\n    //         return stage;\r\n    //     }\r\n        \r\n    //     if (_s == Stages.Active) {\r\n    //         require(stage == Stages.Prep || stage == Stages.Paused, \"Need to in prep or paused stage\");\r\n    //         stage == Stages.Active;\r\n    //         emit StageChangeTo(stage);\r\n    //         return stage;\r\n    //     }\r\n        \r\n        \r\n    //     if (_s == Stages.Paused) {\r\n    //         require(stage == Stages.Active, \"Need to in active stage\");\r\n    //         stage == Stages.Paused;\r\n    //         emit StageChangeTo(stage);\r\n    //         return stage;\r\n    //     }\r\n        \r\n    //     if(_s == Stages.CheckinOpen) {\r\n    //         require(stage == Stages.Active, \"Need to in active or paused stage\");\r\n    //         stage == Stages.CheckinOpen;\r\n    //         emit StageChangeTo(stage);\r\n    //         return stage;\r\n    //     }\r\n        \r\n    //     return stage;\r\n    // }\r\n    \r\n    /** \r\n     * @notice Change Status\r\n     * @dev Only owner can change state\r\n     * @param _stage Stages as set in enum Stages\r\n     */\r\n    function setStage(Stages _stage) public onlyOwner returns (Stages) {\r\n        stage = _stage;\r\n        if (stage == Stages.Cancelled) {\r\n            isCancelled = true;\r\n            balances[owner] -= price * tickets.length;\r\n        }\r\n        return stage;\r\n    }\r\n\r\n\r\n    // MODIFIERS\r\n\r\n    // Only owner\r\n    modifier onlyOwner() {\r\n        require(msg.sender == owner, \"Can only be executed by the owner\");\r\n        _;\r\n    }\r\n\r\n    // Requires stage to be _stage\r\n    modifier requiredStage(Stages _stage) {\r\n        require(stage == _stage, \"Cannot execute function at this stage\");\r\n        _;\r\n    }\r\n    \r\n    // Check if buying is open\r\n    modifier buyingTicketOpen() {\r\n        require(stage == Stages.Active || stage == Stages.CheckinOpen, \"Tickets are not open for sale\");\r\n        _;\r\n    }\r\n\r\n    // Requires there to be more than 0 tickets left\r\n    modifier ticketsLeft() {\r\n        require(numTicketsLeft > 0, \"There are 0 tickets left\");\r\n        _;\r\n    }\r\n\r\n    modifier hasEnoughMoney(uint money) {\r\n        require(money >= price, \"Not enough money to purchase a ticket\");\r\n        _;\r\n    }\r\n\r\n    // Check if user is ticket owner\r\n    modifier ownsTicket(uint ticketID) {\r\n        require(ownerOf(ticketID) == msg.sender, \"User does not own this ticket\");\r\n        _;\r\n    }\r\n    \r\n    // // Requires stage condition to change to closed stage\r\n    // modifier ableToClose() {\r\n    //     require(stage == Stages.CheckinOpen || stage == Stages.Cancelled, \"Can only set stage from cancelled or checkinOpen\");\r\n    //     _;\r\n    // }\r\n    \r\n    // // Requires stage condition to change to active stage\r\n    // modifier ableToActive() {\r\n    //     require(stage == Stages.Prep || stage == Stages.Paused, \"Can only set stage from Prep or Paused\");\r\n    //     _;\r\n    // }\r\n    \r\n    \r\n    // // Requires stage condition to change to cancelled stage\r\n    // modifier ableToCancelled() {\r\n    //     require(stage == Stages.Prep || stage == Stages.Paused, \"Can only set stage from cancelled or checkinOpen\");\r\n    //     _;\r\n    // }\r\n    \r\n    \r\n    \r\n}\r\n\r\n",
  "sourcePath": "C:/Users/ManTheMith/Desktop/COMP6452/proj/comp6452-nft/src/contracts/Event.sol",
  "compiler": {
    "name": "solc",
    "version": "0.8.0+commit.c7dfd78e.Emscripten.clang"
  },
  "schemaVersion": "3.4.1",
  "updatedAt": "2021-07-27T09:55:18.346Z",
  "networkType": "ethereum",
  "devdoc": {
    "kind": "dev",
    "methods": {
      "approve(address,uint256)": {
        "details": "See {IERC721-approve}."
      },
      "approveAsBuyer(address,uint256)": {
        "details": "approve a buyer to buy ticket of another user"
      },
      "balanceOf(address)": {
        "details": "See {IERC721-balanceOf}."
      },
      "buyTicket()": {
        "details": "Checks: State is Active, has enough money"
      },
      "buyTicketFromUser(uint256)": {
        "details": "Only a valid buyer can mark ticket as used",
        "params": {
          "ticketID": "ticket ID of ticket"
        }
      },
      "getApproved(uint256)": {
        "details": "See {IERC721-getApproved}."
      },
      "getRegisteredBuyer(uint256)": {
        "details": "get registered buyer"
      },
      "getTicketsCreated()": {
        "details": "get all tickets "
      },
      "isApprovedForAll(address,address)": {
        "details": "See {IERC721-isApprovedForAll}."
      },
      "name()": {
        "details": "See {IERC721Metadata-name}."
      },
      "ownerOf(uint256)": {
        "details": "See {IERC721-ownerOf}."
      },
      "ownerWithdraw()": {
        "details": "once the event is cancelled, organizer should refund money to buyers"
      },
      "registerAsBuyer(uint256)": {
        "details": "register as buyer"
      },
      "safeTransferFrom(address,address,uint256)": {
        "details": "See {IERC721-safeTransferFrom}."
      },
      "safeTransferFrom(address,address,uint256,bytes)": {
        "details": "See {IERC721-safeTransferFrom}."
      },
      "setApprovalForAll(address,bool)": {
        "details": "See {IERC721-setApprovalForAll}."
      },
      "setStage(uint8)": {
        "details": "Only owner can change state",
        "params": {
          "_stage": "Stages as set in enum Stages"
        }
      },
      "setTicketForSale(uint256)": {
        "details": "Only a valid buyer can mark ticket as used",
        "params": {
          "ticketID": "ticket ID of ticket"
        }
      },
      "setTicketToUsed(uint256,string)": {
        "details": "Only a valid buyer can mark ticket as used",
        "params": {
          "sQRCodeKey": "QR Code key sent by the app "
        }
      },
      "supportsInterface(bytes4)": {
        "details": "See {IERC165-supportsInterface}."
      },
      "symbol()": {
        "details": "See {IERC721Metadata-symbol}."
      },
      "tokenURI(uint256)": {
        "details": "See {IERC721Metadata-tokenURI}."
      },
      "transferFrom(address,address,uint256)": {
        "details": "See {IERC721-transferFrom}."
      },
      "withdraw()": {
        "details": "User can withdraw money if event cancelled or overpaid for ticket"
      }
    },
    "title": "Contract to mint tickets of an event",
    "version": 1
  },
  "userdoc": {
    "kind": "user",
    "methods": {
      "buyTicket()": {
        "notice": "Buy tickets"
      },
      "buyTicketFromUser(uint256)": {
        "notice": "Mark ticket as used"
      },
      "ownerWithdraw()": {
        "notice": "owner can only withdraw what's in the balances"
      },
      "royaltyPercent()": {
        "notice": "Percent royalty event creator receives from ticket resales"
      },
      "setStage(uint8)": {
        "notice": "Change Status"
      },
      "setTicketForSale(uint256)": {
        "notice": "Mark ticket as used"
      },
      "setTicketToUsed(uint256,string)": {
        "notice": "Mark ticket as used"
      },
      "withdraw()": {
        "notice": "User to withdraw money "
      }
    },
    "version": 1
  }
}