{
  "contractName": "EventCreator",
  "abi": [
    {
      "inputs": [
        {
          "internalType": "uint256",
          "name": "",
          "type": "uint256"
        }
      ],
      "name": "events",
      "outputs": [
        {
          "internalType": "address",
          "name": "",
          "type": "address"
        }
      ],
      "stateMutability": "view",
      "type": "function"
    },
    {
      "inputs": [],
      "name": "getEventCount",
      "outputs": [
        {
          "internalType": "uint256",
          "name": "contractCount",
          "type": "uint256"
        }
      ],
      "stateMutability": "view",
      "type": "function"
    },
    {
      "inputs": [],
      "name": "createEvent",
      "outputs": [
        {
          "internalType": "address",
          "name": "newContract",
          "type": "address"
        }
      ],
      "stateMutability": "nonpayable",
      "type": "function"
    }
  ],
  "bytecode": "0x608060405234801561001057600080fd5b5061385f806100206000396000f3fe608060405234801561001057600080fd5b50600436106100415760003560e01c80630b79143014610046578063b33eb0a014610076578063d9e48f5c14610094575b600080fd5b610060600480360381019061005b91906101b7565b6100b2565b60405161006d91906101fe565b60405180910390f35b61007e6100f1565b60405161008b91906101fe565b60405180910390f35b61009c610189565b6040516100a99190610219565b60405180910390f35b600081815481106100c257600080fd5b906000526020600020016000915054906101000a900473ffffffffffffffffffffffffffffffffffffffff1681565b60008060405161010090610195565b604051809103906000f08015801561011c573d6000803e3d6000fd5b5090506000819080600181540180825580915050600190039060005260206000200160009091909190916101000a81548173ffffffffffffffffffffffffffffffffffffffff021916908373ffffffffffffffffffffffffffffffffffffffff1602179055508091505090565b60008080549050905090565b6135a28061028883390190565b6000813590506101b181610270565b92915050565b6000602082840312156101c957600080fd5b60006101d7848285016101a2565b91505092915050565b6101e981610234565b82525050565b6101f881610266565b82525050565b600060208201905061021360008301846101e0565b92915050565b600060208201905061022e60008301846101ef565b92915050565b600061023f82610246565b9050919050565b600073ffffffffffffffffffffffffffffffffffffffff82169050919050565b6000819050919050565b61027981610266565b811461028457600080fd5b5056fe60806040526000600660006101000a81548160ff0219169083600581111562000051577f4e487b7100000000000000000000000000000000000000000000000000000000600052602160045260246000fd5b02179055503480156200006357600080fd5b506040518060400160405280600581526020017f48656c6c6f0000000000000000000000000000000000000000000000000000008152506040518060400160405280600581526020017f48656c6c6f0000000000000000000000000000000000000000000000000000008152508160009080519060200190620000e89291906200010a565b508060019080519060200190620001019291906200010a565b5050506200021f565b8280546200011890620001ba565b90600052602060002090601f0160209004810192826200013c576000855562000188565b82601f106200015757805160ff191683800117855562000188565b8280016001018555821562000188579182015b82811115620001875782518255916020019190600101906200016a565b5b5090506200019791906200019b565b5090565b5b80821115620001b65760008160009055506001016200019c565b5090565b60006002820490506001821680620001d357607f821691505b60208210811415620001ea57620001e9620001f0565b5b50919050565b7f4e487b7100000000000000000000000000000000000000000000000000000000600052602260045260246000fd5b613373806200022f6000396000f3fe6080604052600436106101405760003560e01c806395d89b41116100b6578063b88d4fde1161006f578063b88d4fde14610484578063c040e6b8146104ad578063c87b56dd146104d8578063ce3cd99714610515578063e985e9c51461053e578063edca914c1461057b57610140565b806395d89b41146103845780639f67756d146103af578063a035b1fe146103da578063a22cb46514610405578063a51bba8c1461042e578063b3874c0d1461045957610140565b8063410085df11610108578063410085df1461023c57806342842e0e146102795780636352211e146102a257806370a08231146102df578063835fc6ca1461031c5780638da5cb5b1461035957610140565b806301ffc9a71461014557806306fdde0314610182578063081812fc146101ad578063095ea7b3146101ea57806323b872dd14610213575b600080fd5b34801561015157600080fd5b5061016c600480360381019061016791906123ce565b610585565b6040516101799190612c13565b60405180910390f35b34801561018e57600080fd5b50610197610667565b6040516101a49190612c49565b60405180910390f35b3480156101b957600080fd5b506101d460048036038101906101cf9190612449565b6106f9565b6040516101e19190612b4c565b60405180910390f35b3480156101f657600080fd5b50610211600480360381019061020c9190612392565b61077e565b005b34801561021f57600080fd5b5061023a6004803603810190610235919061228c565b610896565b005b34801561024857600080fd5b50610263600480360381019061025e9190612392565b6108f6565b6040516102709190612c13565b60405180910390f35b34801561028557600080fd5b506102a0600480360381019061029b919061228c565b610b08565b005b3480156102ae57600080fd5b506102c960048036038101906102c49190612449565b610b28565b6040516102d69190612b4c565b60405180910390f35b3480156102eb57600080fd5b5061030660048036038101906103019190612227565b610bda565b6040516103139190612e6b565b60405180910390f35b34801561032857600080fd5b50610343600480360381019061033e9190612449565b610c92565b6040516103509190612c13565b60405180910390f35b34801561036557600080fd5b5061036e610dae565b60405161037b9190612b4c565b60405180910390f35b34801561039057600080fd5b50610399610dd4565b6040516103a69190612c49565b60405180910390f35b3480156103bb57600080fd5b506103c4610e66565b6040516103d19190612e86565b60405180910390f35b3480156103e657600080fd5b506103ef610e7a565b6040516103fc9190612e86565b60405180910390f35b34801561041157600080fd5b5061042c60048036038101906104279190612356565b610e90565b005b34801561043a57600080fd5b50610443611011565b6040516104509190612e86565b60405180910390f35b34801561046557600080fd5b5061046e611027565b60405161047b9190612c13565b60405180910390f35b34801561049057600080fd5b506104ab60048036038101906104a691906122db565b61103a565b005b3480156104b957600080fd5b506104c261109c565b6040516104cf9190612c2e565b60405180910390f35b3480156104e457600080fd5b506104ff60048036038101906104fa9190612449565b6110af565b60405161050c9190612c49565b60405180910390f35b34801561052157600080fd5b5061053c60048036038101906105379190612420565b611156565b005b34801561054a57600080fd5b5061056560048036038101906105609190612250565b611239565b6040516105729190612c13565b60405180910390f35b6105836112cd565b005b60007f80ac58cd000000000000000000000000000000000000000000000000000000007bffffffffffffffffffffffffffffffffffffffffffffffffffffffff1916827bffffffffffffffffffffffffffffffffffffffffffffffffffffffff1916148061065057507f5b5e139f000000000000000000000000000000000000000000000000000000007bffffffffffffffffffffffffffffffffffffffffffffffffffffffff1916827bffffffffffffffffffffffffffffffffffffffffffffffffffffffff1916145b80610660575061065f8261167e565b5b9050919050565b60606000805461067690613115565b80601f01602080910402602001604051908101604052809291908181526020018280546106a290613115565b80156106ef5780601f106106c4576101008083540402835291602001916106ef565b820191906000526020600020905b8154815290600101906020018083116106d257829003601f168201915b5050505050905090565b6000610704826116e8565b610743576040517f08c379a000000000000000000000000000000000000000000000000000000000815260040161073a90612dcb565b60405180910390fd5b6004600083815260200190815260200160002060009054906101000a900473ffffffffffffffffffffffffffffffffffffffff169050919050565b600061078982610b28565b90508073ffffffffffffffffffffffffffffffffffffffff168373ffffffffffffffffffffffffffffffffffffffff1614156107fa576040517f08c379a00000000000000000000000000000000000000000000000000000000081526004016107f190612e2b565b60405180910390fd5b8073ffffffffffffffffffffffffffffffffffffffff16610819611754565b73ffffffffffffffffffffffffffffffffffffffff161480610848575061084781610842611754565b611239565b5b610887576040517f08c379a000000000000000000000000000000000000000000000000000000000815260040161087e90612d4b565b60405180910390fd5b610891838361175c565b505050565b6108a76108a1611754565b82611815565b6108e6576040517f08c379a00000000000000000000000000000000000000000000000000000000081526004016108dd90612e4b565b60405180910390fd5b6108f18383836118f3565b505050565b6000600960009054906101000a900473ffffffffffffffffffffffffffffffffffffffff1673ffffffffffffffffffffffffffffffffffffffff163373ffffffffffffffffffffffffffffffffffffffff1614610988576040517f08c379a000000000000000000000000000000000000000000000000000000000815260040161097f90612cab565b60405180910390fd5b6000821161099557600080fd5b81600a60003373ffffffffffffffffffffffffffffffffffffffff1673ffffffffffffffffffffffffffffffffffffffff168152602001908152602001600020541015610a17576040517f08c379a0000000000000000000000000000000000000000000000000000000008152600401610a0e90612c6b565b60405180910390fd5b7ff40cc8c1a1d17359049ba500cfc894596a692cffc9d03943cd92ec2e159cf6ae338484604051610a4a93929190612b67565b60405180910390a181600a60003373ffffffffffffffffffffffffffffffffffffffff1673ffffffffffffffffffffffffffffffffffffffff1681526020019081526020016000206000828254610aa19190612fcc565b9250508190555081600a60008573ffffffffffffffffffffffffffffffffffffffff1673ffffffffffffffffffffffffffffffffffffffff1681526020019081526020016000206000828254610af79190612f45565b925050819055506001905092915050565b610b238383836040518060200160405280600081525061103a565b505050565b6000806002600084815260200190815260200160002060009054906101000a900473ffffffffffffffffffffffffffffffffffffffff169050600073ffffffffffffffffffffffffffffffffffffffff168173ffffffffffffffffffffffffffffffffffffffff161415610bd1576040517f08c379a0000000000000000000000000000000000000000000000000000000008152600401610bc890612d8b565b60405180910390fd5b80915050919050565b60008073ffffffffffffffffffffffffffffffffffffffff168273ffffffffffffffffffffffffffffffffffffffff161415610c4b576040517f08c379a0000000000000000000000000000000000000000000000000000000008152600401610c4290612d6b565b60405180910390fd5b600360008373ffffffffffffffffffffffffffffffffffffffff1673ffffffffffffffffffffffffffffffffffffffff168152602001908152602001600020549050919050565b600081600a60003373ffffffffffffffffffffffffffffffffffffffff1673ffffffffffffffffffffffffffffffffffffffff168152602001908152602001600020541015610d16576040517f08c379a0000000000000000000000000000000000000000000000000000000008152600401610d0d90612c6b565b60405180910390fd5b7fda69b20ff5228b13ac2372306ba0db8546b14caac27fd9e43768da6b04838d673383604051610d47929190612bea565b60405180910390a181600a60003373ffffffffffffffffffffffffffffffffffffffff1673ffffffffffffffffffffffffffffffffffffffff1681526020019081526020016000206000828254610d9e9190612fcc565b9250508190555060019050919050565b600960009054906101000a900473ffffffffffffffffffffffffffffffffffffffff1681565b606060018054610de390613115565b80601f0160208091040260200160405190810160405280929190818152602001828054610e0f90613115565b8015610e5c5780601f10610e3157610100808354040283529160200191610e5c565b820191906000526020600020905b815481529060010190602001808311610e3f57829003601f168201915b5050505050905090565b60088054906101000a900463ffffffff1681565b600860049054906101000a900463ffffffff1681565b610e98611754565b73ffffffffffffffffffffffffffffffffffffffff168273ffffffffffffffffffffffffffffffffffffffff161415610f06576040517f08c379a0000000000000000000000000000000000000000000000000000000008152600401610efd90612d0b565b60405180910390fd5b8060056000610f13611754565b73ffffffffffffffffffffffffffffffffffffffff1673ffffffffffffffffffffffffffffffffffffffff16815260200190815260200160002060008473ffffffffffffffffffffffffffffffffffffffff1673ffffffffffffffffffffffffffffffffffffffff16815260200190815260200160002060006101000a81548160ff0219169083151502179055508173ffffffffffffffffffffffffffffffffffffffff16610fc0611754565b73ffffffffffffffffffffffffffffffffffffffff167f17307eab39ab6107e8899845ad3d59bd9653f200f220920489ca2b5937696c31836040516110059190612c13565b60405180910390a35050565b600860009054906101000a900463ffffffff1681565b6008600c9054906101000a900460ff1681565b61104b611045611754565b83611815565b61108a576040517f08c379a000000000000000000000000000000000000000000000000000000000815260040161108190612e4b565b60405180910390fd5b61109684848484611b4f565b50505050565b600660009054906101000a900460ff1681565b60606110ba826116e8565b6110f9576040517f08c379a00000000000000000000000000000000000000000000000000000000081526004016110f090612e0b565b60405180910390fd5b6000611103611bab565b90506000815111611123576040518060200160405280600081525061114e565b8061112d84611bc2565b60405160200161113e929190612b28565b6040516020818303038152906040525b915050919050565b600960009054906101000a900473ffffffffffffffffffffffffffffffffffffffff1673ffffffffffffffffffffffffffffffffffffffff163373ffffffffffffffffffffffffffffffffffffffff16146111e6576040517f08c379a00000000000000000000000000000000000000000000000000000000081526004016111dd90612cab565b60405180910390fd5b80600660006101000a81548160ff02191690836005811115611231577f4e487b7100000000000000000000000000000000000000000000000000000000600052602160045260246000fd5b021790555050565b6000600560008473ffffffffffffffffffffffffffffffffffffffff1673ffffffffffffffffffffffffffffffffffffffff16815260200190815260200160002060008373ffffffffffffffffffffffffffffffffffffffff1673ffffffffffffffffffffffffffffffffffffffff16815260200190815260200160002060009054906101000a900460ff16905092915050565b6001806005811115611308577f4e487b7100000000000000000000000000000000000000000000000000000000600052602160045260246000fd5b600660009054906101000a900460ff166005811115611350577f4e487b7100000000000000000000000000000000000000000000000000000000600052602160045260246000fd5b1461135a57600080fd5b6000600860009054906101000a900463ffffffff1663ffffffff161161137f57600080fd5b34600860049054906101000a900463ffffffff1663ffffffff168110156113a557600080fd5b6113ad6120ec565b33816000019073ffffffffffffffffffffffffffffffffffffffff16908173ffffffffffffffffffffffffffffffffffffffff1681525050600860049054906101000a900463ffffffff16816020019063ffffffff16908163ffffffff1681525050600860049054906101000a900463ffffffff16816060019063ffffffff16908163ffffffff1681525050600081604001901515908115158152505060008160800190151590811515815250506007819080600181540180825580915050600190039060005260206000200160009091909190915060008201518160000160006101000a81548173ffffffffffffffffffffffffffffffffffffffff021916908373ffffffffffffffffffffffffffffffffffffffff16021790555060208201518160000160146101000a81548163ffffffff021916908363ffffffff16021790555060408201518160000160186101000a81548160ff02191690831515021790555060608201518160000160196101000a81548163ffffffff021916908363ffffffff160217905550608082015181600001601d6101000a81548160ff0219169083151502179055505050600060078054905090506008600081819054906101000a900463ffffffff1680929190611586906130eb565b91906101000a81548163ffffffff021916908363ffffffff16021790555050600860049054906101000a900463ffffffff1663ffffffff16600a6000600960009054906101000a900473ffffffffffffffffffffffffffffffffffffffff1673ffffffffffffffffffffffffffffffffffffffff1673ffffffffffffffffffffffffffffffffffffffff168152602001908152602001600020600082825461162e9190612f45565b9250508190555061163f3382611d6f565b7f45b138e571439656fbf8d1d09364ce6268bcd2bcbefd7d1d01c57ab4f8bbe8fc3382604051611670929190612bea565b60405180910390a150505050565b60007f01ffc9a7000000000000000000000000000000000000000000000000000000007bffffffffffffffffffffffffffffffffffffffffffffffffffffffff1916827bffffffffffffffffffffffffffffffffffffffffffffffffffffffff1916149050919050565b60008073ffffffffffffffffffffffffffffffffffffffff166002600084815260200190815260200160002060009054906101000a900473ffffffffffffffffffffffffffffffffffffffff1673ffffffffffffffffffffffffffffffffffffffff1614159050919050565b600033905090565b816004600083815260200190815260200160002060006101000a81548173ffffffffffffffffffffffffffffffffffffffff021916908373ffffffffffffffffffffffffffffffffffffffff160217905550808273ffffffffffffffffffffffffffffffffffffffff166117cf83610b28565b73ffffffffffffffffffffffffffffffffffffffff167f8c5be1e5ebec7d5bd14f71427d1e84f3dd0314c0f7b2291e5b200ac8c7c3b92560405160405180910390a45050565b6000611820826116e8565b61185f576040517f08c379a000000000000000000000000000000000000000000000000000000000815260040161185690612d2b565b60405180910390fd5b600061186a83610b28565b90508073ffffffffffffffffffffffffffffffffffffffff168473ffffffffffffffffffffffffffffffffffffffff1614806118d957508373ffffffffffffffffffffffffffffffffffffffff166118c1846106f9565b73ffffffffffffffffffffffffffffffffffffffff16145b806118ea57506118e98185611239565b5b91505092915050565b8273ffffffffffffffffffffffffffffffffffffffff1661191382610b28565b73ffffffffffffffffffffffffffffffffffffffff1614611969576040517f08c379a000000000000000000000000000000000000000000000000000000000815260040161196090612deb565b60405180910390fd5b600073ffffffffffffffffffffffffffffffffffffffff168273ffffffffffffffffffffffffffffffffffffffff1614156119d9576040517f08c379a00000000000000000000000000000000000000000000000000000000081526004016119d090612ceb565b60405180910390fd5b6119e4838383611f3d565b6119ef60008261175c565b6001600360008573ffffffffffffffffffffffffffffffffffffffff1673ffffffffffffffffffffffffffffffffffffffff1681526020019081526020016000206000828254611a3f9190612fcc565b925050819055506001600360008473ffffffffffffffffffffffffffffffffffffffff1673ffffffffffffffffffffffffffffffffffffffff1681526020019081526020016000206000828254611a969190612f45565b92505081905550816002600083815260200190815260200160002060006101000a81548173ffffffffffffffffffffffffffffffffffffffff021916908373ffffffffffffffffffffffffffffffffffffffff160217905550808273ffffffffffffffffffffffffffffffffffffffff168473ffffffffffffffffffffffffffffffffffffffff167fddf252ad1be2c89b69c2b068fc378daa952ba7f163c4a11628f55a4df523b3ef60405160405180910390a4505050565b611b5a8484846118f3565b611b6684848484611f42565b611ba5576040517f08c379a0000000000000000000000000000000000000000000000000000000008152600401611b9c90612c8b565b60405180910390fd5b50505050565b606060405180602001604052806000815250905090565b60606000821415611c0a576040518060400160405280600181526020017f30000000000000000000000000000000000000000000000000000000000000008152509050611d6a565b600082905060005b60008214611c3c578080611c2590613147565b915050600a82611c359190612f9b565b9150611c12565b60008167ffffffffffffffff811115611c7e577f4e487b7100000000000000000000000000000000000000000000000000000000600052604160045260246000fd5b6040519080825280601f01601f191660200182016040528015611cb05781602001600182028036833780820191505090505b5090505b60008514611d6357600182611cc99190612fcc565b9150600a85611cd89190613190565b6030611ce49190612f45565b60f81b818381518110611d20577f4e487b7100000000000000000000000000000000000000000000000000000000600052603260045260246000fd5b60200101907effffffffffffffffffffffffffffffffffffffffffffffffffffffffffffff1916908160001a905350600a85611d5c9190612f9b565b9450611cb4565b8093505050505b919050565b600073ffffffffffffffffffffffffffffffffffffffff168273ffffffffffffffffffffffffffffffffffffffff161415611ddf576040517f08c379a0000000000000000000000000000000000000000000000000000000008152600401611dd690612dab565b60405180910390fd5b611de8816116e8565b15611e28576040517f08c379a0000000000000000000000000000000000000000000000000000000008152600401611e1f90612ccb565b60405180910390fd5b611e3460008383611f3d565b6001600360008473ffffffffffffffffffffffffffffffffffffffff1673ffffffffffffffffffffffffffffffffffffffff1681526020019081526020016000206000828254611e849190612f45565b92505081905550816002600083815260200190815260200160002060006101000a81548173ffffffffffffffffffffffffffffffffffffffff021916908373ffffffffffffffffffffffffffffffffffffffff160217905550808273ffffffffffffffffffffffffffffffffffffffff16600073ffffffffffffffffffffffffffffffffffffffff167fddf252ad1be2c89b69c2b068fc378daa952ba7f163c4a11628f55a4df523b3ef60405160405180910390a45050565b505050565b6000611f638473ffffffffffffffffffffffffffffffffffffffff166120d9565b156120cc578373ffffffffffffffffffffffffffffffffffffffff1663150b7a02611f8c611754565b8786866040518563ffffffff1660e01b8152600401611fae9493929190612b9e565b602060405180830381600087803b158015611fc857600080fd5b505af1925050508015611ff957506040513d601f19601f82011682018060405250810190611ff691906123f7565b60015b61207c573d8060008114612029576040519150601f19603f3d011682016040523d82523d6000602084013e61202e565b606091505b50600081511415612074576040517f08c379a000000000000000000000000000000000000000000000000000000000815260040161206b90612c8b565b60405180910390fd5b805181602001fd5b63150b7a0260e01b7bffffffffffffffffffffffffffffffffffffffffffffffffffffffff1916817bffffffffffffffffffffffffffffffffffffffffffffffffffffffff1916149150506120d1565b600190505b949350505050565b600080823b905060008111915050919050565b6040518060a00160405280600073ffffffffffffffffffffffffffffffffffffffff168152602001600063ffffffff168152602001600015158152602001600063ffffffff1681526020016000151581525090565b600061215461214f84612ed2565b612ea1565b90508281526020810184848401111561216c57600080fd5b6121778482856130a9565b509392505050565b60008135905061218e816132d1565b92915050565b6000813590506121a3816132e8565b92915050565b6000813590506121b8816132ff565b92915050565b6000815190506121cd816132ff565b92915050565b600082601f8301126121e457600080fd5b81356121f4848260208601612141565b91505092915050565b60008135905061220c81613316565b92915050565b60008135905061222181613326565b92915050565b60006020828403121561223957600080fd5b60006122478482850161217f565b91505092915050565b6000806040838503121561226357600080fd5b60006122718582860161217f565b92505060206122828582860161217f565b9150509250929050565b6000806000606084860312156122a157600080fd5b60006122af8682870161217f565b93505060206122c08682870161217f565b92505060406122d186828701612212565b9150509250925092565b600080600080608085870312156122f157600080fd5b60006122ff8782880161217f565b94505060206123108782880161217f565b935050604061232187828801612212565b925050606085013567ffffffffffffffff81111561233e57600080fd5b61234a878288016121d3565b91505092959194509250565b6000806040838503121561236957600080fd5b60006123778582860161217f565b925050602061238885828601612194565b9150509250929050565b600080604083850312156123a557600080fd5b60006123b38582860161217f565b92505060206123c485828601612212565b9150509250929050565b6000602082840312156123e057600080fd5b60006123ee848285016121a9565b91505092915050565b60006020828403121561240957600080fd5b6000612417848285016121be565b91505092915050565b60006020828403121561243257600080fd5b6000612440848285016121fd565b91505092915050565b60006020828403121561245b57600080fd5b600061246984828501612212565b91505092915050565b61247b81613000565b82525050565b61248a81613012565b82525050565b600061249b82612f02565b6124a58185612f18565b93506124b58185602086016130b8565b6124be816132ac565b840191505092915050565b6124d281613097565b82525050565b60006124e382612f0d565b6124ed8185612f29565b93506124fd8185602086016130b8565b612506816132ac565b840191505092915050565b600061251c82612f0d565b6125268185612f3a565b93506125368185602086016130b8565b80840191505092915050565b600061254f601083612f29565b91507f4e6f7420656e6f756768206d6f6e6579000000000000000000000000000000006000830152602082019050919050565b600061258f603283612f29565b91507f4552433732313a207472616e7366657220746f206e6f6e20455243373231526560008301527f63656976657220696d706c656d656e74657200000000000000000000000000006020830152604082019050919050565b60006125f5602183612f29565b91507f43616e206f6e6c7920626520657865637574656420627920746865206f776e6560008301527f72000000000000000000000000000000000000000000000000000000000000006020830152604082019050919050565b600061265b601c83612f29565b91507f4552433732313a20746f6b656e20616c7265616479206d696e746564000000006000830152602082019050919050565b600061269b602483612f29565b91507f4552433732313a207472616e7366657220746f20746865207a65726f2061646460008301527f72657373000000000000000000000000000000000000000000000000000000006020830152604082019050919050565b6000612701601983612f29565b91507f4552433732313a20617070726f766520746f2063616c6c6572000000000000006000830152602082019050919050565b6000612741602c83612f29565b91507f4552433732313a206f70657261746f7220717565727920666f72206e6f6e657860008301527f697374656e7420746f6b656e00000000000000000000000000000000000000006020830152604082019050919050565b60006127a7603883612f29565b91507f4552433732313a20617070726f76652063616c6c6572206973206e6f74206f7760008301527f6e6572206e6f7220617070726f76656420666f7220616c6c00000000000000006020830152604082019050919050565b600061280d602a83612f29565b91507f4552433732313a2062616c616e636520717565727920666f7220746865207a6560008301527f726f2061646472657373000000000000000000000000000000000000000000006020830152604082019050919050565b6000612873602983612f29565b91507f4552433732313a206f776e657220717565727920666f72206e6f6e657869737460008301527f656e7420746f6b656e00000000000000000000000000000000000000000000006020830152604082019050919050565b60006128d9602083612f29565b91507f4552433732313a206d696e7420746f20746865207a65726f20616464726573736000830152602082019050919050565b6000612919602c83612f29565b91507f4552433732313a20617070726f76656420717565727920666f72206e6f6e657860008301527f697374656e7420746f6b656e00000000000000000000000000000000000000006020830152604082019050919050565b600061297f602983612f29565b91507f4552433732313a207472616e73666572206f6620746f6b656e2074686174206960008301527f73206e6f74206f776e00000000000000000000000000000000000000000000006020830152604082019050919050565b60006129e5602f83612f29565b91507f4552433732314d657461646174613a2055524920717565727920666f72206e6f60008301527f6e6578697374656e7420746f6b656e00000000000000000000000000000000006020830152604082019050919050565b6000612a4b602183612f29565b91507f4552433732313a20617070726f76616c20746f2063757272656e74206f776e6560008301527f72000000000000000000000000000000000000000000000000000000000000006020830152604082019050919050565b6000612ab1603183612f29565b91507f4552433732313a207472616e736665722063616c6c6572206973206e6f74206f60008301527f776e6572206e6f7220617070726f7665640000000000000000000000000000006020830152604082019050919050565b612b138161307d565b82525050565b612b2281613087565b82525050565b6000612b348285612511565b9150612b408284612511565b91508190509392505050565b6000602082019050612b616000830184612472565b92915050565b6000606082019050612b7c6000830186612472565b612b896020830185612472565b612b966040830184612b0a565b949350505050565b6000608082019050612bb36000830187612472565b612bc06020830186612472565b612bcd6040830185612b0a565b8181036060830152612bdf8184612490565b905095945050505050565b6000604082019050612bff6000830185612472565b612c0c6020830184612b0a565b9392505050565b6000602082019050612c286000830184612481565b92915050565b6000602082019050612c4360008301846124c9565b92915050565b60006020820190508181036000830152612c6381846124d8565b905092915050565b60006020820190508181036000830152612c8481612542565b9050919050565b60006020820190508181036000830152612ca481612582565b9050919050565b60006020820190508181036000830152612cc4816125e8565b9050919050565b60006020820190508181036000830152612ce48161264e565b9050919050565b60006020820190508181036000830152612d048161268e565b9050919050565b60006020820190508181036000830152612d24816126f4565b9050919050565b60006020820190508181036000830152612d4481612734565b9050919050565b60006020820190508181036000830152612d648161279a565b9050919050565b60006020820190508181036000830152612d8481612800565b9050919050565b60006020820190508181036000830152612da481612866565b9050919050565b60006020820190508181036000830152612dc4816128cc565b9050919050565b60006020820190508181036000830152612de48161290c565b9050919050565b60006020820190508181036000830152612e0481612972565b9050919050565b60006020820190508181036000830152612e24816129d8565b9050919050565b60006020820190508181036000830152612e4481612a3e565b9050919050565b60006020820190508181036000830152612e6481612aa4565b9050919050565b6000602082019050612e806000830184612b0a565b92915050565b6000602082019050612e9b6000830184612b19565b92915050565b6000604051905081810181811067ffffffffffffffff82111715612ec857612ec761327d565b5b8060405250919050565b600067ffffffffffffffff821115612eed57612eec61327d565b5b601f19601f8301169050602081019050919050565b600081519050919050565b600081519050919050565b600082825260208201905092915050565b600082825260208201905092915050565b600081905092915050565b6000612f508261307d565b9150612f5b8361307d565b9250827fffffffffffffffffffffffffffffffffffffffffffffffffffffffffffffffff03821115612f9057612f8f6131c1565b5b828201905092915050565b6000612fa68261307d565b9150612fb18361307d565b925082612fc157612fc06131f0565b5b828204905092915050565b6000612fd78261307d565b9150612fe28361307d565b925082821015612ff557612ff46131c1565b5b828203905092915050565b600061300b8261305d565b9050919050565b60008115159050919050565b60007fffffffff0000000000000000000000000000000000000000000000000000000082169050919050565b6000819050613058826132bd565b919050565b600073ffffffffffffffffffffffffffffffffffffffff82169050919050565b6000819050919050565b600063ffffffff82169050919050565b60006130a28261304a565b9050919050565b82818337600083830152505050565b60005b838110156130d65780820151818401526020810190506130bb565b838111156130e5576000848401525b50505050565b60006130f682613087565b9150600082141561310a576131096131c1565b5b600182039050919050565b6000600282049050600182168061312d57607f821691505b602082108114156131415761314061324e565b5b50919050565b60006131528261307d565b91507fffffffffffffffffffffffffffffffffffffffffffffffffffffffffffffffff821415613185576131846131c1565b5b600182019050919050565b600061319b8261307d565b91506131a68361307d565b9250826131b6576131b56131f0565b5b828206905092915050565b7f4e487b7100000000000000000000000000000000000000000000000000000000600052601160045260246000fd5b7f4e487b7100000000000000000000000000000000000000000000000000000000600052601260045260246000fd5b7f4e487b7100000000000000000000000000000000000000000000000000000000600052602160045260246000fd5b7f4e487b7100000000000000000000000000000000000000000000000000000000600052602260045260246000fd5b7f4e487b7100000000000000000000000000000000000000000000000000000000600052604160045260246000fd5b6000601f19601f8301169050919050565b600681106132ce576132cd61321f565b5b50565b6132da81613000565b81146132e557600080fd5b50565b6132f181613012565b81146132fc57600080fd5b50565b6133088161301e565b811461331357600080fd5b50565b6006811061332357600080fd5b50565b61332f8161307d565b811461333a57600080fd5b5056fea2646970667358221220d766f2272422a8fdd2885755b5cf03285416dac1b5d0f2475c8a329b1ca085b364736f6c63430008000033a2646970667358221220bc5e0926d80b4fa373ada72920181bc602cabca85fc92a9f9fa5bc4229cf401064736f6c63430008000033",
  "immutableReferences": {},
  "source": "// SPDX-License-Identifier: UNLICENSED\npragma solidity 0.8.0;\nimport \"@openzeppelin/contracts/token/ERC721/ERC721.sol\";\n \ncontract EventCreator {\n\n    // Created contracts\n    address[] public events;\n\n    // Return number of contracts\n    function getEventCount() public view returns(uint contractCount) {\n        return events.length;\n    }\n\n    // deploy a new event contract\n    //function createEvent(uint32 _numTickets, uint32 _price, bool _canBeResold, uint32 _royaltyPercent, string memory _eventName, string memory _eventSymbol) \n    function createEvent() \n        public \n        returns(address newContract)\n    {\n        // Create a new Event smart contract\n        // NOTE: 'new' keyword creates a new SC and returns address\n        //Event e = new Event(_numTickets, _price, _canBeResold, _royaltyPercent, _eventName, _eventSymbol);\n        Event e = new Event();\n        // Store/return event address\n        events.push(address(e));\n        return address(e);\n    }\n}\n\ncontract Event is ERC721 {\n\n    enum Stages { Prep, Active, Paused, CheckinOpen, Cancelled, Closed }\n    Stages public stage = Stages.Prep;\n    // Ticket struct \n    struct Ticket {\n        address owner;\n        uint32 price;\n        bool forSale;\n        uint32 resalePrice;\n        bool used;\n    }\n    Ticket[] tickets; \n    uint32 public numTicketsLeft;\n    uint32 public price;\n    // Percent royalty event creator receives from ticket resales\n    uint32 public royaltyPercent;\n    // For each user, store corresponding ticket struct\n    // mapping(address => Ticket) tickets;\n    bool public canBeResold;\n    address public owner;\n    \n    // to store the balances for buyers and organizers\n    mapping(address => uint256) balances;\n\n    // EVENTS\n    event CreateTicket(address buyer, uint ticketID);\n    event WithdrawalMoney(address receiver, uint money);\n    event Refund(address organizer, address receiver, uint money);\n\n    // Creates a new Event Contract\n    // constructor(uint32 _numTickets, uint32 _price, bool _canBeResold, uint32 _royaltyPercent, string memory _eventName, string memory _eventSymbol) ERC721(_eventName, _eventSymbol) {\n    //     owner = msg.sender;\n    //     numTicketsLeft = _numTickets;\n    //     price = _price;\n    //     canBeResold = _canBeResold;\n    //     royaltyPercent = _royaltyPercent;\n    // }\n    constructor() ERC721('Hello', 'Hello') {\n        // owner = msg.sender;\n        // numTicketsLeft = _numTickets;\n        // price = _price;\n        // canBeResold = _canBeResold;\n        // royaltyPercent = _royaltyPercent;\n    }\n\n    // Customer purchases a ticket from Organizer\n    // Checks: State is Active, has enough money, \n    function buyTicket() public payable requiredStage(Stages.Active) ticketsLeft hasEnoughMoney(msg.value) {\n        // Create Ticket t\n        Ticket memory t;\n        t.owner = msg.sender;\n        t.price = price;\n        t.resalePrice = price;\n        t.forSale = false;\n        t.used = false;\n\n        // Store t in tickets array, reduce numTicketsLeft\n        tickets.push(t);\n        uint ticketID = tickets.length;\n        numTicketsLeft--;\n        \n        // new added\n        balances[owner] += price;\n\n        // Mint NFT\n        _mint(msg.sender, ticketID);\n        emit CreateTicket(msg.sender, ticketID);\n    }\n\n    // Set new stage\n    function setStage(Stages _stage) public restricted {\n        stage = _stage;\n    }\n\n\n    // once the event is cancelled, organizer should refund money to buyers\n    function refund(address receiver, uint money) public restricted returns (bool success){\n        require (money > 0);\n        require(balances[msg.sender] >= money, \"Not enough money\");\n        emit Refund(msg.sender, receiver, money);\n        balances[msg.sender] -= money;\n        balances[receiver] += money;\n        return true;\n    }\n    \n    \n    // for user and organizer to  withdrawal money from their account\n    function withdrawal(uint money) public returns (bool success){\n        require(balances[msg.sender] >= money, \"Not enough money\");\n        emit WithdrawalMoney(msg.sender, money);\n        balances[msg.sender] -= money;\n        return true;\n    }\n\n\n    // MODIFIERS\n\n    // Only owner\n    modifier restricted() {\n        require(msg.sender == owner, \"Can only be executed by the owner\");\n        _;\n    }\n\n    // Requires stage to be _stage\n    modifier requiredStage(Stages _stage) {\n        require(stage == _stage);\n        _;\n    }\n\n    // Requires there to be more than 0 tickets left\n    modifier ticketsLeft() {\n        require(numTicketsLeft > 0);\n        _;\n    }\n\n    modifier hasEnoughMoney(uint money) {\n        require(money >= price);\n        _;\n    }\n    \n}\n\n",
  "sourcePath": "/Users/michaelgysel/Desktop/GDrive/Classes/CURRENT - T2 2021/COMP6452/Projects/Project 2/code/src/contracts/Event.sol",
  "compiler": {
    "name": "solc",
    "version": "0.8.0+commit.c7dfd78e.Emscripten.clang"
  },
  "schemaVersion": "3.4.1",
  "updatedAt": "2021-07-16T21:50:55.960Z",
  "devdoc": {
    "kind": "dev",
    "methods": {},
    "version": 1
  },
  "userdoc": {
    "kind": "user",
    "methods": {},
    "version": 1
  }
}