{
  "contractName": "Event",
  "abi": [
    {
      "inputs": [
        {
          "internalType": "address",
          "name": "_owner",
          "type": "address"
        },
        {
          "internalType": "uint32",
          "name": "_numTickets",
          "type": "uint32"
        },
        {
          "internalType": "uint32",
          "name": "_price",
          "type": "uint32"
        },
        {
          "internalType": "bool",
          "name": "_canBeResold",
          "type": "bool"
        },
        {
          "internalType": "uint8",
          "name": "_royaltyPercent",
          "type": "uint8"
        },
        {
          "internalType": "string",
          "name": "_eventName",
          "type": "string"
        },
        {
          "internalType": "string",
          "name": "_eventSymbol",
          "type": "string"
        }
      ],
      "stateMutability": "nonpayable",
      "type": "constructor"
    },
    {
      "anonymous": false,
      "inputs": [
        {
          "indexed": true,
          "internalType": "address",
          "name": "owner",
          "type": "address"
        },
        {
          "indexed": true,
          "internalType": "address",
          "name": "approved",
          "type": "address"
        },
        {
          "indexed": true,
          "internalType": "uint256",
          "name": "tokenId",
          "type": "uint256"
        }
      ],
      "name": "Approval",
      "type": "event"
    },
    {
      "anonymous": false,
      "inputs": [
        {
          "indexed": true,
          "internalType": "address",
          "name": "owner",
          "type": "address"
        },
        {
          "indexed": true,
          "internalType": "address",
          "name": "operator",
          "type": "address"
        },
        {
          "indexed": false,
          "internalType": "bool",
          "name": "approved",
          "type": "bool"
        }
      ],
      "name": "ApprovalForAll",
      "type": "event"
    },
    {
      "anonymous": false,
      "inputs": [
        {
          "indexed": false,
          "internalType": "address",
          "name": "buyer",
          "type": "address"
        },
        {
          "indexed": false,
          "internalType": "uint256",
          "name": "ticketID",
          "type": "uint256"
        }
      ],
      "name": "CreateTicket",
      "type": "event"
    },
    {
      "anonymous": false,
      "inputs": [
        {
          "indexed": false,
          "internalType": "address",
          "name": "owner",
          "type": "address"
        },
        {
          "indexed": false,
          "internalType": "uint256",
          "name": "money",
          "type": "uint256"
        }
      ],
      "name": "OwnerWithdrawMoney",
      "type": "event"
    },
    {
      "anonymous": false,
      "inputs": [
        {
          "indexed": false,
          "internalType": "address",
          "name": "seller",
          "type": "address"
        },
        {
          "indexed": false,
          "internalType": "uint256",
          "name": "ticketID",
          "type": "uint256"
        }
      ],
      "name": "TicketForSale",
      "type": "event"
    },
    {
      "anonymous": false,
      "inputs": [
        {
          "indexed": false,
          "internalType": "address",
          "name": "seller",
          "type": "address"
        },
        {
          "indexed": false,
          "internalType": "address",
          "name": "buyer",
          "type": "address"
        },
        {
          "indexed": false,
          "internalType": "uint256",
          "name": "ticketID",
          "type": "uint256"
        }
      ],
      "name": "TicketSold",
      "type": "event"
    },
    {
      "anonymous": false,
      "inputs": [
        {
          "indexed": false,
          "internalType": "string",
          "name": "sQRCodeKey",
          "type": "string"
        }
      ],
      "name": "TicketUsed",
      "type": "event"
    },
    {
      "anonymous": false,
      "inputs": [
        {
          "indexed": true,
          "internalType": "address",
          "name": "from",
          "type": "address"
        },
        {
          "indexed": true,
          "internalType": "address",
          "name": "to",
          "type": "address"
        },
        {
          "indexed": true,
          "internalType": "uint256",
          "name": "tokenId",
          "type": "uint256"
        }
      ],
      "name": "Transfer",
      "type": "event"
    },
    {
      "anonymous": false,
      "inputs": [
        {
          "indexed": false,
          "internalType": "address",
          "name": "receiver",
          "type": "address"
        },
        {
          "indexed": false,
          "internalType": "uint256",
          "name": "money",
          "type": "uint256"
        }
      ],
      "name": "WithdrawMoney",
      "type": "event"
    },
    {
      "inputs": [
        {
          "internalType": "address",
          "name": "to",
          "type": "address"
        },
        {
          "internalType": "uint256",
          "name": "tokenId",
          "type": "uint256"
        }
      ],
      "name": "approve",
      "outputs": [],
      "stateMutability": "nonpayable",
      "type": "function"
    },
    {
      "inputs": [
        {
          "internalType": "address",
          "name": "owner",
          "type": "address"
        }
      ],
      "name": "balanceOf",
      "outputs": [
        {
          "internalType": "uint256",
          "name": "",
          "type": "uint256"
        }
      ],
      "stateMutability": "view",
      "type": "function"
    },
    {
      "inputs": [
        {
          "internalType": "address",
          "name": "",
          "type": "address"
        }
      ],
      "name": "balances",
      "outputs": [
        {
          "internalType": "uint256",
          "name": "",
          "type": "uint256"
        }
      ],
      "stateMutability": "view",
      "type": "function"
    },
    {
      "inputs": [],
      "name": "canBeResold",
      "outputs": [
        {
          "internalType": "bool",
          "name": "",
          "type": "bool"
        }
      ],
      "stateMutability": "view",
      "type": "function"
    },
    {
      "inputs": [
        {
          "internalType": "uint256",
          "name": "tokenId",
          "type": "uint256"
        }
      ],
      "name": "getApproved",
      "outputs": [
        {
          "internalType": "address",
          "name": "",
          "type": "address"
        }
      ],
      "stateMutability": "view",
      "type": "function"
    },
    {
      "inputs": [
        {
          "internalType": "address",
          "name": "owner",
          "type": "address"
        },
        {
          "internalType": "address",
          "name": "operator",
          "type": "address"
        }
      ],
      "name": "isApprovedForAll",
      "outputs": [
        {
          "internalType": "bool",
          "name": "",
          "type": "bool"
        }
      ],
      "stateMutability": "view",
      "type": "function"
    },
    {
      "inputs": [
        {
          "internalType": "address",
          "name": "",
          "type": "address"
        }
      ],
      "name": "isUserRefunded",
      "outputs": [
        {
          "internalType": "bool",
          "name": "",
          "type": "bool"
        }
      ],
      "stateMutability": "view",
      "type": "function"
    },
    {
      "inputs": [],
      "name": "name",
      "outputs": [
        {
          "internalType": "string",
          "name": "",
          "type": "string"
        }
      ],
      "stateMutability": "view",
      "type": "function"
    },
    {
      "inputs": [],
      "name": "numTicketsLeft",
      "outputs": [
        {
          "internalType": "uint32",
          "name": "",
          "type": "uint32"
        }
      ],
      "stateMutability": "view",
      "type": "function"
    },
    {
      "inputs": [],
      "name": "owner",
      "outputs": [
        {
          "internalType": "address payable",
          "name": "",
          "type": "address"
        }
      ],
      "stateMutability": "view",
      "type": "function"
    },
    {
      "inputs": [
        {
          "internalType": "uint256",
          "name": "tokenId",
          "type": "uint256"
        }
      ],
      "name": "ownerOf",
      "outputs": [
        {
          "internalType": "address",
          "name": "",
          "type": "address"
        }
      ],
      "stateMutability": "view",
      "type": "function"
    },
    {
      "inputs": [],
      "name": "price",
      "outputs": [
        {
          "internalType": "uint32",
          "name": "",
          "type": "uint32"
        }
      ],
      "stateMutability": "view",
      "type": "function"
    },
    {
      "inputs": [],
      "name": "royaltyPercent",
      "outputs": [
        {
          "internalType": "uint8",
          "name": "",
          "type": "uint8"
        }
      ],
      "stateMutability": "view",
      "type": "function"
    },
    {
      "inputs": [
        {
          "internalType": "address",
          "name": "from",
          "type": "address"
        },
        {
          "internalType": "address",
          "name": "to",
          "type": "address"
        },
        {
          "internalType": "uint256",
          "name": "tokenId",
          "type": "uint256"
        }
      ],
      "name": "safeTransferFrom",
      "outputs": [],
      "stateMutability": "nonpayable",
      "type": "function"
    },
    {
      "inputs": [
        {
          "internalType": "address",
          "name": "from",
          "type": "address"
        },
        {
          "internalType": "address",
          "name": "to",
          "type": "address"
        },
        {
          "internalType": "uint256",
          "name": "tokenId",
          "type": "uint256"
        },
        {
          "internalType": "bytes",
          "name": "_data",
          "type": "bytes"
        }
      ],
      "name": "safeTransferFrom",
      "outputs": [],
      "stateMutability": "nonpayable",
      "type": "function"
    },
    {
      "inputs": [
        {
          "internalType": "address",
          "name": "operator",
          "type": "address"
        },
        {
          "internalType": "bool",
          "name": "approved",
          "type": "bool"
        }
      ],
      "name": "setApprovalForAll",
      "outputs": [],
      "stateMutability": "nonpayable",
      "type": "function"
    },
    {
      "inputs": [],
      "name": "stage",
      "outputs": [
        {
          "internalType": "enum Event.Stages",
          "name": "",
          "type": "uint8"
        }
      ],
      "stateMutability": "view",
      "type": "function"
    },
    {
      "inputs": [
        {
          "internalType": "bytes4",
          "name": "interfaceId",
          "type": "bytes4"
        }
      ],
      "name": "supportsInterface",
      "outputs": [
        {
          "internalType": "bool",
          "name": "",
          "type": "bool"
        }
      ],
      "stateMutability": "view",
      "type": "function"
    },
    {
      "inputs": [],
      "name": "symbol",
      "outputs": [
        {
          "internalType": "string",
          "name": "",
          "type": "string"
        }
      ],
      "stateMutability": "view",
      "type": "function"
    },
    {
      "inputs": [
        {
          "internalType": "uint256",
          "name": "",
          "type": "uint256"
        }
      ],
      "name": "tickets",
      "outputs": [
        {
          "internalType": "uint32",
          "name": "price",
          "type": "uint32"
        },
        {
          "internalType": "uint32",
          "name": "resalePrice",
          "type": "uint32"
        },
        {
          "internalType": "enum Event.TicketStatus",
          "name": "status",
          "type": "uint8"
        }
      ],
      "stateMutability": "view",
      "type": "function"
    },
    {
      "inputs": [
        {
          "internalType": "uint256",
          "name": "tokenId",
          "type": "uint256"
        }
      ],
      "name": "tokenURI",
      "outputs": [
        {
          "internalType": "string",
          "name": "",
          "type": "string"
        }
      ],
      "stateMutability": "view",
      "type": "function"
    },
    {
      "inputs": [
        {
          "internalType": "address",
          "name": "from",
          "type": "address"
        },
        {
          "internalType": "address",
          "name": "to",
          "type": "address"
        },
        {
          "internalType": "uint256",
          "name": "tokenId",
          "type": "uint256"
        }
      ],
      "name": "transferFrom",
      "outputs": [],
      "stateMutability": "nonpayable",
      "type": "function"
    },
    {
      "inputs": [],
      "name": "buyTicket",
      "outputs": [
        {
          "internalType": "uint256",
          "name": "",
          "type": "uint256"
        }
      ],
      "stateMutability": "payable",
      "type": "function"
    },
    {
      "inputs": [
        {
          "internalType": "enum Event.Stages",
          "name": "_stage",
          "type": "uint8"
        }
      ],
      "name": "setStage",
      "outputs": [
        {
          "internalType": "enum Event.Stages",
          "name": "",
          "type": "uint8"
        }
      ],
      "stateMutability": "nonpayable",
      "type": "function"
    },
    {
      "inputs": [
        {
          "internalType": "uint256",
          "name": "ticketID",
          "type": "uint256"
        },
        {
          "internalType": "string",
          "name": "sQRCodeKey",
          "type": "string"
        }
      ],
      "name": "setTicketToUsed",
      "outputs": [
        {
          "internalType": "string",
          "name": "",
          "type": "string"
        }
      ],
      "stateMutability": "nonpayable",
      "type": "function"
    },
    {
      "inputs": [
        {
          "internalType": "uint256",
          "name": "ticketID",
          "type": "uint256"
        }
      ],
      "name": "setTicketForSale",
      "outputs": [],
      "stateMutability": "nonpayable",
      "type": "function"
    },
    {
      "inputs": [
        {
          "internalType": "uint256",
          "name": "ticketID",
          "type": "uint256"
        }
      ],
      "name": "getTicketStatus",
      "outputs": [
        {
          "internalType": "enum Event.TicketStatus",
          "name": "",
          "type": "uint8"
        }
      ],
      "stateMutability": "view",
      "type": "function"
    },
    {
      "inputs": [],
      "name": "ownerWithdraw",
      "outputs": [
        {
          "internalType": "bool",
          "name": "success",
          "type": "bool"
        }
      ],
      "stateMutability": "nonpayable",
      "type": "function"
    },
    {
      "inputs": [
        {
          "internalType": "address",
          "name": "buyer",
          "type": "address"
        },
        {
          "internalType": "uint256",
          "name": "ticketID",
          "type": "uint256"
        }
      ],
      "name": "approveAsBuyer",
      "outputs": [],
      "stateMutability": "nonpayable",
      "type": "function"
    },
    {
      "inputs": [
        {
          "internalType": "uint256",
          "name": "ticketID",
          "type": "uint256"
        }
      ],
      "name": "buyTicketFromUser",
      "outputs": [
        {
          "internalType": "bool",
          "name": "",
          "type": "bool"
        }
      ],
      "stateMutability": "payable",
      "type": "function"
    }
  ],
  "bytecode": "0x60806040526000600660006101000a81548160ff0219169083600581111562000051577f4e487b7100000000000000000000000000000000000000000000000000000000600052602160045260246000fd5b02179055503480156200006357600080fd5b506040516200526838038062005268833981810160405281019062000089919062000444565b81818160009080519060200190620000a3929190620002c6565b508060019080519060200190620000bc929190620002c6565b50505060008360ff1610158015620000d8575060648360ff1611155b6200011a576040517f08c379a0000000000000000000000000000000000000000000000000000000008152600401620001119062000677565b60405180910390fd5b60008663ffffffff161162000166576040517f08c379a00000000000000000000000000000000000000000000000000000000081526004016200015d9062000699565b60405180910390fd5b60008290506000829050600082511415620001b8576040517f08c379a0000000000000000000000000000000000000000000000000000000008152600401620001af90620006dd565b60405180910390fd5b60008151141562000200576040517f08c379a0000000000000000000000000000000000000000000000000000000008152600401620001f790620006bb565b60405180910390fd5b886008600a6101000a81548173ffffffffffffffffffffffffffffffffffffffff021916908373ffffffffffffffffffffffffffffffffffffffff16021790555087600860006101000a81548163ffffffff021916908363ffffffff16021790555086600860046101000a81548163ffffffff021916908363ffffffff16021790555085600860096101000a81548160ff021916908315150217905550846008806101000a81548160ff021916908360ff16021790555050505050505050505062000906565b828054620002d4906200080a565b90600052602060002090601f016020900481019282620002f8576000855562000344565b82601f106200031357805160ff191683800117855562000344565b8280016001018555821562000344579182015b828111156200034357825182559160200191906001019062000326565b5b50905062000353919062000357565b5090565b5b808211156200037257600081600090555060010162000358565b5090565b60006200038d620003878462000733565b620006ff565b905082815260208101848484011115620003a657600080fd5b620003b3848285620007d4565b509392505050565b600081519050620003cc816200089e565b92915050565b600081519050620003e381620008b8565b92915050565b600082601f830112620003fb57600080fd5b81516200040d84826020860162000376565b91505092915050565b6000815190506200042781620008d2565b92915050565b6000815190506200043e81620008ec565b92915050565b600080600080600080600060e0888a0312156200046057600080fd5b6000620004708a828b01620003bb565b9750506020620004838a828b0162000416565b9650506040620004968a828b0162000416565b9550506060620004a98a828b01620003d2565b9450506080620004bc8a828b016200042d565b93505060a088015167ffffffffffffffff811115620004da57600080fd5b620004e88a828b01620003e9565b92505060c088015167ffffffffffffffff8111156200050657600080fd5b620005148a828b01620003e9565b91505092959891949750929550565b600062000532602c8362000766565b91507f526f79616c74792050657263656e74616765206d75737420626520626574776560008301527f656e203020616e642031303000000000000000000000000000000000000000006020830152604082019050919050565b60006200059a602c8362000766565b91507f546865206e756d626572206f66207469636b657473206d75737420626520677260008301527f6561746572207468616e203000000000000000000000000000000000000000006020830152604082019050919050565b600062000602601c8362000766565b91507f4576656e742053796d626f6c2063616e6e6f7420626520656d707479000000006000830152602082019050919050565b600062000644601a8362000766565b91507f4576656e74204e616d652063616e6e6f7420626520656d7074790000000000006000830152602082019050919050565b60006020820190508181036000830152620006928162000523565b9050919050565b60006020820190508181036000830152620006b4816200058b565b9050919050565b60006020820190508181036000830152620006d681620005f3565b9050919050565b60006020820190508181036000830152620006f88162000635565b9050919050565b6000604051905081810181811067ffffffffffffffff821117156200072957620007286200086f565b5b8060405250919050565b600067ffffffffffffffff8211156200075157620007506200086f565b5b601f19601f8301169050602081019050919050565b600082825260208201905092915050565b6000620007848262000797565b9050919050565b60008115159050919050565b600073ffffffffffffffffffffffffffffffffffffffff82169050919050565b600063ffffffff82169050919050565b600060ff82169050919050565b60005b83811015620007f4578082015181840152602081019050620007d7565b8381111562000804576000848401525b50505050565b600060028204905060018216806200082357607f821691505b602082108114156200083a576200083962000840565b5b50919050565b7f4e487b7100000000000000000000000000000000000000000000000000000000600052602260045260246000fd5b7f4e487b7100000000000000000000000000000000000000000000000000000000600052604160045260246000fd5b620008a98162000777565b8114620008b557600080fd5b50565b620008c3816200078b565b8114620008cf57600080fd5b50565b620008dd81620007b7565b8114620008e957600080fd5b50565b620008f781620007c7565b81146200090357600080fd5b50565b61495280620009166000396000f3fe6080604052600436106101ea576000357c0100000000000000000000000000000000000000000000000000000000900480638da5cb5b11610114578063b3874c0d116100b2578063ce3cd99711610081578063ce3cd997146106e8578063e985e9c514610725578063edca914c14610762578063fb87774c14610780576101ea565b8063b3874c0d1461062c578063b88d4fde14610657578063c040e6b814610680578063c87b56dd146106ab576101ea565b80639f67756d116100ee5780639f67756d14610582578063a035b1fe146105ad578063a22cb465146105d8578063a51bba8c14610601576101ea565b80638da5cb5b1461050357806395d89b411461052e5780639aecd64a14610559576101ea565b806327e235e31161018c57806350b447121161015b57806350b44712146104215780636352211e1461046057806370a082311461049d57806376fa6206146104da576101ea565b806327e235e3146103605780632f31707c1461039d57806342842e0e146103cd5780634311de8f146103f6576101ea565b8063095ea7b3116101c8578063095ea7b31461029457806318133d15146102bd57806318b3822f146102fa57806323b872dd14610337576101ea565b806301ffc9a7146101ef57806306fdde031461022c578063081812fc14610257575b600080fd5b3480156101fb57600080fd5b5061021660048036038101906102119190613354565b6107bd565b6040516102239190613f1c565b60405180910390f35b34801561023857600080fd5b5061024161089f565b60405161024e9190613f6d565b60405180910390f35b34801561026357600080fd5b5061027e600480360381019061027991906133cf565b610931565b60405161028b9190613e3a565b60405180910390f35b3480156102a057600080fd5b506102bb60048036038101906102b69190613318565b6109b6565b005b3480156102c957600080fd5b506102e460048036038101906102df91906131ad565b610ace565b6040516102f19190613f1c565b60405180910390f35b34801561030657600080fd5b50610321600480360381019061031c91906133f8565b610aee565b60405161032e9190613f6d565b60405180910390f35b34801561034357600080fd5b5061035e60048036038101906103599190613212565b610e09565b005b34801561036c57600080fd5b50610387600480360381019061038291906131ad565b610e69565b60405161039491906142af565b60405180910390f35b6103b760048036038101906103b291906133cf565b610e81565b6040516103c49190613f1c565b60405180910390f35b3480156103d957600080fd5b506103f460048036038101906103ef9190613212565b6111ef565b005b34801561040257600080fd5b5061040b61120f565b6040516104189190613f1c565b60405180910390f35b34801561042d57600080fd5b50610448600480360381019061044391906133cf565b6114a1565b604051610457939291906142e5565b60405180910390f35b34801561046c57600080fd5b50610487600480360381019061048291906133cf565b611504565b6040516104949190613e3a565b60405180910390f35b3480156104a957600080fd5b506104c460048036038101906104bf91906131ad565b6115b6565b6040516104d191906142af565b60405180910390f35b3480156104e657600080fd5b5061050160048036038101906104fc91906133cf565b61166e565b005b34801561050f57600080fd5b50610518611984565b6040516105259190613e55565b60405180910390f35b34801561053a57600080fd5b506105436119aa565b6040516105509190613f6d565b60405180910390f35b34801561056557600080fd5b50610580600480360381019061057b9190613318565b611a3c565b005b34801561058e57600080fd5b50610597611b86565b6040516105a4919061431c565b60405180910390f35b3480156105b957600080fd5b506105c2611b97565b6040516105cf91906142ca565b60405180910390f35b3480156105e457600080fd5b506105ff60048036038101906105fa91906132dc565b611bad565b005b34801561060d57600080fd5b50610616611d2e565b60405161062391906142ca565b60405180910390f35b34801561063857600080fd5b50610641611d44565b60405161064e9190613f1c565b60405180910390f35b34801561066357600080fd5b5061067e60048036038101906106799190613261565b611d57565b005b34801561068c57600080fd5b50610695611db9565b6040516106a29190613f37565b60405180910390f35b3480156106b757600080fd5b506106d260048036038101906106cd91906133cf565b611dcc565b6040516106df9190613f6d565b60405180910390f35b3480156106f457600080fd5b5061070f600480360381019061070a91906133a6565b611e73565b60405161071c9190613f37565b60405180910390f35b34801561073157600080fd5b5061074c600480360381019061074791906131d6565b611f6c565b6040516107599190613f1c565b60405180910390f35b61076a612000565b60405161077791906142af565b60405180910390f35b34801561078c57600080fd5b506107a760048036038101906107a291906133cf565b6124d7565b6040516107b49190613f52565b60405180910390f35b60007f80ac58cd000000000000000000000000000000000000000000000000000000007bffffffffffffffffffffffffffffffffffffffffffffffffffffffff1916827bffffffffffffffffffffffffffffffffffffffffffffffffffffffff1916148061088857507f5b5e139f000000000000000000000000000000000000000000000000000000007bffffffffffffffffffffffffffffffffffffffffffffffffffffffff1916827bffffffffffffffffffffffffffffffffffffffffffffffffffffffff1916145b80610898575061089782612535565b5b9050919050565b6060600080546108ae906146e0565b80601f01602080910402602001604051908101604052809291908181526020018280546108da906146e0565b80156109275780601f106108fc57610100808354040283529160200191610927565b820191906000526020600020905b81548152906001019060200180831161090a57829003601f168201915b5050505050905090565b600061093c8261259f565b61097b576040517f08c379a00000000000000000000000000000000000000000000000000000000081526004016109729061418f565b60405180910390fd5b6004600083815260200190815260200160002060009054906101000a900473ffffffffffffffffffffffffffffffffffffffff169050919050565b60006109c182611504565b90508073ffffffffffffffffffffffffffffffffffffffff168373ffffffffffffffffffffffffffffffffffffffff161415610a32576040517f08c379a0000000000000000000000000000000000000000000000000000000008152600401610a299061420f565b60405180910390fd5b8073ffffffffffffffffffffffffffffffffffffffff16610a5161260b565b73ffffffffffffffffffffffffffffffffffffffff161480610a805750610a7f81610a7a61260b565b611f6c565b5b610abf576040517f08c379a0000000000000000000000000000000000000000000000000000000008152600401610ab69061410f565b60405180910390fd5b610ac98383612613565b505050565b600a6020528060005260406000206000915054906101000a900460ff1681565b60606003806005811115610b2b577f4e487b7100000000000000000000000000000000000000000000000000000000600052602160045260246000fd5b600660009054906101000a900460ff166005811115610b73577f4e487b7100000000000000000000000000000000000000000000000000000000600052602160045260246000fd5b14610bb3576040517f08c379a0000000000000000000000000000000000000000000000000000000008152600401610baa9061400f565b60405180910390fd5b833373ffffffffffffffffffffffffffffffffffffffff16610bd482611504565b73ffffffffffffffffffffffffffffffffffffffff1614610c2a576040517f08c379a0000000000000000000000000000000000000000000000000000000008152600401610c219061428f565b60405180910390fd5b60016003811115610c64577f4e487b7100000000000000000000000000000000000000000000000000000000600052602160045260246000fd5b60078681548110610c9e577f4e487b7100000000000000000000000000000000000000000000000000000000600052603260045260246000fd5b9060005260206000200160000160089054906101000a900460ff166003811115610cf1577f4e487b7100000000000000000000000000000000000000000000000000000000600052602160045260246000fd5b14610d31576040517f08c379a0000000000000000000000000000000000000000000000000000000008152600401610d28906140ef565b60405180910390fd5b600260078681548110610d6d577f4e487b7100000000000000000000000000000000000000000000000000000000600052603260045260246000fd5b9060005260206000200160000160086101000a81548160ff02191690836003811115610dc2577f4e487b7100000000000000000000000000000000000000000000000000000000600052602160045260246000fd5b02179055507fb7305a6f58433949a2c9bd1f3af57e785359341c631d60eb51e40eff46e6c13984604051610df69190613f6d565b60405180910390a1839250505092915050565b610e1a610e1461260b565b826126cc565b610e59576040517f08c379a0000000000000000000000000000000000000000000000000000000008152600401610e509061422f565b60405180910390fd5b610e648383836127aa565b505050565b60096020528060005260406000206000915090505481565b60006001806005811115610ebe577f4e487b7100000000000000000000000000000000000000000000000000000000600052602160045260246000fd5b600660009054906101000a900460ff166005811115610f06577f4e487b7100000000000000000000000000000000000000000000000000000000600052602160045260246000fd5b14610f46576040517f08c379a0000000000000000000000000000000000000000000000000000000008152600401610f3d9061400f565b60405180910390fd5b34600860049054906101000a900463ffffffff1663ffffffff16811015610fa2576040517f08c379a0000000000000000000000000000000000000000000000000000000008152600401610f99906140af565b60405180910390fd5b600380811115610fdb577f4e487b7100000000000000000000000000000000000000000000000000000000600052602160045260246000fd5b60078581548110611015577f4e487b7100000000000000000000000000000000000000000000000000000000600052603260045260246000fd5b9060005260206000200160000160089054906101000a900460ff166003811115611068577f4e487b7100000000000000000000000000000000000000000000000000000000600052602160045260246000fd5b146110a8576040517f08c379a000000000000000000000000000000000000000000000000000000000815260040161109f906140cf565b60405180910390fd5b6000600785815481106110e4577f4e487b7100000000000000000000000000000000000000000000000000000000600052603260045260246000fd5b9060005260206000200160000160009054906101000a900463ffffffff1663ffffffff169050600081606460088054906101000a900460ff166111279190614492565b60ff1661113491906144c3565b905060008183611144919061451d565b9050600061115188611504565b90508073ffffffffffffffffffffffffffffffffffffffff166108fc839081150290604051600060405180830381858888f19350505050158015611199573d6000803e3d6000fd5b507f2ff282dae7c1a7b99b722227f3a2079b905c78122b1553e37f8c0ce1e06f4f4b81338a6040516111cd93929190613e70565b60405180910390a16111e081338a6111ef565b60019650505050505050919050565b61120a83838360405180602001604052806000815250611d57565b505050565b60006008600a9054906101000a900473ffffffffffffffffffffffffffffffffffffffff1673ffffffffffffffffffffffffffffffffffffffff163373ffffffffffffffffffffffffffffffffffffffff16146112a1576040517f08c379a000000000000000000000000000000000000000000000000000000000815260040161129890613faf565b60405180910390fd5b60058060058111156112dc577f4e487b7100000000000000000000000000000000000000000000000000000000600052602160045260246000fd5b600660009054906101000a900460ff166005811115611324577f4e487b7100000000000000000000000000000000000000000000000000000000600052602160045260246000fd5b14611364576040517f08c379a000000000000000000000000000000000000000000000000000000000815260040161135b9061400f565b60405180910390fd5b60003073ffffffffffffffffffffffffffffffffffffffff16319050600081116113c3576040517f08c379a00000000000000000000000000000000000000000000000000000000081526004016113ba906141ef565b60405180910390fd5b60006008600a9054906101000a900473ffffffffffffffffffffffffffffffffffffffff1673ffffffffffffffffffffffffffffffffffffffff166108fc839081150290604051600060405180830381858888f1935050505090508061145e576040517f08c379a00000000000000000000000000000000000000000000000000000000081526004016114559061426f565b60405180910390fd5b7f5f0d69e5c0056ecc650fc0d2d916359037135dac3d5b5446d226dfdbe292482e338360405161148f929190613ef3565b60405180910390a16001935050505090565b600781815481106114b157600080fd5b906000526020600020016000915090508060000160009054906101000a900463ffffffff16908060000160049054906101000a900463ffffffff16908060000160089054906101000a900460ff16905083565b6000806002600084815260200190815260200160002060009054906101000a900473ffffffffffffffffffffffffffffffffffffffff169050600073ffffffffffffffffffffffffffffffffffffffff168173ffffffffffffffffffffffffffffffffffffffff1614156115ad576040517f08c379a00000000000000000000000000000000000000000000000000000000081526004016115a49061414f565b60405180910390fd5b80915050919050565b60008073ffffffffffffffffffffffffffffffffffffffff168273ffffffffffffffffffffffffffffffffffffffff161415611627576040517f08c379a000000000000000000000000000000000000000000000000000000000815260040161161e9061412f565b60405180910390fd5b600360008373ffffffffffffffffffffffffffffffffffffffff1673ffffffffffffffffffffffffffffffffffffffff168152602001908152602001600020549050919050565b60018060058111156116a9577f4e487b7100000000000000000000000000000000000000000000000000000000600052602160045260246000fd5b600660009054906101000a900460ff1660058111156116f1577f4e487b7100000000000000000000000000000000000000000000000000000000600052602160045260246000fd5b14611731576040517f08c379a00000000000000000000000000000000000000000000000000000000081526004016117289061400f565b60405180910390fd5b813373ffffffffffffffffffffffffffffffffffffffff1661175282611504565b73ffffffffffffffffffffffffffffffffffffffff16146117a8576040517f08c379a000000000000000000000000000000000000000000000000000000000815260040161179f9061428f565b60405180910390fd5b600260038111156117e2577f4e487b7100000000000000000000000000000000000000000000000000000000600052602160045260246000fd5b6007848154811061181c577f4e487b7100000000000000000000000000000000000000000000000000000000600052603260045260246000fd5b9060005260206000200160000160089054906101000a900460ff16600381111561186f577f4e487b7100000000000000000000000000000000000000000000000000000000600052602160045260246000fd5b14156118b0576040517f08c379a00000000000000000000000000000000000000000000000000000000081526004016118a790613fef565b60405180910390fd5b6003600784815481106118ec577f4e487b7100000000000000000000000000000000000000000000000000000000600052603260045260246000fd5b9060005260206000200160000160086101000a81548160ff02191690836003811115611941577f4e487b7100000000000000000000000000000000000000000000000000000000600052602160045260246000fd5b02179055507fec1a51878793b26371980da80139946e4a398461978717cbe8d07596dd3404b63384604051611977929190613ef3565b60405180910390a1505050565b6008600a9054906101000a900473ffffffffffffffffffffffffffffffffffffffff1681565b6060600180546119b9906146e0565b80601f01602080910402602001604051908101604052809291908181526020018280546119e5906146e0565b8015611a325780601f10611a0757610100808354040283529160200191611a32565b820191906000526020600020905b815481529060010190602001808311611a1557829003601f168201915b5050505050905090565b6001806005811115611a77577f4e487b7100000000000000000000000000000000000000000000000000000000600052602160045260246000fd5b600660009054906101000a900460ff166005811115611abf577f4e487b7100000000000000000000000000000000000000000000000000000000600052602160045260246000fd5b14611aff576040517f08c379a0000000000000000000000000000000000000000000000000000000008152600401611af69061400f565b60405180910390fd5b813373ffffffffffffffffffffffffffffffffffffffff16611b2082611504565b73ffffffffffffffffffffffffffffffffffffffff1614611b76576040517f08c379a0000000000000000000000000000000000000000000000000000000008152600401611b6d9061428f565b60405180910390fd5b611b8084846109b6565b50505050565b60088054906101000a900460ff1681565b600860049054906101000a900463ffffffff1681565b611bb561260b565b73ffffffffffffffffffffffffffffffffffffffff168273ffffffffffffffffffffffffffffffffffffffff161415611c23576040517f08c379a0000000000000000000000000000000000000000000000000000000008152600401611c1a9061406f565b60405180910390fd5b8060056000611c3061260b565b73ffffffffffffffffffffffffffffffffffffffff1673ffffffffffffffffffffffffffffffffffffffff16815260200190815260200160002060008473ffffffffffffffffffffffffffffffffffffffff1673ffffffffffffffffffffffffffffffffffffffff16815260200190815260200160002060006101000a81548160ff0219169083151502179055508173ffffffffffffffffffffffffffffffffffffffff16611cdd61260b565b73ffffffffffffffffffffffffffffffffffffffff167f17307eab39ab6107e8899845ad3d59bd9653f200f220920489ca2b5937696c3183604051611d229190613f1c565b60405180910390a35050565b600860009054906101000a900463ffffffff1681565b600860099054906101000a900460ff1681565b611d68611d6261260b565b836126cc565b611da7576040517f08c379a0000000000000000000000000000000000000000000000000000000008152600401611d9e9061422f565b60405180910390fd5b611db384848484612a06565b50505050565b600660009054906101000a900460ff1681565b6060611dd78261259f565b611e16576040517f08c379a0000000000000000000000000000000000000000000000000000000008152600401611e0d906141cf565b60405180910390fd5b6000611e20612a62565b90506000815111611e405760405180602001604052806000815250611e6b565b80611e4a84612a79565b604051602001611e5b929190613e16565b6040516020818303038152906040525b915050919050565b60006008600a9054906101000a900473ffffffffffffffffffffffffffffffffffffffff1673ffffffffffffffffffffffffffffffffffffffff163373ffffffffffffffffffffffffffffffffffffffff1614611f05576040517f08c379a0000000000000000000000000000000000000000000000000000000008152600401611efc90613faf565b60405180910390fd5b81600660006101000a81548160ff02191690836005811115611f50577f4e487b7100000000000000000000000000000000000000000000000000000000600052602160045260246000fd5b0217905550600660009054906101000a900460ff169050919050565b6000600560008473ffffffffffffffffffffffffffffffffffffffff1673ffffffffffffffffffffffffffffffffffffffff16815260200190815260200160002060008373ffffffffffffffffffffffffffffffffffffffff1673ffffffffffffffffffffffffffffffffffffffff16815260200190815260200160002060009054906101000a900460ff16905092915050565b60006001600581111561203c577f4e487b7100000000000000000000000000000000000000000000000000000000600052602160045260246000fd5b600660009054906101000a900460ff166005811115612084577f4e487b7100000000000000000000000000000000000000000000000000000000600052602160045260246000fd5b148061210f5750600360058111156120c5577f4e487b7100000000000000000000000000000000000000000000000000000000600052602160045260246000fd5b600660009054906101000a900460ff16600581111561210d577f4e487b7100000000000000000000000000000000000000000000000000000000600052602160045260246000fd5b145b61214e576040517f08c379a00000000000000000000000000000000000000000000000000000000081526004016121459061424f565b60405180910390fd5b6000600860009054906101000a900463ffffffff1663ffffffff16116121a9576040517f08c379a00000000000000000000000000000000000000000000000000000000081526004016121a09061402f565b60405180910390fd5b34600860049054906101000a900463ffffffff1663ffffffff16811015612205576040517f08c379a00000000000000000000000000000000000000000000000000000000081526004016121fc906140af565b60405180910390fd5b61220d612ffa565b600860049054906101000a900463ffffffff16816000019063ffffffff16908163ffffffff1681525050600860049054906101000a900463ffffffff16816020019063ffffffff16908163ffffffff16815250506001816040019060038111156122a0577f4e487b7100000000000000000000000000000000000000000000000000000000600052602160045260246000fd5b908160038111156122da577f4e487b7100000000000000000000000000000000000000000000000000000000600052602160045260246000fd5b815250506007819080600181540180825580915050600190039060005260206000200160009091909190915060008201518160000160006101000a81548163ffffffff021916908363ffffffff16021790555060208201518160000160046101000a81548163ffffffff021916908363ffffffff16021790555060408201518160000160086101000a81548160ff021916908360038111156123a5577f4e487b7100000000000000000000000000000000000000000000000000000000600052602160045260246000fd5b02179055505050600060016007805490506123c0919061451d565b90506008600081819054906101000a900463ffffffff16809291906123e4906146b6565b91906101000a81548163ffffffff021916908363ffffffff1602179055505061240d3382612c45565b7f45b138e571439656fbf8d1d09364ce6268bcd2bcbefd7d1d01c57ab4f8bbe8fc338260405161243e929190613ef3565b60405180910390a1600860049054906101000a900463ffffffff1663ffffffff163411156124ce57600860049054906101000a900463ffffffff1663ffffffff163461248a919061451d565b600960003373ffffffffffffffffffffffffffffffffffffffff1673ffffffffffffffffffffffffffffffffffffffff168152602001908152602001600020819055505b80935050505090565b600060078281548110612513577f4e487b7100000000000000000000000000000000000000000000000000000000600052603260045260246000fd5b9060005260206000200160000160089054906101000a900460ff169050919050565b60007f01ffc9a7000000000000000000000000000000000000000000000000000000007bffffffffffffffffffffffffffffffffffffffffffffffffffffffff1916827bffffffffffffffffffffffffffffffffffffffffffffffffffffffff1916149050919050565b60008073ffffffffffffffffffffffffffffffffffffffff166002600084815260200190815260200160002060009054906101000a900473ffffffffffffffffffffffffffffffffffffffff1673ffffffffffffffffffffffffffffffffffffffff1614159050919050565b600033905090565b816004600083815260200190815260200160002060006101000a81548173ffffffffffffffffffffffffffffffffffffffff021916908373ffffffffffffffffffffffffffffffffffffffff160217905550808273ffffffffffffffffffffffffffffffffffffffff1661268683611504565b73ffffffffffffffffffffffffffffffffffffffff167f8c5be1e5ebec7d5bd14f71427d1e84f3dd0314c0f7b2291e5b200ac8c7c3b92560405160405180910390a45050565b60006126d78261259f565b612716576040517f08c379a000000000000000000000000000000000000000000000000000000000815260040161270d9061408f565b60405180910390fd5b600061272183611504565b90508073ffffffffffffffffffffffffffffffffffffffff168473ffffffffffffffffffffffffffffffffffffffff16148061279057508373ffffffffffffffffffffffffffffffffffffffff1661277884610931565b73ffffffffffffffffffffffffffffffffffffffff16145b806127a157506127a08185611f6c565b5b91505092915050565b8273ffffffffffffffffffffffffffffffffffffffff166127ca82611504565b73ffffffffffffffffffffffffffffffffffffffff1614612820576040517f08c379a0000000000000000000000000000000000000000000000000000000008152600401612817906141af565b60405180910390fd5b600073ffffffffffffffffffffffffffffffffffffffff168273ffffffffffffffffffffffffffffffffffffffff161415612890576040517f08c379a00000000000000000000000000000000000000000000000000000000081526004016128879061404f565b60405180910390fd5b61289b838383612e13565b6128a6600082612613565b6001600360008573ffffffffffffffffffffffffffffffffffffffff1673ffffffffffffffffffffffffffffffffffffffff16815260200190815260200160002060008282546128f6919061451d565b925050819055506001600360008473ffffffffffffffffffffffffffffffffffffffff1673ffffffffffffffffffffffffffffffffffffffff168152602001908152602001600020600082825461294d919061440b565b92505081905550816002600083815260200190815260200160002060006101000a81548173ffffffffffffffffffffffffffffffffffffffff021916908373ffffffffffffffffffffffffffffffffffffffff160217905550808273ffffffffffffffffffffffffffffffffffffffff168473ffffffffffffffffffffffffffffffffffffffff167fddf252ad1be2c89b69c2b068fc378daa952ba7f163c4a11628f55a4df523b3ef60405160405180910390a4505050565b612a118484846127aa565b612a1d84848484612e18565b612a5c576040517f08c379a0000000000000000000000000000000000000000000000000000000008152600401612a5390613f8f565b60405180910390fd5b50505050565b606060405180602001604052806000815250905090565b60606000821415612ac1576040518060400160405280600181526020017f30000000000000000000000000000000000000000000000000000000000000008152509050612c40565b600082905060005b60008214612af3578080612adc90614712565b915050600a82612aec9190614461565b9150612ac9565b60008167ffffffffffffffff811115612b35577f4e487b7100000000000000000000000000000000000000000000000000000000600052604160045260246000fd5b6040519080825280601f01601f191660200182016040528015612b675781602001600182028036833780820191505090505b5090505b60008514612c3957600182612b80919061451d565b9150600a85612b8f919061475b565b6030612b9b919061440b565b7f010000000000000000000000000000000000000000000000000000000000000002818381518110612bf6577f4e487b7100000000000000000000000000000000000000000000000000000000600052603260045260246000fd5b60200101907effffffffffffffffffffffffffffffffffffffffffffffffffffffffffffff1916908160001a905350600a85612c329190614461565b9450612b6b565b8093505050505b919050565b600073ffffffffffffffffffffffffffffffffffffffff168273ffffffffffffffffffffffffffffffffffffffff161415612cb5576040517f08c379a0000000000000000000000000000000000000000000000000000000008152600401612cac9061416f565b60405180910390fd5b612cbe8161259f565b15612cfe576040517f08c379a0000000000000000000000000000000000000000000000000000000008152600401612cf590613fcf565b60405180910390fd5b612d0a60008383612e13565b6001600360008473ffffffffffffffffffffffffffffffffffffffff1673ffffffffffffffffffffffffffffffffffffffff1681526020019081526020016000206000828254612d5a919061440b565b92505081905550816002600083815260200190815260200160002060006101000a81548173ffffffffffffffffffffffffffffffffffffffff021916908373ffffffffffffffffffffffffffffffffffffffff160217905550808273ffffffffffffffffffffffffffffffffffffffff16600073ffffffffffffffffffffffffffffffffffffffff167fddf252ad1be2c89b69c2b068fc378daa952ba7f163c4a11628f55a4df523b3ef60405160405180910390a45050565b505050565b6000612e398473ffffffffffffffffffffffffffffffffffffffff16612fe7565b15612fda578373ffffffffffffffffffffffffffffffffffffffff1663150b7a02612e6261260b565b8786866040518563ffffffff167c0100000000000000000000000000000000000000000000000000000000028152600401612ea09493929190613ea7565b602060405180830381600087803b158015612eba57600080fd5b505af1925050508015612eeb57506040513d601f19601f82011682018060405250810190612ee8919061337d565b60015b612f6e573d8060008114612f1b576040519150601f19603f3d011682016040523d82523d6000602084013e612f20565b606091505b50600081511415612f66576040517f08c379a0000000000000000000000000000000000000000000000000000000008152600401612f5d90613f8f565b60405180910390fd5b805181602001fd5b63150b7a027c0100000000000000000000000000000000000000000000000000000000027bffffffffffffffffffffffffffffffffffffffffffffffffffffffff1916817bffffffffffffffffffffffffffffffffffffffffffffffffffffffff191614915050612fdf565b600190505b949350505050565b600080823b905060008111915050919050565b6040518060600160405280600063ffffffff168152602001600063ffffffff16815260200160006003811115613059577f4e487b7100000000000000000000000000000000000000000000000000000000600052602160045260246000fd5b81525090565b600061307261306d84614368565b614337565b90508281526020810184848401111561308a57600080fd5b613095848285614674565b509392505050565b60006130b06130ab84614398565b614337565b9050828152602081018484840111156130c857600080fd5b6130d3848285614674565b509392505050565b6000813590506130ea816148b0565b92915050565b6000813590506130ff816148c7565b92915050565b600081359050613114816148de565b92915050565b600081519050613129816148de565b92915050565b600082601f83011261314057600080fd5b813561315084826020860161305f565b91505092915050565b600081359050613168816148f5565b92915050565b600082601f83011261317f57600080fd5b813561318f84826020860161309d565b91505092915050565b6000813590506131a781614905565b92915050565b6000602082840312156131bf57600080fd5b60006131cd848285016130db565b91505092915050565b600080604083850312156131e957600080fd5b60006131f7858286016130db565b9250506020613208858286016130db565b9150509250929050565b60008060006060848603121561322757600080fd5b6000613235868287016130db565b9350506020613246868287016130db565b925050604061325786828701613198565b9150509250925092565b6000806000806080858703121561327757600080fd5b6000613285878288016130db565b9450506020613296878288016130db565b93505060406132a787828801613198565b925050606085013567ffffffffffffffff8111156132c457600080fd5b6132d08782880161312f565b91505092959194509250565b600080604083850312156132ef57600080fd5b60006132fd858286016130db565b925050602061330e858286016130f0565b9150509250929050565b6000806040838503121561332b57600080fd5b6000613339858286016130db565b925050602061334a85828601613198565b9150509250929050565b60006020828403121561336657600080fd5b600061337484828501613105565b91505092915050565b60006020828403121561338f57600080fd5b600061339d8482850161311a565b91505092915050565b6000602082840312156133b857600080fd5b60006133c684828501613159565b91505092915050565b6000602082840312156133e157600080fd5b60006133ef84828501613198565b91505092915050565b6000806040838503121561340b57600080fd5b600061341985828601613198565b925050602083013567ffffffffffffffff81111561343657600080fd5b6134428582860161316e565b9150509250929050565b6134558161461a565b82525050565b61346481614563565b82525050565b61347381614551565b82525050565b61348281614575565b82525050565b6000613493826143c8565b61349d81856143de565b93506134ad818560208601614683565b6134b681614877565b840191505092915050565b6134ca8161462c565b82525050565b6134d98161463e565b82525050565b60006134ea826143d3565b6134f481856143ef565b9350613504818560208601614683565b61350d81614877565b840191505092915050565b6000613523826143d3565b61352d8185614400565b935061353d818560208601614683565b80840191505092915050565b60006135566032836143ef565b91507f4552433732313a207472616e7366657220746f206e6f6e20455243373231526560008301527f63656976657220696d706c656d656e74657200000000000000000000000000006020830152604082019050919050565b60006135bc6021836143ef565b91507f43616e206f6e6c7920626520657865637574656420627920746865206f776e6560008301527f72000000000000000000000000000000000000000000000000000000000000006020830152604082019050919050565b6000613622601c836143ef565b91507f4552433732313a20746f6b656e20616c7265616479206d696e746564000000006000830152602082019050919050565b6000613662601c836143ef565b91507f5469636b65742068617320616c7265616479206265656e2075736564000000006000830152602082019050919050565b60006136a26025836143ef565b91507f43616e6e6f7420657865637574652066756e6374696f6e20617420746869732060008301527f73746167650000000000000000000000000000000000000000000000000000006020830152604082019050919050565b60006137086018836143ef565b91507f5468657265206172652030207469636b657473206c65667400000000000000006000830152602082019050919050565b60006137486024836143ef565b91507f4552433732313a207472616e7366657220746f20746865207a65726f2061646460008301527f72657373000000000000000000000000000000000000000000000000000000006020830152604082019050919050565b60006137ae6019836143ef565b91507f4552433732313a20617070726f766520746f2063616c6c6572000000000000006000830152602082019050919050565b60006137ee602c836143ef565b91507f4552433732313a206f70657261746f7220717565727920666f72206e6f6e657860008301527f697374656e7420746f6b656e00000000000000000000000000000000000000006020830152604082019050919050565b60006138546025836143ef565b91507f4e6f7420656e6f756768206d6f6e657920746f2070757263686173652061207460008301527f69636b65740000000000000000000000000000000000000000000000000000006020830152604082019050919050565b60006138ba601d836143ef565b91507f5469636b6574206e6f7420617661696c61626c6520666f722073616c650000006000830152602082019050919050565b60006138fa6026836143ef565b91507f5468657265206973206e6f2076616c6964207469636b657420666f722074686960008301527f73207573657200000000000000000000000000000000000000000000000000006020830152604082019050919050565b60006139606038836143ef565b91507f4552433732313a20617070726f76652063616c6c6572206973206e6f74206f7760008301527f6e6572206e6f7220617070726f76656420666f7220616c6c00000000000000006020830152604082019050919050565b60006139c6602a836143ef565b91507f4552433732313a2062616c616e636520717565727920666f7220746865207a6560008301527f726f2061646472657373000000000000000000000000000000000000000000006020830152604082019050919050565b6000613a2c6029836143ef565b91507f4552433732313a206f776e657220717565727920666f72206e6f6e657869737460008301527f656e7420746f6b656e00000000000000000000000000000000000000000000006020830152604082019050919050565b6000613a926020836143ef565b91507f4552433732313a206d696e7420746f20746865207a65726f20616464726573736000830152602082019050919050565b6000613ad2602c836143ef565b91507f4552433732313a20617070726f76656420717565727920666f72206e6f6e657860008301527f697374656e7420746f6b656e00000000000000000000000000000000000000006020830152604082019050919050565b6000613b386029836143ef565b91507f4552433732313a207472616e73666572206f6620746f6b656e2074686174206960008301527f73206e6f74206f776e00000000000000000000000000000000000000000000006020830152604082019050919050565b6000613b9e602f836143ef565b91507f4552433732314d657461646174613a2055524920717565727920666f72206e6f60008301527f6e6578697374656e7420746f6b656e00000000000000000000000000000000006020830152604082019050919050565b6000613c046022836143ef565b91507f4e6f206d6f6e657920696e20736d61727420636f6e7472616374206163636f7560008301527f6e740000000000000000000000000000000000000000000000000000000000006020830152604082019050919050565b6000613c6a6021836143ef565b91507f4552433732313a20617070726f76616c20746f2063757272656e74206f776e6560008301527f72000000000000000000000000000000000000000000000000000000000000006020830152604082019050919050565b6000613cd06031836143ef565b91507f4552433732313a207472616e736665722063616c6c6572206973206e6f74206f60008301527f776e6572206e6f7220617070726f7665640000000000000000000000000000006020830152604082019050919050565b6000613d36601f836143ef565b91507f43616e6e6f7420627579207469636b65742061742074686973207374616765006000830152602082019050919050565b6000613d76601d836143ef565b91507f4661696c656420746f2073656e6420657468657220746f206f776e65720000006000830152602082019050919050565b6000613db6601d836143ef565b91507f5573657220646f6573206e6f74206f776e2074686973207469636b65740000006000830152602082019050919050565b613df2816145f3565b82525050565b613e01816145fd565b82525050565b613e108161460d565b82525050565b6000613e228285613518565b9150613e2e8284613518565b91508190509392505050565b6000602082019050613e4f600083018461346a565b92915050565b6000602082019050613e6a600083018461345b565b92915050565b6000606082019050613e85600083018661344c565b613e92602083018561346a565b613e9f6040830184613de9565b949350505050565b6000608082019050613ebc600083018761346a565b613ec9602083018661346a565b613ed66040830185613de9565b8181036060830152613ee88184613488565b905095945050505050565b6000604082019050613f08600083018561346a565b613f156020830184613de9565b9392505050565b6000602082019050613f316000830184613479565b92915050565b6000602082019050613f4c60008301846134c1565b92915050565b6000602082019050613f6760008301846134d0565b92915050565b60006020820190508181036000830152613f8781846134df565b905092915050565b60006020820190508181036000830152613fa881613549565b9050919050565b60006020820190508181036000830152613fc8816135af565b9050919050565b60006020820190508181036000830152613fe881613615565b9050919050565b6000602082019050818103600083015261400881613655565b9050919050565b6000602082019050818103600083015261402881613695565b9050919050565b60006020820190508181036000830152614048816136fb565b9050919050565b600060208201905081810360008301526140688161373b565b9050919050565b60006020820190508181036000830152614088816137a1565b9050919050565b600060208201905081810360008301526140a8816137e1565b9050919050565b600060208201905081810360008301526140c881613847565b9050919050565b600060208201905081810360008301526140e8816138ad565b9050919050565b60006020820190508181036000830152614108816138ed565b9050919050565b6000602082019050818103600083015261412881613953565b9050919050565b60006020820190508181036000830152614148816139b9565b9050919050565b6000602082019050818103600083015261416881613a1f565b9050919050565b6000602082019050818103600083015261418881613a85565b9050919050565b600060208201905081810360008301526141a881613ac5565b9050919050565b600060208201905081810360008301526141c881613b2b565b9050919050565b600060208201905081810360008301526141e881613b91565b9050919050565b6000602082019050818103600083015261420881613bf7565b9050919050565b6000602082019050818103600083015261422881613c5d565b9050919050565b6000602082019050818103600083015261424881613cc3565b9050919050565b6000602082019050818103600083015261426881613d29565b9050919050565b6000602082019050818103600083015261428881613d69565b9050919050565b600060208201905081810360008301526142a881613da9565b9050919050565b60006020820190506142c46000830184613de9565b92915050565b60006020820190506142df6000830184613df8565b92915050565b60006060820190506142fa6000830186613df8565b6143076020830185613df8565b61431460408301846134d0565b949350505050565b60006020820190506143316000830184613e07565b92915050565b6000604051905081810181811067ffffffffffffffff8211171561435e5761435d614848565b5b8060405250919050565b600067ffffffffffffffff82111561438357614382614848565b5b601f19601f8301169050602081019050919050565b600067ffffffffffffffff8211156143b3576143b2614848565b5b601f19601f8301169050602081019050919050565b600081519050919050565b600081519050919050565b600082825260208201905092915050565b600082825260208201905092915050565b600081905092915050565b6000614416826145f3565b9150614421836145f3565b9250827fffffffffffffffffffffffffffffffffffffffffffffffffffffffffffffffff038211156144565761445561478c565b5b828201905092915050565b600061446c826145f3565b9150614477836145f3565b925082614487576144866147bb565b5b828204905092915050565b600061449d8261460d565b91506144a88361460d565b9250826144b8576144b76147bb565b5b828204905092915050565b60006144ce826145f3565b91506144d9836145f3565b9250817fffffffffffffffffffffffffffffffffffffffffffffffffffffffffffffffff04831182151516156145125761451161478c565b5b828202905092915050565b6000614528826145f3565b9150614533836145f3565b9250828210156145465761454561478c565b5b828203905092915050565b600061455c826145d3565b9050919050565b600061456e826145d3565b9050919050565b60008115159050919050565b60007fffffffff0000000000000000000000000000000000000000000000000000000082169050919050565b60008190506145bb82614888565b919050565b60008190506145ce8261489c565b919050565b600073ffffffffffffffffffffffffffffffffffffffff82169050919050565b6000819050919050565b600063ffffffff82169050919050565b600060ff82169050919050565b600061462582614650565b9050919050565b6000614637826145ad565b9050919050565b6000614649826145c0565b9050919050565b600061465b82614662565b9050919050565b600061466d826145d3565b9050919050565b82818337600083830152505050565b60005b838110156146a1578082015181840152602081019050614686565b838111156146b0576000848401525b50505050565b60006146c1826145fd565b915060008214156146d5576146d461478c565b5b600182039050919050565b600060028204905060018216806146f857607f821691505b6020821081141561470c5761470b614819565b5b50919050565b600061471d826145f3565b91507fffffffffffffffffffffffffffffffffffffffffffffffffffffffffffffffff8214156147505761474f61478c565b5b600182019050919050565b6000614766826145f3565b9150614771836145f3565b925082614781576147806147bb565b5b828206905092915050565b7f4e487b7100000000000000000000000000000000000000000000000000000000600052601160045260246000fd5b7f4e487b7100000000000000000000000000000000000000000000000000000000600052601260045260246000fd5b7f4e487b7100000000000000000000000000000000000000000000000000000000600052602160045260246000fd5b7f4e487b7100000000000000000000000000000000000000000000000000000000600052602260045260246000fd5b7f4e487b7100000000000000000000000000000000000000000000000000000000600052604160045260246000fd5b6000601f19601f8301169050919050565b60068110614899576148986147ea565b5b50565b600481106148ad576148ac6147ea565b5b50565b6148b981614551565b81146148c457600080fd5b50565b6148d081614575565b81146148db57600080fd5b50565b6148e781614581565b81146148f257600080fd5b50565b6006811061490257600080fd5b50565b61490e816145f3565b811461491957600080fd5b5056fea2646970667358221220f86a6cac87c9e323ca4b6aca5f5ae9b9507a5fe8d62250d3ca7f963d3c1a7a2a64736f6c63430008000033",
  "immutableReferences": {},
  "source": "// SPDX-License-Identifier: UNLICENSED\r\npragma solidity 0.8.0;\r\nimport \"@openzeppelin/contracts/token/ERC721/ERC721.sol\";\r\n \r\n/// @title Factory Contract to create events\r\ncontract EventCreator {\r\n\r\n    // Created events\r\n    Event[] public events;\r\n\r\n    // EVENTS\r\n    event CreateEvent(address _creator, address _event);\r\n\r\n    /**\r\n     * @notice Creates Events\r\n     * @param _numTickets Number of tickets \r\n     * @param _price Price per ticket\r\n     * @param _canBeResold Are tickets allowed to be resold\r\n     * @param _royaltyPercent Royalty percentage accrued by organizers on reselling of ticket\r\n     * @param _eventName Name of the Ticket NFT\r\n     * @param _eventSymbol Symbol for the Ticket NFT Token\r\n     */\r\n    function createEvent(uint32 _numTickets, uint32 _price, bool _canBeResold, uint8 _royaltyPercent,\r\n            string memory _eventName, string memory _eventSymbol) external returns(address newEvent) {\r\n\r\n        // Create a new Event smart contract\r\n        // NOTE: 'new' keyword creates a new SC and returns address\r\n        Event e = new Event(msg.sender, _numTickets, _price, _canBeResold, _royaltyPercent, _eventName, _eventSymbol);\r\n        \r\n        // Store/return event address\r\n        events.push(e);\r\n        address eventAddress = address(e);\r\n        emit CreateEvent(msg.sender, eventAddress);\r\n\r\n        // QUESTION: I cannot return this because async??\r\n        return eventAddress;\r\n    }\r\n\r\n\r\n    /**\r\n     * @notice Retrieve number of events\r\n     */\r\n    function getEventCount() public view returns(uint contractCount) {\r\n        return events.length;\r\n    }\r\n\r\n    // Returns array of all events\r\n    function getEvents() external view returns(Event[] memory _events) {\r\n        _events = new Event[] (events.length);\r\n        for (uint i=0; i<events.length; i++){\r\n            _events[i] = events[i];\r\n        }\r\n\r\n        return _events;\r\n    }  \r\n}\r\n\r\n/// @title Contract to mint tickets of an event\r\ncontract Event is ERC721 {\r\n    /// Control Event Status at a granular level\r\n    /// Prep - Allows administrator to maintain event\r\n    /// Active - Buying tickets allowed\r\n    /// Paused - Buying tickets not allowed\r\n    /// CheckinOpen - Buyer can checkin to attend the event\r\n    /// Cancelled - Event is cancelled. Money can be refunded to buyers\r\n    /// Closed - Event is closed\r\n    enum Stages { Prep, Active, Paused, CheckinOpen, Cancelled, Closed }\r\n    Stages public stage = Stages.Prep;\r\n    \r\n    /// Control Ticket Status at a granular level\r\n    /// Invalid - Ticket is not valid\r\n    /// Valid - Ticket is Valid\r\n    /// Used - Ticket is used\r\n    /// AvailableForSale - Ticket is allowed to be sold to someone\r\n    enum TicketStatus { Invalid, Valid, Used, AvailableForSale }\r\n    \r\n    // Ticket struct \r\n    struct Ticket {\r\n        uint32 price;\r\n        uint32 resalePrice;\r\n        TicketStatus status;\r\n    }\r\n    Ticket[] public tickets;\r\n    uint32 public numTicketsLeft;\r\n    uint32 public price;\r\n    \r\n    /// Percent royalty event creator receives from ticket resales\r\n    uint8 public royaltyPercent;\r\n    \r\n    // For each user, store corresponding ticket struct\r\n    //mapping(address => Ticket) public tickets;\r\n    \r\n    bool public canBeResold;\r\n    address payable public owner;\r\n    \r\n    // to store the balances for buyers and organizers\r\n    mapping(address => uint) public balances;\r\n    mapping(address => bool) public isUserRefunded;\r\n\r\n    // EVENTS\r\n    event CreateTicket(address buyer, uint ticketID);\r\n    event WithdrawMoney(address receiver, uint money);\r\n    event OwnerWithdrawMoney(address owner, uint money);\r\n    event TicketUsed(string sQRCodeKey);\r\n    event TicketForSale(address seller, uint ticketID);\r\n    event TicketSold(address seller, address buyer, uint ticketID);\r\n\r\n    // Creates a new Event Contract\r\n    constructor(address _owner, uint32 _numTickets, uint32 _price, bool _canBeResold, uint8 _royaltyPercent,\r\n            string memory _eventName, string memory _eventSymbol) ERC721(_eventName, _eventSymbol) {\r\n        \r\n        // Check valid constructor arguments\r\n        require(_royaltyPercent >= 0 && _royaltyPercent <= 100, \"Royalty Percentage must be between 0 and 100\");\r\n        // Number of tickets must be greater than 0\r\n        require(_numTickets > 0, \"The number of tickets must be greater than 0\");\r\n        // EventName, EventSymbol cannot be empty string\r\n        bytes memory eventNameBytes = bytes(_eventName);\r\n        bytes memory eventSymbolBytes = bytes(_eventSymbol);\r\n        require(eventNameBytes.length != 0, \"Event Name cannot be empty\");\r\n        require(eventSymbolBytes.length != 0, \"Event Symbol cannot be empty\");\r\n        \r\n        owner = payable(_owner);\r\n        numTicketsLeft = _numTickets;\r\n        price = _price;\r\n        canBeResold = _canBeResold;\r\n        royaltyPercent = _royaltyPercent;\r\n    }\r\n\r\n    /**\r\n     * @notice Buy tickets\r\n     * @dev Checks: State is Active, has enough money\r\n     */\r\n    function buyTicket() public payable buyingTicketOpen ticketsLeft \r\n                                            hasEnoughMoney(msg.value) returns (uint){\r\n        // Create Ticket t\r\n        Ticket memory t;\r\n        t.price = price;\r\n        t.resalePrice = price;\r\n        t.status = TicketStatus.Valid;\r\n\r\n\r\n        // Store t in tickets array\r\n        tickets.push(t);\r\n        uint ticketID = tickets.length - 1;\r\n        numTicketsLeft--;\r\n\r\n        // Mint NFT\r\n        _mint(msg.sender, ticketID);\r\n        emit CreateTicket(msg.sender, ticketID);\r\n\r\n        // If user overpaid, add difference to balances\r\n        if (msg.value > price) {\r\n            balances[msg.sender] = msg.value - price;\r\n        }\r\n        \r\n        return ticketID;\r\n    }\r\n\r\n    /**\r\n     * @notice Change Status\r\n     * @dev Only owner can change state\r\n     * @param _stage Stages as set in enum Stages\r\n     */\r\n    function setStage(Stages _stage) public onlyOwner returns (Stages) {\r\n        stage = _stage;\r\n        return stage;\r\n    }\r\n    \r\n    /**\r\n     * @notice Mark ticket as used\r\n     * @dev Only a valid buyer can mark ticket as used\r\n     * @param sQRCodeKey QR Code key sent by the app \r\n     */\r\n    function setTicketToUsed(uint ticketID, string memory sQRCodeKey) public requiredStage(Stages.CheckinOpen)\r\n                                                                    ownsTicket(ticketID) returns (string memory){\r\n\t\t// Validate that user has a ticket they own and it is valid\r\n        require(tickets[ticketID].status == TicketStatus.Valid, \"There is no valid ticket for this user\");\r\n        \r\n        // Ticket is valid so mark it as used\r\n        tickets[ticketID].status = TicketStatus.Used;\r\n        \r\n        // Raise event which Gate Management system can consume then\r\n        emit TicketUsed(sQRCodeKey);\r\n        \r\n        return sQRCodeKey;\r\n\t}\r\n\r\n    /**\r\n     * @notice Mark ticket as used\r\n     * @dev Only a valid buyer can mark ticket as used\r\n     * @param ticketID ticket ID of ticket\r\n     */\r\n    function setTicketForSale(uint ticketID) public requiredStage(Stages.Active) ownsTicket(ticketID) {\r\n\t\t// Validate that user has a ticket they own and it is valid\r\n        require(tickets[ticketID].status != TicketStatus.Used, \"Ticket has already been used\");\r\n        \r\n        // Ticket is valid so mark it as used\r\n        tickets[ticketID].status = TicketStatus.AvailableForSale;\r\n        \r\n        // Raise event which Gate Management system can consume then\r\n        emit TicketForSale(msg.sender, ticketID);\r\n        \r\n        //return ticketID;\r\n\t}\r\n\r\n     /**\r\n     * @dev get ticket status\r\n     */\r\n    function getTicketStatus(uint ticketID) public view returns (TicketStatus) {\r\n        return tickets[ticketID].status;\r\n    }\r\n\r\n\t\r\n    // TODO - WHY DO WE NEED REFUND? \r\n    /**\r\n     * @notice Refund money to buyers\r\n     * @dev once the event is cancelled, organizer should refund money to buyers\r\n     */\r\n    function ownerWithdraw() public onlyOwner requiredStage(Stages.Closed) returns (bool success){\r\n        uint contractBalance = address(this).balance;\r\n        require(contractBalance > 0, \"No money in smart contract account\");\r\n        \r\n        // Transfer money to owner\r\n        bool sent = owner.send(contractBalance);\r\n        // Failure condition if cannot transfer\r\n        require(sent, \"Failed to send ether to owner\");\r\n\r\n        emit OwnerWithdrawMoney(msg.sender, contractBalance);\r\n\r\n        return true;\r\n    }\r\n\r\n    // // TODO: DOES THIS NEED TO RETURN BOOLEAN? IF IT FAILS THERE WILL BE AN ERROR\r\n    // /**\r\n    //  * @notice User to withdraw money \r\n    //  * @dev User can withdraw money if event cancelled or overpaid for ticket\r\n    //  */\r\n    // function withdraw() public returns (bool success) {\r\n    //     // Amount to send to user\r\n    //     uint sendToUser = balances[msg.sender];\r\n\r\n    //     // Update balance before sending money\r\n    //     balances[msg.sender] = 0;\r\n        \r\n    //     // If event cancelled, send user the amount they overpaid for ticket + ticket price refund\r\n    //     if ((stage == Stages.Cancelled || stage == Stages.Paused) && isUserRefunded[msg.sender] == false) {\r\n    //         // Update isUserRefunded before sending money\r\n    //         isUserRefunded[msg.sender] = true;\r\n    //         sendToUser += price;\r\n    //     }\r\n\r\n    //     // Cannot withdraw if no money to withdraw\r\n    //     require(sendToUser > 0, \"User does not have money to withdraw\");\r\n\r\n    //     // Transfer money to user\r\n    //     address payable receiver = payable(msg.sender);\r\n    //     bool sent = receiver.send(sendToUser);\r\n    //     // Failure condition of send will emit this error\r\n    //     require(sent, \"Failed to send ether to user\");\r\n\r\n    //     emit WithdrawMoney(msg.sender, sendToUser);\r\n        \r\n    //     return true;\r\n    // }\r\n\r\n    /**\r\n     * @dev approve a buyer to buy ticket of another user\r\n     */\r\n    function approveAsBuyer(address buyer, uint ticketID) public requiredStage(Stages.Active) ownsTicket(ticketID) {\r\n        approve(buyer, ticketID);\r\n    }\r\n\r\n    /**\r\n     * @notice Mark ticket as used\r\n     * @dev Only a valid buyer can mark ticket as used\r\n     * @param ticketID ticket ID of ticket\r\n     */\r\n    function buyTicketFromUser(uint ticketID) public payable requiredStage(Stages.Active) hasEnoughMoney(msg.value) returns (bool) {\r\n        // Check if ticket is available for sale\r\n        require(tickets[ticketID].status == TicketStatus.AvailableForSale, \"Ticket not available for sale\");\r\n\r\n        //calc amount to pay after royalty\r\n        uint ticketPrice = tickets[ticketID].price;\r\n        uint royalty = (royaltyPercent/100) * ticketPrice;\r\n        uint priceToPay = ticketPrice - royalty;\r\n\r\n        //transfer money to seller\r\n        address payable seller =  payable(ownerOf(ticketID));\r\n        seller.transfer(priceToPay);\r\n        // bool sent = seller.send(price);\r\n\r\n        // require(sent, \"Failed to send ether to user\");\r\n\r\n        emit TicketSold(seller, msg.sender, ticketID);\r\n        safeTransferFrom(seller, msg.sender, ticketID);\r\n\r\n        return true;\r\n\r\n    }\r\n\r\n\r\n    // MODIFIERS\r\n\r\n    // Only owner\r\n    modifier onlyOwner() {\r\n        require(msg.sender == owner, \"Can only be executed by the owner\");\r\n        _;\r\n    }\r\n\r\n    // Requires stage to be _stage\r\n    modifier requiredStage(Stages _stage) {\r\n        require(stage == _stage, \"Cannot execute function at this stage\");\r\n        _;\r\n    }\r\n    \r\n    // Check if buying is open\r\n    modifier buyingTicketOpen() {\r\n        require(stage == Stages.Active || stage == Stages.CheckinOpen, \"Cannot buy ticket at this stage\");\r\n        _;\r\n    }\r\n\r\n    // Requires there to be more than 0 tickets left\r\n    modifier ticketsLeft() {\r\n        require(numTicketsLeft > 0, \"There are 0 tickets left\");\r\n        _;\r\n    }\r\n\r\n    // Requires user to have enough money to purchase ticket\r\n    modifier hasEnoughMoney(uint money) {\r\n        require(money >= price, \"Not enough money to purchase a ticket\");\r\n        _;\r\n    }\r\n\r\n    // Check if user is ticket owner\r\n    modifier ownsTicket(uint ticketID) {\r\n        require(ownerOf(ticketID) == msg.sender, \"User does not own this ticket\");\r\n        _;\r\n    }\r\n    \r\n}\r\n\r\n",
  "sourcePath": "C:/Users/ManTheMith/Desktop/COMP6452/proj/comp6452-nft/src/contracts/Event.sol",
  "compiler": {
    "name": "solc",
    "version": "0.8.0+commit.c7dfd78e.Emscripten.clang"
  },
  "schemaVersion": "3.4.1",
  "updatedAt": "2021-07-24T05:23:14.256Z",
  "networkType": "ethereum",
  "devdoc": {
    "kind": "dev",
    "methods": {
      "approve(address,uint256)": {
        "details": "See {IERC721-approve}."
      },
      "approveAsBuyer(address,uint256)": {
        "details": "approve a buyer to buy ticket of another user"
      },
      "balanceOf(address)": {
        "details": "See {IERC721-balanceOf}."
      },
      "buyTicket()": {
        "details": "Checks: State is Active, has enough money"
      },
      "buyTicketFromUser(uint256)": {
        "details": "Only a valid buyer can mark ticket as used",
        "params": {
          "ticketID": "ticket ID of ticket"
        }
      },
      "getApproved(uint256)": {
        "details": "See {IERC721-getApproved}."
      },
      "getTicketStatus(uint256)": {
        "details": "get ticket status"
      },
      "isApprovedForAll(address,address)": {
        "details": "See {IERC721-isApprovedForAll}."
      },
      "name()": {
        "details": "See {IERC721Metadata-name}."
      },
      "ownerOf(uint256)": {
        "details": "See {IERC721-ownerOf}."
      },
      "ownerWithdraw()": {
        "details": "once the event is cancelled, organizer should refund money to buyers"
      },
      "safeTransferFrom(address,address,uint256)": {
        "details": "See {IERC721-safeTransferFrom}."
      },
      "safeTransferFrom(address,address,uint256,bytes)": {
        "details": "See {IERC721-safeTransferFrom}."
      },
      "setApprovalForAll(address,bool)": {
        "details": "See {IERC721-setApprovalForAll}."
      },
      "setStage(uint8)": {
        "details": "Only owner can change state",
        "params": {
          "_stage": "Stages as set in enum Stages"
        }
      },
      "setTicketForSale(uint256)": {
        "details": "Only a valid buyer can mark ticket as used",
        "params": {
          "ticketID": "ticket ID of ticket"
        }
      },
      "setTicketToUsed(uint256,string)": {
        "details": "Only a valid buyer can mark ticket as used",
        "params": {
          "sQRCodeKey": "QR Code key sent by the app "
        }
      },
      "supportsInterface(bytes4)": {
        "details": "See {IERC165-supportsInterface}."
      },
      "symbol()": {
        "details": "See {IERC721Metadata-symbol}."
      },
      "tokenURI(uint256)": {
        "details": "See {IERC721Metadata-tokenURI}."
      },
      "transferFrom(address,address,uint256)": {
        "details": "See {IERC721-transferFrom}."
      }
    },
    "title": "Contract to mint tickets of an event",
    "version": 1
  },
  "userdoc": {
    "kind": "user",
    "methods": {
      "buyTicket()": {
        "notice": "Buy tickets"
      },
      "buyTicketFromUser(uint256)": {
        "notice": "Mark ticket as used"
      },
      "ownerWithdraw()": {
        "notice": "Refund money to buyers"
      },
      "royaltyPercent()": {
        "notice": "Percent royalty event creator receives from ticket resales"
      },
      "setStage(uint8)": {
        "notice": "Change Status"
      },
      "setTicketForSale(uint256)": {
        "notice": "Mark ticket as used"
      },
      "setTicketToUsed(uint256,string)": {
        "notice": "Mark ticket as used"
      }
    },
    "version": 1
  }
}