{
  "contractName": "Event",
  "abi": [
    {
      "inputs": [
        {
          "internalType": "address",
          "name": "_owner",
          "type": "address"
        },
        {
          "internalType": "uint32",
          "name": "_numTickets",
          "type": "uint32"
        },
        {
          "internalType": "uint32",
          "name": "_price",
          "type": "uint32"
        },
        {
          "internalType": "bool",
          "name": "_canBeResold",
          "type": "bool"
        },
        {
          "internalType": "uint8",
          "name": "_royaltyPercent",
          "type": "uint8"
        },
        {
          "internalType": "string",
          "name": "_eventName",
          "type": "string"
        },
        {
          "internalType": "string",
          "name": "_eventSymbol",
          "type": "string"
        }
      ],
      "stateMutability": "nonpayable",
      "type": "constructor"
    },
    {
      "anonymous": false,
      "inputs": [
        {
          "indexed": true,
          "internalType": "address",
          "name": "owner",
          "type": "address"
        },
        {
          "indexed": true,
          "internalType": "address",
          "name": "approved",
          "type": "address"
        },
        {
          "indexed": true,
          "internalType": "uint256",
          "name": "tokenId",
          "type": "uint256"
        }
      ],
      "name": "Approval",
      "type": "event"
    },
    {
      "anonymous": false,
      "inputs": [
        {
          "indexed": true,
          "internalType": "address",
          "name": "owner",
          "type": "address"
        },
        {
          "indexed": true,
          "internalType": "address",
          "name": "operator",
          "type": "address"
        },
        {
          "indexed": false,
          "internalType": "bool",
          "name": "approved",
          "type": "bool"
        }
      ],
      "name": "ApprovalForAll",
      "type": "event"
    },
    {
      "anonymous": false,
      "inputs": [
        {
          "indexed": false,
          "internalType": "address",
          "name": "contractAddress",
          "type": "address"
        },
        {
          "indexed": false,
          "internalType": "string",
          "name": "eventName",
          "type": "string"
        },
        {
          "indexed": false,
          "internalType": "address",
          "name": "buyer",
          "type": "address"
        },
        {
          "indexed": false,
          "internalType": "uint256",
          "name": "ticketID",
          "type": "uint256"
        }
      ],
      "name": "CreateTicket",
      "type": "event"
    },
    {
      "anonymous": false,
      "inputs": [
        {
          "indexed": false,
          "internalType": "address",
          "name": "owner",
          "type": "address"
        },
        {
          "indexed": false,
          "internalType": "uint256",
          "name": "money",
          "type": "uint256"
        }
      ],
      "name": "OwnerWithdrawMoney",
      "type": "event"
    },
    {
      "anonymous": false,
      "inputs": [
        {
          "indexed": false,
          "internalType": "address",
          "name": "seller",
          "type": "address"
        },
        {
          "indexed": false,
          "internalType": "uint256",
          "name": "ticketID",
          "type": "uint256"
        }
      ],
      "name": "TicketForSale",
      "type": "event"
    },
    {
      "anonymous": false,
      "inputs": [
        {
          "indexed": false,
          "internalType": "address",
          "name": "contractAddress",
          "type": "address"
        },
        {
          "indexed": false,
          "internalType": "string",
          "name": "eventName",
          "type": "string"
        },
        {
          "indexed": false,
          "internalType": "address",
          "name": "buyer",
          "type": "address"
        },
        {
          "indexed": false,
          "internalType": "uint256",
          "name": "ticketID",
          "type": "uint256"
        }
      ],
      "name": "TicketSold",
      "type": "event"
    },
    {
      "anonymous": false,
      "inputs": [
        {
          "indexed": false,
          "internalType": "address",
          "name": "contractAddress",
          "type": "address"
        },
        {
          "indexed": false,
          "internalType": "uint256",
          "name": "ticketID",
          "type": "uint256"
        },
        {
          "indexed": false,
          "internalType": "string",
          "name": "eventName",
          "type": "string"
        },
        {
          "indexed": false,
          "internalType": "string",
          "name": "sQRCodeKey",
          "type": "string"
        }
      ],
      "name": "TicketUsed",
      "type": "event"
    },
    {
      "anonymous": false,
      "inputs": [
        {
          "indexed": true,
          "internalType": "address",
          "name": "from",
          "type": "address"
        },
        {
          "indexed": true,
          "internalType": "address",
          "name": "to",
          "type": "address"
        },
        {
          "indexed": true,
          "internalType": "uint256",
          "name": "tokenId",
          "type": "uint256"
        }
      ],
      "name": "Transfer",
      "type": "event"
    },
    {
      "anonymous": false,
      "inputs": [
        {
          "indexed": false,
          "internalType": "address",
          "name": "receiver",
          "type": "address"
        },
        {
          "indexed": false,
          "internalType": "uint256",
          "name": "money",
          "type": "uint256"
        }
      ],
      "name": "WithdrawMoney",
      "type": "event"
    },
    {
      "inputs": [
        {
          "internalType": "address",
          "name": "to",
          "type": "address"
        },
        {
          "internalType": "uint256",
          "name": "tokenId",
          "type": "uint256"
        }
      ],
      "name": "approve",
      "outputs": [],
      "stateMutability": "nonpayable",
      "type": "function"
    },
    {
      "inputs": [
        {
          "internalType": "address",
          "name": "owner",
          "type": "address"
        }
      ],
      "name": "balanceOf",
      "outputs": [
        {
          "internalType": "uint256",
          "name": "",
          "type": "uint256"
        }
      ],
      "stateMutability": "view",
      "type": "function"
    },
    {
      "inputs": [
        {
          "internalType": "address",
          "name": "",
          "type": "address"
        }
      ],
      "name": "balances",
      "outputs": [
        {
          "internalType": "uint256",
          "name": "",
          "type": "uint256"
        }
      ],
      "stateMutability": "view",
      "type": "function"
    },
    {
      "inputs": [],
      "name": "canBeResold",
      "outputs": [
        {
          "internalType": "bool",
          "name": "",
          "type": "bool"
        }
      ],
      "stateMutability": "view",
      "type": "function"
    },
    {
      "inputs": [
        {
          "internalType": "uint256",
          "name": "tokenId",
          "type": "uint256"
        }
      ],
      "name": "getApproved",
      "outputs": [
        {
          "internalType": "address",
          "name": "",
          "type": "address"
        }
      ],
      "stateMutability": "view",
      "type": "function"
    },
    {
      "inputs": [
        {
          "internalType": "address",
          "name": "owner",
          "type": "address"
        },
        {
          "internalType": "address",
          "name": "operator",
          "type": "address"
        }
      ],
      "name": "isApprovedForAll",
      "outputs": [
        {
          "internalType": "bool",
          "name": "",
          "type": "bool"
        }
      ],
      "stateMutability": "view",
      "type": "function"
    },
    {
      "inputs": [],
      "name": "isCancelled",
      "outputs": [
        {
          "internalType": "bool",
          "name": "",
          "type": "bool"
        }
      ],
      "stateMutability": "view",
      "type": "function"
    },
    {
      "inputs": [
        {
          "internalType": "address",
          "name": "",
          "type": "address"
        }
      ],
      "name": "isUserRefund",
      "outputs": [
        {
          "internalType": "bool",
          "name": "",
          "type": "bool"
        }
      ],
      "stateMutability": "view",
      "type": "function"
    },
    {
      "inputs": [],
      "name": "name",
      "outputs": [
        {
          "internalType": "string",
          "name": "",
          "type": "string"
        }
      ],
      "stateMutability": "view",
      "type": "function"
    },
    {
      "inputs": [],
      "name": "numTicketsLeft",
      "outputs": [
        {
          "internalType": "uint32",
          "name": "",
          "type": "uint32"
        }
      ],
      "stateMutability": "view",
      "type": "function"
    },
    {
      "inputs": [],
      "name": "owner",
      "outputs": [
        {
          "internalType": "address payable",
          "name": "",
          "type": "address"
        }
      ],
      "stateMutability": "view",
      "type": "function"
    },
    {
      "inputs": [
        {
          "internalType": "uint256",
          "name": "tokenId",
          "type": "uint256"
        }
      ],
      "name": "ownerOf",
      "outputs": [
        {
          "internalType": "address",
          "name": "",
          "type": "address"
        }
      ],
      "stateMutability": "view",
      "type": "function"
    },
    {
      "inputs": [],
      "name": "price",
      "outputs": [
        {
          "internalType": "uint32",
          "name": "",
          "type": "uint32"
        }
      ],
      "stateMutability": "view",
      "type": "function"
    },
    {
      "inputs": [
        {
          "internalType": "uint256",
          "name": "",
          "type": "uint256"
        }
      ],
      "name": "registeredBuyers",
      "outputs": [
        {
          "internalType": "address",
          "name": "",
          "type": "address"
        }
      ],
      "stateMutability": "view",
      "type": "function"
    },
    {
      "inputs": [],
      "name": "royaltyPercent",
      "outputs": [
        {
          "internalType": "uint8",
          "name": "",
          "type": "uint8"
        }
      ],
      "stateMutability": "view",
      "type": "function"
    },
    {
      "inputs": [
        {
          "internalType": "address",
          "name": "from",
          "type": "address"
        },
        {
          "internalType": "address",
          "name": "to",
          "type": "address"
        },
        {
          "internalType": "uint256",
          "name": "tokenId",
          "type": "uint256"
        }
      ],
      "name": "safeTransferFrom",
      "outputs": [],
      "stateMutability": "nonpayable",
      "type": "function"
    },
    {
      "inputs": [
        {
          "internalType": "address",
          "name": "from",
          "type": "address"
        },
        {
          "internalType": "address",
          "name": "to",
          "type": "address"
        },
        {
          "internalType": "uint256",
          "name": "tokenId",
          "type": "uint256"
        },
        {
          "internalType": "bytes",
          "name": "_data",
          "type": "bytes"
        }
      ],
      "name": "safeTransferFrom",
      "outputs": [],
      "stateMutability": "nonpayable",
      "type": "function"
    },
    {
      "inputs": [
        {
          "internalType": "address",
          "name": "operator",
          "type": "address"
        },
        {
          "internalType": "bool",
          "name": "approved",
          "type": "bool"
        }
      ],
      "name": "setApprovalForAll",
      "outputs": [],
      "stateMutability": "nonpayable",
      "type": "function"
    },
    {
      "inputs": [],
      "name": "stage",
      "outputs": [
        {
          "internalType": "enum Event.Stages",
          "name": "",
          "type": "uint8"
        }
      ],
      "stateMutability": "view",
      "type": "function"
    },
    {
      "inputs": [
        {
          "internalType": "bytes4",
          "name": "interfaceId",
          "type": "bytes4"
        }
      ],
      "name": "supportsInterface",
      "outputs": [
        {
          "internalType": "bool",
          "name": "",
          "type": "bool"
        }
      ],
      "stateMutability": "view",
      "type": "function"
    },
    {
      "inputs": [],
      "name": "symbol",
      "outputs": [
        {
          "internalType": "string",
          "name": "",
          "type": "string"
        }
      ],
      "stateMutability": "view",
      "type": "function"
    },
    {
      "inputs": [
        {
          "internalType": "uint256",
          "name": "",
          "type": "uint256"
        }
      ],
      "name": "tickets",
      "outputs": [
        {
          "internalType": "uint32",
          "name": "price",
          "type": "uint32"
        },
        {
          "internalType": "uint32",
          "name": "resalePrice",
          "type": "uint32"
        },
        {
          "internalType": "enum Event.TicketStatus",
          "name": "status",
          "type": "uint8"
        }
      ],
      "stateMutability": "view",
      "type": "function"
    },
    {
      "inputs": [
        {
          "internalType": "uint256",
          "name": "tokenId",
          "type": "uint256"
        }
      ],
      "name": "tokenURI",
      "outputs": [
        {
          "internalType": "string",
          "name": "",
          "type": "string"
        }
      ],
      "stateMutability": "view",
      "type": "function"
    },
    {
      "inputs": [],
      "name": "totalTickets",
      "outputs": [
        {
          "internalType": "uint32",
          "name": "",
          "type": "uint32"
        }
      ],
      "stateMutability": "view",
      "type": "function"
    },
    {
      "inputs": [
        {
          "internalType": "address",
          "name": "from",
          "type": "address"
        },
        {
          "internalType": "address",
          "name": "to",
          "type": "address"
        },
        {
          "internalType": "uint256",
          "name": "tokenId",
          "type": "uint256"
        }
      ],
      "name": "transferFrom",
      "outputs": [],
      "stateMutability": "nonpayable",
      "type": "function"
    },
    {
      "inputs": [],
      "name": "buyTicket",
      "outputs": [
        {
          "internalType": "uint256",
          "name": "",
          "type": "uint256"
        }
      ],
      "stateMutability": "payable",
      "type": "function"
    },
    {
      "inputs": [
        {
          "internalType": "uint256",
          "name": "ticketID",
          "type": "uint256"
        }
      ],
      "name": "buyTicketFromUser",
      "outputs": [
        {
          "internalType": "bool",
          "name": "",
          "type": "bool"
        }
      ],
      "stateMutability": "payable",
      "type": "function"
    },
    {
      "inputs": [
        {
          "internalType": "uint256",
          "name": "ticketID",
          "type": "uint256"
        },
        {
          "internalType": "string",
          "name": "sQRCodeKey",
          "type": "string"
        }
      ],
      "name": "setTicketToUsed",
      "outputs": [
        {
          "internalType": "string",
          "name": "",
          "type": "string"
        }
      ],
      "stateMutability": "nonpayable",
      "type": "function"
    },
    {
      "inputs": [
        {
          "internalType": "uint256",
          "name": "ticketID",
          "type": "uint256"
        },
        {
          "internalType": "uint32",
          "name": "resalePrice",
          "type": "uint32"
        }
      ],
      "name": "setTicketForSale",
      "outputs": [
        {
          "internalType": "bool",
          "name": "",
          "type": "bool"
        }
      ],
      "stateMutability": "nonpayable",
      "type": "function"
    },
    {
      "inputs": [],
      "name": "getTicketsCreated",
      "outputs": [
        {
          "components": [
            {
              "internalType": "uint32",
              "name": "price",
              "type": "uint32"
            },
            {
              "internalType": "uint32",
              "name": "resalePrice",
              "type": "uint32"
            },
            {
              "internalType": "enum Event.TicketStatus",
              "name": "status",
              "type": "uint8"
            }
          ],
          "internalType": "struct Event.Ticket[]",
          "name": "",
          "type": "tuple[]"
        }
      ],
      "stateMutability": "view",
      "type": "function"
    },
    {
      "inputs": [],
      "name": "ownerWithdraw",
      "outputs": [],
      "stateMutability": "nonpayable",
      "type": "function"
    },
    {
      "inputs": [],
      "name": "withdraw",
      "outputs": [],
      "stateMutability": "nonpayable",
      "type": "function"
    },
    {
      "inputs": [
        {
          "internalType": "address",
          "name": "buyer",
          "type": "address"
        },
        {
          "internalType": "uint256",
          "name": "ticketID",
          "type": "uint256"
        }
      ],
      "name": "approveAsBuyer",
      "outputs": [],
      "stateMutability": "nonpayable",
      "type": "function"
    },
    {
      "inputs": [
        {
          "internalType": "uint256",
          "name": "ticketID",
          "type": "uint256"
        }
      ],
      "name": "registerAsBuyer",
      "outputs": [],
      "stateMutability": "nonpayable",
      "type": "function"
    },
    {
      "inputs": [
        {
          "internalType": "uint256",
          "name": "ticketID",
          "type": "uint256"
        }
      ],
      "name": "getRegisteredBuyer",
      "outputs": [
        {
          "internalType": "address",
          "name": "",
          "type": "address"
        }
      ],
      "stateMutability": "view",
      "type": "function"
    },
    {
      "inputs": [
        {
          "internalType": "enum Event.Stages",
          "name": "_stage",
          "type": "uint8"
        }
      ],
      "name": "setStage",
      "outputs": [
        {
          "internalType": "enum Event.Stages",
          "name": "",
          "type": "uint8"
        }
      ],
      "stateMutability": "nonpayable",
      "type": "function"
    }
  ],
  "bytecode": "0x60806040526000600a553480156200001657600080fd5b50604051620064b8380380620064b883398181016040528101906200003c91906200046a565b8181816000908051906020019062000056929190620002ec565b5080600190805190602001906200006f929190620002ec565b50505060008360ff16101580156200008b575060648360ff1611155b620000cd576040517f08c379a0000000000000000000000000000000000000000000000000000000008152600401620000c4906200069d565b60405180910390fd5b60008663ffffffff161162000119576040517f08c379a00000000000000000000000000000000000000000000000000000000081526004016200011090620006bf565b60405180910390fd5b600082905060008290506000825114156200016b576040517f08c379a0000000000000000000000000000000000000000000000000000000008152600401620001629062000703565b60405180910390fd5b600081511415620001b3576040517f08c379a0000000000000000000000000000000000000000000000000000000008152600401620001aa90620006e1565b60405180910390fd5b88600960006101000a81548173ffffffffffffffffffffffffffffffffffffffff021916908373ffffffffffffffffffffffffffffffffffffffff16021790555087600860046101000a81548163ffffffff021916908363ffffffff16021790555087600860006101000a81548163ffffffff021916908363ffffffff160217905550866008806101000a81548163ffffffff021916908363ffffffff160217905550856008600d6101000a81548160ff021916908315150217905550846008600c6101000a81548160ff021916908360ff1602179055506000600660006101000a81548160ff02191690836005811115620002d8577f4e487b7100000000000000000000000000000000000000000000000000000000600052602160045260246000fd5b02179055505050505050505050506200092c565b828054620002fa9062000830565b90600052602060002090601f0160209004810192826200031e57600085556200036a565b82601f106200033957805160ff19168380011785556200036a565b828001600101855582156200036a579182015b82811115620003695782518255916020019190600101906200034c565b5b5090506200037991906200037d565b5090565b5b80821115620003985760008160009055506001016200037e565b5090565b6000620003b3620003ad8462000759565b62000725565b905082815260208101848484011115620003cc57600080fd5b620003d9848285620007fa565b509392505050565b600081519050620003f281620008c4565b92915050565b6000815190506200040981620008de565b92915050565b600082601f8301126200042157600080fd5b8151620004338482602086016200039c565b91505092915050565b6000815190506200044d81620008f8565b92915050565b600081519050620004648162000912565b92915050565b600080600080600080600060e0888a0312156200048657600080fd5b6000620004968a828b01620003e1565b9750506020620004a98a828b016200043c565b9650506040620004bc8a828b016200043c565b9550506060620004cf8a828b01620003f8565b9450506080620004e28a828b0162000453565b93505060a088015167ffffffffffffffff8111156200050057600080fd5b6200050e8a828b016200040f565b92505060c088015167ffffffffffffffff8111156200052c57600080fd5b6200053a8a828b016200040f565b91505092959891949750929550565b600062000558602c836200078c565b91507f526f79616c74792050657263656e74616765206d75737420626520626574776560008301527f656e203020616e642031303000000000000000000000000000000000000000006020830152604082019050919050565b6000620005c0602c836200078c565b91507f546865206e756d626572206f66207469636b657473206d75737420626520677260008301527f6561746572207468616e203000000000000000000000000000000000000000006020830152604082019050919050565b600062000628601c836200078c565b91507f4576656e742053796d626f6c2063616e6e6f7420626520656d707479000000006000830152602082019050919050565b60006200066a601a836200078c565b91507f4576656e74204e616d652063616e6e6f7420626520656d7074790000000000006000830152602082019050919050565b60006020820190508181036000830152620006b88162000549565b9050919050565b60006020820190508181036000830152620006da81620005b1565b9050919050565b60006020820190508181036000830152620006fc8162000619565b9050919050565b600060208201905081810360008301526200071e816200065b565b9050919050565b6000604051905081810181811067ffffffffffffffff821117156200074f576200074e62000895565b5b8060405250919050565b600067ffffffffffffffff82111562000777576200077662000895565b5b601f19601f8301169050602081019050919050565b600082825260208201905092915050565b6000620007aa82620007bd565b9050919050565b60008115159050919050565b600073ffffffffffffffffffffffffffffffffffffffff82169050919050565b600063ffffffff82169050919050565b600060ff82169050919050565b60005b838110156200081a578082015181840152602081019050620007fd565b838111156200082a576000848401525b50505050565b600060028204905060018216806200084957607f821691505b6020821081141562000860576200085f62000866565b5b50919050565b7f4e487b7100000000000000000000000000000000000000000000000000000000600052602260045260246000fd5b7f4e487b7100000000000000000000000000000000000000000000000000000000600052604160045260246000fd5b620008cf816200079d565b8114620008db57600080fd5b50565b620008e981620007b1565b8114620008f557600080fd5b50565b6200090381620007dd565b81146200090f57600080fd5b50565b6200091d81620007ed565b81146200092957600080fd5b50565b615b7c806200093c6000396000f3fe60806040526004361061022c576000357c0100000000000000000000000000000000000000000000000000000000900480638da5cb5b11610135578063a51bba8c116100bd578063c87b56dd1161008c578063c87b56dd146107fd578063ce3cd9971461083a578063dd11247e14610877578063e985e9c5146108a2578063edca914c146108df5761022c565b8063a51bba8c14610753578063b3874c0d1461077e578063b88d4fde146107a9578063c040e6b8146107d25761022c565b806395ee12211161010457806395ee1221146106805780639aecd64a146106ab5780639f67756d146106d4578063a035b1fe146106ff578063a22cb4651461072a5761022c565b80638da5cb5b146105c257806393bbd9df146105ed57806394d51fc01461061857806395d89b41146106555761022c565b80633ccfd60b116101b857806350b447121161018757806350b44712146104a357806356971370146104e25780636352211e1461051f57806370a082311461055c57806383047374146105995761022c565b80633ccfd60b1461040f57806342842e0e146104265780634311de8f1461044f5780634680a424146104665761022c565b8063095ea7b3116101ff578063095ea7b31461031357806318b3822f1461033c57806323b872dd1461037957806327e235e3146103a25780632f31707c146103df5761022c565b806301ffc9a71461023157806302216d331461026e57806306fdde03146102ab578063081812fc146102d6575b600080fd5b34801561023d57600080fd5b5061025860048036038101906102539190614152565b6108fd565b604051610265919061507c565b60405180910390f35b34801561027a57600080fd5b50610295600480360381019061029091906141cd565b6109df565b6040516102a29190614f10565b60405180910390f35b3480156102b757600080fd5b506102c0610a1c565b6040516102cd91906150b2565b60405180910390f35b3480156102e257600080fd5b506102fd60048036038101906102f891906141cd565b610aae565b60405161030a9190614f10565b60405180910390f35b34801561031f57600080fd5b5061033a60048036038101906103359190614116565b610b33565b005b34801561034857600080fd5b50610363600480360381019061035e91906141f6565b610c4b565b60405161037091906150b2565b60405180910390f35b34801561038557600080fd5b506103a0600480360381019061039b9190614010565b610f7c565b005b3480156103ae57600080fd5b506103c960048036038101906103c49190613fab565b610fdc565b6040516103d691906154b4565b60405180910390f35b6103f960048036038101906103f491906141cd565b610ff4565b604051610406919061507c565b60405180910390f35b34801561041b57600080fd5b50610424611488565b005b34801561043257600080fd5b5061044d60048036038101906104489190614010565b6117d5565b005b34801561045b57600080fd5b506104646117f5565b005b34801561047257600080fd5b5061048d60048036038101906104889190613fab565b611b42565b60405161049a919061507c565b60405180910390f35b3480156104af57600080fd5b506104ca60048036038101906104c591906141cd565b611b62565b6040516104d9939291906154ea565b60405180910390f35b3480156104ee57600080fd5b506105096004803603810190610504919061424a565b611bc5565b604051610516919061507c565b60405180910390f35b34801561052b57600080fd5b50610546600480360381019061054191906141cd565b611fa0565b6040516105539190614f10565b60405180910390f35b34801561056857600080fd5b50610583600480360381019061057e9190613fab565b612052565b60405161059091906154b4565b60405180910390f35b3480156105a557600080fd5b506105c060048036038101906105bb91906141cd565b61210a565b005b3480156105ce57600080fd5b506105d76122c5565b6040516105e49190614f2b565b60405180910390f35b3480156105f957600080fd5b506106026122eb565b60405161060f919061505a565b60405180910390f35b34801561062457600080fd5b5061063f600480360381019061063a91906141cd565b612419565b60405161064c9190614f10565b60405180910390f35b34801561066157600080fd5b5061066a61244c565b60405161067791906150b2565b60405180910390f35b34801561068c57600080fd5b506106956124de565b6040516106a2919061507c565b60405180910390f35b3480156106b757600080fd5b506106d260048036038101906106cd9190614116565b6124f1565b005b3480156106e057600080fd5b506106e9612644565b6040516106f69190615521565b60405180910390f35b34801561070b57600080fd5b50610714612657565b60405161072191906154cf565b60405180910390f35b34801561073657600080fd5b50610751600480360381019061074c91906140da565b61266b565b005b34801561075f57600080fd5b506107686127ec565b60405161077591906154cf565b60405180910390f35b34801561078a57600080fd5b50610793612802565b6040516107a0919061507c565b60405180910390f35b3480156107b557600080fd5b506107d060048036038101906107cb919061405f565b612815565b005b3480156107de57600080fd5b506107e7612877565b6040516107f49190615097565b60405180910390f35b34801561080957600080fd5b50610824600480360381019061081f91906141cd565b61288a565b60405161083191906150b2565b60405180910390f35b34801561084657600080fd5b50610861600480360381019061085c91906141a4565b612931565b60405161086e9190615097565b60405180910390f35b34801561088357600080fd5b5061088c612b6c565b60405161089991906154cf565b60405180910390f35b3480156108ae57600080fd5b506108c960048036038101906108c49190613fd4565b612b82565b6040516108d6919061507c565b60405180910390f35b6108e7612c16565b6040516108f491906154b4565b60405180910390f35b60007f80ac58cd000000000000000000000000000000000000000000000000000000007bffffffffffffffffffffffffffffffffffffffffffffffffffffffff1916827bffffffffffffffffffffffffffffffffffffffffffffffffffffffff191614806109c857507f5b5e139f000000000000000000000000000000000000000000000000000000007bffffffffffffffffffffffffffffffffffffffffffffffffffffffff1916827bffffffffffffffffffffffffffffffffffffffffffffffffffffffff1916145b806109d857506109d782613194565b5b9050919050565b6000600d600083815260200190815260200160002060009054906101000a900473ffffffffffffffffffffffffffffffffffffffff169050919050565b606060008054610a2b906158f3565b80601f0160208091040260200160405190810160405280929190818152602001828054610a57906158f3565b8015610aa45780601f10610a7957610100808354040283529160200191610aa4565b820191906000526020600020905b815481529060010190602001808311610a8757829003601f168201915b5050505050905090565b6000610ab9826131fe565b610af8576040517f08c379a0000000000000000000000000000000000000000000000000000000008152600401610aef90615374565b60405180910390fd5b6004600083815260200190815260200160002060009054906101000a900473ffffffffffffffffffffffffffffffffffffffff169050919050565b6000610b3e82611fa0565b90508073ffffffffffffffffffffffffffffffffffffffff168373ffffffffffffffffffffffffffffffffffffffff161415610baf576040517f08c379a0000000000000000000000000000000000000000000000000000000008152600401610ba6906153d4565b60405180910390fd5b8073ffffffffffffffffffffffffffffffffffffffff16610bce61326a565b73ffffffffffffffffffffffffffffffffffffffff161480610bfd5750610bfc81610bf761326a565b612b82565b5b610c3c576040517f08c379a0000000000000000000000000000000000000000000000000000000008152600401610c33906152b4565b60405180910390fd5b610c468383613272565b505050565b60606003806005811115610c88577f4e487b7100000000000000000000000000000000000000000000000000000000600052602160045260246000fd5b600660009054906101000a900460ff166005811115610cd0577f4e487b7100000000000000000000000000000000000000000000000000000000600052602160045260246000fd5b14610d10576040517f08c379a0000000000000000000000000000000000000000000000000000000008152600401610d0790615194565b60405180910390fd5b833373ffffffffffffffffffffffffffffffffffffffff16610d3182611fa0565b73ffffffffffffffffffffffffffffffffffffffff1614610d87576040517f08c379a0000000000000000000000000000000000000000000000000000000008152600401610d7e90615474565b60405180910390fd5b60006002811115610dc1577f4e487b7100000000000000000000000000000000000000000000000000000000600052602160045260246000fd5b60078681548110610dfb577f4e487b7100000000000000000000000000000000000000000000000000000000600052603260045260246000fd5b9060005260206000200160000160089054906101000a900460ff166002811115610e4e577f4e487b7100000000000000000000000000000000000000000000000000000000600052602160045260246000fd5b14610e8e576040517f08c379a0000000000000000000000000000000000000000000000000000000008152600401610e8590615294565b60405180910390fd5b600160078681548110610eca577f4e487b7100000000000000000000000000000000000000000000000000000000600052603260045260246000fd5b9060005260206000200160000160086101000a81548160ff02191690836002811115610f1f577f4e487b7100000000000000000000000000000000000000000000000000000000600052602160045260246000fd5b0217905550610f2d8561332b565b7fad735fea640d2273c159ca0571101d62d2fa19a0d10e2cd97fcc2c2f30410df13086610f58610a1c565b87604051610f699493929190615007565b60405180910390a1839250505092915050565b610f8d610f8761326a565b8261343c565b610fcc576040517f08c379a0000000000000000000000000000000000000000000000000000000008152600401610fc3906153f4565b60405180910390fd5b610fd783838361351a565b505050565b600b6020528060005260406000206000915090505481565b60006001806005811115611031577f4e487b7100000000000000000000000000000000000000000000000000000000600052602160045260246000fd5b600660009054906101000a900460ff166005811115611079577f4e487b7100000000000000000000000000000000000000000000000000000000600052602160045260246000fd5b146110b9576040517f08c379a00000000000000000000000000000000000000000000000000000000081526004016110b090615194565b60405180910390fd5b3460088054906101000a900463ffffffff1663ffffffff16811015611113576040517f08c379a000000000000000000000000000000000000000000000000000000000815260040161110a90615254565b60405180910390fd5b60028081111561114c577f4e487b7100000000000000000000000000000000000000000000000000000000600052602160045260246000fd5b60078581548110611186577f4e487b7100000000000000000000000000000000000000000000000000000000600052603260045260246000fd5b9060005260206000200160000160089054906101000a900460ff1660028111156111d9577f4e487b7100000000000000000000000000000000000000000000000000000000600052602160045260246000fd5b14611219576040517f08c379a000000000000000000000000000000000000000000000000000000000815260040161121090615274565b60405180910390fd5b600060078581548110611255577f4e487b7100000000000000000000000000000000000000000000000000000000600052603260045260246000fd5b9060005260206000200160000160049054906101000a900463ffffffff1663ffffffff16905060008160646008600c9054906101000a900460ff1661129a91906156db565b60ff166112a7919061570c565b9050600081836112b79190615766565b905060006112c488611fa0565b905081600b60008373ffffffffffffffffffffffffffffffffffffffff1673ffffffffffffffffffffffffffffffffffffffff16815260200190815260200160002060008282546113159190615654565b9250508190555082600b6000600960009054906101000a900473ffffffffffffffffffffffffffffffffffffffff1673ffffffffffffffffffffffffffffffffffffffff1673ffffffffffffffffffffffffffffffffffffffff168152602001908152602001600020600082825461138d9190615654565b925050819055507ff43c2b94d59192e43ff5461a2ec018bcf2178e26af43252b9bb00e937ab5c843306113be610a1c565b338b6040516113d09493929190614f92565b60405180910390a16113e381338a6117d5565b60006007898154811061141f577f4e487b7100000000000000000000000000000000000000000000000000000000600052603260045260246000fd5b9060005260206000200160000160086101000a81548160ff02191690836002811115611474577f4e487b7100000000000000000000000000000000000000000000000000000000600052602160045260246000fd5b021790555060019650505050505050919050565b600960009054906101000a900473ffffffffffffffffffffffffffffffffffffffff1673ffffffffffffffffffffffffffffffffffffffff163373ffffffffffffffffffffffffffffffffffffffff161415611519576040517f08c379a000000000000000000000000000000000000000000000000000000000815260040161151090615334565b60405180910390fd5b6000600b60003373ffffffffffffffffffffffffffffffffffffffff1673ffffffffffffffffffffffffffffffffffffffff1681526020019081526020016000205490506008600e9054906101000a900460ff1680156115c9575060001515600c60003373ffffffffffffffffffffffffffffffffffffffff1673ffffffffffffffffffffffffffffffffffffffff16815260200190815260200160002060009054906101000a900460ff161515145b156116065760088054906101000a900463ffffffff1663ffffffff166115ee33612052565b6115f8919061570c565b816116039190615654565b90505b60008111611649576040517f08c379a000000000000000000000000000000000000000000000000000000000815260040161164090615214565b60405180910390fd5b600033905060008173ffffffffffffffffffffffffffffffffffffffff168360405161167490614efb565b60006040518083038185875af1925050503d80600081146116b1576040519150601f19603f3d011682016040523d82523d6000602084013e6116b6565b606091505b50509050806116fa576040517f08c379a00000000000000000000000000000000000000000000000000000000081526004016116f190615314565b60405180910390fd5b6000600b60003373ffffffffffffffffffffffffffffffffffffffff1673ffffffffffffffffffffffffffffffffffffffff168152602001908152602001600020819055506001600c60003373ffffffffffffffffffffffffffffffffffffffff1673ffffffffffffffffffffffffffffffffffffffff16815260200190815260200160002060006101000a81548160ff0219169083151502179055507f9fe2db218b58c00ab3556f2be44b2769b37978368c63313d82d78306568e477633846040516117c8929190614fde565b60405180910390a1505050565b6117f083838360405180602001604052806000815250612815565b505050565b600960009054906101000a900473ffffffffffffffffffffffffffffffffffffffff1673ffffffffffffffffffffffffffffffffffffffff163373ffffffffffffffffffffffffffffffffffffffff1614611885576040517f08c379a000000000000000000000000000000000000000000000000000000000815260040161187c90615114565b60405180910390fd5b60058060058111156118c0577f4e487b7100000000000000000000000000000000000000000000000000000000600052602160045260246000fd5b600660009054906101000a900460ff166005811115611908577f4e487b7100000000000000000000000000000000000000000000000000000000600052602160045260246000fd5b14611948576040517f08c379a000000000000000000000000000000000000000000000000000000000815260040161193f90615194565b60405180910390fd5b6000600b6000600960009054906101000a900473ffffffffffffffffffffffffffffffffffffffff1673ffffffffffffffffffffffffffffffffffffffff1673ffffffffffffffffffffffffffffffffffffffff168152602001908152602001600020549050600081116119f1576040517f08c379a00000000000000000000000000000000000000000000000000000000081526004016119e8906150d4565b60405180910390fd5b60003373ffffffffffffffffffffffffffffffffffffffff1682604051611a1790614efb565b60006040518083038185875af1925050503d8060008114611a54576040519150601f19603f3d011682016040523d82523d6000602084013e611a59565b606091505b5050905080611a9d576040517f08c379a0000000000000000000000000000000000000000000000000000000008152600401611a9490615414565b60405180910390fd5b6000600b6000600960009054906101000a900473ffffffffffffffffffffffffffffffffffffffff1673ffffffffffffffffffffffffffffffffffffffff1673ffffffffffffffffffffffffffffffffffffffff168152602001908152602001600020819055507f5f0d69e5c0056ecc650fc0d2d916359037135dac3d5b5446d226dfdbe292482e3383604051611b35929190614fde565b60405180910390a1505050565b600c6020528060005260406000206000915054906101000a900460ff1681565b60078181548110611b7257600080fd5b906000526020600020016000915090508060000160009054906101000a900463ffffffff16908060000160049054906101000a900463ffffffff16908060000160089054906101000a900460ff16905083565b60006001806005811115611c02577f4e487b7100000000000000000000000000000000000000000000000000000000600052602160045260246000fd5b600660009054906101000a900460ff166005811115611c4a577f4e487b7100000000000000000000000000000000000000000000000000000000600052602160045260246000fd5b14611c8a576040517f08c379a0000000000000000000000000000000000000000000000000000000008152600401611c8190615194565b60405180910390fd5b833373ffffffffffffffffffffffffffffffffffffffff16611cab82611fa0565b73ffffffffffffffffffffffffffffffffffffffff1614611d01576040517f08c379a0000000000000000000000000000000000000000000000000000000008152600401611cf890615474565b60405180910390fd5b60016002811115611d3b577f4e487b7100000000000000000000000000000000000000000000000000000000600052602160045260246000fd5b60078681548110611d75577f4e487b7100000000000000000000000000000000000000000000000000000000600052603260045260246000fd5b9060005260206000200160000160089054906101000a900460ff166002811115611dc8577f4e487b7100000000000000000000000000000000000000000000000000000000600052602160045260246000fd5b1415611e09576040517f08c379a0000000000000000000000000000000000000000000000000000000008152600401611e0090615174565b60405180910390fd5b600115156008600d9054906101000a900460ff16151514611e5f576040517f08c379a0000000000000000000000000000000000000000000000000000000008152600401611e5690615434565b60405180910390fd5b600260078681548110611e9b577f4e487b7100000000000000000000000000000000000000000000000000000000600052603260045260246000fd5b9060005260206000200160000160086101000a81548160ff02191690836002811115611ef0577f4e487b7100000000000000000000000000000000000000000000000000000000600052602160045260246000fd5b02179055508360078681548110611f30577f4e487b7100000000000000000000000000000000000000000000000000000000600052603260045260246000fd5b9060005260206000200160000160046101000a81548163ffffffff021916908363ffffffff1602179055507fec1a51878793b26371980da80139946e4a398461978717cbe8d07596dd3404b63386604051611f8c929190614fde565b60405180910390a160019250505092915050565b6000806002600084815260200190815260200160002060009054906101000a900473ffffffffffffffffffffffffffffffffffffffff169050600073ffffffffffffffffffffffffffffffffffffffff168173ffffffffffffffffffffffffffffffffffffffff161415612049576040517f08c379a0000000000000000000000000000000000000000000000000000000008152600401612040906152f4565b60405180910390fd5b80915050919050565b60008073ffffffffffffffffffffffffffffffffffffffff168273ffffffffffffffffffffffffffffffffffffffff1614156120c3576040517f08c379a00000000000000000000000000000000000000000000000000000000081526004016120ba906152d4565b60405180910390fd5b600360008373ffffffffffffffffffffffffffffffffffffffff1673ffffffffffffffffffffffffffffffffffffffff168152602001908152602001600020549050919050565b6001806005811115612145577f4e487b7100000000000000000000000000000000000000000000000000000000600052602160045260246000fd5b600660009054906101000a900460ff16600581111561218d577f4e487b7100000000000000000000000000000000000000000000000000000000600052602160045260246000fd5b146121cd576040517f08c379a00000000000000000000000000000000000000000000000000000000081526004016121c490615194565b60405180910390fd5b3373ffffffffffffffffffffffffffffffffffffffff16600d600084815260200190815260200160002060009054906101000a900473ffffffffffffffffffffffffffffffffffffffff1673ffffffffffffffffffffffffffffffffffffffff16141561226f576040517f08c379a000000000000000000000000000000000000000000000000000000000815260040161226690615494565b60405180910390fd5b33600d600084815260200190815260200160002060006101000a81548173ffffffffffffffffffffffffffffffffffffffff021916908373ffffffffffffffffffffffffffffffffffffffff1602179055505050565b600960009054906101000a900473ffffffffffffffffffffffffffffffffffffffff1681565b60606007805480602002602001604051908101604052809291908181526020016000905b82821015612410578382906000526020600020016040518060600160405290816000820160009054906101000a900463ffffffff1663ffffffff1663ffffffff1681526020016000820160049054906101000a900463ffffffff1663ffffffff1663ffffffff1681526020016000820160089054906101000a900460ff1660028111156123c5577f4e487b7100000000000000000000000000000000000000000000000000000000600052602160045260246000fd5b60028111156123fd577f4e487b7100000000000000000000000000000000000000000000000000000000600052602160045260246000fd5b815250508152602001906001019061230f565b50505050905090565b600d6020528060005260406000206000915054906101000a900473ffffffffffffffffffffffffffffffffffffffff1681565b60606001805461245b906158f3565b80601f0160208091040260200160405190810160405280929190818152602001828054612487906158f3565b80156124d45780601f106124a9576101008083540402835291602001916124d4565b820191906000526020600020905b8154815290600101906020018083116124b757829003601f168201915b5050505050905090565b6008600e9054906101000a900460ff1681565b600180600581111561252c577f4e487b7100000000000000000000000000000000000000000000000000000000600052602160045260246000fd5b600660009054906101000a900460ff166005811115612574577f4e487b7100000000000000000000000000000000000000000000000000000000600052602160045260246000fd5b146125b4576040517f08c379a00000000000000000000000000000000000000000000000000000000081526004016125ab90615194565b60405180910390fd5b3373ffffffffffffffffffffffffffffffffffffffff166125d483611fa0565b73ffffffffffffffffffffffffffffffffffffffff161461262a576040517f08c379a000000000000000000000000000000000000000000000000000000000815260040161262190615154565b60405180910390fd5b61263583600161266b565b61263f8383610b33565b505050565b6008600c9054906101000a900460ff1681565b60088054906101000a900463ffffffff1681565b61267361326a565b73ffffffffffffffffffffffffffffffffffffffff168273ffffffffffffffffffffffffffffffffffffffff1614156126e1576040517f08c379a00000000000000000000000000000000000000000000000000000000081526004016126d8906151f4565b60405180910390fd5b80600560006126ee61326a565b73ffffffffffffffffffffffffffffffffffffffff1673ffffffffffffffffffffffffffffffffffffffff16815260200190815260200160002060008473ffffffffffffffffffffffffffffffffffffffff1673ffffffffffffffffffffffffffffffffffffffff16815260200190815260200160002060006101000a81548160ff0219169083151502179055508173ffffffffffffffffffffffffffffffffffffffff1661279b61326a565b73ffffffffffffffffffffffffffffffffffffffff167f17307eab39ab6107e8899845ad3d59bd9653f200f220920489ca2b5937696c31836040516127e0919061507c565b60405180910390a35050565b600860009054906101000a900463ffffffff1681565b6008600d9054906101000a900460ff1681565b61282661282061326a565b8361343c565b612865576040517f08c379a000000000000000000000000000000000000000000000000000000000815260040161285c906153f4565b60405180910390fd5b61287184848484613776565b50505050565b600660009054906101000a900460ff1681565b6060612895826131fe565b6128d4576040517f08c379a00000000000000000000000000000000000000000000000000000000081526004016128cb906153b4565b60405180910390fd5b60006128de6137d2565b905060008151116128fe5760405180602001604052806000815250612929565b80612908846137e9565b604051602001612919929190614ed7565b6040516020818303038152906040525b915050919050565b6000600960009054906101000a900473ffffffffffffffffffffffffffffffffffffffff1673ffffffffffffffffffffffffffffffffffffffff163373ffffffffffffffffffffffffffffffffffffffff16146129c3576040517f08c379a00000000000000000000000000000000000000000000000000000000081526004016129ba90615114565b60405180910390fd5b81600660006101000a81548160ff02191690836005811115612a0e577f4e487b7100000000000000000000000000000000000000000000000000000000600052602160045260246000fd5b021790555060046005811115612a4d577f4e487b7100000000000000000000000000000000000000000000000000000000600052602160045260246000fd5b600660009054906101000a900460ff166005811115612a95577f4e487b7100000000000000000000000000000000000000000000000000000000600052602160045260246000fd5b1415612b555760016008600e6101000a81548160ff02191690831515021790555060078054905060088054906101000a900463ffffffff1663ffffffff16612add919061570c565b600b6000600960009054906101000a900473ffffffffffffffffffffffffffffffffffffffff1673ffffffffffffffffffffffffffffffffffffffff1673ffffffffffffffffffffffffffffffffffffffff1681526020019081526020016000206000828254612b4d9190615766565b925050819055505b600660009054906101000a900460ff169050919050565b600860049054906101000a900463ffffffff1681565b6000600560008473ffffffffffffffffffffffffffffffffffffffff1673ffffffffffffffffffffffffffffffffffffffff16815260200190815260200160002060008373ffffffffffffffffffffffffffffffffffffffff1673ffffffffffffffffffffffffffffffffffffffff16815260200190815260200160002060009054906101000a900460ff16905092915050565b600060016005811115612c52577f4e487b7100000000000000000000000000000000000000000000000000000000600052602160045260246000fd5b600660009054906101000a900460ff166005811115612c9a577f4e487b7100000000000000000000000000000000000000000000000000000000600052602160045260246000fd5b1480612d25575060036005811115612cdb577f4e487b7100000000000000000000000000000000000000000000000000000000600052602160045260246000fd5b600660009054906101000a900460ff166005811115612d23577f4e487b7100000000000000000000000000000000000000000000000000000000600052602160045260246000fd5b145b612d64576040517f08c379a0000000000000000000000000000000000000000000000000000000008152600401612d5b90615454565b60405180910390fd5b6000600860009054906101000a900463ffffffff1663ffffffff1611612dbf576040517f08c379a0000000000000000000000000000000000000000000000000000000008152600401612db6906151b4565b60405180910390fd5b3460088054906101000a900463ffffffff1663ffffffff16811015612e19576040517f08c379a0000000000000000000000000000000000000000000000000000000008152600401612e1090615254565b60405180910390fd5b612e21613de3565b60088054906101000a900463ffffffff16816000019063ffffffff16908163ffffffff168152505060088054906101000a900463ffffffff16816020019063ffffffff16908163ffffffff1681525050600081604001906002811115612eb0577f4e487b7100000000000000000000000000000000000000000000000000000000600052602160045260246000fd5b90816002811115612eea577f4e487b7100000000000000000000000000000000000000000000000000000000600052602160045260246000fd5b815250506007819080600181540180825580915050600190039060005260206000200160009091909190915060008201518160000160006101000a81548163ffffffff021916908363ffffffff16021790555060208201518160000160046101000a81548163ffffffff021916908363ffffffff16021790555060408201518160000160086101000a81548160ff02191690836002811115612fb5577f4e487b7100000000000000000000000000000000000000000000000000000000600052602160045260246000fd5b0217905550505060006001600780549050612fd09190615766565b90506008600081819054906101000a900463ffffffff1680929190612ff4906158c9565b91906101000a81548163ffffffff021916908363ffffffff1602179055505060088054906101000a900463ffffffff1663ffffffff163411156130af57600060088054906101000a900463ffffffff1663ffffffff16346130559190615766565b905080600b60003373ffffffffffffffffffffffffffffffffffffffff1673ffffffffffffffffffffffffffffffffffffffff16815260200190815260200160002060008282546130a69190615654565b92505081905550505b60088054906101000a900463ffffffff1663ffffffff16600b6000600960009054906101000a900473ffffffffffffffffffffffffffffffffffffffff1673ffffffffffffffffffffffffffffffffffffffff1673ffffffffffffffffffffffffffffffffffffffff16815260200190815260200160002060008282546131369190615654565b9250508190555061314733826139b5565b7f1b430c41ad1e9efc507aac150600ae9a3da936ed08479682cf954ffe044cd3d730613171610a1c565b33846040516131839493929190614f92565b60405180910390a180935050505090565b60007f01ffc9a7000000000000000000000000000000000000000000000000000000007bffffffffffffffffffffffffffffffffffffffffffffffffffffffff1916827bffffffffffffffffffffffffffffffffffffffffffffffffffffffff1916149050919050565b60008073ffffffffffffffffffffffffffffffffffffffff166002600084815260200190815260200160002060009054906101000a900473ffffffffffffffffffffffffffffffffffffffff1673ffffffffffffffffffffffffffffffffffffffff1614159050919050565b600033905090565b816004600083815260200190815260200160002060006101000a81548173ffffffffffffffffffffffffffffffffffffffff021916908373ffffffffffffffffffffffffffffffffffffffff160217905550808273ffffffffffffffffffffffffffffffffffffffff166132e583611fa0565b73ffffffffffffffffffffffffffffffffffffffff167f8c5be1e5ebec7d5bd14f71427d1e84f3dd0314c0f7b2291e5b200ac8c7c3b92560405160405180910390a45050565b600061333682611fa0565b9050613344816000846139d3565b61334f600083613272565b6001600360008373ffffffffffffffffffffffffffffffffffffffff1673ffffffffffffffffffffffffffffffffffffffff168152602001908152602001600020600082825461339f9190615766565b925050819055506002600083815260200190815260200160002060006101000a81549073ffffffffffffffffffffffffffffffffffffffff021916905581600073ffffffffffffffffffffffffffffffffffffffff168273ffffffffffffffffffffffffffffffffffffffff167fddf252ad1be2c89b69c2b068fc378daa952ba7f163c4a11628f55a4df523b3ef60405160405180910390a45050565b6000613447826131fe565b613486576040517f08c379a000000000000000000000000000000000000000000000000000000000815260040161347d90615234565b60405180910390fd5b600061349183611fa0565b90508073ffffffffffffffffffffffffffffffffffffffff168473ffffffffffffffffffffffffffffffffffffffff16148061350057508373ffffffffffffffffffffffffffffffffffffffff166134e884610aae565b73ffffffffffffffffffffffffffffffffffffffff16145b8061351157506135108185612b82565b5b91505092915050565b8273ffffffffffffffffffffffffffffffffffffffff1661353a82611fa0565b73ffffffffffffffffffffffffffffffffffffffff1614613590576040517f08c379a000000000000000000000000000000000000000000000000000000000815260040161358790615394565b60405180910390fd5b600073ffffffffffffffffffffffffffffffffffffffff168273ffffffffffffffffffffffffffffffffffffffff161415613600576040517f08c379a00000000000000000000000000000000000000000000000000000000081526004016135f7906151d4565b60405180910390fd5b61360b8383836139d3565b613616600082613272565b6001600360008573ffffffffffffffffffffffffffffffffffffffff1673ffffffffffffffffffffffffffffffffffffffff16815260200190815260200160002060008282546136669190615766565b925050819055506001600360008473ffffffffffffffffffffffffffffffffffffffff1673ffffffffffffffffffffffffffffffffffffffff16815260200190815260200160002060008282546136bd9190615654565b92505081905550816002600083815260200190815260200160002060006101000a81548173ffffffffffffffffffffffffffffffffffffffff021916908373ffffffffffffffffffffffffffffffffffffffff160217905550808273ffffffffffffffffffffffffffffffffffffffff168473ffffffffffffffffffffffffffffffffffffffff167fddf252ad1be2c89b69c2b068fc378daa952ba7f163c4a11628f55a4df523b3ef60405160405180910390a4505050565b61378184848461351a565b61378d848484846139d8565b6137cc576040517f08c379a00000000000000000000000000000000000000000000000000000000081526004016137c3906150f4565b60405180910390fd5b50505050565b606060405180602001604052806000815250905090565b60606000821415613831576040518060400160405280600181526020017f300000000000000000000000000000000000000000000000000000000000000081525090506139b0565b600082905060005b6000821461386357808061384c90615925565b915050600a8261385c91906156aa565b9150613839565b60008167ffffffffffffffff8111156138a5577f4e487b7100000000000000000000000000000000000000000000000000000000600052604160045260246000fd5b6040519080825280601f01601f1916602001820160405280156138d75781602001600182028036833780820191505090505b5090505b600085146139a9576001826138f09190615766565b9150600a856138ff919061596e565b603061390b9190615654565b7f010000000000000000000000000000000000000000000000000000000000000002818381518110613966577f4e487b7100000000000000000000000000000000000000000000000000000000600052603260045260246000fd5b60200101907effffffffffffffffffffffffffffffffffffffffffffffffffffffffffffff1916908160001a905350600a856139a291906156aa565b94506138db565b8093505050505b919050565b6139cf828260405180602001604052806000815250613ba7565b5050565b505050565b60006139f98473ffffffffffffffffffffffffffffffffffffffff16613c02565b15613b9a578373ffffffffffffffffffffffffffffffffffffffff1663150b7a02613a2261326a565b8786866040518563ffffffff167c0100000000000000000000000000000000000000000000000000000000028152600401613a609493929190614f46565b602060405180830381600087803b158015613a7a57600080fd5b505af1925050508015613aab57506040513d601f19601f82011682018060405250810190613aa8919061417b565b60015b613b2e573d8060008114613adb576040519150601f19603f3d011682016040523d82523d6000602084013e613ae0565b606091505b50600081511415613b26576040517f08c379a0000000000000000000000000000000000000000000000000000000008152600401613b1d906150f4565b60405180910390fd5b805181602001fd5b63150b7a027c0100000000000000000000000000000000000000000000000000000000027bffffffffffffffffffffffffffffffffffffffffffffffffffffffff1916817bffffffffffffffffffffffffffffffffffffffffffffffffffffffff191614915050613b9f565b600190505b949350505050565b613bb18383613c15565b613bbe60008484846139d8565b613bfd576040517f08c379a0000000000000000000000000000000000000000000000000000000008152600401613bf4906150f4565b60405180910390fd5b505050565b600080823b905060008111915050919050565b600073ffffffffffffffffffffffffffffffffffffffff168273ffffffffffffffffffffffffffffffffffffffff161415613c85576040517f08c379a0000000000000000000000000000000000000000000000000000000008152600401613c7c90615354565b60405180910390fd5b613c8e816131fe565b15613cce576040517f08c379a0000000000000000000000000000000000000000000000000000000008152600401613cc590615134565b60405180910390fd5b613cda600083836139d3565b6001600360008473ffffffffffffffffffffffffffffffffffffffff1673ffffffffffffffffffffffffffffffffffffffff1681526020019081526020016000206000828254613d2a9190615654565b92505081905550816002600083815260200190815260200160002060006101000a81548173ffffffffffffffffffffffffffffffffffffffff021916908373ffffffffffffffffffffffffffffffffffffffff160217905550808273ffffffffffffffffffffffffffffffffffffffff16600073ffffffffffffffffffffffffffffffffffffffff167fddf252ad1be2c89b69c2b068fc378daa952ba7f163c4a11628f55a4df523b3ef60405160405180910390a45050565b6040518060600160405280600063ffffffff168152602001600063ffffffff16815260200160006002811115613e42577f4e487b7100000000000000000000000000000000000000000000000000000000600052602160045260246000fd5b81525090565b6000613e5b613e568461556d565b61553c565b905082815260208101848484011115613e7357600080fd5b613e7e848285615887565b509392505050565b6000613e99613e948461559d565b61553c565b905082815260208101848484011115613eb157600080fd5b613ebc848285615887565b509392505050565b600081359050613ed381615ac3565b92915050565b600081359050613ee881615ada565b92915050565b600081359050613efd81615af1565b92915050565b600081519050613f1281615af1565b92915050565b600082601f830112613f2957600080fd5b8135613f39848260208601613e48565b91505092915050565b600081359050613f5181615b08565b92915050565b600082601f830112613f6857600080fd5b8135613f78848260208601613e86565b91505092915050565b600081359050613f9081615b18565b92915050565b600081359050613fa581615b2f565b92915050565b600060208284031215613fbd57600080fd5b6000613fcb84828501613ec4565b91505092915050565b60008060408385031215613fe757600080fd5b6000613ff585828601613ec4565b925050602061400685828601613ec4565b9150509250929050565b60008060006060848603121561402557600080fd5b600061403386828701613ec4565b935050602061404486828701613ec4565b925050604061405586828701613f81565b9150509250925092565b6000806000806080858703121561407557600080fd5b600061408387828801613ec4565b945050602061409487828801613ec4565b93505060406140a587828801613f81565b925050606085013567ffffffffffffffff8111156140c257600080fd5b6140ce87828801613f18565b91505092959194509250565b600080604083850312156140ed57600080fd5b60006140fb85828601613ec4565b925050602061410c85828601613ed9565b9150509250929050565b6000806040838503121561412957600080fd5b600061413785828601613ec4565b925050602061414885828601613f81565b9150509250929050565b60006020828403121561416457600080fd5b600061417284828501613eee565b91505092915050565b60006020828403121561418d57600080fd5b600061419b84828501613f03565b91505092915050565b6000602082840312156141b657600080fd5b60006141c484828501613f42565b91505092915050565b6000602082840312156141df57600080fd5b60006141ed84828501613f81565b91505092915050565b6000806040838503121561420957600080fd5b600061421785828601613f81565b925050602083013567ffffffffffffffff81111561423457600080fd5b61424085828601613f57565b9150509250929050565b6000806040838503121561425d57600080fd5b600061426b85828601613f81565b925050602061427c85828601613f96565b9150509250929050565b60006142928383614e59565b60608301905092915050565b6142a7816157ac565b82525050565b6142b68161579a565b82525050565b60006142c7826155dd565b6142d1818561560b565b93506142dc836155cd565b8060005b8381101561430d5781516142f48882614286565b97506142ff836155fe565b9250506001810190506142e0565b5085935050505092915050565b614323816157be565b82525050565b6000614334826155e8565b61433e818561561c565b935061434e818560208601615896565b61435781615a8a565b840191505092915050565b61436b81615863565b82525050565b61437a81615875565b82525050565b61438981615875565b82525050565b600061439a826155f3565b6143a48185615638565b93506143b4818560208601615896565b6143bd81615a8a565b840191505092915050565b60006143d3826155f3565b6143dd8185615649565b93506143ed818560208601615896565b80840191505092915050565b6000614406601483615638565b91507f4e6f206d6f6e657920746f2077697468647261770000000000000000000000006000830152602082019050919050565b6000614446603283615638565b91507f4552433732313a207472616e7366657220746f206e6f6e20455243373231526560008301527f63656976657220696d706c656d656e74657200000000000000000000000000006020830152604082019050919050565b60006144ac602183615638565b91507f43616e206f6e6c7920626520657865637574656420627920746865206f776e6560008301527f72000000000000000000000000000000000000000000000000000000000000006020830152604082019050919050565b6000614512601c83615638565b91507f4552433732313a20746f6b656e20616c7265616479206d696e746564000000006000830152602082019050919050565b6000614552600d83615638565b91507f6e6f207065726d697373696f6e000000000000000000000000000000000000006000830152602082019050919050565b6000614592601c83615638565b91507f5469636b65742068617320616c7265616479206265656e2075736564000000006000830152602082019050919050565b60006145d2602583615638565b91507f43616e6e6f7420657865637574652066756e6374696f6e20617420746869732060008301527f73746167650000000000000000000000000000000000000000000000000000006020830152604082019050919050565b6000614638601883615638565b91507f5468657265206172652030207469636b657473206c65667400000000000000006000830152602082019050919050565b6000614678602483615638565b91507f4552433732313a207472616e7366657220746f20746865207a65726f2061646460008301527f72657373000000000000000000000000000000000000000000000000000000006020830152604082019050919050565b60006146de601983615638565b91507f4552433732313a20617070726f766520746f2063616c6c6572000000000000006000830152602082019050919050565b600061471e602483615638565b91507f5573657220646f6573206e6f742068617665206d6f6e657920746f207769746860008301527f64726177000000000000000000000000000000000000000000000000000000006020830152604082019050919050565b6000614784602c83615638565b91507f4552433732313a206f70657261746f7220717565727920666f72206e6f6e657860008301527f697374656e7420746f6b656e00000000000000000000000000000000000000006020830152604082019050919050565b60006147ea602583615638565b91507f4e6f7420656e6f756768206d6f6e657920746f2070757263686173652061207460008301527f69636b65740000000000000000000000000000000000000000000000000000006020830152604082019050919050565b6000614850601d83615638565b91507f5469636b6574206e6f7420617661696c61626c6520666f722073616c650000006000830152602082019050919050565b6000614890602683615638565b91507f5468657265206973206e6f2076616c6964207469636b657420666f722074686960008301527f73207573657200000000000000000000000000000000000000000000000000006020830152604082019050919050565b60006148f6603883615638565b91507f4552433732313a20617070726f76652063616c6c6572206973206e6f74206f7760008301527f6e6572206e6f7220617070726f76656420666f7220616c6c00000000000000006020830152604082019050919050565b600061495c602a83615638565b91507f4552433732313a2062616c616e636520717565727920666f7220746865207a6560008301527f726f2061646472657373000000000000000000000000000000000000000000006020830152604082019050919050565b60006149c2602983615638565b91507f4552433732313a206f776e657220717565727920666f72206e6f6e657869737460008301527f656e7420746f6b656e00000000000000000000000000000000000000000000006020830152604082019050919050565b6000614a28601c83615638565b91507f4661696c656420746f2073656e6420657468657220746f2075736572000000006000830152602082019050919050565b6000614a68602083615638565b91507f43616e206e6f7420626520657865637574656420627920746865206f776e65726000830152602082019050919050565b6000614aa8602083615638565b91507f4552433732313a206d696e7420746f20746865207a65726f20616464726573736000830152602082019050919050565b6000614ae8602c83615638565b91507f4552433732313a20617070726f76656420717565727920666f72206e6f6e657860008301527f697374656e7420746f6b656e00000000000000000000000000000000000000006020830152604082019050919050565b6000614b4e602983615638565b91507f4552433732313a207472616e73666572206f6620746f6b656e2074686174206960008301527f73206e6f74206f776e00000000000000000000000000000000000000000000006020830152604082019050919050565b6000614bb4602f83615638565b91507f4552433732314d657461646174613a2055524920717565727920666f72206e6f60008301527f6e6578697374656e7420746f6b656e00000000000000000000000000000000006020830152604082019050919050565b6000614c1a602183615638565b91507f4552433732313a20617070726f76616c20746f2063757272656e74206f776e6560008301527f72000000000000000000000000000000000000000000000000000000000000006020830152604082019050919050565b6000614c8060008361562d565b9150600082019050919050565b6000614c9a603183615638565b91507f4552433732313a207472616e736665722063616c6c6572206973206e6f74206f60008301527f776e6572206e6f7220617070726f7665640000000000000000000000000000006020830152604082019050919050565b6000614d00601d83615638565b91507f4661696c656420746f2073656e6420657468657220746f206f776e65720000006000830152602082019050919050565b6000614d40601783615638565b91507f5469636b65742063616e6e6f74206265207265736f6c640000000000000000006000830152602082019050919050565b6000614d80601d83615638565b91507f5469636b65747320617265206e6f74206f70656e20666f722073616c650000006000830152602082019050919050565b6000614dc0601d83615638565b91507f5573657220646f6573206e6f74206f776e2074686973207469636b65740000006000830152602082019050919050565b6000614e00602283615638565b91507f596f75206861766520616c7265616479207265676973746572656420746f206260008301527f75790000000000000000000000000000000000000000000000000000000000006020830152604082019050919050565b606082016000820151614e6f6000850182614eaa565b506020820151614e826020850182614eaa565b506040820151614e956040850182614371565b50505050565b614ea48161583c565b82525050565b614eb381615846565b82525050565b614ec281615846565b82525050565b614ed181615856565b82525050565b6000614ee382856143c8565b9150614eef82846143c8565b91508190509392505050565b6000614f0682614c73565b9150819050919050565b6000602082019050614f2560008301846142ad565b92915050565b6000602082019050614f40600083018461429e565b92915050565b6000608082019050614f5b60008301876142ad565b614f6860208301866142ad565b614f756040830185614e9b565b8181036060830152614f878184614329565b905095945050505050565b6000608082019050614fa760008301876142ad565b8181036020830152614fb9818661438f565b9050614fc860408301856142ad565b614fd56060830184614e9b565b95945050505050565b6000604082019050614ff360008301856142ad565b6150006020830184614e9b565b9392505050565b600060808201905061501c60008301876142ad565b6150296020830186614e9b565b818103604083015261503b818561438f565b9050818103606083015261504f818461438f565b905095945050505050565b6000602082019050818103600083015261507481846142bc565b905092915050565b6000602082019050615091600083018461431a565b92915050565b60006020820190506150ac6000830184614362565b92915050565b600060208201905081810360008301526150cc818461438f565b905092915050565b600060208201905081810360008301526150ed816143f9565b9050919050565b6000602082019050818103600083015261510d81614439565b9050919050565b6000602082019050818103600083015261512d8161449f565b9050919050565b6000602082019050818103600083015261514d81614505565b9050919050565b6000602082019050818103600083015261516d81614545565b9050919050565b6000602082019050818103600083015261518d81614585565b9050919050565b600060208201905081810360008301526151ad816145c5565b9050919050565b600060208201905081810360008301526151cd8161462b565b9050919050565b600060208201905081810360008301526151ed8161466b565b9050919050565b6000602082019050818103600083015261520d816146d1565b9050919050565b6000602082019050818103600083015261522d81614711565b9050919050565b6000602082019050818103600083015261524d81614777565b9050919050565b6000602082019050818103600083015261526d816147dd565b9050919050565b6000602082019050818103600083015261528d81614843565b9050919050565b600060208201905081810360008301526152ad81614883565b9050919050565b600060208201905081810360008301526152cd816148e9565b9050919050565b600060208201905081810360008301526152ed8161494f565b9050919050565b6000602082019050818103600083015261530d816149b5565b9050919050565b6000602082019050818103600083015261532d81614a1b565b9050919050565b6000602082019050818103600083015261534d81614a5b565b9050919050565b6000602082019050818103600083015261536d81614a9b565b9050919050565b6000602082019050818103600083015261538d81614adb565b9050919050565b600060208201905081810360008301526153ad81614b41565b9050919050565b600060208201905081810360008301526153cd81614ba7565b9050919050565b600060208201905081810360008301526153ed81614c0d565b9050919050565b6000602082019050818103600083015261540d81614c8d565b9050919050565b6000602082019050818103600083015261542d81614cf3565b9050919050565b6000602082019050818103600083015261544d81614d33565b9050919050565b6000602082019050818103600083015261546d81614d73565b9050919050565b6000602082019050818103600083015261548d81614db3565b9050919050565b600060208201905081810360008301526154ad81614df3565b9050919050565b60006020820190506154c96000830184614e9b565b92915050565b60006020820190506154e46000830184614eb9565b92915050565b60006060820190506154ff6000830186614eb9565b61550c6020830185614eb9565b6155196040830184614380565b949350505050565b60006020820190506155366000830184614ec8565b92915050565b6000604051905081810181811067ffffffffffffffff8211171561556357615562615a5b565b5b8060405250919050565b600067ffffffffffffffff82111561558857615587615a5b565b5b601f19601f8301169050602081019050919050565b600067ffffffffffffffff8211156155b8576155b7615a5b565b5b601f19601f8301169050602081019050919050565b6000819050602082019050919050565b600081519050919050565b600081519050919050565b600081519050919050565b6000602082019050919050565b600082825260208201905092915050565b600082825260208201905092915050565b600081905092915050565b600082825260208201905092915050565b600081905092915050565b600061565f8261583c565b915061566a8361583c565b9250827fffffffffffffffffffffffffffffffffffffffffffffffffffffffffffffffff0382111561569f5761569e61599f565b5b828201905092915050565b60006156b58261583c565b91506156c08361583c565b9250826156d0576156cf6159ce565b5b828204905092915050565b60006156e682615856565b91506156f183615856565b925082615701576157006159ce565b5b828204905092915050565b60006157178261583c565b91506157228361583c565b9250817fffffffffffffffffffffffffffffffffffffffffffffffffffffffffffffffff048311821515161561575b5761575a61599f565b5b828202905092915050565b60006157718261583c565b915061577c8361583c565b92508282101561578f5761578e61599f565b5b828203905092915050565b60006157a58261581c565b9050919050565b60006157b78261581c565b9050919050565b60008115159050919050565b60007fffffffff0000000000000000000000000000000000000000000000000000000082169050919050565b600081905061580482615a9b565b919050565b600081905061581782615aaf565b919050565b600073ffffffffffffffffffffffffffffffffffffffff82169050919050565b6000819050919050565b600063ffffffff82169050919050565b600060ff82169050919050565b600061586e826157f6565b9050919050565b600061588082615809565b9050919050565b82818337600083830152505050565b60005b838110156158b4578082015181840152602081019050615899565b838111156158c3576000848401525b50505050565b60006158d482615846565b915060008214156158e8576158e761599f565b5b600182039050919050565b6000600282049050600182168061590b57607f821691505b6020821081141561591f5761591e615a2c565b5b50919050565b60006159308261583c565b91507fffffffffffffffffffffffffffffffffffffffffffffffffffffffffffffffff8214156159635761596261599f565b5b600182019050919050565b60006159798261583c565b91506159848361583c565b925082615994576159936159ce565b5b828206905092915050565b7f4e487b7100000000000000000000000000000000000000000000000000000000600052601160045260246000fd5b7f4e487b7100000000000000000000000000000000000000000000000000000000600052601260045260246000fd5b7f4e487b7100000000000000000000000000000000000000000000000000000000600052602160045260246000fd5b7f4e487b7100000000000000000000000000000000000000000000000000000000600052602260045260246000fd5b7f4e487b7100000000000000000000000000000000000000000000000000000000600052604160045260246000fd5b6000601f19601f8301169050919050565b60068110615aac57615aab6159fd565b5b50565b60038110615ac057615abf6159fd565b5b50565b615acc8161579a565b8114615ad757600080fd5b50565b615ae3816157be565b8114615aee57600080fd5b50565b615afa816157ca565b8114615b0557600080fd5b50565b60068110615b1557600080fd5b50565b615b218161583c565b8114615b2c57600080fd5b50565b615b3881615846565b8114615b4357600080fd5b5056fea2646970667358221220b01ee410a6a2c6725376c293c63580fa6a3dfcf232e66edd35407685be5cfc9264736f6c63430008000033",
  "immutableReferences": {},
  "source": "// SPDX-License-Identifier: UNLICENSED\r\npragma solidity 0.8.0;\r\nimport \"@openzeppelin/contracts/token/ERC721/ERC721.sol\";\r\n \r\n/// @title Factory Contract to create events\r\ncontract EventCreator {\r\n\r\n    // Created events\r\n    Event[] public events;\r\n\r\n    // EVENTS\r\n    event CreateEvent(address _creator, address _event);\r\n\r\n    /**\r\n     * @notice Creates Events\r\n     * @param _numTickets Number of tickets \r\n     * @param _price Price per ticket\r\n     * @param _canBeResold Are tickets allowed to be resold\r\n     * @param _royaltyPercent Royalty percentage accrued by organizers on reselling of ticket\r\n     * @param _eventName Name of the Ticket NFT\r\n     * @param _eventSymbol Symbol for the Ticket NFT Token\r\n     */\r\n    function createEvent(uint32 _numTickets, uint32 _price, bool _canBeResold, uint8 _royaltyPercent,\r\n            string memory _eventName, string memory _eventSymbol) external returns(address newEvent) {\r\n\r\n        // Create a new Event smart contract\r\n        Event e = new Event(msg.sender, _numTickets, _price, _canBeResold, _royaltyPercent, _eventName, _eventSymbol);\r\n        \r\n        // Store/return event address\r\n        events.push(e);\r\n        address eventAddress = address(e);\r\n        emit CreateEvent(msg.sender, eventAddress);\r\n\r\n        return eventAddress;\r\n    }\r\n\r\n\r\n    /**\r\n     * @notice Retrieve number of events\r\n     */\r\n    function getEventCount() public view returns(uint contractCount) {\r\n        return events.length;\r\n    }\r\n\r\n    // Returns array of all events\r\n    function getEvents() external view returns(Event[] memory _events) {\r\n        _events = new Event[] (events.length);\r\n        for (uint i=0; i<events.length; i++){\r\n            _events[i] = events[i];\r\n        }\r\n\r\n        return _events;\r\n    }  \r\n}\r\n\r\n/// @title Contract to mint tickets of an event\r\ncontract Event is ERC721 {\r\n    /// Control Event Status at a granular level\r\n    enum Stages { Prep, Active, Paused, CheckinOpen, Cancelled, Closed }\r\n    // Stages public stage = Stages.Prep;\r\n    Stages public stage;\r\n    /// Control Ticket Status at a granular level\r\n    /// Valid - Ticket is Valid\r\n    /// Used - Ticket is used\r\n    /// AvailableForSale - Ticket is allowed to be sold to someone\r\n    enum TicketStatus {Valid, Used, AvailableForSale }\r\n    \r\n    // Ticket struct \r\n    struct Ticket {\r\n        uint32 price;\r\n        uint32 resalePrice;\r\n        TicketStatus status;\r\n    }\r\n    Ticket[] public tickets;\r\n    uint32 public numTicketsLeft;\r\n    uint32 public totalTickets;\r\n    uint32 public price;\r\n    \r\n    /// Percent royalty event creator receives from ticket resales\r\n    uint8 public royaltyPercent;\r\n    \r\n    // if ticket can be resold in the second market\r\n    bool public canBeResold;\r\n    \r\n    // if event is cancelled\r\n    bool public isCancelled;\r\n    \r\n    // orginizer of event\r\n    address payable public owner;\r\n    \r\n    // to store the balances for buyers and organizers\r\n    uint totalBalances = 0;\r\n    mapping(address => uint) public balances;\r\n    mapping(address => bool) public isUserRefund;\r\n    mapping(uint => address) public registeredBuyers;\r\n\r\n    // EVENTS\r\n    event CreateTicket(address contractAddress, string eventName, address buyer, uint ticketID);\r\n    event WithdrawMoney(address receiver, uint money);\r\n    event OwnerWithdrawMoney(address owner, uint money);\r\n    event TicketForSale(address seller, uint ticketID);\r\n    event TicketSold(address contractAddress, string eventName, address buyer, uint ticketID);\r\n    event TicketUsed(address contractAddress, uint ticketID, string eventName, string sQRCodeKey);\r\n\r\n    // Creates a new Event Contract\r\n    constructor(address _owner, uint32 _numTickets, uint32 _price, bool _canBeResold, uint8 _royaltyPercent,\r\n            string memory _eventName, string memory _eventSymbol) ERC721(_eventName, _eventSymbol) {    \r\n        // Check valid constructor arguments\r\n        require(_royaltyPercent >= 0 && _royaltyPercent <= 100, \"Royalty Percentage must be between 0 and 100\");\r\n        // Number of tickets must be greater than 0\r\n        require(_numTickets > 0, \"The number of tickets must be greater than 0\");\r\n        // EventName, EventSymbol cannot be empty string\r\n        bytes memory eventNameBytes = bytes(_eventName);\r\n        bytes memory eventSymbolBytes = bytes(_eventSymbol);\r\n        require(eventNameBytes.length != 0, \"Event Name cannot be empty\");\r\n        require(eventSymbolBytes.length != 0, \"Event Symbol cannot be empty\");\r\n        \r\n        owner = payable(_owner);\r\n        totalTickets = _numTickets;\r\n        numTicketsLeft = _numTickets;\r\n        price = _price;\r\n        canBeResold = _canBeResold;\r\n        royaltyPercent = _royaltyPercent;\r\n        stage = Stages.Prep;\r\n    }\r\n\r\n    /**\r\n     * @notice Buy tickets\r\n     * @dev Checks: State is Active, has enough money\r\n     */\r\n    function buyTicket() public payable buyingTicketOpen ticketsLeft \r\n                                            hasEnoughMoney(msg.value) returns (uint){\r\n        // Create Ticket t\r\n        Ticket memory t;\r\n        t.price = price;\r\n        t.resalePrice = price;\r\n        t.status = TicketStatus.Valid;\r\n\r\n        // Store t in tickets array\r\n        tickets.push(t);\r\n        uint ticketID = tickets.length - 1;\r\n        numTicketsLeft--;\r\n        \r\n        // store overpaid in balances\r\n        if (msg.value > price) {\r\n            uint amount = msg.value - price;\r\n            balances[msg.sender] += amount;\r\n        }\r\n        balances[owner] += price;\r\n        \r\n        // Mint NFT\r\n        _safeMint(msg.sender, ticketID);\r\n        emit CreateTicket(address(this), name(), msg.sender, ticketID);\r\n        \r\n        return ticketID;\r\n    }\r\n\r\n    /**\r\n     * @notice Mark ticket as used\r\n     * @dev Only a valid buyer can mark ticket as used\r\n     * @param ticketID ticket ID of ticket\r\n     */\r\n    function buyTicketFromUser(uint ticketID) public payable requiredStage(Stages.Active) hasEnoughMoney(msg.value) returns (bool) {\r\n        // Check if ticket is available for sale\r\n        require(tickets[ticketID].status == TicketStatus.AvailableForSale, \"Ticket not available for sale\");\r\n        //approveAsBuyer(msg.sender, ticketID);\r\n\r\n        //calc amount to pay after royalty\r\n        uint ticketPrice = tickets[ticketID].resalePrice;\r\n        uint royalty = (royaltyPercent/100) * ticketPrice;\r\n        uint priceToPay = ticketPrice - royalty;\r\n\r\n        //transfer money to seller\r\n        address payable seller = payable(ownerOf(ticketID));\r\n        ///seller.transfer(priceToPay);\r\n        // bool sent = seller.send(price);\r\n        balances[seller] += priceToPay;\r\n        balances[owner] += royalty;\r\n\r\n        // require(sent, \"Failed to send ether to user\");\r\n\r\n        emit TicketSold(address(this), name(), msg.sender, ticketID);\r\n        safeTransferFrom(seller, msg.sender, ticketID);\r\n\r\n        tickets[ticketID].status = TicketStatus.Valid;\r\n\r\n        return true;\r\n\r\n    }\r\n    \r\n    /**\r\n     * @notice Mark ticket as used\r\n     * @dev Only a valid buyer can mark ticket as used\r\n     * @param sQRCodeKey QR Code key sent by the app \r\n     */\r\n    function setTicketToUsed(uint ticketID, string memory sQRCodeKey) public requiredStage(Stages.CheckinOpen)\r\n                                                                    ownsTicket(ticketID) returns (string memory){\r\n\t\t// Validate that user has a ticket they own and it is valid\r\n        require(tickets[ticketID].status == TicketStatus.Valid, \"There is no valid ticket for this user\");\r\n    \r\n        // Ticket is valid so mark it as used\r\n        tickets[ticketID].status = TicketStatus.Used;\r\n\r\n        // Burn the Token\r\n        _burn(ticketID); \r\n        \r\n        // Raise event which Gate Management system can consume then\r\n        emit TicketUsed(address(this), ticketID, name(), sQRCodeKey);\r\n        \r\n        return sQRCodeKey;\r\n\t}\r\n\r\n    /**\r\n     * @notice Mark ticket as used\r\n     * @dev Only a valid buyer can mark ticket as used\r\n     * @param ticketID ticket ID of ticket\r\n     */\r\n    function setTicketForSale(uint ticketID, uint32 resalePrice) public requiredStage(Stages.Active) ownsTicket(ticketID) returns(bool) {\r\n\t\t// Validate that user has a ticket they own and it is valid\r\n        require(tickets[ticketID].status != TicketStatus.Used, \"Ticket has already been used\");\r\n        require(canBeResold == true, \"Ticket cannot be resold\");\r\n        \r\n        // Ticket is valid so mark it as used\r\n        tickets[ticketID].status = TicketStatus.AvailableForSale;\r\n        tickets[ticketID].resalePrice = resalePrice;\r\n        \r\n        // Raise event which Gate Management system can consume then\r\n        emit TicketForSale(msg.sender, ticketID);\r\n        \r\n        //return ticketID;\r\n        return true;\r\n\t}\r\n\r\n    /**\r\n     * @dev get all tickets \r\n     */\r\n    function getTicketsCreated() public view returns(Ticket [] memory){\r\n        return tickets;\r\n    }\r\n\t\r\n   /**\r\n     * @notice owner can only withdraw what's in the balances\r\n     * @dev once the event is cancelled, organizer should refund money to buyers\r\n     */\r\n    function ownerWithdraw() public onlyOwner requiredStage(Stages.Closed) {\r\n        uint ownerBalance = balances[owner];\r\n        require(ownerBalance > 0, \"No money to withdraw\");\r\n        \r\n        // Call will forwards all available gas\r\n        (bool sent, ) = msg.sender.call{value:ownerBalance}(\"\");\r\n        // Failure condition if cannot transfer\r\n        require(sent, \"Failed to send ether to owner\");\r\n        // Update balance after transfering money\r\n        balances[owner] = 0;\r\n        emit OwnerWithdrawMoney(msg.sender, ownerBalance);\r\n    }\r\n\r\n    /**\r\n     * @notice User to withdraw money \r\n     * @dev User can withdraw money if event cancelled or overpaid for ticket\r\n     */\r\n    function withdraw() public {\r\n        require(msg.sender != owner, \"Can not be executed by the owner\");\r\n        // Amount to send to user\r\n        uint sendToUser = balances[msg.sender];\r\n        \r\n        // If event cancelled, send user the amount they overpaid for ticket + ticket price refund\r\n        if (isCancelled && isUserRefund[msg.sender] == false ) {\r\n            sendToUser += balanceOf(msg.sender) * price;\r\n        }\r\n\r\n        // Cannot withdraw if no money to withdraw\r\n        require(sendToUser > 0, \"User does not have money to withdraw\");\r\n        \r\n        // Transfer money to user\r\n        address payable receiver = payable(msg.sender);\r\n        // Call will forwards all available gas\r\n        (bool sent, ) = receiver.call{value:sendToUser}(\"\");\r\n        // Failure condition of send will emit this error\r\n        require(sent, \"Failed to send ether to user\");\r\n        // Update balance after transfering money\r\n        balances[msg.sender] = 0;\r\n        isUserRefund[msg.sender] = true;\r\n        emit WithdrawMoney(msg.sender, sendToUser);\r\n        \r\n    }\r\n\r\n    /**\r\n     * @dev approve a buyer to buy ticket of another user\r\n     */\r\n    function approveAsBuyer(address buyer, uint ticketID) public requiredStage(Stages.Active){\r\n        require(ownerOf(ticketID) == msg.sender, \"no permission\");\r\n        setApprovalForAll(buyer, bool(true));\r\n        approve(buyer, ticketID);\r\n    }\r\n\r\n    /**\r\n     * @dev register as buyer\r\n     */\r\n    function registerAsBuyer(uint ticketID) public requiredStage(Stages.Active){\r\n        require(registeredBuyers[ticketID] != msg.sender, \"You have already registered to buy\");\r\n\r\n        registeredBuyers[ticketID] = msg.sender;\r\n\r\n    }\r\n\r\n    /**\r\n     * @dev get registered buyer\r\n     */\r\n    function getRegisteredBuyer(uint ticketID) public view returns(address) {\r\n        return registeredBuyers[ticketID];\r\n    }\r\n    \r\n    /** \r\n     * @notice Change Status\r\n     * @dev Only owner can change state\r\n     * @param _stage Stages as set in enum Stages\r\n     */\r\n    function setStage(Stages _stage) public onlyOwner returns (Stages) {\r\n        stage = _stage;\r\n        if (stage == Stages.Cancelled) {\r\n            isCancelled = true;\r\n            balances[owner] -= price * tickets.length;\r\n        }\r\n        return stage;\r\n    }\r\n\r\n\r\n    // MODIFIERS\r\n\r\n    // Only owner\r\n    modifier onlyOwner() {\r\n        require(msg.sender == owner, \"Can only be executed by the owner\");\r\n        _;\r\n    }\r\n\r\n    // Requires stage to be _stage\r\n    modifier requiredStage(Stages _stage) {\r\n        require(stage == _stage, \"Cannot execute function at this stage\");\r\n        _;\r\n    }\r\n    \r\n    // Check if buying is open\r\n    modifier buyingTicketOpen() {\r\n        require(stage == Stages.Active || stage == Stages.CheckinOpen, \"Tickets are not open for sale\");\r\n        _;\r\n    }\r\n\r\n    // Requires there to be more than 0 tickets left\r\n    modifier ticketsLeft() {\r\n        require(numTicketsLeft > 0, \"There are 0 tickets left\");\r\n        _;\r\n    }\r\n\r\n    modifier hasEnoughMoney(uint money) {\r\n        require(money >= price, \"Not enough money to purchase a ticket\");\r\n        _;\r\n    }\r\n\r\n    // Check if user is ticket owner\r\n    modifier ownsTicket(uint ticketID) {\r\n        require(ownerOf(ticketID) == msg.sender, \"User does not own this ticket\");\r\n        _;\r\n    }\r\n    \r\n}\r\n\r\n",
  "sourcePath": "C:/Users/ManTheMith/Desktop/COMP6452/proj/comp6452-nft/src/contracts/Event.sol",
  "compiler": {
    "name": "solc",
    "version": "0.8.0+commit.c7dfd78e.Emscripten.clang"
  },
  "schemaVersion": "3.4.1",
  "updatedAt": "2021-07-28T08:55:48.033Z",
  "networkType": "ethereum",
  "devdoc": {
    "kind": "dev",
    "methods": {
      "approve(address,uint256)": {
        "details": "See {IERC721-approve}."
      },
      "approveAsBuyer(address,uint256)": {
        "details": "approve a buyer to buy ticket of another user"
      },
      "balanceOf(address)": {
        "details": "See {IERC721-balanceOf}."
      },
      "buyTicket()": {
        "details": "Checks: State is Active, has enough money"
      },
      "buyTicketFromUser(uint256)": {
        "details": "Only a valid buyer can mark ticket as used",
        "params": {
          "ticketID": "ticket ID of ticket"
        }
      },
      "getApproved(uint256)": {
        "details": "See {IERC721-getApproved}."
      },
      "getRegisteredBuyer(uint256)": {
        "details": "get registered buyer"
      },
      "getTicketsCreated()": {
        "details": "get all tickets "
      },
      "isApprovedForAll(address,address)": {
        "details": "See {IERC721-isApprovedForAll}."
      },
      "name()": {
        "details": "See {IERC721Metadata-name}."
      },
      "ownerOf(uint256)": {
        "details": "See {IERC721-ownerOf}."
      },
      "ownerWithdraw()": {
        "details": "once the event is cancelled, organizer should refund money to buyers"
      },
      "registerAsBuyer(uint256)": {
        "details": "register as buyer"
      },
      "safeTransferFrom(address,address,uint256)": {
        "details": "See {IERC721-safeTransferFrom}."
      },
      "safeTransferFrom(address,address,uint256,bytes)": {
        "details": "See {IERC721-safeTransferFrom}."
      },
      "setApprovalForAll(address,bool)": {
        "details": "See {IERC721-setApprovalForAll}."
      },
      "setStage(uint8)": {
        "details": "Only owner can change state",
        "params": {
          "_stage": "Stages as set in enum Stages"
        }
      },
      "setTicketForSale(uint256,uint32)": {
        "details": "Only a valid buyer can mark ticket as used",
        "params": {
          "ticketID": "ticket ID of ticket"
        }
      },
      "setTicketToUsed(uint256,string)": {
        "details": "Only a valid buyer can mark ticket as used",
        "params": {
          "sQRCodeKey": "QR Code key sent by the app "
        }
      },
      "supportsInterface(bytes4)": {
        "details": "See {IERC165-supportsInterface}."
      },
      "symbol()": {
        "details": "See {IERC721Metadata-symbol}."
      },
      "tokenURI(uint256)": {
        "details": "See {IERC721Metadata-tokenURI}."
      },
      "transferFrom(address,address,uint256)": {
        "details": "See {IERC721-transferFrom}."
      },
      "withdraw()": {
        "details": "User can withdraw money if event cancelled or overpaid for ticket"
      }
    },
    "title": "Contract to mint tickets of an event",
    "version": 1
  },
  "userdoc": {
    "kind": "user",
    "methods": {
      "buyTicket()": {
        "notice": "Buy tickets"
      },
      "buyTicketFromUser(uint256)": {
        "notice": "Mark ticket as used"
      },
      "ownerWithdraw()": {
        "notice": "owner can only withdraw what's in the balances"
      },
      "royaltyPercent()": {
        "notice": "Percent royalty event creator receives from ticket resales"
      },
      "setStage(uint8)": {
        "notice": "Change Status"
      },
      "setTicketForSale(uint256,uint32)": {
        "notice": "Mark ticket as used"
      },
      "setTicketToUsed(uint256,string)": {
        "notice": "Mark ticket as used"
      },
      "withdraw()": {
        "notice": "User to withdraw money "
      }
    },
    "version": 1
  }
}