{
  "contractName": "Event",
  "abi": [
    {
      "inputs": [
        {
          "internalType": "uint32",
          "name": "_numTickets",
          "type": "uint32"
        },
        {
          "internalType": "uint32",
          "name": "_price",
          "type": "uint32"
        },
        {
          "internalType": "bool",
          "name": "_canBeResold",
          "type": "bool"
        },
        {
          "internalType": "uint32",
          "name": "_royaltyPercent",
          "type": "uint32"
        },
        {
          "internalType": "string",
          "name": "_eventName",
          "type": "string"
        },
        {
          "internalType": "string",
          "name": "_eventSymbol",
          "type": "string"
        }
      ],
      "stateMutability": "nonpayable",
      "type": "constructor"
    },
    {
      "anonymous": false,
      "inputs": [
        {
          "indexed": true,
          "internalType": "address",
          "name": "owner",
          "type": "address"
        },
        {
          "indexed": true,
          "internalType": "address",
          "name": "approved",
          "type": "address"
        },
        {
          "indexed": true,
          "internalType": "uint256",
          "name": "tokenId",
          "type": "uint256"
        }
      ],
      "name": "Approval",
      "type": "event"
    },
    {
      "anonymous": false,
      "inputs": [
        {
          "indexed": true,
          "internalType": "address",
          "name": "owner",
          "type": "address"
        },
        {
          "indexed": true,
          "internalType": "address",
          "name": "operator",
          "type": "address"
        },
        {
          "indexed": false,
          "internalType": "bool",
          "name": "approved",
          "type": "bool"
        }
      ],
      "name": "ApprovalForAll",
      "type": "event"
    },
    {
      "anonymous": false,
      "inputs": [
        {
          "indexed": false,
          "internalType": "address",
          "name": "buyer",
          "type": "address"
        },
        {
          "indexed": false,
          "internalType": "uint256",
          "name": "ticketID",
          "type": "uint256"
        }
      ],
      "name": "CreateTicket",
      "type": "event"
    },
    {
      "anonymous": false,
      "inputs": [
        {
          "indexed": false,
          "internalType": "address",
          "name": "seller",
          "type": "address"
        },
        {
          "indexed": false,
          "internalType": "uint256",
          "name": "ticketID",
          "type": "uint256"
        },
        {
          "indexed": false,
          "internalType": "uint32",
          "name": "price",
          "type": "uint32"
        }
      ],
      "name": "TicketForSale",
      "type": "event"
    },
    {
      "anonymous": false,
      "inputs": [
        {
          "indexed": false,
          "internalType": "address",
          "name": "seller",
          "type": "address"
        },
        {
          "indexed": false,
          "internalType": "uint256",
          "name": "ticketID",
          "type": "uint256"
        }
      ],
      "name": "TicketSaleCancelled",
      "type": "event"
    },
    {
      "anonymous": false,
      "inputs": [
        {
          "indexed": true,
          "internalType": "address",
          "name": "from",
          "type": "address"
        },
        {
          "indexed": true,
          "internalType": "address",
          "name": "to",
          "type": "address"
        },
        {
          "indexed": true,
          "internalType": "uint256",
          "name": "tokenId",
          "type": "uint256"
        }
      ],
      "name": "Transfer",
      "type": "event"
    },
    {
      "inputs": [
        {
          "internalType": "address",
          "name": "to",
          "type": "address"
        },
        {
          "internalType": "uint256",
          "name": "tokenId",
          "type": "uint256"
        }
      ],
      "name": "approve",
      "outputs": [],
      "stateMutability": "nonpayable",
      "type": "function"
    },
    {
      "inputs": [
        {
          "internalType": "address",
          "name": "owner",
          "type": "address"
        }
      ],
      "name": "balanceOf",
      "outputs": [
        {
          "internalType": "uint256",
          "name": "",
          "type": "uint256"
        }
      ],
      "stateMutability": "view",
      "type": "function",
      "constant": true
    },
    {
      "inputs": [],
      "name": "canBeResold",
      "outputs": [
        {
          "internalType": "bool",
          "name": "",
          "type": "bool"
        }
      ],
      "stateMutability": "view",
      "type": "function",
      "constant": true
    },
    {
      "inputs": [
        {
          "internalType": "uint256",
          "name": "tokenId",
          "type": "uint256"
        }
      ],
      "name": "getApproved",
      "outputs": [
        {
          "internalType": "address",
          "name": "",
          "type": "address"
        }
      ],
      "stateMutability": "view",
      "type": "function",
      "constant": true
    },
    {
      "inputs": [
        {
          "internalType": "address",
          "name": "owner",
          "type": "address"
        },
        {
          "internalType": "address",
          "name": "operator",
          "type": "address"
        }
      ],
      "name": "isApprovedForAll",
      "outputs": [
        {
          "internalType": "bool",
          "name": "",
          "type": "bool"
        }
      ],
      "stateMutability": "view",
      "type": "function",
      "constant": true
    },
    {
      "inputs": [],
      "name": "name",
      "outputs": [
        {
          "internalType": "string",
          "name": "",
          "type": "string"
        }
      ],
      "stateMutability": "view",
      "type": "function",
      "constant": true
    },
    {
      "inputs": [],
      "name": "numTicketsLeft",
      "outputs": [
        {
          "internalType": "uint32",
          "name": "",
          "type": "uint32"
        }
      ],
      "stateMutability": "view",
      "type": "function",
      "constant": true
    },
    {
      "inputs": [],
      "name": "owner",
      "outputs": [
        {
          "internalType": "address",
          "name": "",
          "type": "address"
        }
      ],
      "stateMutability": "view",
      "type": "function",
      "constant": true
    },
    {
      "inputs": [
        {
          "internalType": "uint256",
          "name": "tokenId",
          "type": "uint256"
        }
      ],
      "name": "ownerOf",
      "outputs": [
        {
          "internalType": "address",
          "name": "",
          "type": "address"
        }
      ],
      "stateMutability": "view",
      "type": "function",
      "constant": true
    },
    {
      "inputs": [],
      "name": "price",
      "outputs": [
        {
          "internalType": "uint32",
          "name": "",
          "type": "uint32"
        }
      ],
      "stateMutability": "view",
      "type": "function",
      "constant": true
    },
    {
      "inputs": [],
      "name": "royaltyPercent",
      "outputs": [
        {
          "internalType": "uint32",
          "name": "",
          "type": "uint32"
        }
      ],
      "stateMutability": "view",
      "type": "function",
      "constant": true
    },
    {
      "inputs": [
        {
          "internalType": "address",
          "name": "from",
          "type": "address"
        },
        {
          "internalType": "address",
          "name": "to",
          "type": "address"
        },
        {
          "internalType": "uint256",
          "name": "tokenId",
          "type": "uint256"
        }
      ],
      "name": "safeTransferFrom",
      "outputs": [],
      "stateMutability": "nonpayable",
      "type": "function"
    },
    {
      "inputs": [
        {
          "internalType": "address",
          "name": "from",
          "type": "address"
        },
        {
          "internalType": "address",
          "name": "to",
          "type": "address"
        },
        {
          "internalType": "uint256",
          "name": "tokenId",
          "type": "uint256"
        },
        {
          "internalType": "bytes",
          "name": "_data",
          "type": "bytes"
        }
      ],
      "name": "safeTransferFrom",
      "outputs": [],
      "stateMutability": "nonpayable",
      "type": "function"
    },
    {
      "inputs": [
        {
          "internalType": "address",
          "name": "operator",
          "type": "address"
        },
        {
          "internalType": "bool",
          "name": "approved",
          "type": "bool"
        }
      ],
      "name": "setApprovalForAll",
      "outputs": [],
      "stateMutability": "nonpayable",
      "type": "function"
    },
    {
      "inputs": [],
      "name": "stage",
      "outputs": [
        {
          "internalType": "enum Event.Stages",
          "name": "",
          "type": "uint8"
        }
      ],
      "stateMutability": "view",
      "type": "function",
      "constant": true
    },
    {
      "inputs": [
        {
          "internalType": "bytes4",
          "name": "interfaceId",
          "type": "bytes4"
        }
      ],
      "name": "supportsInterface",
      "outputs": [
        {
          "internalType": "bool",
          "name": "",
          "type": "bool"
        }
      ],
      "stateMutability": "view",
      "type": "function",
      "constant": true
    },
    {
      "inputs": [],
      "name": "symbol",
      "outputs": [
        {
          "internalType": "string",
          "name": "",
          "type": "string"
        }
      ],
      "stateMutability": "view",
      "type": "function",
      "constant": true
    },
    {
      "inputs": [
        {
          "internalType": "uint256",
          "name": "tokenId",
          "type": "uint256"
        }
      ],
      "name": "tokenURI",
      "outputs": [
        {
          "internalType": "string",
          "name": "",
          "type": "string"
        }
      ],
      "stateMutability": "view",
      "type": "function",
      "constant": true
    },
    {
      "inputs": [
        {
          "internalType": "address",
          "name": "from",
          "type": "address"
        },
        {
          "internalType": "address",
          "name": "to",
          "type": "address"
        },
        {
          "internalType": "uint256",
          "name": "tokenId",
          "type": "uint256"
        }
      ],
      "name": "transferFrom",
      "outputs": [],
      "stateMutability": "nonpayable",
      "type": "function"
    },
    {
      "inputs": [],
      "name": "buyTicket",
      "outputs": [],
      "stateMutability": "payable",
      "type": "function",
      "payable": true
    },
    {
      "inputs": [
        {
          "internalType": "uint256",
          "name": "ticketID",
          "type": "uint256"
        },
        {
          "internalType": "uint32",
          "name": "newPrice",
          "type": "uint32"
        }
      ],
      "name": "setTicketForSale",
      "outputs": [],
      "stateMutability": "nonpayable",
      "type": "function"
    },
    {
      "inputs": [
        {
          "internalType": "uint256",
          "name": "ticketID",
          "type": "uint256"
        }
      ],
      "name": "cancelSale",
      "outputs": [],
      "stateMutability": "nonpayable",
      "type": "function"
    },
    {
      "inputs": [
        {
          "internalType": "enum Event.Stages",
          "name": "_stage",
          "type": "uint8"
        }
      ],
      "name": "setStage",
      "outputs": [],
      "stateMutability": "nonpayable",
      "type": "function"
    }
  ],
  "bytecode": "0x60806040526000600660006101000a81548160ff0219169083600581111562000051577f4e487b7100000000000000000000000000000000000000000000000000000000600052602160045260246000fd5b02179055503480156200006357600080fd5b5060405162003972380380620039728339818101604052810190620000899190620002d8565b81818160009080519060200190620000a392919062000188565b508060019080519060200190620000bc92919062000188565b50505033600960006101000a81548173ffffffffffffffffffffffffffffffffffffffff021916908373ffffffffffffffffffffffffffffffffffffffff16021790555085600860006101000a81548163ffffffff021916908363ffffffff16021790555084600860046101000a81548163ffffffff021916908363ffffffff160217905550836008600c6101000a81548160ff021916908315150217905550826008806101000a81548163ffffffff021916908363ffffffff16021790555050505050505062000521565b828054620001969062000459565b90600052602060002090601f016020900481019282620001ba576000855562000206565b82601f10620001d557805160ff191683800117855562000206565b8280016001018555821562000206579182015b8281111562000205578251825591602001919060010190620001e8565b5b50905062000215919062000219565b5090565b5b80821115620002345760008160009055506001016200021a565b5090565b60006200024f6200024984620003d4565b620003a0565b9050828152602081018484840111156200026857600080fd5b6200027584828562000423565b509392505050565b6000815190506200028e81620004ed565b92915050565b600082601f830112620002a657600080fd5b8151620002b884826020860162000238565b91505092915050565b600081519050620002d28162000507565b92915050565b60008060008060008060c08789031215620002f257600080fd5b60006200030289828a01620002c1565b96505060206200031589828a01620002c1565b95505060406200032889828a016200027d565b94505060606200033b89828a01620002c1565b935050608087015167ffffffffffffffff8111156200035957600080fd5b6200036789828a0162000294565b92505060a087015167ffffffffffffffff8111156200038557600080fd5b6200039389828a0162000294565b9150509295509295509295565b6000604051905081810181811067ffffffffffffffff82111715620003ca57620003c9620004be565b5b8060405250919050565b600067ffffffffffffffff821115620003f257620003f1620004be565b5b601f19601f8301169050602081019050919050565b60008115159050919050565b600063ffffffff82169050919050565b60005b838110156200044357808201518184015260208101905062000426565b8381111562000453576000848401525b50505050565b600060028204905060018216806200047257607f821691505b602082108114156200048957620004886200048f565b5b50919050565b7f4e487b7100000000000000000000000000000000000000000000000000000000600052602260045260246000fd5b7f4e487b7100000000000000000000000000000000000000000000000000000000600052604160045260246000fd5b620004f88162000407565b81146200050457600080fd5b50565b620005128162000413565b81146200051e57600080fd5b50565b61344180620005316000396000f3fe6080604052600436106101405760003560e01c80639f67756d116100b6578063bd94b0051161006f578063bd94b0051461045c578063c040e6b814610485578063c87b56dd146104b0578063ce3cd997146104ed578063e985e9c514610516578063edca914c1461055357610140565b80639f67756d1461035e578063a035b1fe14610389578063a22cb465146103b4578063a51bba8c146103dd578063b3874c0d14610408578063b88d4fde1461043357610140565b806342842e0e1161010857806342842e0e1461023c57806356971370146102655780636352211e1461028e57806370a08231146102cb5780638da5cb5b1461030857806395d89b411461033357610140565b806301ffc9a71461014557806306fdde0314610182578063081812fc146101ad578063095ea7b3146101ea57806323b872dd14610213575b600080fd5b34801561015157600080fd5b5061016c600480360381019061016791906123e9565b61055d565b6040516101799190612caa565b60405180910390f35b34801561018e57600080fd5b5061019761063f565b6040516101a49190612ce0565b60405180910390f35b3480156101b957600080fd5b506101d460048036038101906101cf9190612464565b6106d1565b6040516101e19190612be3565b60405180910390f35b3480156101f657600080fd5b50610211600480360381019061020c91906123ad565b610756565b005b34801561021f57600080fd5b5061023a600480360381019061023591906122a7565b61086e565b005b34801561024857600080fd5b50610263600480360381019061025e91906122a7565b6108ce565b005b34801561027157600080fd5b5061028c6004803603810190610287919061248d565b6108ee565b005b34801561029a57600080fd5b506102b560048036038101906102b09190612464565b610b96565b6040516102c29190612be3565b60405180910390f35b3480156102d757600080fd5b506102f260048036038101906102ed9190612242565b610c48565b6040516102ff9190612f22565b60405180910390f35b34801561031457600080fd5b5061031d610d00565b60405161032a9190612be3565b60405180910390f35b34801561033f57600080fd5b50610348610d26565b6040516103559190612ce0565b60405180910390f35b34801561036a57600080fd5b50610373610db8565b6040516103809190612f3d565b60405180910390f35b34801561039557600080fd5b5061039e610dcc565b6040516103ab9190612f3d565b60405180910390f35b3480156103c057600080fd5b506103db60048036038101906103d69190612371565b610de2565b005b3480156103e957600080fd5b506103f2610f63565b6040516103ff9190612f3d565b60405180910390f35b34801561041457600080fd5b5061041d610f79565b60405161042a9190612caa565b60405180910390f35b34801561043f57600080fd5b5061045a600480360381019061045591906122f6565b610f8c565b005b34801561046857600080fd5b50610483600480360381019061047e9190612464565b610fee565b005b34801561049157600080fd5b5061049a611190565b6040516104a79190612cc5565b60405180910390f35b3480156104bc57600080fd5b506104d760048036038101906104d29190612464565b6111a3565b6040516104e49190612ce0565b60405180910390f35b3480156104f957600080fd5b50610514600480360381019061050f919061243b565b61124a565b005b34801561052257600080fd5b5061053d6004803603810190610538919061226b565b61132d565b60405161054a9190612caa565b60405180910390f35b61055b6113c1565b005b60007f80ac58cd000000000000000000000000000000000000000000000000000000007bffffffffffffffffffffffffffffffffffffffffffffffffffffffff1916827bffffffffffffffffffffffffffffffffffffffffffffffffffffffff1916148061062857507f5b5e139f000000000000000000000000000000000000000000000000000000007bffffffffffffffffffffffffffffffffffffffffffffffffffffffff1916827bffffffffffffffffffffffffffffffffffffffffffffffffffffffff1916145b80610638575061063782611691565b5b9050919050565b60606000805461064e906131cc565b80601f016020809104026020016040519081016040528092919081815260200182805461067a906131cc565b80156106c75780601f1061069c576101008083540402835291602001916106c7565b820191906000526020600020905b8154815290600101906020018083116106aa57829003601f168201915b5050505050905090565b60006106dc826116fb565b61071b576040517f08c379a000000000000000000000000000000000000000000000000000000000815260040161071290612e42565b60405180910390fd5b6004600083815260200190815260200160002060009054906101000a900473ffffffffffffffffffffffffffffffffffffffff169050919050565b600061076182610b96565b90508073ffffffffffffffffffffffffffffffffffffffff168373ffffffffffffffffffffffffffffffffffffffff1614156107d2576040517f08c379a00000000000000000000000000000000000000000000000000000000081526004016107c990612ec2565b60405180910390fd5b8073ffffffffffffffffffffffffffffffffffffffff166107f1611767565b73ffffffffffffffffffffffffffffffffffffffff161480610820575061081f8161081a611767565b61132d565b5b61085f576040517f08c379a000000000000000000000000000000000000000000000000000000000815260040161085690612da2565b60405180910390fd5b610869838361176f565b505050565b61087f610879611767565b82611828565b6108be576040517f08c379a00000000000000000000000000000000000000000000000000000000081526004016108b590612f02565b60405180910390fd5b6108c9838383611906565b505050565b6108e983838360405180602001604052806000815250610f8c565b505050565b6001806005811115610929577f4e487b7100000000000000000000000000000000000000000000000000000000600052602160045260246000fd5b600660009054906101000a900460ff166005811115610971577f4e487b7100000000000000000000000000000000000000000000000000000000600052602160045260246000fd5b1461097b57600080fd5b8260001515600782815481106109ba577f4e487b7100000000000000000000000000000000000000000000000000000000600052603260045260246000fd5b9060005260206000200160000160199054906101000a900460ff16151514610a17576040517f08c379a0000000000000000000000000000000000000000000000000000000008152600401610a0e90612ee2565b60405180910390fd5b833373ffffffffffffffffffffffffffffffffffffffff16610a3882610b96565b73ffffffffffffffffffffffffffffffffffffffff1614610a8e576040517f08c379a0000000000000000000000000000000000000000000000000000000008152600401610a8590612e02565b60405180910390fd5b600160078681548110610aca577f4e487b7100000000000000000000000000000000000000000000000000000000600052603260045260246000fd5b9060005260206000200160000160186101000a81548160ff0219169083151502179055508360078681548110610b29577f4e487b7100000000000000000000000000000000000000000000000000000000600052603260045260246000fd5b9060005260206000200160000160146101000a81548163ffffffff021916908363ffffffff1602179055507fe7c06314d87130f02dcad2c65efdc972ff4ec2c29db887aa12876290b7030f4d338686604051610b8793929190612c73565b60405180910390a15050505050565b6000806002600084815260200190815260200160002060009054906101000a900473ffffffffffffffffffffffffffffffffffffffff169050600073ffffffffffffffffffffffffffffffffffffffff168173ffffffffffffffffffffffffffffffffffffffff161415610c3f576040517f08c379a0000000000000000000000000000000000000000000000000000000008152600401610c3690612de2565b60405180910390fd5b80915050919050565b60008073ffffffffffffffffffffffffffffffffffffffff168273ffffffffffffffffffffffffffffffffffffffff161415610cb9576040517f08c379a0000000000000000000000000000000000000000000000000000000008152600401610cb090612dc2565b60405180910390fd5b600360008373ffffffffffffffffffffffffffffffffffffffff1673ffffffffffffffffffffffffffffffffffffffff168152602001908152602001600020549050919050565b600960009054906101000a900473ffffffffffffffffffffffffffffffffffffffff1681565b606060018054610d35906131cc565b80601f0160208091040260200160405190810160405280929190818152602001828054610d61906131cc565b8015610dae5780601f10610d8357610100808354040283529160200191610dae565b820191906000526020600020905b815481529060010190602001808311610d9157829003601f168201915b5050505050905090565b60088054906101000a900463ffffffff1681565b600860049054906101000a900463ffffffff1681565b610dea611767565b73ffffffffffffffffffffffffffffffffffffffff168273ffffffffffffffffffffffffffffffffffffffff161415610e58576040517f08c379a0000000000000000000000000000000000000000000000000000000008152600401610e4f90612d62565b60405180910390fd5b8060056000610e65611767565b73ffffffffffffffffffffffffffffffffffffffff1673ffffffffffffffffffffffffffffffffffffffff16815260200190815260200160002060008473ffffffffffffffffffffffffffffffffffffffff1673ffffffffffffffffffffffffffffffffffffffff16815260200190815260200160002060006101000a81548160ff0219169083151502179055508173ffffffffffffffffffffffffffffffffffffffff16610f12611767565b73ffffffffffffffffffffffffffffffffffffffff167f17307eab39ab6107e8899845ad3d59bd9653f200f220920489ca2b5937696c3183604051610f579190612caa565b60405180910390a35050565b600860009054906101000a900463ffffffff1681565b6008600c9054906101000a900460ff1681565b610f9d610f97611767565b83611828565b610fdc576040517f08c379a0000000000000000000000000000000000000000000000000000000008152600401610fd390612f02565b60405180910390fd5b610fe884848484611b62565b50505050565b6001806005811115611029577f4e487b7100000000000000000000000000000000000000000000000000000000600052602160045260246000fd5b600660009054906101000a900460ff166005811115611071577f4e487b7100000000000000000000000000000000000000000000000000000000600052602160045260246000fd5b1461107b57600080fd5b813373ffffffffffffffffffffffffffffffffffffffff1661109c82610b96565b73ffffffffffffffffffffffffffffffffffffffff16146110f2576040517f08c379a00000000000000000000000000000000000000000000000000000000081526004016110e990612e02565b60405180910390fd5b60006007848154811061112e577f4e487b7100000000000000000000000000000000000000000000000000000000600052603260045260246000fd5b9060005260206000200160000160186101000a81548160ff0219169083151502179055507fae8427fe868a76cde23d8af247a9f7925d55755ce02343b780395293c1bdc5353384604051611183929190612c4a565b60405180910390a1505050565b600660009054906101000a900460ff1681565b60606111ae826116fb565b6111ed576040517f08c379a00000000000000000000000000000000000000000000000000000000081526004016111e490612ea2565b60405180910390fd5b60006111f7611bbe565b905060008151116112175760405180602001604052806000815250611242565b8061122184611bd5565b604051602001611232929190612bbf565b6040516020818303038152906040525b915050919050565b600960009054906101000a900473ffffffffffffffffffffffffffffffffffffffff1673ffffffffffffffffffffffffffffffffffffffff163373ffffffffffffffffffffffffffffffffffffffff16146112da576040517f08c379a00000000000000000000000000000000000000000000000000000000081526004016112d190612e62565b60405180910390fd5b80600660006101000a81548160ff02191690836005811115611325577f4e487b7100000000000000000000000000000000000000000000000000000000600052602160045260246000fd5b021790555050565b6000600560008473ffffffffffffffffffffffffffffffffffffffff1673ffffffffffffffffffffffffffffffffffffffff16815260200190815260200160002060008373ffffffffffffffffffffffffffffffffffffffff1673ffffffffffffffffffffffffffffffffffffffff16815260200190815260200160002060009054906101000a900460ff16905092915050565b60018060058111156113fc577f4e487b7100000000000000000000000000000000000000000000000000000000600052602160045260246000fd5b600660009054906101000a900460ff166005811115611444577f4e487b7100000000000000000000000000000000000000000000000000000000600052602160045260246000fd5b1461144e57600080fd5b6000600860009054906101000a900463ffffffff1663ffffffff161161147357600080fd5b34600860049054906101000a900463ffffffff1663ffffffff1681101561149957600080fd5b6114a16120ff565b33816000019073ffffffffffffffffffffffffffffffffffffffff16908173ffffffffffffffffffffffffffffffffffffffff1681525050600860049054906101000a900463ffffffff16816020019063ffffffff16908163ffffffff1681525050600081604001901515908115158152505060008160600190151590811515815250506007819080600181540180825580915050600190039060005260206000200160009091909190915060008201518160000160006101000a81548173ffffffffffffffffffffffffffffffffffffffff021916908373ffffffffffffffffffffffffffffffffffffffff16021790555060208201518160000160146101000a81548163ffffffff021916908363ffffffff16021790555060408201518160000160186101000a81548160ff02191690831515021790555060608201518160000160196101000a81548160ff0219169083151502179055505050600060078054905090506008600081819054906101000a900463ffffffff1680929190611629906131a2565b91906101000a81548163ffffffff021916908363ffffffff160217905550506116523382611d82565b7f45b138e571439656fbf8d1d09364ce6268bcd2bcbefd7d1d01c57ab4f8bbe8fc3382604051611683929190612c4a565b60405180910390a150505050565b60007f01ffc9a7000000000000000000000000000000000000000000000000000000007bffffffffffffffffffffffffffffffffffffffffffffffffffffffff1916827bffffffffffffffffffffffffffffffffffffffffffffffffffffffff1916149050919050565b60008073ffffffffffffffffffffffffffffffffffffffff166002600084815260200190815260200160002060009054906101000a900473ffffffffffffffffffffffffffffffffffffffff1673ffffffffffffffffffffffffffffffffffffffff1614159050919050565b600033905090565b816004600083815260200190815260200160002060006101000a81548173ffffffffffffffffffffffffffffffffffffffff021916908373ffffffffffffffffffffffffffffffffffffffff160217905550808273ffffffffffffffffffffffffffffffffffffffff166117e283610b96565b73ffffffffffffffffffffffffffffffffffffffff167f8c5be1e5ebec7d5bd14f71427d1e84f3dd0314c0f7b2291e5b200ac8c7c3b92560405160405180910390a45050565b6000611833826116fb565b611872576040517f08c379a000000000000000000000000000000000000000000000000000000000815260040161186990612d82565b60405180910390fd5b600061187d83610b96565b90508073ffffffffffffffffffffffffffffffffffffffff168473ffffffffffffffffffffffffffffffffffffffff1614806118ec57508373ffffffffffffffffffffffffffffffffffffffff166118d4846106d1565b73ffffffffffffffffffffffffffffffffffffffff16145b806118fd57506118fc818561132d565b5b91505092915050565b8273ffffffffffffffffffffffffffffffffffffffff1661192682610b96565b73ffffffffffffffffffffffffffffffffffffffff161461197c576040517f08c379a000000000000000000000000000000000000000000000000000000000815260040161197390612e82565b60405180910390fd5b600073ffffffffffffffffffffffffffffffffffffffff168273ffffffffffffffffffffffffffffffffffffffff1614156119ec576040517f08c379a00000000000000000000000000000000000000000000000000000000081526004016119e390612d42565b60405180910390fd5b6119f7838383611f50565b611a0260008261176f565b6001600360008573ffffffffffffffffffffffffffffffffffffffff1673ffffffffffffffffffffffffffffffffffffffff1681526020019081526020016000206000828254611a529190613083565b925050819055506001600360008473ffffffffffffffffffffffffffffffffffffffff1673ffffffffffffffffffffffffffffffffffffffff1681526020019081526020016000206000828254611aa99190612ffc565b92505081905550816002600083815260200190815260200160002060006101000a81548173ffffffffffffffffffffffffffffffffffffffff021916908373ffffffffffffffffffffffffffffffffffffffff160217905550808273ffffffffffffffffffffffffffffffffffffffff168473ffffffffffffffffffffffffffffffffffffffff167fddf252ad1be2c89b69c2b068fc378daa952ba7f163c4a11628f55a4df523b3ef60405160405180910390a4505050565b611b6d848484611906565b611b7984848484611f55565b611bb8576040517f08c379a0000000000000000000000000000000000000000000000000000000008152600401611baf90612d02565b60405180910390fd5b50505050565b606060405180602001604052806000815250905090565b60606000821415611c1d576040518060400160405280600181526020017f30000000000000000000000000000000000000000000000000000000000000008152509050611d7d565b600082905060005b60008214611c4f578080611c38906131fe565b915050600a82611c489190613052565b9150611c25565b60008167ffffffffffffffff811115611c91577f4e487b7100000000000000000000000000000000000000000000000000000000600052604160045260246000fd5b6040519080825280601f01601f191660200182016040528015611cc35781602001600182028036833780820191505090505b5090505b60008514611d7657600182611cdc9190613083565b9150600a85611ceb9190613247565b6030611cf79190612ffc565b60f81b818381518110611d33577f4e487b7100000000000000000000000000000000000000000000000000000000600052603260045260246000fd5b60200101907effffffffffffffffffffffffffffffffffffffffffffffffffffffffffffff1916908160001a905350600a85611d6f9190613052565b9450611cc7565b8093505050505b919050565b600073ffffffffffffffffffffffffffffffffffffffff168273ffffffffffffffffffffffffffffffffffffffff161415611df2576040517f08c379a0000000000000000000000000000000000000000000000000000000008152600401611de990612e22565b60405180910390fd5b611dfb816116fb565b15611e3b576040517f08c379a0000000000000000000000000000000000000000000000000000000008152600401611e3290612d22565b60405180910390fd5b611e4760008383611f50565b6001600360008473ffffffffffffffffffffffffffffffffffffffff1673ffffffffffffffffffffffffffffffffffffffff1681526020019081526020016000206000828254611e979190612ffc565b92505081905550816002600083815260200190815260200160002060006101000a81548173ffffffffffffffffffffffffffffffffffffffff021916908373ffffffffffffffffffffffffffffffffffffffff160217905550808273ffffffffffffffffffffffffffffffffffffffff16600073ffffffffffffffffffffffffffffffffffffffff167fddf252ad1be2c89b69c2b068fc378daa952ba7f163c4a11628f55a4df523b3ef60405160405180910390a45050565b505050565b6000611f768473ffffffffffffffffffffffffffffffffffffffff166120ec565b156120df578373ffffffffffffffffffffffffffffffffffffffff1663150b7a02611f9f611767565b8786866040518563ffffffff1660e01b8152600401611fc19493929190612bfe565b602060405180830381600087803b158015611fdb57600080fd5b505af192505050801561200c57506040513d601f19601f820116820180604052508101906120099190612412565b60015b61208f573d806000811461203c576040519150601f19603f3d011682016040523d82523d6000602084013e612041565b606091505b50600081511415612087576040517f08c379a000000000000000000000000000000000000000000000000000000000815260040161207e90612d02565b60405180910390fd5b805181602001fd5b63150b7a0260e01b7bffffffffffffffffffffffffffffffffffffffffffffffffffffffff1916817bffffffffffffffffffffffffffffffffffffffffffffffffffffffff1916149150506120e4565b600190505b949350505050565b600080823b905060008111915050919050565b6040518060800160405280600073ffffffffffffffffffffffffffffffffffffffff168152602001600063ffffffff1681526020016000151581526020016000151581525090565b600061215a61215584612f89565b612f58565b90508281526020810184848401111561217257600080fd5b61217d848285613160565b509392505050565b60008135905061219481613388565b92915050565b6000813590506121a98161339f565b92915050565b6000813590506121be816133b6565b92915050565b6000815190506121d3816133b6565b92915050565b600082601f8301126121ea57600080fd5b81356121fa848260208601612147565b91505092915050565b600081359050612212816133cd565b92915050565b600081359050612227816133dd565b92915050565b60008135905061223c816133f4565b92915050565b60006020828403121561225457600080fd5b600061226284828501612185565b91505092915050565b6000806040838503121561227e57600080fd5b600061228c85828601612185565b925050602061229d85828601612185565b9150509250929050565b6000806000606084860312156122bc57600080fd5b60006122ca86828701612185565b93505060206122db86828701612185565b92505060406122ec86828701612218565b9150509250925092565b6000806000806080858703121561230c57600080fd5b600061231a87828801612185565b945050602061232b87828801612185565b935050604061233c87828801612218565b925050606085013567ffffffffffffffff81111561235957600080fd5b612365878288016121d9565b91505092959194509250565b6000806040838503121561238457600080fd5b600061239285828601612185565b92505060206123a38582860161219a565b9150509250929050565b600080604083850312156123c057600080fd5b60006123ce85828601612185565b92505060206123df85828601612218565b9150509250929050565b6000602082840312156123fb57600080fd5b6000612409848285016121af565b91505092915050565b60006020828403121561242457600080fd5b6000612432848285016121c4565b91505092915050565b60006020828403121561244d57600080fd5b600061245b84828501612203565b91505092915050565b60006020828403121561247657600080fd5b600061248484828501612218565b91505092915050565b600080604083850312156124a057600080fd5b60006124ae85828601612218565b92505060206124bf8582860161222d565b9150509250929050565b6124d2816130b7565b82525050565b6124e1816130c9565b82525050565b60006124f282612fb9565b6124fc8185612fcf565b935061250c81856020860161316f565b61251581613363565b840191505092915050565b6125298161314e565b82525050565b600061253a82612fc4565b6125448185612fe0565b935061255481856020860161316f565b61255d81613363565b840191505092915050565b600061257382612fc4565b61257d8185612ff1565b935061258d81856020860161316f565b80840191505092915050565b60006125a6603283612fe0565b91507f4552433732313a207472616e7366657220746f206e6f6e20455243373231526560008301527f63656976657220696d706c656d656e74657200000000000000000000000000006020830152604082019050919050565b600061260c601c83612fe0565b91507f4552433732313a20746f6b656e20616c7265616479206d696e746564000000006000830152602082019050919050565b600061264c602483612fe0565b91507f4552433732313a207472616e7366657220746f20746865207a65726f2061646460008301527f72657373000000000000000000000000000000000000000000000000000000006020830152604082019050919050565b60006126b2601983612fe0565b91507f4552433732313a20617070726f766520746f2063616c6c6572000000000000006000830152602082019050919050565b60006126f2602c83612fe0565b91507f4552433732313a206f70657261746f7220717565727920666f72206e6f6e657860008301527f697374656e7420746f6b656e00000000000000000000000000000000000000006020830152604082019050919050565b6000612758603883612fe0565b91507f4552433732313a20617070726f76652063616c6c6572206973206e6f74206f7760008301527f6e6572206e6f7220617070726f76656420666f7220616c6c00000000000000006020830152604082019050919050565b60006127be602a83612fe0565b91507f4552433732313a2062616c616e636520717565727920666f7220746865207a6560008301527f726f2061646472657373000000000000000000000000000000000000000000006020830152604082019050919050565b6000612824602983612fe0565b91507f4552433732313a206f776e657220717565727920666f72206e6f6e657869737460008301527f656e7420746f6b656e00000000000000000000000000000000000000000000006020830152604082019050919050565b600061288a601a83612fe0565b91507f6f6e6c79207469636b6574206f776e65722063616e2073656c6c0000000000006000830152602082019050919050565b60006128ca602083612fe0565b91507f4552433732313a206d696e7420746f20746865207a65726f20616464726573736000830152602082019050919050565b600061290a602c83612fe0565b91507f4552433732313a20617070726f76656420717565727920666f72206e6f6e657860008301527f697374656e7420746f6b656e00000000000000000000000000000000000000006020830152604082019050919050565b6000612970602383612fe0565b91507f43616e206f6e6c7920626520657865637574656420627920746865206d616e6160008301527f67657200000000000000000000000000000000000000000000000000000000006020830152604082019050919050565b60006129d6602983612fe0565b91507f4552433732313a207472616e73666572206f6620746f6b656e2074686174206960008301527f73206e6f74206f776e00000000000000000000000000000000000000000000006020830152604082019050919050565b6000612a3c602f83612fe0565b91507f4552433732314d657461646174613a2055524920717565727920666f72206e6f60008301527f6e6578697374656e7420746f6b656e00000000000000000000000000000000006020830152604082019050919050565b6000612aa2602183612fe0565b91507f4552433732313a20617070726f76616c20746f2063757272656e74206f776e6560008301527f72000000000000000000000000000000000000000000000000000000000000006020830152604082019050919050565b6000612b08601483612fe0565b91507f7469636b657420686173206265656e20757365640000000000000000000000006000830152602082019050919050565b6000612b48603183612fe0565b91507f4552433732313a207472616e736665722063616c6c6572206973206e6f74206f60008301527f776e6572206e6f7220617070726f7665640000000000000000000000000000006020830152604082019050919050565b612baa81613134565b82525050565b612bb98161313e565b82525050565b6000612bcb8285612568565b9150612bd78284612568565b91508190509392505050565b6000602082019050612bf860008301846124c9565b92915050565b6000608082019050612c1360008301876124c9565b612c2060208301866124c9565b612c2d6040830185612ba1565b8181036060830152612c3f81846124e7565b905095945050505050565b6000604082019050612c5f60008301856124c9565b612c6c6020830184612ba1565b9392505050565b6000606082019050612c8860008301866124c9565b612c956020830185612ba1565b612ca26040830184612bb0565b949350505050565b6000602082019050612cbf60008301846124d8565b92915050565b6000602082019050612cda6000830184612520565b92915050565b60006020820190508181036000830152612cfa818461252f565b905092915050565b60006020820190508181036000830152612d1b81612599565b9050919050565b60006020820190508181036000830152612d3b816125ff565b9050919050565b60006020820190508181036000830152612d5b8161263f565b9050919050565b60006020820190508181036000830152612d7b816126a5565b9050919050565b60006020820190508181036000830152612d9b816126e5565b9050919050565b60006020820190508181036000830152612dbb8161274b565b9050919050565b60006020820190508181036000830152612ddb816127b1565b9050919050565b60006020820190508181036000830152612dfb81612817565b9050919050565b60006020820190508181036000830152612e1b8161287d565b9050919050565b60006020820190508181036000830152612e3b816128bd565b9050919050565b60006020820190508181036000830152612e5b816128fd565b9050919050565b60006020820190508181036000830152612e7b81612963565b9050919050565b60006020820190508181036000830152612e9b816129c9565b9050919050565b60006020820190508181036000830152612ebb81612a2f565b9050919050565b60006020820190508181036000830152612edb81612a95565b9050919050565b60006020820190508181036000830152612efb81612afb565b9050919050565b60006020820190508181036000830152612f1b81612b3b565b9050919050565b6000602082019050612f376000830184612ba1565b92915050565b6000602082019050612f526000830184612bb0565b92915050565b6000604051905081810181811067ffffffffffffffff82111715612f7f57612f7e613334565b5b8060405250919050565b600067ffffffffffffffff821115612fa457612fa3613334565b5b601f19601f8301169050602081019050919050565b600081519050919050565b600081519050919050565b600082825260208201905092915050565b600082825260208201905092915050565b600081905092915050565b600061300782613134565b915061301283613134565b9250827fffffffffffffffffffffffffffffffffffffffffffffffffffffffffffffffff0382111561304757613046613278565b5b828201905092915050565b600061305d82613134565b915061306883613134565b925082613078576130776132a7565b5b828204905092915050565b600061308e82613134565b915061309983613134565b9250828210156130ac576130ab613278565b5b828203905092915050565b60006130c282613114565b9050919050565b60008115159050919050565b60007fffffffff0000000000000000000000000000000000000000000000000000000082169050919050565b600081905061310f82613374565b919050565b600073ffffffffffffffffffffffffffffffffffffffff82169050919050565b6000819050919050565b600063ffffffff82169050919050565b600061315982613101565b9050919050565b82818337600083830152505050565b60005b8381101561318d578082015181840152602081019050613172565b8381111561319c576000848401525b50505050565b60006131ad8261313e565b915060008214156131c1576131c0613278565b5b600182039050919050565b600060028204905060018216806131e457607f821691505b602082108114156131f8576131f7613305565b5b50919050565b600061320982613134565b91507fffffffffffffffffffffffffffffffffffffffffffffffffffffffffffffffff82141561323c5761323b613278565b5b600182019050919050565b600061325282613134565b915061325d83613134565b92508261326d5761326c6132a7565b5b828206905092915050565b7f4e487b7100000000000000000000000000000000000000000000000000000000600052601160045260246000fd5b7f4e487b7100000000000000000000000000000000000000000000000000000000600052601260045260246000fd5b7f4e487b7100000000000000000000000000000000000000000000000000000000600052602160045260246000fd5b7f4e487b7100000000000000000000000000000000000000000000000000000000600052602260045260246000fd5b7f4e487b7100000000000000000000000000000000000000000000000000000000600052604160045260246000fd5b6000601f19601f8301169050919050565b60068110613385576133846132d6565b5b50565b613391816130b7565b811461339c57600080fd5b50565b6133a8816130c9565b81146133b357600080fd5b50565b6133bf816130d5565b81146133ca57600080fd5b50565b600681106133da57600080fd5b50565b6133e681613134565b81146133f157600080fd5b50565b6133fd8161313e565b811461340857600080fd5b5056fea2646970667358221220a58ce022a7031533ee06a8026607fb7de6e60388cb3473b9cd94770cd353b70a64736f6c63430008000033",
  "immutableReferences": {},
  "source": "// SPDX-License-Identifier: UNLICENSED\r\npragma solidity 0.8.0;\r\nimport \"@openzeppelin/contracts/token/ERC721/ERC721.sol\";\r\n//import \"@openzeppelin/contracts/ownership/Ownable.sol\";\r\n\r\ncontract Event is ERC721 {\r\n\r\n    enum Stages { Prep, Active, Paused, CheckinOpen, Cancelled, Closed }\r\n    Stages public stage = Stages.Prep;\r\n    // Ticket struct \r\n    struct Ticket {\r\n        address owner;\r\n        uint32 price;\r\n        bool forSale;\r\n        bool used;\r\n    }\r\n    Ticket[] tickets; \r\n    uint32 public numTicketsLeft;\r\n    uint32 public price;\r\n    // Percent royalty event creator receives from ticket resales\r\n    uint32 public royaltyPercent;\r\n    // For each user, store corresponding ticket struct\r\n    // mapping(address => Ticket) tickets;\r\n    bool public canBeResold;\r\n    address public owner;\r\n\r\n    // EVENTS\r\n    event CreateTicket(address buyer, uint ticketID);\r\n    event TicketForSale(address seller, uint ticketID, uint32 price);\r\n    event TicketSaleCancelled(address seller, uint ticketID);\r\n\r\n    // Creates a new Event Contract\r\n    constructor(uint32 _numTickets, uint32 _price, bool _canBeResold, uint32 _royaltyPercent, string memory _eventName, string memory _eventSymbol) ERC721(_eventName, _eventSymbol) {\r\n        owner = msg.sender;\r\n        numTicketsLeft = _numTickets;\r\n        price = _price;\r\n        canBeResold = _canBeResold;\r\n        royaltyPercent = _royaltyPercent;\r\n    }\r\n\r\n    // Customer purchases a ticket from Organizer\r\n    // Checks: State is Active, has enough money, \r\n    function buyTicket() public payable requiredStage(Stages.Active) ticketsLeft hasEnoughMoney(msg.value) {\r\n        // Create Ticket t\r\n        Ticket memory t;\r\n        t.owner = msg.sender;\r\n        t.price = price;\r\n        t.forSale = false;\r\n        t.used = false;\r\n\r\n        // Store t in tickets array, reduce numTicketsLeft\r\n        tickets.push(t);\r\n        uint ticketID = tickets.length;\r\n        numTicketsLeft--;\r\n\r\n        // Mint NFT\r\n        _mint(msg.sender, ticketID);\r\n        emit CreateTicket(msg.sender, ticketID);\r\n    }\r\n\r\n    // Set ticket for sale\r\n    function setTicketForSale(uint ticketID, uint32 newPrice) public requiredStage(Stages.Active) ticketNotUsed(ticketID) isTicketOwner(ticketID) {\r\n        tickets[ticketID].forSale = true;\r\n        tickets[ticketID].price = newPrice;\r\n        emit TicketForSale(msg.sender, ticketID, newPrice);\r\n    }\r\n\r\n    // Cancel Ticket Sale\r\n    function cancelSale(uint ticketID) public requiredStage(Stages.Active) isTicketOwner(ticketID) {\r\n        tickets[ticketID].forSale = false;\r\n        emit TicketSaleCancelled(msg.sender, ticketID);\r\n    }\r\n    \r\n\r\n    // Set new stage\r\n    function setStage(Stages _stage) public restricted {\r\n        stage = _stage;\r\n    }\r\n\r\n\r\n\r\n\r\n    // MODIFIERS\r\n\r\n    // Only owner\r\n    modifier restricted() {\r\n        require(msg.sender == owner, \"Can only be executed by the manager\");\r\n        _;\r\n    }\r\n\r\n    // Requires stage to be _stage\r\n    modifier requiredStage(Stages _stage) {\r\n        require(stage == _stage);\r\n        _;\r\n    }\r\n\r\n    // Requires there to be more than 0 tickets left\r\n    modifier ticketsLeft() {\r\n        require(numTicketsLeft > 0);\r\n        _;\r\n    }\r\n\r\n    modifier hasEnoughMoney(uint money) {\r\n        require(money >= price);\r\n        _;\r\n    }\r\n\r\n    modifier ticketNotUsed(uint ticketID) {\r\n        require(tickets[ticketID].used == false, \"ticket has been used\");\r\n        _;\r\n    }\r\n\r\n    modifier isTicketOwner(uint ticketID) {\r\n        require(ownerOf(ticketID) == msg.sender, \"only ticket owner can sell\");\r\n        _;\r\n    }\r\n\r\n\r\n}",
  "sourcePath": "C:/Users/ManTheMith/Desktop/COMP6452/proj/comp6452-nft/src/contracts/Event.sol",
  "compiler": {
    "name": "solc",
    "version": "0.8.0+commit.c7dfd78e.Emscripten.clang"
  },
  "schemaVersion": "3.4.1",
  "updatedAt": "2021-07-13T09:27:11.709Z",
  "networkType": "ethereum",
  "devdoc": {
    "kind": "dev",
    "methods": {
      "approve(address,uint256)": {
        "details": "See {IERC721-approve}."
      },
      "balanceOf(address)": {
        "details": "See {IERC721-balanceOf}."
      },
      "getApproved(uint256)": {
        "details": "See {IERC721-getApproved}."
      },
      "isApprovedForAll(address,address)": {
        "details": "See {IERC721-isApprovedForAll}."
      },
      "name()": {
        "details": "See {IERC721Metadata-name}."
      },
      "ownerOf(uint256)": {
        "details": "See {IERC721-ownerOf}."
      },
      "safeTransferFrom(address,address,uint256)": {
        "details": "See {IERC721-safeTransferFrom}."
      },
      "safeTransferFrom(address,address,uint256,bytes)": {
        "details": "See {IERC721-safeTransferFrom}."
      },
      "setApprovalForAll(address,bool)": {
        "details": "See {IERC721-setApprovalForAll}."
      },
      "supportsInterface(bytes4)": {
        "details": "See {IERC165-supportsInterface}."
      },
      "symbol()": {
        "details": "See {IERC721Metadata-symbol}."
      },
      "tokenURI(uint256)": {
        "details": "See {IERC721Metadata-tokenURI}."
      },
      "transferFrom(address,address,uint256)": {
        "details": "See {IERC721-transferFrom}."
      }
    },
    "version": 1
  },
  "userdoc": {
    "kind": "user",
    "methods": {},
    "version": 1
  }
}