{
  "contractName": "EventCreator",
  "abi": [
    {
      "anonymous": false,
      "inputs": [
        {
          "indexed": false,
          "internalType": "address",
          "name": "_creator",
          "type": "address"
        },
        {
          "indexed": false,
          "internalType": "address",
          "name": "_event",
          "type": "address"
        }
      ],
      "name": "CreateEvent",
      "type": "event"
    },
    {
      "inputs": [
        {
          "internalType": "uint256",
          "name": "_numTickets",
          "type": "uint256"
        },
        {
          "internalType": "uint256",
          "name": "_price",
          "type": "uint256"
        },
        {
          "internalType": "bool",
          "name": "_canBeResold",
          "type": "bool"
        },
        {
          "internalType": "uint256",
          "name": "_royaltyPercent",
          "type": "uint256"
        },
        {
          "internalType": "string",
          "name": "_eventName",
          "type": "string"
        },
        {
          "internalType": "string",
          "name": "_eventSymbol",
          "type": "string"
        }
      ],
      "name": "createEvent",
      "outputs": [
        {
          "internalType": "contract Event",
          "name": "newEvent",
          "type": "address"
        }
      ],
      "stateMutability": "nonpayable",
      "type": "function"
    }
  ],
  "bytecode": "0x608060405234801561001057600080fd5b5061605b806100206000396000f3fe60806040523480156200001157600080fd5b50600436106200004b576000357c010000000000000000000000000000000000000000000000000000000090048063f8cf8eff1462000050575b600080fd5b6200006e6004803603810190620000689190620001c7565b62000086565b6040516200007d9190620003cc565b60405180910390f35b600080338888888888886040516200009e9062000119565b620000b0979695949392919062000341565b604051809103906000f080158015620000cd573d6000803e3d6000fd5b5090507f64f31017a670226c80c75659d4bb64bf5bb7f8490fef658f1be89d99583fe30433826040516200010392919062000314565b60405180910390a1809150509695505050505050565b615a8e806200059883390190565b60006200013e62000138846200041d565b620003e9565b9050828152602081018484840111156200015757600080fd5b62000164848285620004de565b509392505050565b6000813590506200017d8162000563565b92915050565b600082601f8301126200019557600080fd5b8135620001a784826020860162000127565b91505092915050565b600081359050620001c1816200057d565b92915050565b60008060008060008060c08789031215620001e157600080fd5b6000620001f189828a01620001b0565b96505060206200020489828a01620001b0565b95505060406200021789828a016200016c565b94505060606200022a89828a01620001b0565b935050608087013567ffffffffffffffff8111156200024857600080fd5b6200025689828a0162000183565b92505060a087013567ffffffffffffffff8111156200027457600080fd5b6200028289828a0162000183565b9150509295509295509295565b6200029a816200046c565b82525050565b620002ab8162000480565b82525050565b620002bc81620004b6565b82525050565b6000620002cf8262000450565b620002db81856200045b565b9350620002ed818560208601620004ed565b620002f88162000552565b840191505092915050565b6200030e81620004ac565b82525050565b60006040820190506200032b60008301856200028f565b6200033a60208301846200028f565b9392505050565b600060e08201905062000358600083018a6200028f565b62000367602083018962000303565b62000376604083018862000303565b620003856060830187620002a0565b62000394608083018662000303565b81810360a0830152620003a88185620002c2565b905081810360c0830152620003be8184620002c2565b905098975050505050505050565b6000602082019050620003e36000830184620002b1565b92915050565b6000604051905081810181811067ffffffffffffffff8211171562000413576200041262000523565b5b8060405250919050565b600067ffffffffffffffff8211156200043b576200043a62000523565b5b601f19601f8301169050602081019050919050565b600081519050919050565b600082825260208201905092915050565b600062000479826200048c565b9050919050565b60008115159050919050565b600073ffffffffffffffffffffffffffffffffffffffff82169050919050565b6000819050919050565b6000620004c382620004ca565b9050919050565b6000620004d7826200048c565b9050919050565b82818337600083830152505050565b60005b838110156200050d578082015181840152602081019050620004f0565b838111156200051d576000848401525b50505050565b7f4e487b7100000000000000000000000000000000000000000000000000000000600052604160045260246000fd5b6000601f19601f8301169050919050565b6200056e8162000480565b81146200057a57600080fd5b50565b6200058881620004ac565b81146200059457600080fd5b5056fe60806040523480156200001157600080fd5b5060405162005a8e38038062005a8e8339818101604052810190620000379190620003da565b818181600090805190602001906200005192919062000273565b5080600190805190602001906200006a92919062000273565b5050506000831015801562000080575060648311155b620000c2576040517f08c379a0000000000000000000000000000000000000000000000000000000008152600401620000b990620005e3565b60405180910390fd5b6000861162000108576040517f08c379a0000000000000000000000000000000000000000000000000000000008152600401620000ff9062000605565b60405180910390fd5b600082905060008290506000825114156200015a576040517f08c379a0000000000000000000000000000000000000000000000000000000008152600401620001519062000627565b60405180910390fd5b600081511415620001a2576040517f08c379a00000000000000000000000000000000000000000000000000000000081526004016200019990620005c1565b60405180910390fd5b88600b60026101000a81548173ffffffffffffffffffffffffffffffffffffffff021916908373ffffffffffffffffffffffffffffffffffffffff16021790555087600a819055508660088190555085600b60006101000a81548160ff021916908315150217905550846009819055506000600660006101000a81548160ff021916908360048111156200025f577f4e487b7100000000000000000000000000000000000000000000000000000000600052602160045260246000fd5b021790555050505050505050505062000823565b828054620002819062000741565b90600052602060002090601f016020900481019282620002a55760008555620002f1565b82601f10620002c057805160ff1916838001178555620002f1565b82800160010185558215620002f1579182015b82811115620002f0578251825591602001919060010190620002d3565b5b50905062000300919062000304565b5090565b5b808211156200031f57600081600090555060010162000305565b5090565b60006200033a62000334846200067d565b62000649565b9050828152602081018484840111156200035357600080fd5b620003608482856200070b565b509392505050565b6000815190506200037981620007d5565b92915050565b6000815190506200039081620007ef565b92915050565b600082601f830112620003a857600080fd5b8151620003ba84826020860162000323565b91505092915050565b600081519050620003d48162000809565b92915050565b600080600080600080600060e0888a031215620003f657600080fd5b6000620004068a828b0162000368565b9750506020620004198a828b01620003c3565b96505060406200042c8a828b01620003c3565b95505060606200043f8a828b016200037f565b9450506080620004528a828b01620003c3565b93505060a088015167ffffffffffffffff8111156200047057600080fd5b6200047e8a828b0162000396565b92505060c088015167ffffffffffffffff8111156200049c57600080fd5b620004aa8a828b0162000396565b91505092959891949750929550565b6000620004c8600c83620006b0565b91507f6576656e742073796d626f6c00000000000000000000000000000000000000006000830152602082019050919050565b60006200050a600f83620006b0565b91507f726f79616c74792070657263656e7400000000000000000000000000000000006000830152602082019050919050565b60006200054c601183620006b0565b91507f6e756d626572206f66207469636b6574730000000000000000000000000000006000830152602082019050919050565b60006200058e600a83620006b0565b91507f6576656e74206e616d65000000000000000000000000000000000000000000006000830152602082019050919050565b60006020820190508181036000830152620005dc81620004b9565b9050919050565b60006020820190508181036000830152620005fe81620004fb565b9050919050565b6000602082019050818103600083015262000620816200053d565b9050919050565b6000602082019050818103600083015262000642816200057f565b9050919050565b6000604051905081810181811067ffffffffffffffff82111715620006735762000672620007a6565b5b8060405250919050565b600067ffffffffffffffff8211156200069b576200069a620007a6565b5b601f19601f8301169050602081019050919050565b600082825260208201905092915050565b6000620006ce82620006e1565b9050919050565b60008115159050919050565b600073ffffffffffffffffffffffffffffffffffffffff82169050919050565b6000819050919050565b60005b838110156200072b5780820151818401526020810190506200070e565b838111156200073b576000848401525b50505050565b600060028204905060018216806200075a57607f821691505b6020821081141562000771576200077062000777565b5b50919050565b7f4e487b7100000000000000000000000000000000000000000000000000000000600052602260045260246000fd5b7f4e487b7100000000000000000000000000000000000000000000000000000000600052604160045260246000fd5b620007e081620006c1565b8114620007ec57600080fd5b50565b620007fa81620006d5565b81146200080657600080fd5b50565b620008148162000701565b81146200082057600080fd5b50565b61525b80620008336000396000f3fe608060405260043610610200576000357c01000000000000000000000000000000000000000000000000000000009004806394d51fc01161011f578063a51bba8c116100b2578063c87b56dd11610081578063c87b56dd14610751578063ce3cd9971461078e578063e985e9c5146107cb578063edca914c1461080857610200565b8063a51bba8c146106a7578063b3874c0d146106d2578063b88d4fde146106fd578063c040e6b81461072657610200565b80639f67756d116100ee5780639f67756d146105eb578063a035b1fe14610616578063a22cb46514610641578063a49aa5441461066a57610200565b806394d51fc01461052f57806395d89b411461056c57806395ee1221146105975780639aecd64a146105c257610200565b80633ccfd60b116101975780636352211e116101665780636352211e1461046157806370a082311461049e57806383047374146104db5780638da5cb5b1461050457610200565b80633ccfd60b146103a657806342842e0e146103bd5780634680a424146103e657806350b447121461042357610200565b806318b3822f116101d357806318b3822f146102d357806323b872dd1461031057806327e235e3146103395780632f31707c1461037657610200565b806301ffc9a71461020557806306fdde0314610242578063081812fc1461026d578063095ea7b3146102aa575b600080fd5b34801561021157600080fd5b5061022c60048036038101906102279190613ae7565b610826565b604051610239919061483d565b60405180910390f35b34801561024e57600080fd5b50610257610908565b6040516102649190614873565b60405180910390f35b34801561027957600080fd5b50610294600480360381019061028f9190613b62565b61099a565b6040516102a191906146f3565b60405180910390f35b3480156102b657600080fd5b506102d160048036038101906102cc9190613aab565b610a1f565b005b3480156102df57600080fd5b506102fa60048036038101906102f59190613b8b565b610b37565b6040516103079190614873565b60405180910390f35b34801561031c57600080fd5b50610337600480360381019061033291906139a5565b610e70565b005b34801561034557600080fd5b50610360600480360381019061035b9190613940565b610ed0565b60405161036d9190614c75565b60405180910390f35b610390600480360381019061038b9190613b62565b610ee8565b60405161039d919061483d565b60405180910390f35b3480156103b257600080fd5b506103bb611377565b005b3480156103c957600080fd5b506103e460048036038101906103df91906139a5565b611a36565b005b3480156103f257600080fd5b5061040d60048036038101906104089190613940565b611a56565b60405161041a919061483d565b60405180910390f35b34801561042f57600080fd5b5061044a60048036038101906104459190613b62565b611a76565b604051610458929190614c90565b60405180910390f35b34801561046d57600080fd5b5061048860048036038101906104839190613b62565b611ab7565b60405161049591906146f3565b60405180910390f35b3480156104aa57600080fd5b506104c560048036038101906104c09190613940565b611b69565b6040516104d29190614c75565b60405180910390f35b3480156104e757600080fd5b5061050260048036038101906104fd9190613b62565b611c21565b005b34801561051057600080fd5b50610519611ddc565b604051610526919061470e565b60405180910390f35b34801561053b57600080fd5b5061055660048036038101906105519190613b62565b611e02565b60405161056391906146f3565b60405180910390f35b34801561057857600080fd5b50610581611e35565b60405161058e9190614873565b60405180910390f35b3480156105a357600080fd5b506105ac611ec7565b6040516105b9919061483d565b60405180910390f35b3480156105ce57600080fd5b506105e960048036038101906105e49190613aab565b611eda565b005b3480156105f757600080fd5b5061060061202d565b60405161060d9190614c75565b60405180910390f35b34801561062257600080fd5b5061062b612033565b6040516106389190614c75565b60405180910390f35b34801561064d57600080fd5b5061066860048036038101906106639190613a6f565b612039565b005b34801561067657600080fd5b50610691600480360381019061068c9190613bdf565b6121ba565b60405161069e919061483d565b60405180910390f35b3480156106b357600080fd5b506106bc612587565b6040516106c99190614c75565b60405180910390f35b3480156106de57600080fd5b506106e761258d565b6040516106f4919061483d565b60405180910390f35b34801561070957600080fd5b50610724600480360381019061071f91906139f4565b6125a0565b005b34801561073257600080fd5b5061073b612602565b6040516107489190614858565b60405180910390f35b34801561075d57600080fd5b5061077860048036038101906107739190613b62565b612615565b6040516107859190614873565b60405180910390f35b34801561079a57600080fd5b506107b560048036038101906107b09190613b39565b6126bc565b6040516107c29190614858565b60405180910390f35b3480156107d757600080fd5b506107f260048036038101906107ed9190613969565b6127b5565b6040516107ff919061483d565b60405180910390f35b610810612849565b60405161081d9190614c75565b60405180910390f35b60007f80ac58cd000000000000000000000000000000000000000000000000000000007bffffffffffffffffffffffffffffffffffffffffffffffffffffffff1916827bffffffffffffffffffffffffffffffffffffffffffffffffffffffff191614806108f157507f5b5e139f000000000000000000000000000000000000000000000000000000007bffffffffffffffffffffffffffffffffffffffffffffffffffffffff1916827bffffffffffffffffffffffffffffffffffffffffffffffffffffffff1916145b80610901575061090082612ba3565b5b9050919050565b60606000805461091790614fe9565b80601f016020809104026020016040519081016040528092919081815260200182805461094390614fe9565b80156109905780601f1061096557610100808354040283529160200191610990565b820191906000526020600020905b81548152906001019060200180831161097357829003601f168201915b5050505050905090565b60006109a582612c0d565b6109e4576040517f08c379a00000000000000000000000000000000000000000000000000000000081526004016109db90614af5565b60405180910390fd5b6004600083815260200190815260200160002060009054906101000a900473ffffffffffffffffffffffffffffffffffffffff169050919050565b6000610a2a82611ab7565b90508073ffffffffffffffffffffffffffffffffffffffff168373ffffffffffffffffffffffffffffffffffffffff161415610a9b576040517f08c379a0000000000000000000000000000000000000000000000000000000008152600401610a9290614b75565b60405180910390fd5b8073ffffffffffffffffffffffffffffffffffffffff16610aba612c79565b73ffffffffffffffffffffffffffffffffffffffff161480610ae95750610ae881610ae3612c79565b6127b5565b5b610b28576040517f08c379a0000000000000000000000000000000000000000000000000000000008152600401610b1f90614a15565b60405180910390fd5b610b328383612c81565b505050565b60606002806004811115610b74577f4e487b7100000000000000000000000000000000000000000000000000000000600052602160045260246000fd5b600660009054906101000a900460ff166004811115610bbc577f4e487b7100000000000000000000000000000000000000000000000000000000600052602160045260246000fd5b14610bfc576040517f08c379a0000000000000000000000000000000000000000000000000000000008152600401610bf390614b95565b60405180910390fd5b833373ffffffffffffffffffffffffffffffffffffffff16610c1d82611ab7565b73ffffffffffffffffffffffffffffffffffffffff1614610c73576040517f08c379a0000000000000000000000000000000000000000000000000000000008152600401610c6a906148d5565b60405180910390fd5b60006002811115610cad577f4e487b7100000000000000000000000000000000000000000000000000000000600052602160045260246000fd5b60078681548110610ce7577f4e487b7100000000000000000000000000000000000000000000000000000000600052603260045260246000fd5b906000526020600020906002020160010160009054906101000a900460ff166002811115610d3e577f4e487b7100000000000000000000000000000000000000000000000000000000600052602160045260246000fd5b14610d7e576040517f08c379a0000000000000000000000000000000000000000000000000000000008152600401610d7590614c35565b60405180910390fd5b600160078681548110610dba577f4e487b7100000000000000000000000000000000000000000000000000000000600052603260045260246000fd5b906000526020600020906002020160010160006101000a81548160ff02191690836002811115610e13577f4e487b7100000000000000000000000000000000000000000000000000000000600052602160045260246000fd5b0217905550610e2185612d3a565b7fad735fea640d2273c159ca0571101d62d2fa19a0d10e2cd97fcc2c2f30410df13086610e4c610908565b87604051610e5d94939291906147ea565b60405180910390a1839250505092915050565b610e81610e7b612c79565b82612e4b565b610ec0576040517f08c379a0000000000000000000000000000000000000000000000000000000008152600401610eb790614bb5565b60405180910390fd5b610ecb838383612f29565b505050565b600c6020528060005260406000206000915090505481565b60006001806004811115610f25577f4e487b7100000000000000000000000000000000000000000000000000000000600052602160045260246000fd5b600660009054906101000a900460ff166004811115610f6d577f4e487b7100000000000000000000000000000000000000000000000000000000600052602160045260246000fd5b14610fad576040517f08c379a0000000000000000000000000000000000000000000000000000000008152600401610fa490614b95565b60405180910390fd5b600280811115610fe6577f4e487b7100000000000000000000000000000000000000000000000000000000600052602160045260246000fd5b60078481548110611020577f4e487b7100000000000000000000000000000000000000000000000000000000600052603260045260246000fd5b906000526020600020906002020160010160009054906101000a900460ff166002811115611077577f4e487b7100000000000000000000000000000000000000000000000000000000600052602160045260246000fd5b146110b7576040517f08c379a00000000000000000000000000000000000000000000000000000000081526004016110ae90614c55565b60405180910390fd5b6000600784815481106110f3577f4e487b7100000000000000000000000000000000000000000000000000000000600052603260045260246000fd5b906000526020600020906002020160000154905080341115611177576000813461111d9190614e79565b905080600c60003373ffffffffffffffffffffffffffffffffffffffff1673ffffffffffffffffffffffffffffffffffffffff168152602001908152602001600020600082825461116e9190614d98565b92505081905550505b60006064826009546111899190614e1f565b6111939190614dee565b9050600081836111a39190614e79565b905060006111b087611ab7565b905081600c60008373ffffffffffffffffffffffffffffffffffffffff1673ffffffffffffffffffffffffffffffffffffffff16815260200190815260200160002060008282546112019190614d98565b9250508190555082600c6000600b60029054906101000a900473ffffffffffffffffffffffffffffffffffffffff1673ffffffffffffffffffffffffffffffffffffffff1673ffffffffffffffffffffffffffffffffffffffff16815260200190815260200160002060008282546112799190614d98565b925050819055507ff43c2b94d59192e43ff5461a2ec018bcf2178e26af43252b9bb00e937ab5c843306112aa610908565b338a6040516112bc9493929190614775565b60405180910390a16112cf813389611a36565b60006007888154811061130b577f4e487b7100000000000000000000000000000000000000000000000000000000600052603260045260246000fd5b906000526020600020906002020160010160006101000a81548160ff02191690836002811115611364577f4e487b7100000000000000000000000000000000000000000000000000000000600052602160045260246000fd5b0217905550600195505050505050919050565b600b60029054906101000a900473ffffffffffffffffffffffffffffffffffffffff1673ffffffffffffffffffffffffffffffffffffffff163373ffffffffffffffffffffffffffffffffffffffff161415611408576040517f08c379a00000000000000000000000000000000000000000000000000000000081526004016113ff90614a95565b60405180910390fd5b600b60029054906101000a900473ffffffffffffffffffffffffffffffffffffffff1673ffffffffffffffffffffffffffffffffffffffff163373ffffffffffffffffffffffffffffffffffffffff161461177b576000600c60003373ffffffffffffffffffffffffffffffffffffffff1673ffffffffffffffffffffffffffffffffffffffff168152602001908152602001600020549050600360048111156114db577f4e487b7100000000000000000000000000000000000000000000000000000000600052602160045260246000fd5b600660009054906101000a900460ff166004811115611523577f4e487b7100000000000000000000000000000000000000000000000000000000600052602160045260246000fd5b148015611580575060001515600d60003373ffffffffffffffffffffffffffffffffffffffff1673ffffffffffffffffffffffffffffffffffffffff16815260200190815260200160002060009054906101000a900460ff161515145b156115a95760085461159133611b69565b61159b9190614e1f565b816115a69190614d98565b90505b600081116115ec576040517f08c379a00000000000000000000000000000000000000000000000000000000081526004016115e390614995565b60405180910390fd5b6000600c60003373ffffffffffffffffffffffffffffffffffffffff1673ffffffffffffffffffffffffffffffffffffffff168152602001908152602001600020819055506001600d60003373ffffffffffffffffffffffffffffffffffffffff1673ffffffffffffffffffffffffffffffffffffffff16815260200190815260200160002060006101000a81548160ff021916908315150217905550600033905060008173ffffffffffffffffffffffffffffffffffffffff16836040516116b4906146de565b60006040518083038185875af1925050503d80600081146116f1576040519150601f19603f3d011682016040523d82523d6000602084013e6116f6565b606091505b505090508061173a576040517f08c379a000000000000000000000000000000000000000000000000000000000815260040161173190614a75565b60405180910390fd5b7f9fe2db218b58c00ab3556f2be44b2769b37978368c63313d82d78306568e4776338460405161176b9291906147c1565b60405180910390a1505050611a34565b6004808111156117b4577f4e487b7100000000000000000000000000000000000000000000000000000000600052602160045260246000fd5b600660009054906101000a900460ff1660048111156117fc577f4e487b7100000000000000000000000000000000000000000000000000000000600052602160045260246000fd5b1461183c576040517f08c379a000000000000000000000000000000000000000000000000000000000815260040161183390614c15565b60405180910390fd5b6000600c6000600b60029054906101000a900473ffffffffffffffffffffffffffffffffffffffff1673ffffffffffffffffffffffffffffffffffffffff1673ffffffffffffffffffffffffffffffffffffffff168152602001908152602001600020549050600081116118e5576040517f08c379a00000000000000000000000000000000000000000000000000000000081526004016118dc90614895565b60405180910390fd5b6000600c6000600b60029054906101000a900473ffffffffffffffffffffffffffffffffffffffff1673ffffffffffffffffffffffffffffffffffffffff1673ffffffffffffffffffffffffffffffffffffffff1681526020019081526020016000208190555060003373ffffffffffffffffffffffffffffffffffffffff1682604051611972906146de565b60006040518083038185875af1925050503d80600081146119af576040519150601f19603f3d011682016040523d82523d6000602084013e6119b4565b606091505b50509050806119f8576040517f08c379a00000000000000000000000000000000000000000000000000000000081526004016119ef90614bf5565b60405180910390fd5b7f5f0d69e5c0056ecc650fc0d2d916359037135dac3d5b5446d226dfdbe292482e3383604051611a299291906147c1565b60405180910390a150505b565b611a51838383604051806020016040528060008152506125a0565b505050565b600d6020528060005260406000206000915054906101000a900460ff1681565b60078181548110611a8657600080fd5b90600052602060002090600202016000915090508060000154908060010160009054906101000a900460ff16905082565b6000806002600084815260200190815260200160002060009054906101000a900473ffffffffffffffffffffffffffffffffffffffff169050600073ffffffffffffffffffffffffffffffffffffffff168173ffffffffffffffffffffffffffffffffffffffff161415611b60576040517f08c379a0000000000000000000000000000000000000000000000000000000008152600401611b5790614a55565b60405180910390fd5b80915050919050565b60008073ffffffffffffffffffffffffffffffffffffffff168273ffffffffffffffffffffffffffffffffffffffff161415611bda576040517f08c379a0000000000000000000000000000000000000000000000000000000008152600401611bd190614a35565b60405180910390fd5b600360008373ffffffffffffffffffffffffffffffffffffffff1673ffffffffffffffffffffffffffffffffffffffff168152602001908152602001600020549050919050565b6001806004811115611c5c577f4e487b7100000000000000000000000000000000000000000000000000000000600052602160045260246000fd5b600660009054906101000a900460ff166004811115611ca4577f4e487b7100000000000000000000000000000000000000000000000000000000600052602160045260246000fd5b14611ce4576040517f08c379a0000000000000000000000000000000000000000000000000000000008152600401611cdb90614b95565b60405180910390fd5b3373ffffffffffffffffffffffffffffffffffffffff16600e600084815260200190815260200160002060009054906101000a900473ffffffffffffffffffffffffffffffffffffffff1673ffffffffffffffffffffffffffffffffffffffff161415611d86576040517f08c379a0000000000000000000000000000000000000000000000000000000008152600401611d7d906148f5565b60405180910390fd5b33600e600084815260200190815260200160002060006101000a81548173ffffffffffffffffffffffffffffffffffffffff021916908373ffffffffffffffffffffffffffffffffffffffff1602179055505050565b600b60029054906101000a900473ffffffffffffffffffffffffffffffffffffffff1681565b600e6020528060005260406000206000915054906101000a900473ffffffffffffffffffffffffffffffffffffffff1681565b606060018054611e4490614fe9565b80601f0160208091040260200160405190810160405280929190818152602001828054611e7090614fe9565b8015611ebd5780601f10611e9257610100808354040283529160200191611ebd565b820191906000526020600020905b815481529060010190602001808311611ea057829003601f168201915b5050505050905090565b600b60019054906101000a900460ff1681565b6001806004811115611f15577f4e487b7100000000000000000000000000000000000000000000000000000000600052602160045260246000fd5b600660009054906101000a900460ff166004811115611f5d577f4e487b7100000000000000000000000000000000000000000000000000000000600052602160045260246000fd5b14611f9d576040517f08c379a0000000000000000000000000000000000000000000000000000000008152600401611f9490614b95565b60405180910390fd5b3373ffffffffffffffffffffffffffffffffffffffff16611fbd83611ab7565b73ffffffffffffffffffffffffffffffffffffffff1614612013576040517f08c379a000000000000000000000000000000000000000000000000000000000815260040161200a90614935565b60405180910390fd5b61201e836001612039565b6120288383610a1f565b505050565b60095481565b60085481565b612041612c79565b73ffffffffffffffffffffffffffffffffffffffff168273ffffffffffffffffffffffffffffffffffffffff1614156120af576040517f08c379a00000000000000000000000000000000000000000000000000000000081526004016120a690614975565b60405180910390fd5b80600560006120bc612c79565b73ffffffffffffffffffffffffffffffffffffffff1673ffffffffffffffffffffffffffffffffffffffff16815260200190815260200160002060008473ffffffffffffffffffffffffffffffffffffffff1673ffffffffffffffffffffffffffffffffffffffff16815260200190815260200160002060006101000a81548160ff0219169083151502179055508173ffffffffffffffffffffffffffffffffffffffff16612169612c79565b73ffffffffffffffffffffffffffffffffffffffff167f17307eab39ab6107e8899845ad3d59bd9653f200f220920489ca2b5937696c31836040516121ae919061483d565b60405180910390a35050565b600060018060048111156121f7577f4e487b7100000000000000000000000000000000000000000000000000000000600052602160045260246000fd5b600660009054906101000a900460ff16600481111561223f577f4e487b7100000000000000000000000000000000000000000000000000000000600052602160045260246000fd5b1461227f576040517f08c379a000000000000000000000000000000000000000000000000000000000815260040161227690614b95565b60405180910390fd5b833373ffffffffffffffffffffffffffffffffffffffff166122a082611ab7565b73ffffffffffffffffffffffffffffffffffffffff16146122f6576040517f08c379a00000000000000000000000000000000000000000000000000000000081526004016122ed906148d5565b60405180910390fd5b60016002811115612330577f4e487b7100000000000000000000000000000000000000000000000000000000600052602160045260246000fd5b6007868154811061236a577f4e487b7100000000000000000000000000000000000000000000000000000000600052603260045260246000fd5b906000526020600020906002020160010160009054906101000a900460ff1660028111156123c1577f4e487b7100000000000000000000000000000000000000000000000000000000600052602160045260246000fd5b1415612402576040517f08c379a00000000000000000000000000000000000000000000000000000000081526004016123f990614ab5565b60405180910390fd5b60011515600b60009054906101000a900460ff16151514612458576040517f08c379a000000000000000000000000000000000000000000000000000000000815260040161244f90614bd5565b60405180910390fd5b600260078681548110612494577f4e487b7100000000000000000000000000000000000000000000000000000000600052603260045260246000fd5b906000526020600020906002020160010160006101000a81548160ff021916908360028111156124ed577f4e487b7100000000000000000000000000000000000000000000000000000000600052602160045260246000fd5b0217905550836007868154811061252d577f4e487b7100000000000000000000000000000000000000000000000000000000600052603260045260246000fd5b9060005260206000209060020201600001819055507fec1a51878793b26371980da80139946e4a398461978717cbe8d07596dd3404b633866040516125739291906147c1565b60405180910390a160019250505092915050565b600a5481565b600b60009054906101000a900460ff1681565b6125b16125ab612c79565b83612e4b565b6125f0576040517f08c379a00000000000000000000000000000000000000000000000000000000081526004016125e790614bb5565b60405180910390fd5b6125fc84848484613185565b50505050565b600660009054906101000a900460ff1681565b606061262082612c0d565b61265f576040517f08c379a000000000000000000000000000000000000000000000000000000000815260040161265690614b35565b60405180910390fd5b60006126696131e1565b9050600081511161268957604051806020016040528060008152506126b4565b80612693846131f8565b6040516020016126a49291906146ba565b6040516020818303038152906040525b915050919050565b6000600b60029054906101000a900473ffffffffffffffffffffffffffffffffffffffff1673ffffffffffffffffffffffffffffffffffffffff163373ffffffffffffffffffffffffffffffffffffffff161461274e576040517f08c379a000000000000000000000000000000000000000000000000000000000815260040161274590614b55565b60405180910390fd5b81600660006101000a81548160ff02191690836004811115612799577f4e487b7100000000000000000000000000000000000000000000000000000000600052602160045260246000fd5b0217905550600660009054906101000a900460ff169050919050565b6000600560008473ffffffffffffffffffffffffffffffffffffffff1673ffffffffffffffffffffffffffffffffffffffff16815260200190815260200160002060008373ffffffffffffffffffffffffffffffffffffffff1673ffffffffffffffffffffffffffffffffffffffff16815260200190815260200160002060009054906101000a900460ff16905092915050565b60006001806004811115612886577f4e487b7100000000000000000000000000000000000000000000000000000000600052602160045260246000fd5b600660009054906101000a900460ff1660048111156128ce577f4e487b7100000000000000000000000000000000000000000000000000000000600052602160045260246000fd5b1461290e576040517f08c379a000000000000000000000000000000000000000000000000000000000815260040161290590614b95565b60405180910390fd5b6000600a5411612953576040517f08c379a000000000000000000000000000000000000000000000000000000000815260040161294a906149d5565b60405180910390fd5b600854341015612998576040517f08c379a000000000000000000000000000000000000000000000000000000000815260040161298f906149f5565b60405180910390fd5b600760405180604001604052806008548152602001600060028111156129e7577f4e487b7100000000000000000000000000000000000000000000000000000000600052602160045260246000fd5b81525090806001815401808255809150506001900390600052602060002090600202016000909190919091506000820151816000015560208201518160010160006101000a81548160ff02191690836002811115612a6e577f4e487b7100000000000000000000000000000000000000000000000000000000600052602160045260246000fd5b0217905550505060006001600780549050612a899190614e79565b9050600a6000815480929190612a9e90614fbf565b9190505550600854341115612b1757600060085434612abd9190614e79565b905080600c60003373ffffffffffffffffffffffffffffffffffffffff1673ffffffffffffffffffffffffffffffffffffffff1681526020019081526020016000206000828254612b0e9190614d98565b92505081905550505b600854600c6000600b60029054906101000a900473ffffffffffffffffffffffffffffffffffffffff1673ffffffffffffffffffffffffffffffffffffffff1673ffffffffffffffffffffffffffffffffffffffff1681526020019081526020016000206000828254612b8a9190614d98565b92505081905550612b9b33826133c4565b809250505090565b60007f01ffc9a7000000000000000000000000000000000000000000000000000000007bffffffffffffffffffffffffffffffffffffffffffffffffffffffff1916827bffffffffffffffffffffffffffffffffffffffffffffffffffffffff1916149050919050565b60008073ffffffffffffffffffffffffffffffffffffffff166002600084815260200190815260200160002060009054906101000a900473ffffffffffffffffffffffffffffffffffffffff1673ffffffffffffffffffffffffffffffffffffffff1614159050919050565b600033905090565b816004600083815260200190815260200160002060006101000a81548173ffffffffffffffffffffffffffffffffffffffff021916908373ffffffffffffffffffffffffffffffffffffffff160217905550808273ffffffffffffffffffffffffffffffffffffffff16612cf483611ab7565b73ffffffffffffffffffffffffffffffffffffffff167f8c5be1e5ebec7d5bd14f71427d1e84f3dd0314c0f7b2291e5b200ac8c7c3b92560405160405180910390a45050565b6000612d4582611ab7565b9050612d53816000846133e2565b612d5e600083612c81565b6001600360008373ffffffffffffffffffffffffffffffffffffffff1673ffffffffffffffffffffffffffffffffffffffff1681526020019081526020016000206000828254612dae9190614e79565b925050819055506002600083815260200190815260200160002060006101000a81549073ffffffffffffffffffffffffffffffffffffffff021916905581600073ffffffffffffffffffffffffffffffffffffffff168273ffffffffffffffffffffffffffffffffffffffff167fddf252ad1be2c89b69c2b068fc378daa952ba7f163c4a11628f55a4df523b3ef60405160405180910390a45050565b6000612e5682612c0d565b612e95576040517f08c379a0000000000000000000000000000000000000000000000000000000008152600401612e8c906149b5565b60405180910390fd5b6000612ea083611ab7565b90508073ffffffffffffffffffffffffffffffffffffffff168473ffffffffffffffffffffffffffffffffffffffff161480612f0f57508373ffffffffffffffffffffffffffffffffffffffff16612ef78461099a565b73ffffffffffffffffffffffffffffffffffffffff16145b80612f205750612f1f81856127b5565b5b91505092915050565b8273ffffffffffffffffffffffffffffffffffffffff16612f4982611ab7565b73ffffffffffffffffffffffffffffffffffffffff1614612f9f576040517f08c379a0000000000000000000000000000000000000000000000000000000008152600401612f9690614b15565b60405180910390fd5b600073ffffffffffffffffffffffffffffffffffffffff168273ffffffffffffffffffffffffffffffffffffffff16141561300f576040517f08c379a000000000000000000000000000000000000000000000000000000000815260040161300690614955565b60405180910390fd5b61301a8383836133e2565b613025600082612c81565b6001600360008573ffffffffffffffffffffffffffffffffffffffff1673ffffffffffffffffffffffffffffffffffffffff16815260200190815260200160002060008282546130759190614e79565b925050819055506001600360008473ffffffffffffffffffffffffffffffffffffffff1673ffffffffffffffffffffffffffffffffffffffff16815260200190815260200160002060008282546130cc9190614d98565b92505081905550816002600083815260200190815260200160002060006101000a81548173ffffffffffffffffffffffffffffffffffffffff021916908373ffffffffffffffffffffffffffffffffffffffff160217905550808273ffffffffffffffffffffffffffffffffffffffff168473ffffffffffffffffffffffffffffffffffffffff167fddf252ad1be2c89b69c2b068fc378daa952ba7f163c4a11628f55a4df523b3ef60405160405180910390a4505050565b613190848484612f29565b61319c848484846133e7565b6131db576040517f08c379a00000000000000000000000000000000000000000000000000000000081526004016131d2906148b5565b60405180910390fd5b50505050565b606060405180602001604052806000815250905090565b60606000821415613240576040518060400160405280600181526020017f300000000000000000000000000000000000000000000000000000000000000081525090506133bf565b600082905060005b6000821461327257808061325b9061501b565b915050600a8261326b9190614dee565b9150613248565b60008167ffffffffffffffff8111156132b4577f4e487b7100000000000000000000000000000000000000000000000000000000600052604160045260246000fd5b6040519080825280601f01601f1916602001820160405280156132e65781602001600182028036833780820191505090505b5090505b600085146133b8576001826132ff9190614e79565b9150600a8561330e9190615064565b603061331a9190614d98565b7f010000000000000000000000000000000000000000000000000000000000000002818381518110613375577f4e487b7100000000000000000000000000000000000000000000000000000000600052603260045260246000fd5b60200101907effffffffffffffffffffffffffffffffffffffffffffffffffffffffffffff1916908160001a905350600a856133b19190614dee565b94506132ea565b8093505050505b919050565b6133de8282604051806020016040528060008152506135b6565b5050565b505050565b60006134088473ffffffffffffffffffffffffffffffffffffffff16613611565b156135a9578373ffffffffffffffffffffffffffffffffffffffff1663150b7a02613431612c79565b8786866040518563ffffffff167c010000000000000000000000000000000000000000000000000000000002815260040161346f9493929190614729565b602060405180830381600087803b15801561348957600080fd5b505af19250505080156134ba57506040513d601f19601f820116820180604052508101906134b79190613b10565b60015b61353d573d80600081146134ea576040519150601f19603f3d011682016040523d82523d6000602084013e6134ef565b606091505b50600081511415613535576040517f08c379a000000000000000000000000000000000000000000000000000000000815260040161352c906148b5565b60405180910390fd5b805181602001fd5b63150b7a027c0100000000000000000000000000000000000000000000000000000000027bffffffffffffffffffffffffffffffffffffffffffffffffffffffff1916817bffffffffffffffffffffffffffffffffffffffffffffffffffffffff1916149150506135ae565b600190505b949350505050565b6135c08383613624565b6135cd60008484846133e7565b61360c576040517f08c379a0000000000000000000000000000000000000000000000000000000008152600401613603906148b5565b60405180910390fd5b505050565b600080823b905060008111915050919050565b600073ffffffffffffffffffffffffffffffffffffffff168273ffffffffffffffffffffffffffffffffffffffff161415613694576040517f08c379a000000000000000000000000000000000000000000000000000000000815260040161368b90614ad5565b60405180910390fd5b61369d81612c0d565b156136dd576040517f08c379a00000000000000000000000000000000000000000000000000000000081526004016136d490614915565b60405180910390fd5b6136e9600083836133e2565b6001600360008473ffffffffffffffffffffffffffffffffffffffff1673ffffffffffffffffffffffffffffffffffffffff16815260200190815260200160002060008282546137399190614d98565b92505081905550816002600083815260200190815260200160002060006101000a81548173ffffffffffffffffffffffffffffffffffffffff021916908373ffffffffffffffffffffffffffffffffffffffff160217905550808273ffffffffffffffffffffffffffffffffffffffff16600073ffffffffffffffffffffffffffffffffffffffff167fddf252ad1be2c89b69c2b068fc378daa952ba7f163c4a11628f55a4df523b3ef60405160405180910390a45050565b600061380561380084614cea565b614cb9565b90508281526020810184848401111561381d57600080fd5b613828848285614f7d565b509392505050565b600061384361383e84614d1a565b614cb9565b90508281526020810184848401111561385b57600080fd5b613866848285614f7d565b509392505050565b60008135905061387d816151b9565b92915050565b600081359050613892816151d0565b92915050565b6000813590506138a7816151e7565b92915050565b6000815190506138bc816151e7565b92915050565b600082601f8301126138d357600080fd5b81356138e38482602086016137f2565b91505092915050565b6000813590506138fb816151fe565b92915050565b600082601f83011261391257600080fd5b8135613922848260208601613830565b91505092915050565b60008135905061393a8161520e565b92915050565b60006020828403121561395257600080fd5b60006139608482850161386e565b91505092915050565b6000806040838503121561397c57600080fd5b600061398a8582860161386e565b925050602061399b8582860161386e565b9150509250929050565b6000806000606084860312156139ba57600080fd5b60006139c88682870161386e565b93505060206139d98682870161386e565b92505060406139ea8682870161392b565b9150509250925092565b60008060008060808587031215613a0a57600080fd5b6000613a188782880161386e565b9450506020613a298782880161386e565b9350506040613a3a8782880161392b565b925050606085013567ffffffffffffffff811115613a5757600080fd5b613a63878288016138c2565b91505092959194509250565b60008060408385031215613a8257600080fd5b6000613a908582860161386e565b9250506020613aa185828601613883565b9150509250929050565b60008060408385031215613abe57600080fd5b6000613acc8582860161386e565b9250506020613add8582860161392b565b9150509250929050565b600060208284031215613af957600080fd5b6000613b0784828501613898565b91505092915050565b600060208284031215613b2257600080fd5b6000613b30848285016138ad565b91505092915050565b600060208284031215613b4b57600080fd5b6000613b59848285016138ec565b91505092915050565b600060208284031215613b7457600080fd5b6000613b828482850161392b565b91505092915050565b60008060408385031215613b9e57600080fd5b6000613bac8582860161392b565b925050602083013567ffffffffffffffff811115613bc957600080fd5b613bd585828601613901565b9150509250929050565b60008060408385031215613bf257600080fd5b6000613c008582860161392b565b9250506020613c118582860161392b565b9150509250929050565b613c2481614ebf565b82525050565b613c3381614ead565b82525050565b613c4281614ed1565b82525050565b6000613c5382614d4a565b613c5d8185614d60565b9350613c6d818560208601614f8c565b613c7681615180565b840191505092915050565b613c8a81614f59565b82525050565b613c9981614f6b565b82525050565b6000613caa82614d55565b613cb48185614d7c565b9350613cc4818560208601614f8c565b613ccd81615180565b840191505092915050565b6000613ce382614d55565b613ced8185614d8d565b9350613cfd818560208601614f8c565b80840191505092915050565b6000613d16601483614d7c565b91507f4e6f206d6f6e657920746f2077697468647261770000000000000000000000006000830152602082019050919050565b6000613d56603283614d7c565b91507f4552433732313a207472616e7366657220746f206e6f6e20455243373231526560008301527f63656976657220696d706c656d656e74657200000000000000000000000000006020830152604082019050919050565b6000613dbc601483614d7c565b91507f55736572206d757374206f776e207469636b65740000000000000000000000006000830152602082019050919050565b6000613dfc601283614d7c565b91507f616c7265616479207265676973746572656400000000000000000000000000006000830152602082019050919050565b6000613e3c601c83614d7c565b91507f4552433732313a20746f6b656e20616c7265616479206d696e746564000000006000830152602082019050919050565b6000613e7c600d83614d7c565b91507f6e6f207065726d697373696f6e000000000000000000000000000000000000006000830152602082019050919050565b6000613ebc602483614d7c565b91507f4552433732313a207472616e7366657220746f20746865207a65726f2061646460008301527f72657373000000000000000000000000000000000000000000000000000000006020830152604082019050919050565b6000613f22601983614d7c565b91507f4552433732313a20617070726f766520746f2063616c6c6572000000000000006000830152602082019050919050565b6000613f62602483614d7c565b91507f5573657220646f6573206e6f742068617665206d6f6e657920746f207769746860008301527f64726177000000000000000000000000000000000000000000000000000000006020830152604082019050919050565b6000613fc8602c83614d7c565b91507f4552433732313a206f70657261746f7220717565727920666f72206e6f6e657860008301527f697374656e7420746f6b656e00000000000000000000000000000000000000006020830152604082019050919050565b600061402e600b83614d7c565b91507f6e6f20746978206c6566740000000000000000000000000000000000000000006000830152602082019050919050565b600061406e601283614d7c565b91507f496e73756666696369656e742066756e647300000000000000000000000000006000830152602082019050919050565b60006140ae603883614d7c565b91507f4552433732313a20617070726f76652063616c6c6572206973206e6f74206f7760008301527f6e6572206e6f7220617070726f76656420666f7220616c6c00000000000000006020830152604082019050919050565b6000614114602a83614d7c565b91507f4552433732313a2062616c616e636520717565727920666f7220746865207a6560008301527f726f2061646472657373000000000000000000000000000000000000000000006020830152604082019050919050565b600061417a602983614d7c565b91507f4552433732313a206f776e657220717565727920666f72206e6f6e657869737460008301527f656e7420746f6b656e00000000000000000000000000000000000000000000006020830152604082019050919050565b60006141e0601c83614d7c565b91507f4661696c656420746f2073656e6420657468657220746f2075736572000000006000830152602082019050919050565b6000614220602083614d7c565b91507f43616e206e6f7420626520657865637574656420627920746865206f776e65726000830152602082019050919050565b6000614260600b83614d7c565b91507f7469636b657420757365640000000000000000000000000000000000000000006000830152602082019050919050565b60006142a0602083614d7c565b91507f4552433732313a206d696e7420746f20746865207a65726f20616464726573736000830152602082019050919050565b60006142e0602c83614d7c565b91507f4552433732313a20617070726f76656420717565727920666f72206e6f6e657860008301527f697374656e7420746f6b656e00000000000000000000000000000000000000006020830152604082019050919050565b6000614346602983614d7c565b91507f4552433732313a207472616e73666572206f6620746f6b656e2074686174206960008301527f73206e6f74206f776e00000000000000000000000000000000000000000000006020830152604082019050919050565b60006143ac602f83614d7c565b91507f4552433732314d657461646174613a2055524920717565727920666f72206e6f60008301527f6e6578697374656e7420746f6b656e00000000000000000000000000000000006020830152604082019050919050565b6000614412600a83614d7c565b91507f6f6e6c79206f776e6572000000000000000000000000000000000000000000006000830152602082019050919050565b6000614452602183614d7c565b91507f4552433732313a20617070726f76616c20746f2063757272656e74206f776e6560008301527f72000000000000000000000000000000000000000000000000000000000000006020830152604082019050919050565b60006144b8600f83614d7c565b91507f696e636f727265637420737461676500000000000000000000000000000000006000830152602082019050919050565b60006144f8600083614d71565b9150600082019050919050565b6000614512603183614d7c565b91507f4552433732313a207472616e736665722063616c6c6572206973206e6f74206f60008301527f776e6572206e6f7220617070726f7665640000000000000000000000000000006020830152604082019050919050565b6000614578601083614d7c565b91507f6e6f207469636b657420726573616c65000000000000000000000000000000006000830152602082019050919050565b60006145b8601d83614d7c565b91507f4661696c656420746f2073656e6420657468657220746f206f776e65720000006000830152602082019050919050565b60006145f8601283614d7c565b91507f4576656e74206e6f74206f7665722079657400000000000000000000000000006000830152602082019050919050565b6000614638601883614d7c565b91507f6e6f2076616c6964207469636b657420666f72207573657200000000000000006000830152602082019050919050565b6000614678601283614d7c565b91507f7469636b657420756e617661696c61626c6500000000000000000000000000006000830152602082019050919050565b6146b481614f4f565b82525050565b60006146c68285613cd8565b91506146d28284613cd8565b91508190509392505050565b60006146e9826144eb565b9150819050919050565b60006020820190506147086000830184613c2a565b92915050565b60006020820190506147236000830184613c1b565b92915050565b600060808201905061473e6000830187613c2a565b61474b6020830186613c2a565b61475860408301856146ab565b818103606083015261476a8184613c48565b905095945050505050565b600060808201905061478a6000830187613c2a565b818103602083015261479c8186613c9f565b90506147ab6040830185613c2a565b6147b860608301846146ab565b95945050505050565b60006040820190506147d66000830185613c2a565b6147e360208301846146ab565b9392505050565b60006080820190506147ff6000830187613c2a565b61480c60208301866146ab565b818103604083015261481e8185613c9f565b905081810360608301526148328184613c9f565b905095945050505050565b60006020820190506148526000830184613c39565b92915050565b600060208201905061486d6000830184613c81565b92915050565b6000602082019050818103600083015261488d8184613c9f565b905092915050565b600060208201905081810360008301526148ae81613d09565b9050919050565b600060208201905081810360008301526148ce81613d49565b9050919050565b600060208201905081810360008301526148ee81613daf565b9050919050565b6000602082019050818103600083015261490e81613def565b9050919050565b6000602082019050818103600083015261492e81613e2f565b9050919050565b6000602082019050818103600083015261494e81613e6f565b9050919050565b6000602082019050818103600083015261496e81613eaf565b9050919050565b6000602082019050818103600083015261498e81613f15565b9050919050565b600060208201905081810360008301526149ae81613f55565b9050919050565b600060208201905081810360008301526149ce81613fbb565b9050919050565b600060208201905081810360008301526149ee81614021565b9050919050565b60006020820190508181036000830152614a0e81614061565b9050919050565b60006020820190508181036000830152614a2e816140a1565b9050919050565b60006020820190508181036000830152614a4e81614107565b9050919050565b60006020820190508181036000830152614a6e8161416d565b9050919050565b60006020820190508181036000830152614a8e816141d3565b9050919050565b60006020820190508181036000830152614aae81614213565b9050919050565b60006020820190508181036000830152614ace81614253565b9050919050565b60006020820190508181036000830152614aee81614293565b9050919050565b60006020820190508181036000830152614b0e816142d3565b9050919050565b60006020820190508181036000830152614b2e81614339565b9050919050565b60006020820190508181036000830152614b4e8161439f565b9050919050565b60006020820190508181036000830152614b6e81614405565b9050919050565b60006020820190508181036000830152614b8e81614445565b9050919050565b60006020820190508181036000830152614bae816144ab565b9050919050565b60006020820190508181036000830152614bce81614505565b9050919050565b60006020820190508181036000830152614bee8161456b565b9050919050565b60006020820190508181036000830152614c0e816145ab565b9050919050565b60006020820190508181036000830152614c2e816145eb565b9050919050565b60006020820190508181036000830152614c4e8161462b565b9050919050565b60006020820190508181036000830152614c6e8161466b565b9050919050565b6000602082019050614c8a60008301846146ab565b92915050565b6000604082019050614ca560008301856146ab565b614cb26020830184613c90565b9392505050565b6000604051905081810181811067ffffffffffffffff82111715614ce057614cdf615151565b5b8060405250919050565b600067ffffffffffffffff821115614d0557614d04615151565b5b601f19601f8301169050602081019050919050565b600067ffffffffffffffff821115614d3557614d34615151565b5b601f19601f8301169050602081019050919050565b600081519050919050565b600081519050919050565b600082825260208201905092915050565b600081905092915050565b600082825260208201905092915050565b600081905092915050565b6000614da382614f4f565b9150614dae83614f4f565b9250827fffffffffffffffffffffffffffffffffffffffffffffffffffffffffffffffff03821115614de357614de2615095565b5b828201905092915050565b6000614df982614f4f565b9150614e0483614f4f565b925082614e1457614e136150c4565b5b828204905092915050565b6000614e2a82614f4f565b9150614e3583614f4f565b9250817fffffffffffffffffffffffffffffffffffffffffffffffffffffffffffffffff0483118215151615614e6e57614e6d615095565b5b828202905092915050565b6000614e8482614f4f565b9150614e8f83614f4f565b925082821015614ea257614ea1615095565b5b828203905092915050565b6000614eb882614f2f565b9050919050565b6000614eca82614f2f565b9050919050565b60008115159050919050565b60007fffffffff0000000000000000000000000000000000000000000000000000000082169050919050565b6000819050614f1782615191565b919050565b6000819050614f2a826151a5565b919050565b600073ffffffffffffffffffffffffffffffffffffffff82169050919050565b6000819050919050565b6000614f6482614f09565b9050919050565b6000614f7682614f1c565b9050919050565b82818337600083830152505050565b60005b83811015614faa578082015181840152602081019050614f8f565b83811115614fb9576000848401525b50505050565b6000614fca82614f4f565b91506000821415614fde57614fdd615095565b5b600182039050919050565b6000600282049050600182168061500157607f821691505b6020821081141561501557615014615122565b5b50919050565b600061502682614f4f565b91507fffffffffffffffffffffffffffffffffffffffffffffffffffffffffffffffff82141561505957615058615095565b5b600182019050919050565b600061506f82614f4f565b915061507a83614f4f565b92508261508a576150896150c4565b5b828206905092915050565b7f4e487b7100000000000000000000000000000000000000000000000000000000600052601160045260246000fd5b7f4e487b7100000000000000000000000000000000000000000000000000000000600052601260045260246000fd5b7f4e487b7100000000000000000000000000000000000000000000000000000000600052602160045260246000fd5b7f4e487b7100000000000000000000000000000000000000000000000000000000600052602260045260246000fd5b7f4e487b7100000000000000000000000000000000000000000000000000000000600052604160045260246000fd5b6000601f19601f8301169050919050565b600581106151a2576151a16150f3565b5b50565b600381106151b6576151b56150f3565b5b50565b6151c281614ead565b81146151cd57600080fd5b50565b6151d981614ed1565b81146151e457600080fd5b50565b6151f081614edd565b81146151fb57600080fd5b50565b6005811061520b57600080fd5b50565b61521781614f4f565b811461522257600080fd5b5056fea264697066735822122083f369952179ad1efbcfe3b7e3224c75d784a718686a4cfb8d2700ff3ed6f77564736f6c63430008000033a2646970667358221220e9261fac2375776f4c6b7d80eb558aba3f38b475add038656ca93ef57d2a5db464736f6c63430008000033",
  "immutableReferences": {},
  "source": "// SPDX-License-Identifier: MIT\npragma solidity >=0.7.0 <0.9.0;\nimport \"@openzeppelin/contracts/token/ERC721/ERC721.sol\";\n\n/// @title Factory Contract to create events\ncontract EventCreator {\n\n    // EVENTS\n    event CreateEvent(address _creator, address _event);\n\n    /**\n     * @notice Creates Events\n     * @param _numTickets Number of tickets \n     * @param _price Price per ticket\n     * @param _canBeResold Are tickets allowed to be resold\n     * @param _royaltyPercent Royalty percentage accrued by organizers on reselling of ticket\n     * @param _eventName Name of the Ticket NFT\n     * @param _eventSymbol Symbol for the Ticket NFT Token\n     */\n    function createEvent(uint _numTickets, uint _price, bool _canBeResold, uint _royaltyPercent,\n            string memory _eventName, string memory _eventSymbol) external returns(Event newEvent) {\n\n        // Create a new Event smart contract\n        Event e = new Event(msg.sender, _numTickets, _price, _canBeResold, _royaltyPercent, _eventName, _eventSymbol);\n        \n        // Store/return event address\n        emit CreateEvent(msg.sender, address(e));\n        return e;\n    }\n}\n\n/// @title Contract to mint tickets of an event\ncontract Event is ERC721 {\n    /// Control Event Status at a granular level\n    enum Stages { Prep, Active, CheckinOpen, Cancelled, Closed }\n    // Stages public stage = Stages.Prep;\n    Stages public stage;\n    /// Control Ticket Status at a granular level\n    /// Valid - Ticket is Valid\n    /// Used - Ticket is used\n    /// AvailableForSale - Ticket is allowed to be sold to someone\n    enum TicketStatus { Valid, Used, AvailableForSale }\n    \n    // Ticket struct \n    struct Ticket {\n        uint resalePrice;\n        TicketStatus status;\n    }\n    \n    // array to store tickets, index will be ticketID\n    Ticket[] public tickets;\n    \n    // ticket original price\n    uint public price;\n    \n    // Percent royalty event creator receives from ticket resales\n    uint public royaltyPercent;\n    \n    // number of tickets left to sell\n    uint256 public numTicketsLeft;\n    \n    // if ticket can be resold in the second market\n    bool public canBeResold;\n    \n    // if event is cancelled\n    bool public isCancelled;\n    \n    // orginizer of event\n    address payable public owner;\n    \n    // to store the balances for buyers and organizers\n    mapping(address => uint) public balances;\n    mapping(address => bool) public isUserRefund;\n    mapping(uint => address) public registeredBuyers;\n\n    // EVENTS\n    event CreateTicket(address contractAddress, string eventName, address buyer, uint ticketID);\n    event WithdrawMoney(address receiver, uint money);\n    event OwnerWithdrawMoney(address owner, uint money);\n    event TicketForSale(address seller, uint ticketID);\n    event TicketSold(address contractAddress, string eventName, address buyer, uint ticketID);\n    event TicketUsed(address contractAddress, uint ticketID, string eventName, string sQRCodeKey);\n\n    // Creates a new Event Contract\n    constructor(address _owner, uint _numTickets, uint _price, bool _canBeResold, uint _royaltyPercent,\n            string memory _eventName, string memory _eventSymbol) ERC721(_eventName, _eventSymbol) {    \n        // Check valid constructor arguments\n        require(_royaltyPercent >= 0 && _royaltyPercent <= 100, \"royalty percent\");\n        // Number of tickets must be greater than 0\n        require(_numTickets > 0, \"number of tickets\");\n        // EventName, EventSymbol cannot be empty string\n        bytes memory eventNameBytes = bytes(_eventName);\n        bytes memory eventSymbolBytes = bytes(_eventSymbol);\n        require(eventNameBytes.length != 0, \"event name\");\n        require(eventSymbolBytes.length != 0, \"event symbol\");\n        \n        owner = payable(_owner);\n        numTicketsLeft = _numTickets;\n        price = _price;\n        canBeResold = _canBeResold;\n        royaltyPercent = _royaltyPercent;\n        stage = Stages.Prep;\n    }\n\n    /**\n     * @notice Buy tickets\n     * @dev Checks: State is Active, has enough money\n     */\n    function buyTicket() public payable requiredStage(Stages.Active)\n                                            returns (uint){\n        require(numTicketsLeft > 0, \"no tix left\");\n        require(msg.value >= price, \"Insufficient funds\");\n        \n        // Create Ticket t, Store t in tickets array\n        tickets.push(Ticket(price, TicketStatus.Valid));\n        uint ticketID = tickets.length - 1;\n        numTicketsLeft--;\n        \n        // store overpaid in balances\n        if (msg.value > price) {\n            uint amount = msg.value - price;\n            balances[msg.sender] += amount;\n        }\n        balances[owner] += price;\n        \n        // Mint NFT\n        _safeMint(msg.sender, ticketID);\n        \n        return ticketID;\n    }\n\n    /**\n     * @notice Mark ticket as used\n     * @dev Only a valid buyer can mark ticket as used\n     * @param ticketID ticket ID of ticket\n     */\n    function buyTicketFromUser(uint ticketID) public payable requiredStage(Stages.Active) returns (bool) {\n        // Check if ticket is available for sale\n        require(tickets[ticketID].status == TicketStatus.AvailableForSale, \"ticket unavailable\");\n\n        // calc amount to pay after royalty\n        uint ticketPrice = tickets[ticketID].resalePrice;\n        // store overpaid in balances\n        if (msg.value > ticketPrice) {\n            uint amount = msg.value - ticketPrice;\n            balances[msg.sender] += amount;\n        }\n        uint royalty = (royaltyPercent * ticketPrice) / 100;\n        uint priceToPay = ticketPrice - royalty;\n\n        address payable seller = payable(ownerOf(ticketID));\n        // store balances for seller and owner to withdraw later\n        balances[seller] += priceToPay;\n        balances[owner] += royalty;\n        \n        emit TicketSold(address(this), name(), msg.sender, ticketID);\n        safeTransferFrom(seller, msg.sender, ticketID);\n\n        tickets[ticketID].status = TicketStatus.Valid;\n\n        return true;\n    }\n    \n    /**\n     * @notice Mark ticket as used\n     * @dev Only a valid buyer can mark ticket as used\n     * @param ticketID ticket ID of ticket\n     * @param sQRCodeKey QR Code key sent by the app \n     */\n    function setTicketToUsed(uint ticketID, string memory sQRCodeKey) public requiredStage(Stages.CheckinOpen)\n                                                                    ownsTicket(ticketID) returns (string memory){\n\t\t// Validate that user has a ticket they own and it is valid\n        require(tickets[ticketID].status == TicketStatus.Valid, \"no valid ticket for user\");\n    \n        // Ticket is valid so mark it as used\n        tickets[ticketID].status = TicketStatus.Used;\n\n        // Burn the Token\n        _burn(ticketID); \n        \n        // Raise event which Gate Management system can consume then\n        emit TicketUsed(address(this), ticketID, name(), sQRCodeKey);\n        \n        return sQRCodeKey;\n\t}\n\n    /**\n     * @notice Mark ticket as used\n     * @dev Only a valid buyer can mark ticket as used\n     * @param ticketID ticket ID of ticket\n     * @param resalePrice resale price for ticket\n     */\n    function setTicketForSale(uint ticketID, uint resalePrice) public requiredStage(Stages.Active) ownsTicket(ticketID) returns(bool) {\n\t\t// Validate that user has a ticket they own and it is valid\n        require(tickets[ticketID].status != TicketStatus.Used, \"ticket used\");\n        require(canBeResold == true, \"no ticket resale\");\n        \n        // Ticket is valid so mark it for sale\n        tickets[ticketID].status = TicketStatus.AvailableForSale;\n        tickets[ticketID].resalePrice = resalePrice;\n        \n        // Raise event which Gate Management system can consume then\n        emit TicketForSale(msg.sender, ticketID);\n        \n        //return ticketID;\n        return true;\n\t}\n\n    /**\n     * @notice User to withdraw money \n     * @dev User can withdraw money if event cancelled or overpaid for ticket\n     */\n    function withdraw() public {\n        require(msg.sender != owner, \"Can not be executed by the owner\");\n        if (msg.sender != owner) {\n            // Amount to send to user\n            uint sendToUser = balances[msg.sender];\n            \n            // If event cancelled, send user the amount they overpaid for ticket + ticket price refund\n            if (stage == Stages.Cancelled && isUserRefund[msg.sender] == false ) {\n                sendToUser += balanceOf(msg.sender) * price;\n            }\n\n            // Cannot withdraw if no money to withdraw\n            require(sendToUser > 0, \"User does not have money to withdraw\");\n            \n            // Update balance before transfering money\n            balances[msg.sender] = 0;\n            isUserRefund[msg.sender] = true;\n\n            // Transfer money to user\n            address payable receiver = payable(msg.sender);\n            // Call will forwards all available gas\n            (bool sent, ) = receiver.call{value:sendToUser}(\"\");\n            // Failure condition of send will emit this error\n            require(sent, \"Failed to send ether to user\");\n            emit WithdrawMoney(msg.sender, sendToUser);\n        } else {\n            // Owner\n            require(stage == Stages.Closed, \"Event not over yet\");\n            uint ownerBalance = balances[owner];\n            require(ownerBalance > 0, \"No money to withdraw\");\n            \n            // Update balance before transfering money\n            balances[owner] = 0;\n\n            // Call will forwards all available gas\n            (bool sent, ) = msg.sender.call{value:ownerBalance}(\"\");\n            // Failure condition if cannot transfer\n            require(sent, \"Failed to send ether to owner\");\n            emit OwnerWithdrawMoney(msg.sender, ownerBalance);\n        }\n        \n    }\n\n    /**\n     * @dev approve a buyer to buy ticket of another user\n     */\n    function approveAsBuyer(address buyer, uint ticketID) public requiredStage(Stages.Active){\n        require(ownerOf(ticketID) == msg.sender, \"no permission\");\n        setApprovalForAll(buyer, bool(true));\n        approve(buyer, ticketID);\n    }\n\n    /**\n     * @dev register as buyer\n     */\n    function registerAsBuyer(uint ticketID) public requiredStage(Stages.Active){\n        require(registeredBuyers[ticketID] != msg.sender, \"already registered\");\n\n        registeredBuyers[ticketID] = msg.sender;\n    }\n    \n    /** \n     * @notice Change Status\n     * @dev Only owner can change state\n     * @param _stage Stages as set in enum Stages\n     */\n    function setStage(Stages _stage) public onlyOwner returns (Stages) {\n        stage = _stage;\n        return stage;\n    }\n\n\n    // MODIFIERS\n    // Only owner\n    modifier onlyOwner() {\n        require(msg.sender == owner, \"only owner\");\n        _;\n    }\n\n    // Requires stage to be _stage\n    modifier requiredStage(Stages _stage) {\n        require(stage == _stage, \"incorrect stage\");\n        _;\n    }\n\n    // Check if user is ticket owner\n    modifier ownsTicket(uint ticketID) {\n        require(ownerOf(ticketID) == msg.sender, \"User must own ticket\");\n        _;\n    }\n\n}\n\n",
  "sourcePath": "/Users/michaelgysel/Desktop/nftickets_new_new/NFT-Event-Ticketing/src/contracts/Event.sol",
  "compiler": {
    "name": "solc",
    "version": "0.8.0+commit.c7dfd78e.Emscripten.clang"
  },
  "schemaVersion": "3.4.16",
  "updatedAt": "2023-10-03T13:26:09.349Z",
  "networkType": "ethereum",
  "devdoc": {
    "kind": "dev",
    "methods": {
      "createEvent(uint256,uint256,bool,uint256,string,string)": {
        "params": {
          "_canBeResold": "Are tickets allowed to be resold",
          "_eventName": "Name of the Ticket NFT",
          "_eventSymbol": "Symbol for the Ticket NFT Token",
          "_numTickets": "Number of tickets ",
          "_price": "Price per ticket",
          "_royaltyPercent": "Royalty percentage accrued by organizers on reselling of ticket"
        }
      }
    },
    "title": "Factory Contract to create events",
    "version": 1
  },
  "userdoc": {
    "kind": "user",
    "methods": {
      "createEvent(uint256,uint256,bool,uint256,string,string)": {
        "notice": "Creates Events"
      }
    },
    "version": 1
  }
}