{
  "contractName": "Event",
  "abi": [
    {
      "inputs": [
        {
          "internalType": "uint32",
          "name": "_numTickets",
          "type": "uint32"
        },
        {
          "internalType": "uint32",
          "name": "_price",
          "type": "uint32"
        },
        {
          "internalType": "bool",
          "name": "_canBeResold",
          "type": "bool"
        },
        {
          "internalType": "uint32",
          "name": "_royaltyPercent",
          "type": "uint32"
        },
        {
          "internalType": "string",
          "name": "_eventName",
          "type": "string"
        },
        {
          "internalType": "string",
          "name": "_eventSymbol",
          "type": "string"
        }
      ],
      "stateMutability": "nonpayable",
      "type": "constructor"
    },
    {
      "anonymous": false,
      "inputs": [
        {
          "indexed": true,
          "internalType": "address",
          "name": "owner",
          "type": "address"
        },
        {
          "indexed": true,
          "internalType": "address",
          "name": "approved",
          "type": "address"
        },
        {
          "indexed": true,
          "internalType": "uint256",
          "name": "tokenId",
          "type": "uint256"
        }
      ],
      "name": "Approval",
      "type": "event"
    },
    {
      "anonymous": false,
      "inputs": [
        {
          "indexed": true,
          "internalType": "address",
          "name": "owner",
          "type": "address"
        },
        {
          "indexed": true,
          "internalType": "address",
          "name": "operator",
          "type": "address"
        },
        {
          "indexed": false,
          "internalType": "bool",
          "name": "approved",
          "type": "bool"
        }
      ],
      "name": "ApprovalForAll",
      "type": "event"
    },
    {
      "anonymous": false,
      "inputs": [
        {
          "indexed": false,
          "internalType": "address",
          "name": "buyer",
          "type": "address"
        },
        {
          "indexed": false,
          "internalType": "uint256",
          "name": "ticketID",
          "type": "uint256"
        }
      ],
      "name": "CreateTicket",
      "type": "event"
    },
    {
      "anonymous": false,
      "inputs": [
        {
          "indexed": true,
          "internalType": "address",
          "name": "from",
          "type": "address"
        },
        {
          "indexed": true,
          "internalType": "address",
          "name": "to",
          "type": "address"
        },
        {
          "indexed": true,
          "internalType": "uint256",
          "name": "tokenId",
          "type": "uint256"
        }
      ],
      "name": "Transfer",
      "type": "event"
    },
    {
      "inputs": [
        {
          "internalType": "address",
          "name": "to",
          "type": "address"
        },
        {
          "internalType": "uint256",
          "name": "tokenId",
          "type": "uint256"
        }
      ],
      "name": "approve",
      "outputs": [],
      "stateMutability": "nonpayable",
      "type": "function"
    },
    {
      "inputs": [
        {
          "internalType": "address",
          "name": "owner",
          "type": "address"
        }
      ],
      "name": "balanceOf",
      "outputs": [
        {
          "internalType": "uint256",
          "name": "",
          "type": "uint256"
        }
      ],
      "stateMutability": "view",
      "type": "function"
    },
    {
      "inputs": [],
      "name": "canBeResold",
      "outputs": [
        {
          "internalType": "bool",
          "name": "",
          "type": "bool"
        }
      ],
      "stateMutability": "view",
      "type": "function"
    },
    {
      "inputs": [
        {
          "internalType": "uint256",
          "name": "tokenId",
          "type": "uint256"
        }
      ],
      "name": "getApproved",
      "outputs": [
        {
          "internalType": "address",
          "name": "",
          "type": "address"
        }
      ],
      "stateMutability": "view",
      "type": "function"
    },
    {
      "inputs": [
        {
          "internalType": "address",
          "name": "owner",
          "type": "address"
        },
        {
          "internalType": "address",
          "name": "operator",
          "type": "address"
        }
      ],
      "name": "isApprovedForAll",
      "outputs": [
        {
          "internalType": "bool",
          "name": "",
          "type": "bool"
        }
      ],
      "stateMutability": "view",
      "type": "function"
    },
    {
      "inputs": [],
      "name": "name",
      "outputs": [
        {
          "internalType": "string",
          "name": "",
          "type": "string"
        }
      ],
      "stateMutability": "view",
      "type": "function"
    },
    {
      "inputs": [],
      "name": "numTicketsLeft",
      "outputs": [
        {
          "internalType": "uint32",
          "name": "",
          "type": "uint32"
        }
      ],
      "stateMutability": "view",
      "type": "function"
    },
    {
      "inputs": [],
      "name": "owner",
      "outputs": [
        {
          "internalType": "address",
          "name": "",
          "type": "address"
        }
      ],
      "stateMutability": "view",
      "type": "function"
    },
    {
      "inputs": [
        {
          "internalType": "uint256",
          "name": "tokenId",
          "type": "uint256"
        }
      ],
      "name": "ownerOf",
      "outputs": [
        {
          "internalType": "address",
          "name": "",
          "type": "address"
        }
      ],
      "stateMutability": "view",
      "type": "function"
    },
    {
      "inputs": [],
      "name": "price",
      "outputs": [
        {
          "internalType": "uint32",
          "name": "",
          "type": "uint32"
        }
      ],
      "stateMutability": "view",
      "type": "function"
    },
    {
      "inputs": [],
      "name": "royaltyPercent",
      "outputs": [
        {
          "internalType": "uint32",
          "name": "",
          "type": "uint32"
        }
      ],
      "stateMutability": "view",
      "type": "function"
    },
    {
      "inputs": [
        {
          "internalType": "address",
          "name": "from",
          "type": "address"
        },
        {
          "internalType": "address",
          "name": "to",
          "type": "address"
        },
        {
          "internalType": "uint256",
          "name": "tokenId",
          "type": "uint256"
        }
      ],
      "name": "safeTransferFrom",
      "outputs": [],
      "stateMutability": "nonpayable",
      "type": "function"
    },
    {
      "inputs": [
        {
          "internalType": "address",
          "name": "from",
          "type": "address"
        },
        {
          "internalType": "address",
          "name": "to",
          "type": "address"
        },
        {
          "internalType": "uint256",
          "name": "tokenId",
          "type": "uint256"
        },
        {
          "internalType": "bytes",
          "name": "_data",
          "type": "bytes"
        }
      ],
      "name": "safeTransferFrom",
      "outputs": [],
      "stateMutability": "nonpayable",
      "type": "function"
    },
    {
      "inputs": [
        {
          "internalType": "address",
          "name": "operator",
          "type": "address"
        },
        {
          "internalType": "bool",
          "name": "approved",
          "type": "bool"
        }
      ],
      "name": "setApprovalForAll",
      "outputs": [],
      "stateMutability": "nonpayable",
      "type": "function"
    },
    {
      "inputs": [],
      "name": "stage",
      "outputs": [
        {
          "internalType": "enum Event.Stages",
          "name": "",
          "type": "uint8"
        }
      ],
      "stateMutability": "view",
      "type": "function"
    },
    {
      "inputs": [
        {
          "internalType": "bytes4",
          "name": "interfaceId",
          "type": "bytes4"
        }
      ],
      "name": "supportsInterface",
      "outputs": [
        {
          "internalType": "bool",
          "name": "",
          "type": "bool"
        }
      ],
      "stateMutability": "view",
      "type": "function"
    },
    {
      "inputs": [],
      "name": "symbol",
      "outputs": [
        {
          "internalType": "string",
          "name": "",
          "type": "string"
        }
      ],
      "stateMutability": "view",
      "type": "function"
    },
    {
      "inputs": [
        {
          "internalType": "uint256",
          "name": "tokenId",
          "type": "uint256"
        }
      ],
      "name": "tokenURI",
      "outputs": [
        {
          "internalType": "string",
          "name": "",
          "type": "string"
        }
      ],
      "stateMutability": "view",
      "type": "function"
    },
    {
      "inputs": [
        {
          "internalType": "address",
          "name": "from",
          "type": "address"
        },
        {
          "internalType": "address",
          "name": "to",
          "type": "address"
        },
        {
          "internalType": "uint256",
          "name": "tokenId",
          "type": "uint256"
        }
      ],
      "name": "transferFrom",
      "outputs": [],
      "stateMutability": "nonpayable",
      "type": "function"
    },
    {
      "inputs": [],
      "name": "buyTicket",
      "outputs": [],
      "stateMutability": "payable",
      "type": "function"
    },
    {
      "inputs": [
        {
          "internalType": "enum Event.Stages",
          "name": "_stage",
          "type": "uint8"
        }
      ],
      "name": "setStage",
      "outputs": [],
      "stateMutability": "nonpayable",
      "type": "function"
    }
  ],
  "bytecode": "0x60806040526000600660006101000a81548160ff0219169083600581111562000051577f4e487b7100000000000000000000000000000000000000000000000000000000600052602160045260246000fd5b02179055503480156200006357600080fd5b5060405162003361380380620033618339818101604052810190620000899190620002d8565b81818160009080519060200190620000a392919062000188565b508060019080519060200190620000bc92919062000188565b50505033600960006101000a81548173ffffffffffffffffffffffffffffffffffffffff021916908373ffffffffffffffffffffffffffffffffffffffff16021790555085600860006101000a81548163ffffffff021916908363ffffffff16021790555084600860046101000a81548163ffffffff021916908363ffffffff160217905550836008600c6101000a81548160ff021916908315150217905550826008806101000a81548163ffffffff021916908363ffffffff16021790555050505050505062000521565b828054620001969062000459565b90600052602060002090601f016020900481019282620001ba576000855562000206565b82601f10620001d557805160ff191683800117855562000206565b8280016001018555821562000206579182015b8281111562000205578251825591602001919060010190620001e8565b5b50905062000215919062000219565b5090565b5b80821115620002345760008160009055506001016200021a565b5090565b60006200024f6200024984620003d4565b620003a0565b9050828152602081018484840111156200026857600080fd5b6200027584828562000423565b509392505050565b6000815190506200028e81620004ed565b92915050565b600082601f830112620002a657600080fd5b8151620002b884826020860162000238565b91505092915050565b600081519050620002d28162000507565b92915050565b60008060008060008060c08789031215620002f257600080fd5b60006200030289828a01620002c1565b96505060206200031589828a01620002c1565b95505060406200032889828a016200027d565b94505060606200033b89828a01620002c1565b935050608087015167ffffffffffffffff8111156200035957600080fd5b6200036789828a0162000294565b92505060a087015167ffffffffffffffff8111156200038557600080fd5b6200039389828a0162000294565b9150509295509295509295565b6000604051905081810181811067ffffffffffffffff82111715620003ca57620003c9620004be565b5b8060405250919050565b600067ffffffffffffffff821115620003f257620003f1620004be565b5b601f19601f8301169050602081019050919050565b60008115159050919050565b600063ffffffff82169050919050565b60005b838110156200044357808201518184015260208101905062000426565b8381111562000453576000848401525b50505050565b600060028204905060018216806200047257607f821691505b602082108114156200048957620004886200048f565b5b50919050565b7f4e487b7100000000000000000000000000000000000000000000000000000000600052602260045260246000fd5b7f4e487b7100000000000000000000000000000000000000000000000000000000600052604160045260246000fd5b620004f88162000407565b81146200050457600080fd5b50565b620005128162000413565b81146200051e57600080fd5b50565b612e3080620005316000396000f3fe60806040526004361061012a5760003560e01c80639f67756d116100ab578063b88d4fde1161006f578063b88d4fde146103f4578063c040e6b81461041d578063c87b56dd14610448578063ce3cd99714610485578063e985e9c5146104ae578063edca914c146104eb5761012a565b80639f67756d1461031f578063a035b1fe1461034a578063a22cb46514610375578063a51bba8c1461039e578063b3874c0d146103c95761012a565b806342842e0e116100f257806342842e0e146102265780636352211e1461024f57806370a082311461028c5780638da5cb5b146102c957806395d89b41146102f45761012a565b806301ffc9a71461012f57806306fdde031461016c578063081812fc14610197578063095ea7b3146101d457806323b872dd146101fd575b600080fd5b34801561013b57600080fd5b5061015660048036038101906101519190611f22565b6104f5565b60405161016391906126f0565b60405180910390f35b34801561017857600080fd5b506101816105d7565b60405161018e9190612726565b60405180910390f35b3480156101a357600080fd5b506101be60048036038101906101b99190611f9d565b610669565b6040516101cb9190612660565b60405180910390f35b3480156101e057600080fd5b506101fb60048036038101906101f69190611ee6565b6106ee565b005b34801561020957600080fd5b50610224600480360381019061021f9190611de0565b610806565b005b34801561023257600080fd5b5061024d60048036038101906102489190611de0565b610866565b005b34801561025b57600080fd5b5061027660048036038101906102719190611f9d565b610886565b6040516102839190612660565b60405180910390f35b34801561029857600080fd5b506102b360048036038101906102ae9190611d7b565b610938565b6040516102c09190612928565b60405180910390f35b3480156102d557600080fd5b506102de6109f0565b6040516102eb9190612660565b60405180910390f35b34801561030057600080fd5b50610309610a16565b6040516103169190612726565b60405180910390f35b34801561032b57600080fd5b50610334610aa8565b6040516103419190612943565b60405180910390f35b34801561035657600080fd5b5061035f610abc565b60405161036c9190612943565b60405180910390f35b34801561038157600080fd5b5061039c60048036038101906103979190611eaa565b610ad2565b005b3480156103aa57600080fd5b506103b3610c53565b6040516103c09190612943565b60405180910390f35b3480156103d557600080fd5b506103de610c69565b6040516103eb91906126f0565b60405180910390f35b34801561040057600080fd5b5061041b60048036038101906104169190611e2f565b610c7c565b005b34801561042957600080fd5b50610432610cde565b60405161043f919061270b565b60405180910390f35b34801561045457600080fd5b5061046f600480360381019061046a9190611f9d565b610cf1565b60405161047c9190612726565b60405180910390f35b34801561049157600080fd5b506104ac60048036038101906104a79190611f74565b610d98565b005b3480156104ba57600080fd5b506104d560048036038101906104d09190611da4565b610e7b565b6040516104e291906126f0565b60405180910390f35b6104f3610f0f565b005b60007f80ac58cd000000000000000000000000000000000000000000000000000000007bffffffffffffffffffffffffffffffffffffffffffffffffffffffff1916827bffffffffffffffffffffffffffffffffffffffffffffffffffffffff191614806105c057507f5b5e139f000000000000000000000000000000000000000000000000000000007bffffffffffffffffffffffffffffffffffffffffffffffffffffffff1916827bffffffffffffffffffffffffffffffffffffffffffffffffffffffff1916145b806105d057506105cf826111df565b5b9050919050565b6060600080546105e690612bd2565b80601f016020809104026020016040519081016040528092919081815260200182805461061290612bd2565b801561065f5780601f106106345761010080835404028352916020019161065f565b820191906000526020600020905b81548152906001019060200180831161064257829003601f168201915b5050505050905090565b600061067482611249565b6106b3576040517f08c379a00000000000000000000000000000000000000000000000000000000081526004016106aa90612868565b60405180910390fd5b6004600083815260200190815260200160002060009054906101000a900473ffffffffffffffffffffffffffffffffffffffff169050919050565b60006106f982610886565b90508073ffffffffffffffffffffffffffffffffffffffff168373ffffffffffffffffffffffffffffffffffffffff16141561076a576040517f08c379a0000000000000000000000000000000000000000000000000000000008152600401610761906128e8565b60405180910390fd5b8073ffffffffffffffffffffffffffffffffffffffff166107896112b5565b73ffffffffffffffffffffffffffffffffffffffff1614806107b857506107b7816107b26112b5565b610e7b565b5b6107f7576040517f08c379a00000000000000000000000000000000000000000000000000000000081526004016107ee906127e8565b60405180910390fd5b61080183836112bd565b505050565b6108176108116112b5565b82611376565b610856576040517f08c379a000000000000000000000000000000000000000000000000000000000815260040161084d90612908565b60405180910390fd5b610861838383611454565b505050565b61088183838360405180602001604052806000815250610c7c565b505050565b6000806002600084815260200190815260200160002060009054906101000a900473ffffffffffffffffffffffffffffffffffffffff169050600073ffffffffffffffffffffffffffffffffffffffff168173ffffffffffffffffffffffffffffffffffffffff16141561092f576040517f08c379a000000000000000000000000000000000000000000000000000000000815260040161092690612828565b60405180910390fd5b80915050919050565b60008073ffffffffffffffffffffffffffffffffffffffff168273ffffffffffffffffffffffffffffffffffffffff1614156109a9576040517f08c379a00000000000000000000000000000000000000000000000000000000081526004016109a090612808565b60405180910390fd5b600360008373ffffffffffffffffffffffffffffffffffffffff1673ffffffffffffffffffffffffffffffffffffffff168152602001908152602001600020549050919050565b600960009054906101000a900473ffffffffffffffffffffffffffffffffffffffff1681565b606060018054610a2590612bd2565b80601f0160208091040260200160405190810160405280929190818152602001828054610a5190612bd2565b8015610a9e5780601f10610a7357610100808354040283529160200191610a9e565b820191906000526020600020905b815481529060010190602001808311610a8157829003601f168201915b5050505050905090565b60088054906101000a900463ffffffff1681565b600860049054906101000a900463ffffffff1681565b610ada6112b5565b73ffffffffffffffffffffffffffffffffffffffff168273ffffffffffffffffffffffffffffffffffffffff161415610b48576040517f08c379a0000000000000000000000000000000000000000000000000000000008152600401610b3f906127a8565b60405180910390fd5b8060056000610b556112b5565b73ffffffffffffffffffffffffffffffffffffffff1673ffffffffffffffffffffffffffffffffffffffff16815260200190815260200160002060008473ffffffffffffffffffffffffffffffffffffffff1673ffffffffffffffffffffffffffffffffffffffff16815260200190815260200160002060006101000a81548160ff0219169083151502179055508173ffffffffffffffffffffffffffffffffffffffff16610c026112b5565b73ffffffffffffffffffffffffffffffffffffffff167f17307eab39ab6107e8899845ad3d59bd9653f200f220920489ca2b5937696c3183604051610c4791906126f0565b60405180910390a35050565b600860009054906101000a900463ffffffff1681565b6008600c9054906101000a900460ff1681565b610c8d610c876112b5565b83611376565b610ccc576040517f08c379a0000000000000000000000000000000000000000000000000000000008152600401610cc390612908565b60405180910390fd5b610cd8848484846116b0565b50505050565b600660009054906101000a900460ff1681565b6060610cfc82611249565b610d3b576040517f08c379a0000000000000000000000000000000000000000000000000000000008152600401610d32906128c8565b60405180910390fd5b6000610d4561170c565b90506000815111610d655760405180602001604052806000815250610d90565b80610d6f84611723565b604051602001610d8092919061263c565b6040516020818303038152906040525b915050919050565b600960009054906101000a900473ffffffffffffffffffffffffffffffffffffffff1673ffffffffffffffffffffffffffffffffffffffff163373ffffffffffffffffffffffffffffffffffffffff1614610e28576040517f08c379a0000000000000000000000000000000000000000000000000000000008152600401610e1f90612888565b60405180910390fd5b80600660006101000a81548160ff02191690836005811115610e73577f4e487b7100000000000000000000000000000000000000000000000000000000600052602160045260246000fd5b021790555050565b6000600560008473ffffffffffffffffffffffffffffffffffffffff1673ffffffffffffffffffffffffffffffffffffffff16815260200190815260200160002060008373ffffffffffffffffffffffffffffffffffffffff1673ffffffffffffffffffffffffffffffffffffffff16815260200190815260200160002060009054906101000a900460ff16905092915050565b6001806005811115610f4a577f4e487b7100000000000000000000000000000000000000000000000000000000600052602160045260246000fd5b600660009054906101000a900460ff166005811115610f92577f4e487b7100000000000000000000000000000000000000000000000000000000600052602160045260246000fd5b14610f9c57600080fd5b6000600860009054906101000a900463ffffffff1663ffffffff1611610fc157600080fd5b34600860049054906101000a900463ffffffff1663ffffffff16811015610fe757600080fd5b610fef611c4d565b33816000019073ffffffffffffffffffffffffffffffffffffffff16908173ffffffffffffffffffffffffffffffffffffffff1681525050600860049054906101000a900463ffffffff16816020019063ffffffff16908163ffffffff1681525050600081604001901515908115158152505060008160600190151590811515815250506007819080600181540180825580915050600190039060005260206000200160009091909190915060008201518160000160006101000a81548173ffffffffffffffffffffffffffffffffffffffff021916908373ffffffffffffffffffffffffffffffffffffffff16021790555060208201518160000160146101000a81548163ffffffff021916908363ffffffff16021790555060408201518160000160186101000a81548160ff02191690831515021790555060608201518160000160196101000a81548160ff0219169083151502179055505050600060078054905090506008600081819054906101000a900463ffffffff168092919061117790612ba8565b91906101000a81548163ffffffff021916908363ffffffff160217905550506111a033826118d0565b7f45b138e571439656fbf8d1d09364ce6268bcd2bcbefd7d1d01c57ab4f8bbe8fc33826040516111d19291906126c7565b60405180910390a150505050565b60007f01ffc9a7000000000000000000000000000000000000000000000000000000007bffffffffffffffffffffffffffffffffffffffffffffffffffffffff1916827bffffffffffffffffffffffffffffffffffffffffffffffffffffffff1916149050919050565b60008073ffffffffffffffffffffffffffffffffffffffff166002600084815260200190815260200160002060009054906101000a900473ffffffffffffffffffffffffffffffffffffffff1673ffffffffffffffffffffffffffffffffffffffff1614159050919050565b600033905090565b816004600083815260200190815260200160002060006101000a81548173ffffffffffffffffffffffffffffffffffffffff021916908373ffffffffffffffffffffffffffffffffffffffff160217905550808273ffffffffffffffffffffffffffffffffffffffff1661133083610886565b73ffffffffffffffffffffffffffffffffffffffff167f8c5be1e5ebec7d5bd14f71427d1e84f3dd0314c0f7b2291e5b200ac8c7c3b92560405160405180910390a45050565b600061138182611249565b6113c0576040517f08c379a00000000000000000000000000000000000000000000000000000000081526004016113b7906127c8565b60405180910390fd5b60006113cb83610886565b90508073ffffffffffffffffffffffffffffffffffffffff168473ffffffffffffffffffffffffffffffffffffffff16148061143a57508373ffffffffffffffffffffffffffffffffffffffff1661142284610669565b73ffffffffffffffffffffffffffffffffffffffff16145b8061144b575061144a8185610e7b565b5b91505092915050565b8273ffffffffffffffffffffffffffffffffffffffff1661147482610886565b73ffffffffffffffffffffffffffffffffffffffff16146114ca576040517f08c379a00000000000000000000000000000000000000000000000000000000081526004016114c1906128a8565b60405180910390fd5b600073ffffffffffffffffffffffffffffffffffffffff168273ffffffffffffffffffffffffffffffffffffffff16141561153a576040517f08c379a000000000000000000000000000000000000000000000000000000000815260040161153190612788565b60405180910390fd5b611545838383611a9e565b6115506000826112bd565b6001600360008573ffffffffffffffffffffffffffffffffffffffff1673ffffffffffffffffffffffffffffffffffffffff16815260200190815260200160002060008282546115a09190612a89565b925050819055506001600360008473ffffffffffffffffffffffffffffffffffffffff1673ffffffffffffffffffffffffffffffffffffffff16815260200190815260200160002060008282546115f79190612a02565b92505081905550816002600083815260200190815260200160002060006101000a81548173ffffffffffffffffffffffffffffffffffffffff021916908373ffffffffffffffffffffffffffffffffffffffff160217905550808273ffffffffffffffffffffffffffffffffffffffff168473ffffffffffffffffffffffffffffffffffffffff167fddf252ad1be2c89b69c2b068fc378daa952ba7f163c4a11628f55a4df523b3ef60405160405180910390a4505050565b6116bb848484611454565b6116c784848484611aa3565b611706576040517f08c379a00000000000000000000000000000000000000000000000000000000081526004016116fd90612748565b60405180910390fd5b50505050565b606060405180602001604052806000815250905090565b6060600082141561176b576040518060400160405280600181526020017f300000000000000000000000000000000000000000000000000000000000000081525090506118cb565b600082905060005b6000821461179d57808061178690612c04565b915050600a826117969190612a58565b9150611773565b60008167ffffffffffffffff8111156117df577f4e487b7100000000000000000000000000000000000000000000000000000000600052604160045260246000fd5b6040519080825280601f01601f1916602001820160405280156118115781602001600182028036833780820191505090505b5090505b600085146118c45760018261182a9190612a89565b9150600a856118399190612c4d565b60306118459190612a02565b60f81b818381518110611881577f4e487b7100000000000000000000000000000000000000000000000000000000600052603260045260246000fd5b60200101907effffffffffffffffffffffffffffffffffffffffffffffffffffffffffffff1916908160001a905350600a856118bd9190612a58565b9450611815565b8093505050505b919050565b600073ffffffffffffffffffffffffffffffffffffffff168273ffffffffffffffffffffffffffffffffffffffff161415611940576040517f08c379a000000000000000000000000000000000000000000000000000000000815260040161193790612848565b60405180910390fd5b61194981611249565b15611989576040517f08c379a000000000000000000000000000000000000000000000000000000000815260040161198090612768565b60405180910390fd5b61199560008383611a9e565b6001600360008473ffffffffffffffffffffffffffffffffffffffff1673ffffffffffffffffffffffffffffffffffffffff16815260200190815260200160002060008282546119e59190612a02565b92505081905550816002600083815260200190815260200160002060006101000a81548173ffffffffffffffffffffffffffffffffffffffff021916908373ffffffffffffffffffffffffffffffffffffffff160217905550808273ffffffffffffffffffffffffffffffffffffffff16600073ffffffffffffffffffffffffffffffffffffffff167fddf252ad1be2c89b69c2b068fc378daa952ba7f163c4a11628f55a4df523b3ef60405160405180910390a45050565b505050565b6000611ac48473ffffffffffffffffffffffffffffffffffffffff16611c3a565b15611c2d578373ffffffffffffffffffffffffffffffffffffffff1663150b7a02611aed6112b5565b8786866040518563ffffffff1660e01b8152600401611b0f949392919061267b565b602060405180830381600087803b158015611b2957600080fd5b505af1925050508015611b5a57506040513d601f19601f82011682018060405250810190611b579190611f4b565b60015b611bdd573d8060008114611b8a576040519150601f19603f3d011682016040523d82523d6000602084013e611b8f565b606091505b50600081511415611bd5576040517f08c379a0000000000000000000000000000000000000000000000000000000008152600401611bcc90612748565b60405180910390fd5b805181602001fd5b63150b7a0260e01b7bffffffffffffffffffffffffffffffffffffffffffffffffffffffff1916817bffffffffffffffffffffffffffffffffffffffffffffffffffffffff191614915050611c32565b600190505b949350505050565b600080823b905060008111915050919050565b6040518060800160405280600073ffffffffffffffffffffffffffffffffffffffff168152602001600063ffffffff1681526020016000151581526020016000151581525090565b6000611ca8611ca38461298f565b61295e565b905082815260208101848484011115611cc057600080fd5b611ccb848285612b66565b509392505050565b600081359050611ce281612d8e565b92915050565b600081359050611cf781612da5565b92915050565b600081359050611d0c81612dbc565b92915050565b600081519050611d2181612dbc565b92915050565b600082601f830112611d3857600080fd5b8135611d48848260208601611c95565b91505092915050565b600081359050611d6081612dd3565b92915050565b600081359050611d7581612de3565b92915050565b600060208284031215611d8d57600080fd5b6000611d9b84828501611cd3565b91505092915050565b60008060408385031215611db757600080fd5b6000611dc585828601611cd3565b9250506020611dd685828601611cd3565b9150509250929050565b600080600060608486031215611df557600080fd5b6000611e0386828701611cd3565b9350506020611e1486828701611cd3565b9250506040611e2586828701611d66565b9150509250925092565b60008060008060808587031215611e4557600080fd5b6000611e5387828801611cd3565b9450506020611e6487828801611cd3565b9350506040611e7587828801611d66565b925050606085013567ffffffffffffffff811115611e9257600080fd5b611e9e87828801611d27565b91505092959194509250565b60008060408385031215611ebd57600080fd5b6000611ecb85828601611cd3565b9250506020611edc85828601611ce8565b9150509250929050565b60008060408385031215611ef957600080fd5b6000611f0785828601611cd3565b9250506020611f1885828601611d66565b9150509250929050565b600060208284031215611f3457600080fd5b6000611f4284828501611cfd565b91505092915050565b600060208284031215611f5d57600080fd5b6000611f6b84828501611d12565b91505092915050565b600060208284031215611f8657600080fd5b6000611f9484828501611d51565b91505092915050565b600060208284031215611faf57600080fd5b6000611fbd84828501611d66565b91505092915050565b611fcf81612abd565b82525050565b611fde81612acf565b82525050565b6000611fef826129bf565b611ff981856129d5565b9350612009818560208601612b75565b61201281612d69565b840191505092915050565b61202681612b54565b82525050565b6000612037826129ca565b61204181856129e6565b9350612051818560208601612b75565b61205a81612d69565b840191505092915050565b6000612070826129ca565b61207a81856129f7565b935061208a818560208601612b75565b80840191505092915050565b60006120a36032836129e6565b91507f4552433732313a207472616e7366657220746f206e6f6e20455243373231526560008301527f63656976657220696d706c656d656e74657200000000000000000000000000006020830152604082019050919050565b6000612109601c836129e6565b91507f4552433732313a20746f6b656e20616c7265616479206d696e746564000000006000830152602082019050919050565b60006121496024836129e6565b91507f4552433732313a207472616e7366657220746f20746865207a65726f2061646460008301527f72657373000000000000000000000000000000000000000000000000000000006020830152604082019050919050565b60006121af6019836129e6565b91507f4552433732313a20617070726f766520746f2063616c6c6572000000000000006000830152602082019050919050565b60006121ef602c836129e6565b91507f4552433732313a206f70657261746f7220717565727920666f72206e6f6e657860008301527f697374656e7420746f6b656e00000000000000000000000000000000000000006020830152604082019050919050565b60006122556038836129e6565b91507f4552433732313a20617070726f76652063616c6c6572206973206e6f74206f7760008301527f6e6572206e6f7220617070726f76656420666f7220616c6c00000000000000006020830152604082019050919050565b60006122bb602a836129e6565b91507f4552433732313a2062616c616e636520717565727920666f7220746865207a6560008301527f726f2061646472657373000000000000000000000000000000000000000000006020830152604082019050919050565b60006123216029836129e6565b91507f4552433732313a206f776e657220717565727920666f72206e6f6e657869737460008301527f656e7420746f6b656e00000000000000000000000000000000000000000000006020830152604082019050919050565b60006123876020836129e6565b91507f4552433732313a206d696e7420746f20746865207a65726f20616464726573736000830152602082019050919050565b60006123c7602c836129e6565b91507f4552433732313a20617070726f76656420717565727920666f72206e6f6e657860008301527f697374656e7420746f6b656e00000000000000000000000000000000000000006020830152604082019050919050565b600061242d6023836129e6565b91507f43616e206f6e6c7920626520657865637574656420627920746865206d616e6160008301527f67657200000000000000000000000000000000000000000000000000000000006020830152604082019050919050565b60006124936029836129e6565b91507f4552433732313a207472616e73666572206f6620746f6b656e2074686174206960008301527f73206e6f74206f776e00000000000000000000000000000000000000000000006020830152604082019050919050565b60006124f9602f836129e6565b91507f4552433732314d657461646174613a2055524920717565727920666f72206e6f60008301527f6e6578697374656e7420746f6b656e00000000000000000000000000000000006020830152604082019050919050565b600061255f6021836129e6565b91507f4552433732313a20617070726f76616c20746f2063757272656e74206f776e6560008301527f72000000000000000000000000000000000000000000000000000000000000006020830152604082019050919050565b60006125c56031836129e6565b91507f4552433732313a207472616e736665722063616c6c6572206973206e6f74206f60008301527f776e6572206e6f7220617070726f7665640000000000000000000000000000006020830152604082019050919050565b61262781612b3a565b82525050565b61263681612b44565b82525050565b60006126488285612065565b91506126548284612065565b91508190509392505050565b60006020820190506126756000830184611fc6565b92915050565b60006080820190506126906000830187611fc6565b61269d6020830186611fc6565b6126aa604083018561261e565b81810360608301526126bc8184611fe4565b905095945050505050565b60006040820190506126dc6000830185611fc6565b6126e9602083018461261e565b9392505050565b60006020820190506127056000830184611fd5565b92915050565b6000602082019050612720600083018461201d565b92915050565b60006020820190508181036000830152612740818461202c565b905092915050565b6000602082019050818103600083015261276181612096565b9050919050565b60006020820190508181036000830152612781816120fc565b9050919050565b600060208201905081810360008301526127a18161213c565b9050919050565b600060208201905081810360008301526127c1816121a2565b9050919050565b600060208201905081810360008301526127e1816121e2565b9050919050565b6000602082019050818103600083015261280181612248565b9050919050565b60006020820190508181036000830152612821816122ae565b9050919050565b6000602082019050818103600083015261284181612314565b9050919050565b600060208201905081810360008301526128618161237a565b9050919050565b60006020820190508181036000830152612881816123ba565b9050919050565b600060208201905081810360008301526128a181612420565b9050919050565b600060208201905081810360008301526128c181612486565b9050919050565b600060208201905081810360008301526128e1816124ec565b9050919050565b6000602082019050818103600083015261290181612552565b9050919050565b60006020820190508181036000830152612921816125b8565b9050919050565b600060208201905061293d600083018461261e565b92915050565b6000602082019050612958600083018461262d565b92915050565b6000604051905081810181811067ffffffffffffffff8211171561298557612984612d3a565b5b8060405250919050565b600067ffffffffffffffff8211156129aa576129a9612d3a565b5b601f19601f8301169050602081019050919050565b600081519050919050565b600081519050919050565b600082825260208201905092915050565b600082825260208201905092915050565b600081905092915050565b6000612a0d82612b3a565b9150612a1883612b3a565b9250827fffffffffffffffffffffffffffffffffffffffffffffffffffffffffffffffff03821115612a4d57612a4c612c7e565b5b828201905092915050565b6000612a6382612b3a565b9150612a6e83612b3a565b925082612a7e57612a7d612cad565b5b828204905092915050565b6000612a9482612b3a565b9150612a9f83612b3a565b925082821015612ab257612ab1612c7e565b5b828203905092915050565b6000612ac882612b1a565b9050919050565b60008115159050919050565b60007fffffffff0000000000000000000000000000000000000000000000000000000082169050919050565b6000819050612b1582612d7a565b919050565b600073ffffffffffffffffffffffffffffffffffffffff82169050919050565b6000819050919050565b600063ffffffff82169050919050565b6000612b5f82612b07565b9050919050565b82818337600083830152505050565b60005b83811015612b93578082015181840152602081019050612b78565b83811115612ba2576000848401525b50505050565b6000612bb382612b44565b91506000821415612bc757612bc6612c7e565b5b600182039050919050565b60006002820490506001821680612bea57607f821691505b60208210811415612bfe57612bfd612d0b565b5b50919050565b6000612c0f82612b3a565b91507fffffffffffffffffffffffffffffffffffffffffffffffffffffffffffffffff821415612c4257612c41612c7e565b5b600182019050919050565b6000612c5882612b3a565b9150612c6383612b3a565b925082612c7357612c72612cad565b5b828206905092915050565b7f4e487b7100000000000000000000000000000000000000000000000000000000600052601160045260246000fd5b7f4e487b7100000000000000000000000000000000000000000000000000000000600052601260045260246000fd5b7f4e487b7100000000000000000000000000000000000000000000000000000000600052602160045260246000fd5b7f4e487b7100000000000000000000000000000000000000000000000000000000600052602260045260246000fd5b7f4e487b7100000000000000000000000000000000000000000000000000000000600052604160045260246000fd5b6000601f19601f8301169050919050565b60068110612d8b57612d8a612cdc565b5b50565b612d9781612abd565b8114612da257600080fd5b50565b612dae81612acf565b8114612db957600080fd5b50565b612dc581612adb565b8114612dd057600080fd5b50565b60068110612de057600080fd5b50565b612dec81612b3a565b8114612df757600080fd5b5056fea26469706673582212201940d7c8433313dea8d6cec1a019c32af136410a0673a03ee83e4aa28219d34464736f6c63430008000033",
  "immutableReferences": {},
  "source": "// SPDX-License-Identifier: UNLICENSED\npragma solidity 0.8.0;\nimport \"@openzeppelin/contracts/token/ERC721/ERC721.sol\";\n\ncontract Event is ERC721 {\n\n    enum Stages { Prep, Active, Paused, CheckinOpen, Cancelled, Closed }\n    Stages public stage = Stages.Prep;\n    // Ticket struct \n    struct Ticket {\n        address owner;\n        uint32 price;\n        bool forSale;\n        bool used;\n    }\n    Ticket[] tickets; \n    uint32 public numTicketsLeft;\n    uint32 public price;\n    // Percent royalty event creator receives from ticket resales\n    uint32 public royaltyPercent;\n    // For each user, store corresponding ticket struct\n    // mapping(address => Ticket) tickets;\n    bool public canBeResold;\n    address public owner;\n\n    // EVENTS\n    event CreateTicket(address buyer, uint ticketID);\n\n    // Creates a new Event Contract\n    constructor(uint32 _numTickets, uint32 _price, bool _canBeResold, uint32 _royaltyPercent, string memory _eventName, string memory _eventSymbol) ERC721(_eventName, _eventSymbol) {\n        owner = msg.sender;\n        numTicketsLeft = _numTickets;\n        price = _price;\n        canBeResold = _canBeResold;\n        royaltyPercent = _royaltyPercent;\n    }\n\n    // Customer purchases a ticket from Organizer\n    // Checks: State is Active, has enough money, \n    function buyTicket() public payable requiredStage(Stages.Active) ticketsLeft hasEnoughMoney(msg.value) {\n        // Create Ticket t\n        Ticket memory t;\n        t.owner = msg.sender;\n        t.price = price;\n        t.forSale = false;\n        t.used = false;\n\n        // Store t in tickets array, reduce numTicketsLeft\n        tickets.push(t);\n        uint ticketID = tickets.length;\n        numTicketsLeft--;\n\n        // Mint NFT\n        _mint(msg.sender, ticketID);\n        emit CreateTicket(msg.sender, ticketID);\n    }\n\n    // Set new stage\n    function setStage(Stages _stage) public restricted {\n        stage = _stage;\n    }\n\n\n\n\n    // MODIFIERS\n\n    // Only owner\n    modifier restricted() {\n        require (msg.sender == owner, \"Can only be executed by the manager\");\n        _;\n    }\n\n    // Requires stage to be _stage\n    modifier requiredStage(Stages _stage) {\n        require(stage == _stage);\n        _;\n    }\n\n    // Requires there to be more than 0 tickets left\n    modifier ticketsLeft() {\n        require(numTicketsLeft > 0);\n        _;\n    }\n\n    modifier hasEnoughMoney(uint money) {\n        require(money >= price);\n        _;\n    }\n\n}",
  "sourcePath": "/Users/michaelgysel/Desktop/GDrive/Classes/CURRENT - T2 2021/COMP6452/Projects/Project 2/code/src/contracts/Event.sol",
  "compiler": {
    "name": "solc",
    "version": "0.8.0+commit.c7dfd78e.Emscripten.clang"
  },
  "schemaVersion": "3.4.1",
  "updatedAt": "2021-07-11T06:38:30.290Z",
  "devdoc": {
    "kind": "dev",
    "methods": {
      "approve(address,uint256)": {
        "details": "See {IERC721-approve}."
      },
      "balanceOf(address)": {
        "details": "See {IERC721-balanceOf}."
      },
      "getApproved(uint256)": {
        "details": "See {IERC721-getApproved}."
      },
      "isApprovedForAll(address,address)": {
        "details": "See {IERC721-isApprovedForAll}."
      },
      "name()": {
        "details": "See {IERC721Metadata-name}."
      },
      "ownerOf(uint256)": {
        "details": "See {IERC721-ownerOf}."
      },
      "safeTransferFrom(address,address,uint256)": {
        "details": "See {IERC721-safeTransferFrom}."
      },
      "safeTransferFrom(address,address,uint256,bytes)": {
        "details": "See {IERC721-safeTransferFrom}."
      },
      "setApprovalForAll(address,bool)": {
        "details": "See {IERC721-setApprovalForAll}."
      },
      "supportsInterface(bytes4)": {
        "details": "See {IERC165-supportsInterface}."
      },
      "symbol()": {
        "details": "See {IERC721Metadata-symbol}."
      },
      "tokenURI(uint256)": {
        "details": "See {IERC721Metadata-tokenURI}."
      },
      "transferFrom(address,address,uint256)": {
        "details": "See {IERC721-transferFrom}."
      }
    },
    "version": 1
  },
  "userdoc": {
    "kind": "user",
    "methods": {},
    "version": 1
  }
}